:020000040800F2
:100000005806002001010008C53200086D2E0008C6
:10001000C1320008E1090008113B0008000000009F
:100020000000000000000000000000008133000814
:10003000210A000800000000C732000891330008C0
:100040001B0100081B0100081B0100081B01000820
:100050001B0100081B0100081B0100082F0A0008F3
:100060001B0100081B010008390A00081B010008D9
:100070001B0100081B0100081B010008E50900081E
:100080001B0100081B0100081B0100081B010008E0
:100090001B0100081B0100081B010008430A00089F
:1000A0001B0100087D3400081B0100081B0100082B
:1000B0001B0100081B0100081B0100081B010008B0
:1000C0001B0100081B0100081B0100081B010008A0
:1000D0001B010008E53A00081B0100081B0100088D
:1000E000230A00081B0100081B010008DFF80CD0E0
:1000F00000F0F8FB00480047C952000858060020ED
:100100000648804706480047FEE7FEE7FEE7FEE7B1
:10011000FEE7FEE7FEE7FEE7FEE7FEE72534000820
:10012000ED000008202A04DB203A21FA02F0002129
:10013000704721FA02F3D040C2F1200291400843F7
:100140001946704710B540EA01040346A40703D0DE
:1001500009E010C9121F10C3042AFAD203E011F8F3
:10016000014B03F8014B521EF9D210BDD2B201E08F
:1001700000F8012B491EFBD270470022F6E710B5AC
:1001800013460A4604461946FFF7F0FF204610BD05
:10019000F0B480EA0102D40F4200B2EB410F02D268
:1001A0000246084611464A0042D0C30DDDB2C1F3F3
:1001B000C752AD1A202D35DAC1F3160141F4000201
:1001C00004B15242C5F1200602FA06F12A41104458
:1001D000B3EBD05F23D0C4B1012DA0EBC35009DC39
:1001E000F0BC4FF0004202EAC352DBB200F500005F
:1001F00000F0ECBA400000F1807000EBC350A0F1B9
:10020000807040EAD170490009E0490841EAC071B4
:10021000A0EBC35000F50000400800EBC350F0BC59
:1002200000F0CBBA6142012202EB4101001BF6E76C
:10023000F0BC704781F00041AAE780F00040A7E7DA
:1002400080EA010210B502F00043400022D04A00CB
:100250001FD0010E01EB1261C0F35600C2F356022B
:1002600040F4000042F40002A0FB022000047F39A9
:10027000140400D0401C50EA124001D44000491E32
:10028000C2B20C0604EBD010401C4008802A02D0F9
:1002900003E0002010BD20F00100002900DA00205A
:1002A000184310BD2DE9FE4F804681EA0300C00FC0
:1002B0000C46009021F0004123F00045B8EB02000D
:1002C000A94105D24046214690461C460B460246AF
:1002D00023F00040104347D0270DC7F30A00C3F3B3
:1002E0000A510290401A019040286BDAC3F31300C0
:1002F00040F4801B0098924620B10023D2EB030A01
:1003000063EB0B0B01985946C0F14002504600F0D8
:1003100033FA06460D4650465946019A00F03BFA1C
:1003200010EB08006141002487EA115284EAE77368
:100330001A4340D0009A62B3019A012A4FEA075249
:1003400015DC001B61EB02014FF0004202EA07528C
:10035000CDE90042001C41F5801132462B4600F0E9
:1003600072FA03B0BDE8F08F40462146F9E7001B62
:1003700061EB0201001C41F5801300185B4120185D
:10038000A2F5001747EB030140EAD570B6196D419D
:1003900011E06D084FEA360645EAC0754FEA07528C
:1003A000001B61EB0201001C41F5801149084FEA76
:1003B00030000019514132462B4603B0BDE8F04FE2
:1003C00000F032BA0098012240000023D0EB020274
:1003D00063EBE073009821464FEAE074B8EB00004D
:1003E00061EB0401E9E783F000435BE781F0004142
:1003F00058E72DE9FE4F81EA030404F0004421F0A0
:10040000004100944FF0000B23F0004350EA010438
:100410005ED052EA03045BD0C3F30A54C1F30A5519
:100420002C44A4F2F3340194A0FB0254C1F3130151
:1004300041F48011C3F3130343F4801301FB02441E
:1004400000FB034E840A970A44EA815447EA835723
:10045000A4FB076802958D0A05FB07854FEA932CDC
:1004600004FB0C542705029D4FEA065847EA16374D
:10047000B5EB08056EEB070C870E920E47EA811765
:1004800042EA8312A7FB0201B6EB0B0164EB000406
:100490002B0D43EA0C335E1844EB1C50DA465146F0
:1004A000E7FB0201C5F313044FEA0B3343EA14538D
:1004B0004FEA0432019C43EA0603A4F10C040294BF
:1004C000009CCDE900B400F0BEF903B0BDE8F08FA8
:1004D00000200146F9E72DE9F04D81EA030404F01C
:1004E000004B21F0004514464FF0000A23F0004174
:1004F00050EA050220D054EA01021DD0C5F30A5784
:100500000246C5F31303C1F31300C1F30A5640F4C6
:10051000801543F48013A7EB0608101BD64608F29B
:10052000FD3873EB050002D308F1010801E09218D1
:100530005B41B8F1000F03DA00200146BDE8F08D01
:1005400000204FF48011064684460EE0171B73EB23
:10055000050705D3121B63EB050306434CEA010CA8
:1005600049084FEA300092185B4150EA0107EDD18B
:1005700052EA030012D082EA040083EA050108432C
:1005800005D0101BAB4106D20122002306E0002259
:100590004FF0004302E06FF0010253101AEB060027
:1005A0004CEB085110EB0A0041EB0B01BDE8F04D9C
:1005B00000F03AB996230022114600F007B90EB5B3
:1005C00040F2334102910021CDE900110A460B4669
:1005D00000F039F903B000BD00F0004220F0004007
:1005E000C10DC0F3160040F400007F2901DA00209D
:1005F0007047962903DCC1F19601C84001E09639A5
:100600008840002AF4D04042704720F00040C10DDD
:10061000C0F3160040F400007F2901DA0020704783
:10062000962903DCC1F19601C8407047963988408D
:100630007047C1F30A5210B5C1F3130140F2FF3302
:1006400041F480119A4201DA002010BD40F2334398
:100650009A42A2F2334203DC5242FFF763FD10BD1F
:10066000904010BD00F0004230F000400AD0C10DB3
:1006700001F56071C0F3160042EA0151C20840075B
:1006800011437047002001467047000030B5041E3A
:1006900071F1000404DB4FF00044404264EB0101BF
:1006A000141E73F1000405DB1C464FF00043524258
:1006B00063EB04038B4208BF824230BD30B5041E99
:1006C00071F1000404DB4FF00044404264EB01018F
:1006D000141E73F1000405DB1C464FF00043524228
:1006E00063EB0403994208BF904230BD01F0004320
:1006F00030B421F0004150EA010206D00A0DA2F503
:100700006072C1F31301002A02DC30BC0020704784
:10071000440F44EAC104C100E01830BC00EBC250F1
:1007200000F04BB8002801DBC0F10040002901DBDC
:10073000C1F1004181427047002801DBC0F1004057
:10074000002901DBC1F100418842704730B50B46FA
:10075000014600202022012409E021FA02F59D42F1
:1007600005D303FA02F5491B04FA02F52844151EC5
:10077000A2F10102F1DC30BD202A04DB203A00FAAC
:1007800002F1002070479140C2F1200320FA03F3E8
:10079000194390407047202A06DBCB17203A41FAD4
:1007A00002F043EAE07306E041FA02F3D040C2F1FE
:1007B000200291400843194670470029A8BF70479E
:1007C000401C490008BF20F00100704710B4B0FA87
:1007D00080FC00FA0CF050EA010404BF10BC704722
:1007E00049B1CCF1200421FA04F411FA0CF118BF3C
:1007F000012121430843A3EB0C01CB1D4FEA00610B
:100800004FEA102042BF002010BC704700EBC350DD
:1008100010440029A4BF10BC7047401C490008BF09
:1008200020F0010010BC704710B5141E73F10004D5
:1008300008DA401C41F1000192185B411A4301D1D2
:1008400020F0010010BD2DE9F04D92469B4611B1FC
:10085000B1FA81F202E0B0FA80F220329046FFF75E
:100860008BFF04460F4640EA0A0041EA0B0153465B
:100870005A46084313D0114653EA010019D0C8F173
:1008800040025046FFF74EFC05460E46504659467C
:100890004246FFF771FF084305D0012004E02046DF
:1008A0003946BDE8F08D0020054346EAE0762C434A
:1008B00037430A986305E40AA0EB08000022FD0A0A
:1008C00044EA47540A3002D500200146E9E7010511
:1008D00010196941DDE9084500196941BDE8F04D8D
:1008E000A2E70000064C074D06E0E06840F0010377
:1008F00094E8070098471034AC42F6D3FFF7FAFBB0
:10090000606300088063000870B504460025206815
:10091000806800F00100F0B12068806820F00100DC
:100920002168886001F0D8F805460EE001F0D4F89F
:10093000401B022809D9A06A40F01000A062E06ABA
:1009400040F00100E062012070BD2068806800F086
:1009500001000028EAD10020F6E7000038B504467F
:100960000025002000902068806800F0010080BB16
:100970002068806840F0010021688860164800689F
:100980001649B0FBF1F0009002E00098401E009084
:1009900000980028F9D101F09FF8054613E001F016
:1009A0009BF8401B02280ED9A06A40F01000A062FC
:1009B000E06A40F00100E06200BF002084F82400FB
:1009C00000BF012038BD2068806800F001000028C9
:1009D000E5D00020F6E700000400002040420F00B0
:1009E00000BFFEE710B5024800F0A8FC10BD0000F3
:1009F0005801002030B590F840500124AC40C56B40
:100A00006C60046863604468102C04D10468A260C0
:100A10000468E16003E00468A1600468E26030BD3E
:100A2000704710B54FF4004000F0AAFE10BD10B59D
:100A3000022000F0A5FE10BD10B5102000F0A0FEB1
:100A400010BD10B5202000F09BFE10BD70470000C7
:100A50000022054BDA61054A126942F00102034B9C
:100A60001A61018070470000380200200020024017
:100A700000201E49C96801F0100139B11C49C9693B
:100A800041F002011A4AD16140F010001749C968CB
:100A900001F0040139B11649C96941F00101144A54
:100AA000D16140F004001149C96901F0010169B147
:100AB0000F49C96941F004010D4AD16100BF0B49DA
:100AC000C96921F00101094AD16100BF00BF40F2AC
:100AD0000111884206D10549C96921F00101034A83
:100AE000D16101E00149C86000BF704700200240A9
:100AF0003802002070B5044600F0EEFF054609E01C
:100B0000601C38B124B100F0E7FF401BA04201D9BE
:100B1000032070BD1248C06800F001000028EFD12A
:100B20000F48C06800F0200020B100BF20200C4911
:100B3000C86000BF0A48C06800F0100048B9084803
:100B4000C06900F0010020B90548C06800F0040049
:100B500018B1FFF78DFF0120DBE70020D9E7000087
:100B6000002002402DE9F04F89B082464FF0000B83
:100B7000002405E0002002A941F82400601CC4B252
:100B8000072CF7DB4FF0000922E000241AE03A4876
:100B900000F0E4FA4FF6FF71374800F027FA3648C4
:100BA00000F030F9834602A850F82400584402A906
:100BB00041F824003148834502D9002041F824003F
:100BC000601CC4B2072CE2DB09F1010000F0FF0950
:100BD000D145DADB002409E002A850F82400B0FB7C
:100BE000FAF002A941F82400601CC4B2072CF3DB20
:100BF000002419E00898FFF7E2FC07460022204B8A
:100C0000FFF7F7FB054600221E4BFFF7ECFBCDE993
:100C10000001FFF70EFD02A951F82410084402A9B3
:100C200041F82400601CC4B2062CE3DB01240EE072
:100C300015494A6802A931F8241088B2002103F04E
:100C400061FF611E104A42F82100601CC4B2062CEC
:100C5000EEDB0D494A68029988B2012103F052FF88
:100C60000949086002A850F82920494607A002F067
:100C70006DFF09B0BDE8F08F6800002020A10700DB
:100C80000000064000FEAF40A801002061646342FE
:100C900075665B25645D2069733A20202025640A0F
:100CA0000000000038B5024600230020009000BF7D
:100CB00092F82400012801D1022038BD012082F8D9
:100CC000240000BF4868072812D21068406B0C79D6
:100CD000641E04EB84051F24AC40A0430D796D1EF7
:100CE00005EB85050C68AC4020431468606327E081
:100CF00048680D2812D21068006B0C79E41F04EBD1
:100D000084051F24AC40A0430D79ED1F05EB85053C
:100D10000C68AC4020431468206311E01068C06A7E
:100D20000C790D3C04EB84051F24AC40A0430D79E5
:100D30000D3D05EB85050C68AC4020431468E0626E
:100D400008680A2812D31068C0680C780A3C04EBC3
:100D500044050724AC40A0430D780A3D05EB45054A
:100D60008C68AC4020431468E0600FE010680069B4
:100D70000C7804EB44050724AC40A0430D7805EB48
:100D800045058C68AC402043146820610868102831
:100D900002D00868112827D1174C1068A0421ED134
:100DA0001068806800F40000F0B91068806840F4B2
:100DB00000001468A0600868102815D10F4800686A
:100DC0000F4CB0FBF4F000EB80004000009002E01C
:100DD0000098401E009000980028F9D104E0906A25
:100DE00040F020009062012300BF002082F8240020
:100DF00000BF184661E70000002401400400002005
:100E000040420F0001460868C06C70472DE9F04170
:100E10000446002700250026A84614B90120BDE895
:100E2000F081A06810B1207D00B100BFA06A30B988
:100E30000020E06284F82400204600F089F8204673
:100E4000FFF762FD0746A06A00F01000002873D18A
:100E5000002F71D1A06A20F4885040F00200A062F7
:100E6000E16960680843217B40EA41000643A068CD
:100E7000B0F5807F02D0A068012802D14FF48070C5
:100E800000E000200543207D012811D1207B38B9E6
:100E9000A069401E4FF4006141EA4030054307E07D
:100EA000A06A40F02000A062E06A40F00100E06229
:100EB0002068406820F46940284321684860206821
:100EC000806821490840304321688860A068B0F5F7
:100ED000807F02D0A068012802D14FF4807000E02A
:100EE0000020B0F5807F03D1208A401E4FEA0058D1
:100EF0002068C06A20F4700040EA08002168C862D7
:100F00002068806811490840B04208D10020E062A2
:100F1000A06A20F0020040F00100A06211E0A06A87
:100F200020F0020040F01000A062E06A40F00100F2
:100F3000E062012705E0FFE7A06A40F01000A06230
:100F4000012738466BE70000FDF7E1FFFE0E1FFFAB
:100F500010B586B0044600200290039004900590DE
:100F60001E492068884237D100BF1D48806940F47F
:100F700000701B4988610846806900F40070019088
:100F800000BF00BF00BF0846806940F004008861D0
:100F90000846806900F00400019000BF00BF00BF58
:100FA0000846806940F0080088610846806900F0C2
:100FB0000800019000BF00BFCE20029003200390E4
:100FC00002A9084800F0EAFB0120029003200390E8
:100FD00002A9054800F0E2FB06B010BD0024014064
:100FE0000010024000080140000C0140F8B5044622
:100FF0000D46002600200090002700F06DFD0646FB
:101000002068806800F4807050B1A06A40F0200031
:10101000A06200BF002084F8240000BF0120F8BDBA
:101020002068406800F48070F8B92068C06A00F455
:101030007000D0B912E0681C80B125B100F04CFD01
:10104000801BA8420AD9A06A40F00400A06200BF39
:10105000002084F8240000BF0320E0E72068006837
:1010600000F002000028E6D050E0022000F00CFE64
:1010700036490968B1FBF0F021680969344A11402A
:1010800091B92168C9689211114069B9216809694B
:10109000304A114031B92168C9689211114009B92B
:1010A000142117E0292115E021680969294A114016
:1010B00021B92168C9689211114041B121680969BB
:1010C000254A114029B92168C968114009B954213C
:1010D00000E0FC2100FB01F715E0681C80B125B1A0
:1010E00000F0FAFC801BA8420AD9A06A40F0040074
:1010F000A06200BF002084F8240000BF03208EE718
:101100000098401C00900098B842E6D36FF012009F
:1011100021680860A06A40F40070A06220688068BE
:1011200000F46020B0F5602F0DD1207B58B9A06A83
:1011300020F48070A062A06A00F4805018B9A06A00
:1011400040F00100A062002069E7000004000020D8
:1011500024499224922449124992240070B50446ED
:10116000002500BF94F82400012801D1022070BDA1
:10117000012084F8240000BF2046FFF7EFFB05465E
:10118000002D77D1A06A40F20121884340F480709D
:10119000A0623C492068884208D13B48006800F4BE
:1011A000702008B9012002E0002000E0012078B1A1
:1011B000A06A20F48010A0622068406800F480607B
:1011C00000B3A06A20F4005040F48050A06219E0FF
:1011D000A06A40F48010A0622B49091F2068884251
:1011E00003D028492068884204D12748006800F4C9
:1011F000806000E0002028B1A06A20F4005040F494
:101200008050A062A06A00F4805020B1E06A20F013
:101210000600E06201E00020E06200BF002084F8E8
:10122000240000BFC01E216808602068806800F4A8
:101230006020B0F5602F16D112492068884208D18D
:101240001148006800F4702008B9012002E0002075
:1012500000E0012038B12068806840F4A0002168D7
:1012600088600CE006E02068806840F48010216807
:10127000886004E000BF002084F8240000BF2846F6
:1012800075E70000002801400424014070B50446C1
:10129000002594F82100022803D00420A063012532
:1012A00048E02068006820F00E002168086020688F
:1012B000006820F00100216808601F49206888420A
:1012C00001D1012026E01C4914312068884201D157
:1012D00010201FE0184928312068884201D180156C
:1012E00018E015493C312068884201D1801411E092
:1012F000114950312068884202D14FF4803009E012
:101300000D4964312068884202D14FF4801001E019
:101310004FF08070084908394860012084F82100A6
:1013200000BF002084F8200000BF606B10B1204691
:10133000616B8847284670BD0800024070B50446BE
:10134000E06B05682068066894F840100420884027
:101350002840002846D006F00400002842D020682B
:10136000006800F0200028B92068006820F0040020
:101370002168086057492068884201D1042027E08D
:10138000544914312068884201D1402020E051495D
:1013900028312068884201D1001519E04D493C31BF
:1013A0002068884202D14FF4804011E04949503111
:1013B0002068884202D14FF4802009E04549643119
:1013C0002068884202D14FF4800001E04FF0806035
:1013D000404908394860E06A00287AD02046E16A2E
:1013E000884776E094F84010022088402840A0B357
:1013F00006F0020088B32068006800F0200040B9C1
:101400002068006820F00A0021680860012084F844
:10141000210030492068884201D1022028E02D496E
:1014200014312068884201D1202021E02949283147
:101430002068884201D140151AE026493C312068D5
:10144000884202D14FF4005012E022495031206806
:10145000884203D14FF400300AE017E01D4964319F
:101460002068884202D14FF4001001E04FF0007074
:1014700018490839486000BF002084F8200000BFE8
:10148000A06A30B32046A16A884722E094F8401051
:10149000082088402840E0B106F00800C8B1206864
:1014A000006820F00E002168086094F840100120C8
:1014B0008840E16B48600120A06384F8210000BFF0
:1014C000002084F8200000BF206B10B12046216B63
:1014D000884770BD080002400146002209B901207A
:1014E0007047164B0868C01A1423B0FBF3F0800055
:1014F000086412480838C863022081F8210008688F
:10150000026843F6F0708243D1E901031843CB68C7
:1015100018430B6918434B6918438B691843CB690F
:10152000184302430868026000208863012081F8A4
:101530002100002081F8200000BFD1E70800024010
:101540002DE9F04104460D4616461F464FF00008AF
:1015500000BF94F82000012802D10220BDE8F081EC
:10156000012084F8200000BF94F8210001282CD12C
:10157000022084F821000020A0632068006820F089
:101580000100216808603B46324629462046FFF7A5
:1015900031FAE06A30B12068006840F00E0021683E
:1015A00008600BE02068006820F0040021680860F3
:1015B0002068006840F00A00216808602068006820
:1015C00040F001002168086006E000BF002084F8B8
:1015D000200000BF4FF002084046BFE70348006903
:1015E00040F080000149086100207047002002405F
:1015F0002DE9FE4F05468B461746984601260024E6
:101600000020029000BF2448007E012802D1022061
:10161000BDE8FE8F01202049087600BF4CF2503013
:10162000FFF768FA064686BB012D02D10120029021
:1016300006E0022D02D10220029001E00420029077
:1016400000241EE02201B946C24648465146FEF734
:1016500069FD80B20190022000FB04B00090019966
:10166000FFF7F6F94CF25030FFF744FA06460B4804
:10167000006920F001000949086106B104E0601C1E
:10168000C4B202988442DDDB00BF00BF00200249E3
:10169000087600BF3046BBE7380200200020024039
:1016A00000200849096901F0800151B10649054A45
:1016B0005160064951601146096901F0800101B18C
:1016C000012070470020024023016745AB89EFCD20
:1016D00070B504464CF2503500BF281EA5F1010537
:1016E000FBD1022C0FD10221214800F0E7F900289C
:1016F0003DD100F0F1F91F4948600846407840F0BC
:101700000100487033E0102C0ED110211A4800F06F
:10171000D5F960BB00F0E0F916494860084640780A
:1017200040F04000487022E0202C0ED120211248C9
:1017300000F0C4F9D8B900F0CFF90E494860084666
:10174000407840F01000487011E0B4F5004F0ED121
:101750004FF40041094800F0B1F940B900F0BCF97C
:10176000044948600846407840F00400487070BD65
:10177000000C01409C0100200008014000100140C5
:1017800010B5044604480068204020B102480460B7
:101790002046FFF79DFF10BD140401402DE9F847D6
:1017A0000346002294466EE14FF0010808FA02F465
:1017B000D1F8008008EA0400A0427DD1DFF8DCA265
:1017C000D1F80480A8EB0A09D0453AD014DCB8F16E
:1017D000030F50D009DCB8F1000F31D0B8F1010F80
:1017E0001CD0B8F1020F49D120E0B8F1110F18D088
:1017F000B8F1120F42D11EE0B9F5881F25D006DCE2
:10180000B9F5803F20D0B9F5801F37D11AE0B9F57E
:10181000001F18D0B9F5041F30D117E0D1F80CC063
:101820002DE0D1F80C8008F1040C28E0D1F80C80F0
:1018300008F1080C23E0D1F80C8008F10C0C1EE034
:1018400000BF00BF00BF00BF00BF00BFD1F80880CD
:10185000B8F1000F02D14FF0040C0BE0D1F8088072
:10186000B8F1010F03D14FF0080C1C6102E04FF0FA
:10187000080C5C6103E04FF0000C00E000BF00BF0B
:10188000FF2801D8984601E003F104084646FF28E6
:1018900002D84FEA820803E0A2F108084FEA88085C
:1018A0004746D6F800804FF00F0909FA07F928EAF1
:1018B00009080CFA07F900E088E048EA0908C6F8C8
:1018C0000080D1F8048008F08058B8F1805F7DD1A5
:1018D00000BFDFF8CC81D8F8188048F00108DFF8A5
:1018E000C091C9F81880C846D8F8188008F00108D7
:1018F000CDF8008000BF00BF4FEAB9384FEA920927
:1019000058F829504FEA82784FEA18794FF00F08BB
:1019100008FA09F825EA0805DFF88881434502D16D
:101920004FF0000816E0DFF88081434502D14FF008
:1019300001080FE0DFF87481434502D14FF002083F
:1019400008E0DFF86C81434502D14FF0030801E065
:101950004FF004084FEA82794FEA197908FA09F83A
:1019600048EA0505DFF84C814FEA920948F829500A
:10197000D1F8048008F48038B8F5803F0AD1DFF848
:101980003881D8F8008048EA0008DFF82C91C9F8BF
:10199000008009E0DFF82081D8F8008028EA0008FC
:1019A000DFF81491C9F80080D1F8048008F40038F9
:1019B000B8F5003F10D1DFF8008108F10408D8F82D
:1019C000008048EA0008DFF8F09000E05AE009F1F2
:1019D0000409C9F800800DE0DFF8DC8008F1040894
:1019E000D8F8008028EA0008DFF8CC9009F1040953
:1019F000C9F80080D1F8048008F48018B8F5801F79
:101A00000ED1DFF8B48008F10808D8F8008048EA61
:101A10000008DFF8A49009F10809C9F800800DE07A
:101A2000DFF8948008F10808D8F8008028EA000858
:101A3000DFF8849009F10809C9F80080D1F8048022
:101A400008F40018B8F5001F0ED1DFF86C8008F11B
:101A50000C08D8F8008048EA0008DFF85C9009F12B
:101A60000C09C9F800800DE0DFF84C8008F10C0883
:101A7000D8F8008028EA0008DFF83C9009F10C094A
:101A8000C9F80080521CD1F8008028FA02F8B8F199
:101A9000000F7FF489AEBDE8F88700000000111048
:101AA0000010024000080140000C014000100140FD
:101AB0000014014008000140000401400246936800
:101AC0000B400BB1012000E0002070470AB101611A
:101AD00001E00B0403617047014800687047000093
:101AE0005C00002003480068034909780844014964
:101AF000086070475C0000206400002010B50848B2
:101B0000006840F0100006490860032000F0A8F8C3
:101B1000002000F007F800F02BF8002010BD0000B6
:101B20000020024070B504460E4800784FF47A71E8
:101B3000B1FBF0F00C490968B1FBF0F5284600F064
:101B40002FFD08B1012070BD102C07D200222146C4
:101B5000501E00F047F80548046001E00120F2E75C
:101B60000020F0E764000020040000206000002056
:101B700008B500BF1148806940F001000F49886135
:101B80000846806900F00100009000BF00BF00BF60
:101B90000846C06940F08050C8610846C06900F03E
:101BA0008050009000BF00BF00BF0549486820F08A
:101BB000E06040F00070486000BF08BD00100240C7
:101BC0000000014001460846002809DB00F01F0321
:101BD00001229A4043099B0003F1E023C3F800214E
:101BE00000BF70472DE9F05F80460D46164600277E
:101BF00001F0BCFF074639462A46334601F007008C
:101C0000C0F1070ABAF1040F02D94FF0040A01E04B
:101C1000C0F1070AD14600F1040ABAF1070F02D257
:101C20004FF0000A01E0A0F1030AD4464FF0010A88
:101C30000AFA09FAAAF1010A0AEA020A0AFA0CFAED
:101C40004FF0010B0BFA0CFBABF1010B0BEA030B92
:101C50004AEA0B042146404601F090FFBDE8F09FA0
:101C600000BF00F00702064B19684FF6FF0319404A
:101C7000044B0B4343EA0221014B196000BF70473C
:101C80000CED00E00000FA052DE9F04385B00646B2
:101C90003BA30FCB01AC0FC43DA0006800904FF0F8
:101CA0000008002500270024A146012E30D0022E76
:101CB00055D0102E5ED137484468006800F080701F
:101CC00000B301A8C4F38341475C04F4803070B1D1
:101CD00030484068C0F340401DF8008004F4803074
:101CE00040B12D48B0FBF8F000FB07F502E02B48AF
:101CF00007FB00F52748406800F48000B0F5800F2E
:101D000001D1A94603E068000321B0FBF1F932E0FC
:101D10002048046A04F44070B0F5807F05D104F0D7
:101D2000020010B14FF4004918E004F44070B0F51F
:101D3000007F07D11748406A00F0020010B149F651
:101D400040490BE004F44070B0F5407F06D11148E3
:101D5000006800F4003008B14FF224490BE000F0B5
:101D600093F90C494968C1F38131491C4900B0FB22
:101D7000F1F900E000BF00BF484605B0BDE8F083C0
:101D800002030405060708090A0B0C0D0E0F1010BC
:101D9000010200000010024000127A0000093D001C
:101DA000F8B5044600260025207800F00100002840
:101DB0006BD000274348C06900F0805070B900BF65
:101DC0004048C06940F080503E49C8610846C0693B
:101DD00000F08050009000BF00BF01273A48006823
:101DE00000F48070B0B93848006840F4807036491B
:101DF0000860FFF771FE064606E0FFF76DFE801BE8
:101E0000642801D90320F8BD2F48006800F48070D1
:101E10000028F2D02B48006A00F440752DB3A0884A
:101E200000F44070A84220D02648006A20F4407593
:101E3000012026490860002008602248056205F05C
:101E4000010090B1FFF748FE064608E0FFF744FEA8
:101E5000801B41F28831884201D90320D3E7194819
:101E6000006A00F002000028F0D01648006A20F452
:101E700040706168084313490862012F04D1084685
:101E8000C06920F08050C86100BF207800F00200D7
:101E9000022807D10B48406820F44040A16808435D
:101EA00008494860207800F01000102807D1054844
:101EB000406820F48000E16808430249486000203F
:101EC000A1E70000001002400070004040044242C0
:101ED00070B504460D460CB9012070BD5A48006823
:101EE00000F00700A8420ED25748006820F0070013
:101EF0002843554908600846006800F00700A842DA
:101F000001D00120E9E7207800F0020002281DD16D
:101F1000207800F00400042805D14C48406840F4C3
:101F2000E0604A494860207800F00800082805D1A0
:101F30004648406840F4605044494860434840681F
:101F400020F0F000A168084340494860207800F084
:101F5000010078B36068012806D13C48006800F4AD
:101F6000003090B90120B8E76068022806D13748F0
:101F7000006800F0007040B90120AEE73348006807
:101F800000F0020008B90120A7E73048406820F0BF
:101F90000300616808432D494860FFF79DFD064630
:101FA00009E0FFF799FD801B41F28831884202D990
:101FB000032092E707E02548406800F00C006168C4
:101FC000B0EB810FEDD12048006800F00700A84277
:101FD0000ED91D48006820F0070028431A49086000
:101FE0000846006800F00700A84201D0012074E70D
:101FF000207800F00400042807D11448406820F439
:10200000E060E168084311494860207800F008006A
:10201000082808D10D48406820F46050216940EA42
:10202000C1000A49486000F03FF808494968C1F317
:102030000311074A515CC840064908600648006819
:10204000FFF770FD002048E700200240001002402A
:10205000305E000804000020600000200148006895
:10206000704700000400002000B5FFF7F7FF0449A7
:102070004968C1F30221034A515CC84000BD000019
:1020800000100240405E000800B5FFF7E7FF04497A
:102090004968C1F3C221034A515CC84000BD000039
:1020A00000100240405E0008F0B585B00FF26C0CE5
:1020B0009CE8E01001A8A0E8E0101CA52D680095A0
:1020C00000210022002300240020194D696801F03E
:1020D0000C05F5B1042D02D0082D19D101E01548E9
:1020E00019E001ADC1F38346AC5D01F4803555B113
:1020F0000F4D6D68C5F340451DF805200D4D654336
:10210000B5FBF2F302E00C4D04FB05F3184602E0C8
:1021100000BF084800BF00BF05B0F0BD02030405C2
:10212000060708090A0B0C0D0E0F10100102000023
:102130000010024000127A0000093D00F8B5044684
:102140000CB90120F8BD207800F00100002878D0FB
:10215000F848406800F00C0004280CD0F5484068AE
:1021600000F00C00082811D1F248406800F48030DB
:10217000B0F5803F0AD1EF48006800F40030002835
:102180005FD0606800285CD10120DBE700BF606899
:10219000B0F5803F06D1E748006840F48030E5495B
:1021A000086028E0606858B9E248006820F4803090
:1021B000E04908600846006820F4802008601AE0C2
:1021C0006068B0F5A02F0BD1DA48006840F4802099
:1021D000D84908600846006840F4803008600AE08A
:1021E000D448006820F48030D2490860084600686E
:1021F00020F48020086000BF606888B1FFF76CFCA5
:10220000054606E0FFF768FC401B642801D903205F
:1022100098E7C848006800F400300028F2D010E0C9
:10222000FFF75AFC054606E0FFF756FC401B642802
:1022300001D9032086E7BF48006800F40030002879
:10224000F2D1207800F00200022857D1B948406846
:1022500000F00C0050B1B748406800F00C000828AE
:1022600018D1B448406800F4803098B9B14800688B
:1022700000F0020020B12069012801D0012061E7AF
:10228000AC48006820F0F800616940EAC100A94943
:10229000086033E02069E8B10120A7490860FFF732
:1022A0001BFC054606E0FFF717FC401B022801D97E
:1022B000032047E79F48006800F002000028F2D0A2
:1022C0009C48006820F0F800616940EAC100994923
:1022D000086013E0002098490860FFF7FDFB054601
:1022E00006E0FFF7F9FB401B022801D9032029E78C
:1022F0009048006800F002000028F2D1207800F039
:10230000080008282DD1A069B8B101208B490860C8
:10231000FFF7E2FB054606E0FFF7DEFB401B022865
:1023200001D903200EE78348406A00F0020000282C
:10233000F2D0012000F0C8FF13E000207F490860C0
:10234000FFF7CAFB054606E0FFF7C6FB401B022865
:1023500001D90320F6E67748406A00F00200002821
:10236000F2D1207800F00400042873D100277148CE
:10237000C06900F0805070B900BF6E48C06940F07D
:1023800080506C49C8610846C06900F080500090D8
:1023900000BF00BF01276A48006800F48070B0B930
:1023A0006748006840F4807065490860FFF794FB57
:1023B000054606E0FFF790FB401B642801D9032087
:1023C000C0E65F48006800F480700028F2D000BFCB
:1023D000E068012806D15748006A40F001005549DD
:1023E000086227E0E06858B95248006A20F001000E
:1023F000504908620846006A20F00400086219E0AB
:10240000E06805280BD14B48006A40F004004949B8
:1024100008620846006A40F0010008620AE0454888
:10242000006A20F00100434908620846006A20F073
:102430000400086200BFE068A0B1FFF74DFB05464D
:1024400009E0FFF749FB401B41F28831884202D97D
:10245000032077E622E03748006A00F002000028F7
:10246000EFD012E0FFF738FB054608E0FFF734FB3A
:10247000401B41F28831884201D9032062E62D4891
:10248000006A00F002000028F0D1012F05D1294890
:10249000C06920F080502749C86100BFE069C8B317
:1024A0002448406800F00C00082860D0E069022849
:1024B00048D1002020490866FFF70EFB054606E0DC
:1024C000FFF70AFB401B022801D903203AE619480E
:1024D000006800F000700028F2D1206AB0F5803F5B
:1024E00007D11448406820F40030A168084311491E
:1024F0004860D4E9080108430E49496821F4741181
:1025000008430C49486001200B490866FFF7E4FACC
:10251000054607E03DE0FFF7DFFA401B022801D93E
:1025200003200FE60348006800F000700028F2D096
:102530002FE00000001002400000424280044242AE
:1025400000700040002014490866FFF7C5FA0546F0
:1025500006E0FFF7C1FA401B022801D90320F1E58C
:102560000E48006800F000700028F2D111E0E06928
:10257000012800D1E6E50948466806F48031206A62
:10258000814204D106F47011606A814201D00120B9
:10259000D8E50020D6E500000000424200100240CD
:1025A00070B504462546681EB0F1807F01D3012036
:1025B0000FE0681E4FF0E02148610F214FF0FF301F
:1025C00001F0DCFA00204FF0E0218861072008616B
:1025D000002070BD7047704710B5024600BF92F8EA
:1025E0003C00012801D1022010BD012082F83C00EE
:1025F00000BF022082F83D001068436810688468BC
:1026000023F070030868034324F0800448680443FF
:102610001068436010688460012082F83D0000BFAC
:10262000002082F83C0000BF00BFDDE710B5044683
:102630000CB9012010BD94F83D0028B9002084F8A1
:102640003C00204600F00CF8022084F83D00211DDB
:10265000206800F01BFF012084F83D000020E9E71E
:1026600038B504460D492068884215D100BF0C4892
:10267000806940F400600A4988610846806900F476
:102680000060009000BF00BF002211461920FFF734
:10269000A9FA1920FFF796FA38BD0000002C014076
:1026A000001002402DE9F04104460D4600BF94F8A9
:1026B0003C00012802D10220BDE8F081012084F80D
:1026C0003C0000BF022084F83D002068866826F0A8
:1026D000770626F47F46206886602868502833D025
:1026E0000CDC202850D004DC00284BD0102851D11D
:1026F00049E0302849D040284CD139E060282DD01D
:10270000702807D0B0F5805F03D0B0F5005F41D1ED
:102710000DE040E0D5E902136A68206800F0F0FEA1
:102720002068866846F077062068866033E0D5E941
:1027300002136A68206800F0E3FE2068806840F4B5
:1027400080402168886026E0EA686968206800F0B7
:10275000EBFE5021206800F0DEFE1CE0EA686968AC
:10276000206800F0F4FE6021206800F0D4FE12E042
:10277000EA686968206800F0D7FE4021206800F010
:10278000CAFE08E000BF00BF00BF2968206800F053
:10279000C2FE00E000BF00BF012084F83D0000BF82
:1027A000002084F83C0000BF00BF85E7704710B5EB
:1027B000044620680069C0F34000D8B12068C068B2
:1027C000C0F34000B0B16FF0020021680861012041
:1027D00020772068806900F0030018B12046FFF7D9
:1027E000E5FF05E0204600F0ADF8204600F0ABF82C
:1027F0000020207720680069C0F38000D8B12068ED
:10280000C068C0F38000B0B16FF0040021680861B7
:10281000022020772068806900F4407018B12046BB
:10282000FFF7C4FF05E0204600F08CF8204600F0DA
:102830008AF80020207720680069C0F3C000D8B172
:102840002068C068C0F3C000B0B16FF00800216814
:102850000861042020772068C06900F0030018B1E7
:102860002046FFF7A3FF05E0204600F06BF8204666
:1028700000F069F80020207720680069C0F300109C
:10288000D8B12068C068C0F30010B0B16FF010007C
:1028900021680861082020772068C06900F4407032
:1028A00018B12046FFF782FF05E0204600F04AF805
:1028B000204600F048F8002020772068006900F0EA
:1028C000010058B12068C06800F0010030B16FF01D
:1028D000010021680861204600F036F82068006990
:1028E000C0F3C01058B12068C068C0F3C01030B148
:1028F0006FF08000216808612046FFF76BFE2068BA
:102900000069C0F3801058B12068C068C0F380101F
:1029100030B16FF0400021680861204600F015F8E2
:1029200020680069C0F3401058B12068C068C0F347
:10293000401030B16FF02000216808612046FFF799
:102940004AFE10BD7047704770477047014600222D
:1029500000BF91F83800012801D102207047012002
:1029600081F8380000BF08684069C0F3C01291F8D0
:102970003900212806D12AB10868406920F080007A
:102980000B68586108684069C0F3801291F83A00FA
:10299000222812D18AB10868C06820F480700B68C0
:1029A000D8600868406920F001000B685861086829
:1029B000406920F040000B68586100BF002081F89A
:1029C000380000BF00BFC9E7704700002DE9F0479D
:1029D0000446206805682068C668206847694FF08B
:1029E0000008C14605F00F08B8F1000F0AD105F044
:1029F000200038B106F0200020B1204600F0E4FEAF
:102A0000BDE8F087B8F1000F6DD007F0010018B9EC
:102A100006F49070002866D005F0010030B106F48D
:102A2000807018B1E06B40F00100E06305F0040035
:102A300030B107F0010018B1E06B40F00200E06334
:102A400005F0020030B107F0010018B1E06B40F072
:102A50000400E06305F0080030B107F0010018B190
:102A6000E06B40F00800E063E06B68B305F0200025
:102A700028B106F0200010B1204600F0A5FE206825
:102A80004069C0F38019E06B00F0080010B9B9F19B
:102A9000000F22D0204600F06DFE2068406900F053
:102AA0004000B0B12068406920F0400021684861D2
:102AB000606B50B11748616B4863606BFEF7E6FBD3
:102AC00010B1606B416B88470CE02046FFF77CFF3C
:102AD00008E02046FFF778FF04E02046FFF774FF88
:102AE0000020E0638CE705F0800030B106F0800044
:102AF00018B1204600F08CFF82E705F0400030B1AD
:102B000006F0400018B1204600F044FE78E700BF10
:102B100076E70000BD36000810B504460CB9012068
:102B200010BDA06900B100E000BF94F8390028B9D9
:102B3000002084F83800204600F028F8242084F88B
:102B400039002068C06820F400502168C860204621
:102B500000F08EFE2068006920F490402168086132
:102B60002068406920F02A00216848612068C06818
:102B700040F400502168C8600020E063202084F801
:102B8000390084F83A000020CAE7000010B586B08A
:102B90000446002002900390049005904449206868
:102BA000884250D100BF4348806940F48040414989
:102BB00088610846806900F48040019000BF00BF32
:102BC00000BF0846806940F00400886108468069BB
:102BD00000F00400019000BF00BF481502900220E1
:102BE00003900320059002A93348FEF7D7FD4FF468
:102BF0008060029000200390049002A92E48FEF706
:102C0000CDFD2E482E4908600020486000212C4848
:102C100081608021C1600021016141618161C161E8
:102C2000FEF75AFC08B1FDF711FF00BF24486063AE
:102C3000446200BF002211462520FEF7D3FF252065
:102C4000FEF7C0FF32E01F49206888422ED100BF46
:102C50001848C06940F480201649C8610846C06918
:102C600000F48020019000BF00BF00BF08468069CB
:102C700040F0080088610846806900F00800019073
:102C800000BF00BF081502900220039003200590AA
:102C900002A90D48FEF782FD4FF40060029000206B
:102CA0000390049002A90848FEF778FD06B010BD15
:102CB0000038014000100240000801405800024066
:102CC0005801002000480040000C014077B581B059
:102CD0000446154694F83A00202850D1029800B1D5
:102CE00015B9012004B070BD00BF94F83800012868
:102CF00001D10220F6E7012084F8380000BF0298D5
:102D0000A062A5850020E063222084F83A001D48D7
:102D1000616B88621C48616BC8621C48616B086308
:102D20000020616B486302AE32682368191D2B4690
:102D3000606BFEF705FC00BF002000902068006873
:102D4000009020684068009000BF00BF00BF0020D6
:102D500084F8380000BF2068C06840F480702168A3
:102D6000C8602068406940F001002168486120681F
:102D7000406940F04000216848610020B2E702202D
:102D8000B0E700002137000867370008D136000897
:102D9000704770472DE9F84304460D4616461F4616
:102DA0004FF0000994F8390020285CD105B116B91C
:102DB0000120BDE8F88300BF94F83800012801D154
:102DC0000220F6E7012084F8380000BF0020E0630D
:102DD000212084F83900FEF77FFE8146A684E68430
:102DE0002BE0E08C401EE084A068B0F5805F16D137
:102DF0004B46002280212046009700F03DFE08B19E
:102E00000320D6E7A846B8F80000C0F30800216800
:102E10004860206908B9AD1C0FE06D1C0DE04B4601
:102E2000002280212046009700F026FE08B10320F2
:102E3000BFE715F8010B21684860E08C0028D0D16D
:102E40004B46002240212046009700F015FE08B1B5
:102E50000320AEE7202084F8390000BF002084F86A
:102E6000380000BFA5E70220A3E7704700BFFEE7D8
:102E70007047000070B50546012600241CE006FAE4
:102E800004F0284028B10122D1021348FEF71EFEAB
:102E900005E000224FF400610F48FEF717FE002204
:102EA0004FF480510C48FEF711FE012211030A482D
:102EB000FEF70CFE601CC4B2082CE0DB00224FF4CD
:102EC00000710648FEF702FE012251020348FEF798
:102ED000FDFDFFF7CDFF70BD00080140000C014073
:102EE0000EB50020009001900290334833490860ED
:102EF00081153248816000210173012101758161D2
:102F00004FF46021C16100202C49486007212B4803
:102F10000161FDF77BFF08B1FDF798FD01200090EE
:102F200001900720029069462448FDF7BBFE08B1D6
:102F3000FDF78CFD02200090019069461F48FDF7C7
:102F4000B1FE08B1FDF782FD0320009001906946B3
:102F50001A48FDF7A7FE08B1FDF778FD062000909E
:102F60000420019069461548FDF79CFE08B1FDF765
:102F70006DFD072000900520019069460F48FDF780
:102F800091FE08B1FDF762FD082000900620019037
:102F900069460A48FDF786FE08B1FDF757FD112086
:102FA00000900720019069460448FDF77BFE08B1B8
:102FB000FDF74CFD0EBD000000240140680000201C
:102FC00008B500BF0A48406940F00100084948615F
:102FD0000846406900F00100009000BF00BF0022D9
:102FE00011460F20FEF7FEFD0F20FEF7EBFD08BD9A
:102FF0000010024000B585B00020019002900390BF
:10300000049000BF7148806940F010006F498861EA
:103010000846806900F01000009000BF00BF00BFAC
:103020000846806940F0200088610846806900F009
:103030002000009000BF00BF00BF0846806940F03C
:10304000040088610846806900F00400009000BF19
:1030500000BF00BF0846806940F00800886108464C
:10306000806900F00800009000BF00BF00224FF40C
:10307000C0415748FEF72AFD00224FF2FC21554877
:10308000FEF724FD00224FF4C8515348FEF71EFD01
:103090004FF4C04001900120029003900220049060
:1030A00001A94B48FEF77AFB4FF4004001904B48D2
:1030B00002900120039001A94548FEF76FFB48F2FA
:1030C0000100019000200290039001A94248FEF700
:1030D00065FB30200190414802900120039001A936
:1030E0003D48FEF75BFB022001903C480290012026
:1030F000039001A93748FEF751FBC420019001203D
:103100000290002003900220049001A93148FEF7AC
:1031100045FB43F220000190012002900390022021
:10312000049001A92B48FEF739FB4CF218200190BE
:103130000120029003900320049001A92548FEF786
:103140002DFB4FF48070019001200290002003902D
:103150000220049001A92048FEF720FB4FF4C05044
:1031600001900120029003900220049001A91A48C6
:10317000FEF714FB4FF48070019000200290039042
:1031800001A91448FEF70AFB002211460720FEF7AA
:1031900029FD0720FEF716FD002211460A20FEF742
:1031A00021FD0A20FEF70EFD002211461720FEF732
:1031B00019FD1720FEF706FD002211462820FEF714
:1031C00011FD2820FEF7FEFC05B000BD00100240F6
:1031D00000100140000C01400008014000002110D7
:1031E00000B587B0002003900490059006900190F0
:1031F00002901548154908600320486000211348D3
:1032000081600A21C16000210161416180218161E9
:10321000FFF70CFA08B1FDF719FC4FF4805003904A
:1032200003A90A48FFF73EFA08B1FDF70FFC00209A
:103230000190029001A90548FFF7CEF908B1FDF70A
:1032400005FC07B000BD0000002C014098000020E4
:1032500010B50B480B4908604FF416504860002128
:1032600008488160C16001610C21416100218161D8
:10327000C161FFF751FC08B1FDF7E8FB10BD00008C
:1032800000380140D800002010B50B480B490860F9
:103290004FF4E1304860002108488160C16001615D
:1032A0000C21416100218161C161FFF735FC08B14A
:1032B000FDF7CCFB10BD00000048004018010020C5
:1032C00000BFFEE77047704708B508490968C9089C
:1032D0004FF47A72B1FBF2F14143009100BF00BF9D
:1032E00000994A1E00920029F9D108BD040000206F
:1032F00010B504461B4804701B480078AA2802D168
:1033000000201A4908701848C07B552820D1002099
:103310001749087000BF07E01349095C144A127886
:103320001144134A1170401C0E28F5DB0E48807BB7
:103330000F490978884208D1002004E00A49095C55
:103340000C4A1154401C1028F8DB01200A4908706F
:103350000A48FFF7FBFA102203490848FFF7B6FCBA
:1033600010BD00005600002024020020580000205C
:10337000570000201402002055000020D800002033
:103380007047000000200149087070479C01002030
:1033900010B5FEF7A7FB002001F0CBFA10BD00B579
:1033A00093B0282109A8FCF7E8FE142104A8FCF733
:1033B000E4FE00200090019002900390012009900B
:1033C00000040A9000200B9001200D900220109024
:1033D000C10311914FF4E011129109A8FEF7AEFE5E
:1033E00008B1FDF733FB0F20049002200590002068
:1033F00006904FF48060079000200890022104A8F6
:10340000FEF766FD08B1FDF721FB02200090800366
:1034100002906846FEF7C4FC08B1FDF717FB13B035
:1034200000BD00001148006840F001000F4908602D
:10343000084640680E4908400C4948600846006844
:103440000C490840094908600846006820F48020BB
:1034500008600846406820F4FE0048604FF41F00F2
:103460008860C803044908607047000000100240EB
:103470000000FFF8FFFFF6FE08ED00E010B502487F
:10348000FFF795F910BD00009800002010B5026804
:10349000184B984208D0B0F1804F05D0164B984297
:1034A00002D0164B984203D122F070024B681A43A7
:1034B000104B984208D0B0F1804F05D00E4B984287
:1034C00002D00E4B984203D122F44072CB681A43CB
:1034D00022F080034C6943EA040202608B68C362F5
:1034E0000B688362034B984201D10B69036301238C
:1034F000436110BD002C0140000400400008004062
:1035000030B50C46816821F47F4142EA032525430A
:103510002943816030BD0A46816821F0700142F084
:10352000070319438160704730B50B461446026AA1
:10353000056A25F001050562816921F0F00141EA83
:10354000041122F00A021A438161026230BD30B5D3
:103550000B461446056A25F0100505628169026A6A
:1035600021F4704141EA043122F0A00242EA031240
:103570008161026230BD000033B587B00546AA20E4
:10358000029000242146641C03A808449DF80810FA
:103590000170002002902146641C03A808449DF895
:1035A000081001702246641C03A9501808A9FCF7F2
:1035B000C9FDE8B202909DF8080001902146641C04
:1035C00003A808449DF808100170C5F30720029075
:1035D0002146641C03A808449DF8081001709DF85A
:1035E00020009DF8081008449DF804100844AA30F3
:1035F000C0B20290002001902146641C03A8084438
:103600009DF8041001702146641C03A808449DF82D
:10361000041001702046611CCCB203A908449DF837
:10362000041001702046611CCCB203A908449DF827
:10363000041001702046611CCCB203A908449DF817
:10364000041001702046611CCCB203A908449DF807
:10365000041001702046611CCCB203A908449DF8F7
:10366000041001702046611CCCB203A908449DF8E7
:10367000041001702046611CCCB203A908449DF8D7
:10368000041001702046611CCCB203A908449DF8C7
:1036900008100170552002902046611CCCB203A98D
:1036A00008449DF8081001700A23102203A902485B
:1036B000FFF770FB09B030BDD800002070B505469B
:1036C0006C6A0020E085E0842046FFF77DF970BD3C
:1036D00070B506460025746A20684069C0F3C015BD
:1036E00094F83900212805D125B10020E084204636
:1036F00000F060F820684069C0F3801594F83A0043
:10370000222805D125B10020E085204600F032F8BE
:10371000E06B40F01000E0632046FFF755F970BD04
:1037200070B505466C6A2868006800F02000B0B9E2
:103730000020E0852068C06820F480702168C8609F
:103740002068406920F001002168486120684069D4
:1037500020F0400021684861202084F83A0020468B
:10376000FFF716FB70BD70B50446656A2846FFF783
:1037700010FB70BD0168C96821F490710268D160C6
:103780000168496921F0010102685161202180F836
:103790003A10704710B504462068C06820F0400019
:1037A0002168C860202084F839002046FFF75DFBBF
:1037B000002010BD0168C96821F0C0010268D16015
:1037C000202180F83910704770B5044694F83A000B
:1037D00022284AD1A068B0F5805F13D1A56A20697C
:1037E00040B920684068C0F308002880A06A801CA7
:1037F000A06219E020684068C0B22880A06A401C1E
:10380000A06211E0206938B920684068C1B2A26A9C
:10381000501CA062117007E02068406800F07F0132
:10382000A26A501CA0621170E08D401E80B2E0853B
:10383000C8B92068C06820F020002168C8602068EE
:10384000C06820F480702168C8602068406920F05A
:10385000010021684861202084F83A002046FFF7E3
:1038600097FA002070BD0020FCE70220FAE7000074
:1038700070B504462168096921F44051E26811439A
:10388000226811612269A1681143626941EA020557
:103890002168C96841F20C62914329432268D160D2
:1038A0002168496921F44071A2691143226851617C
:1038B000564A2168914254D1FEF7E6FB00EBC00165
:1038C00001EB001162689200B1FBF2F100EBC00263
:1038D00002EB001263689B00B2FBF3F26423B2FBBD
:1038E000F3F202EBC20303EB0212A1EB82013222DC
:1038F00002EB01116422B1FBF2F101F0F00100EBE7
:10390000C00202EB001263689B00B2FBF3F2642377
:10391000B2FBF3F201EB021200EBC00101EB00116C
:1039200063689B00B1FBF3F100EBC00303EB0013F2
:103930006668B600B3FBF6F36426B3FBF6F303EB5D
:10394000C30606EB0313A1EB8301322303EB011142
:103950006423B1FBF3F101F00F011144226891607F
:1039600053E0FEF781FB00EBC00101EB0011626840
:103970009200B1FBF2F100EBC00202EB00126368AF
:103980009B00B2FBF3F26423B2FBF3F202EBC2033F
:1039900003EB0212A1EB8201322202EB011164223D
:1039A000B1FBF2F101F0F00100EBC00202EB0012FA
:1039B00063689B00B2FBF3F26423B2FBF3F201EB0A
:1039C000021200EBC00101EB001163689B00B1FB28
:1039D000F3F100EBC00303EB00136668B600B3FB22
:1039E000F6F36426B3FBF6F303EBC30606EB03130F
:1039F000A1EB8301322303EB01116423B1FBF3F14B
:103A000001F00F0111442268916070BD003801403F
:103A1000014691F8390021282CD18868B0F5805FE3
:103A20000FD10A6A1088C0F308000B685860086953
:103A300018B9086A801C086209E0086A401C08621C
:103A400005E00B6A581C086218780B685860C88C2F
:103A5000401E80B2C88458B90868C06820F0800051
:103A60000B68D8600868C06840F040000B68D860F8
:103A7000002070470220FCE72DE9F04104460D4686
:103A800017469846069E21E0701CF8B12EB1FEF74D
:103A900023F8A0EB0800B04218D92068C06820F4D1
:103AA000D0702168C8602068406920F0010021685A
:103AB0004861202084F8390084F83A0000BF0020D3
:103AC00084F8380000BF0320BDE8F081206800685A
:103AD0002840A84201D1012000E00020B842D3D004
:103AE0000020F1E710B50548FEF770FF012000F057
:103AF00011F803A000F02AF810BD0000D800002043
:103B0000756172743320646174613A20200A000088
:103B100000BFFEE770B50546012D13D10A480068C5
:103B20000068C0F300146CB16FF01000064909681A
:103B30000860054800680468034800684468E0B20B
:103B4000FFF7D6FB70BD0000D80000200FB4054B76
:103B500010B503A9044A029800F034F810BC5DF8CF
:103B600014FB00000D4A0008000000200248006815
:103B7000C0F30220704700000CED00E010B50028F3
:103B800004DB0A07130E054A135406E00A07140E55
:103B9000034A00F00F031B1FD45410BD00E400E0E3
:103BA00018ED00E002E008C8121F08C1002AFAD18F
:103BB00070477047002001E001C1121F002AFBD1AD
:103BC000704700002DE9FF4F89B09B460446002551
:103BD00006E025280BD05A460B999047641C6D1CB3
:103BE00020780028F5D10DB02846BDE8F08F0027D9
:103BF000B8460122474900E0074314F8013F203B43
:103C000002FA03F00842F7D120782E2819D114F8CF
:103C1000010F47F004072A280ED06FF02F022078FA
:103C2000A0F1300109290CD808EB880102EB410111
:103C300000EB0108641CF2E70A98641C50F8048B3E
:103C40000A9020780028CED0642808D0692806D0B1
:103C500075281ED05A460B9990476D1C58E00A995A
:103C60004FF00A0901C90A91002802DA40422D21C9
:103C700002E0390504D52B218DF82010012103E045
:103C8000F90704D02021F7E78A4608AE0DE00021AD
:103C9000FAE70A994FF00A0901C90A91F7E749467C
:103CA000FCF754FD303106F8011D0028F7D1ADEBCB
:103CB000060000F12009780701D44FF00108C8453B
:103CC00002DDA8EB090000E000208046002706E0A6
:103CD00008A85A46C05D0B9990476D1C7F1C57453C
:103CE000F6DB04E030205A460B9990476D1CB8F182
:103CF0000001A8F10108F5DC05E016F8010B5A46B1
:103D00000B9990476D1CB9F10001A9F10109F4DC90
:103D1000641C65E70928010010B56420FCF722FF48
:103D2000344908683449FCF707FD05D9314908686A
:103D30000021FCF7F7FC07D82E48806940F60161A6
:103D400008432C49886151E02A4948682A49FCF710
:103D5000F3FC05D9274948680021FCF7E3FC07D8A4
:103D60002448806940F602610843224988613DE0A9
:103D7000204988682049FCF7DFFC05D91D4988687F
:103D80000021FCF7CFFC07D81A48806940F604618F
:103D900008431849886129E01649C8681649FCF7A4
:103DA000CBFC05D91349C8680021FCF7BBFC07D838
:103DB0001048806940F6086108430E49886115E0A3
:103DC0000C4908690C49FCF7B7FC05D90949086991
:103DD0000021FCF7A7FC06D80648806940F4616022
:103DE0000449886102E00020024988610148806935
:103DF00010BD0000A801002000007A452DE9F84F11
:103E000006466E4840686E4948616C488068886123
:103E10006A480069C8616948406908626748006883
:103E2000C8626648016866480163012E6FD1024688
:103E300051695068FCF7FEF98346614A116A50687F
:103E4000FCF7F8F900905846FCF7C6FB0FFA80F92A
:103E50000098FCF7C1FB0FFA80FA4946594800F078
:103E6000BFF804465146584800F0BAF8054657498D
:103E70005846FCF761FC25D84FF07E510098FCF7BE
:103E800051FC04D831462046FFF776FB82E04FF024
:103E900080410098FCF750FC0FD8601941F288313E
:103EA000884205DB314641F28830FFF765FB71E05F
:103EB00060193146FFF760FB6CE031462046FFF7A2
:103EC0005BFB67E041495846FCF72CFC2AD20021F5
:103ED0005846FCF731FC25D800210098FCF722FC5D
:103EE00004D831462046FFF747FB53E04FF07E51A0
:103EF0000098FCF721FC10D8601941F28831884203
:103F000006DB314641F28830FFF736FB42E04DE0F8
:103F100060193146FFF730FB3CE031462846FFF799
:103F20002BFB37E000215846FCF7FCFB0ED258462D
:103F3000FCF798FB07460022254BFCF7BFFB05D892
:103F4000314640F6B830FFF717FB23E05846FCF740
:103F500089FB074600221E4BFCF798FB09D2002183
:103F600040F6B830FFF708FB0021062000F0ACF85F
:103F700010E05846FCF776FB07460022154BFCF78D
:103F80009DFB07D8012140F6B830FFF7F5FA002075
:103F9000114948710A49C8691049FCF7CDFB0AD894
:103FA000002140F6B830FFF7E7FA04E0002140F6C0
:103FB000B830FFF7E1FABDE8F88F0000A801002053
:103FC000C4010020FC010020080200200000A040E5
:103FD0000000E0BF0000E03F3800002000008C42FD
:103FE00030B50246938893B113890B441BB21381F9
:103FF000B2F90830642B02DD6423138107E0B2F9C3
:10400000083013F1640F02DA6FF063031381B2F921
:104010000430B2F908406343B2F9024004FB0133B3
:10402000B2F90640B2F90A504D1B04FB053318B231
:10403000B0F57E7F02DD4FF47E7002E0002800DAEA
:10404000002000EBC0039B000A2493FBF4F303F56C
:10405000FA6318B2518130BD10B504461848407952
:1040600040B9012016494871FDF736FD1549086031
:1040700013480471FDF730FD12490968401AB0F584
:10408000FA6F08D30E484079012804D102200C4968
:104090004871012010BDFDF71FFD0A490968401A4B
:1040A0004EF66021884209D305484079022805D19F
:1040B000FDF712FD034908600220EBE700BFE9E7C6
:1040C000380000204800002070B504460D46012D40
:1040D00040D1072C3DD2DFE804F03C040A10161C46
:1040E0002200012280214248FDF7F0FC31E001224C
:1040F00011033F48FDF7EAFC2BE0012251033C4845
:10410000FDF7E4FC25E0012211023A48FDF7DEFC50
:104110001FE0012251033648FDF7D8FC19E00122C7
:1041200080213348FDF7D2FC012211033048FDF70E
:10413000CDFC012251032E48FDF7C8FC01221102DB
:104140002C48FDF7C3FC012251032948FDF7BEFCB2
:1041500000BF46E0072C43D2DFE804F042040A1116
:10416000181F2500002280212148FDF7AFFC37E011
:1041700000224FF480511E48FDF7A8FC30E00022D9
:104180004FF400511A48FDF7A1FC29E000224FF43A
:1041900080711848FDF79AFC22E000224021144863
:1041A000FDF794FC1CE0002280211148FDF78EFCF5
:1041B00000224FF480510E48FDF788FC00224FF496
:1041C00000510B48FDF782FC00224FF48071094832
:1041D000FDF77CFC002240210548FDF777FC00BF7D
:1041E00000BF2A46214604A0FFF7B0FC70BD0000C6
:1041F000000C0140000801406465766963655F63F7
:1042000074726C2069733A20202025642020256474
:104210000A00000010B50446012C49D1FDF75CFCF2
:1042200034490968401AB0F5FA7F21D2FDF754FCF1
:1042300031490968401A05285BD3FDF74DFC2E492A
:1042400008602E490978491E2D4A505CFEF712FE7F
:104250002A48007801F098F928480078401C27493E
:10426000087008460078042843DD0120087040E00B
:10427000FDF732FC1F490968401AB0F5FA7F0AD3EE
:10428000FDF72AFC1B490968401AB0F57A7F02D273
:1042900000F04AFB2DE0FDF71FFC16490968401AA3
:1042A000B0F57A7F25D3FDF717FC1249086020E0AE
:1042B000FDF712FC10490968401A052819D3FDF7CB
:1042C0000BFC0D4908600D490978491E0C4A505CE9
:1042D000FEF7D0FD0948007801F056F9074800784C
:1042E000401C0649087008460078042801DD0120BA
:1042F000087010BD34000020300000202C00002089
:10430000280000202DE9F04781460D461646002E74
:1043100076D1FE494846FCF705FA33D2FC494846B7
:10432000FBF78EFF0746FCF770F904464FF47A71ED
:10433000B4FBF1F0F749085C401EF74908704FF4F0
:104340007A71B4FBF1F201FB12406421B0FBF1F091
:10435000F049085CF04948706421B4FBF1F201FBBC
:1043600012400A21B0FBF1F0EA49085CEA49887082
:104370000A21B4FBF1F201FB1240E649085CE64970
:10438000C870A1E2E1494846FCF7D6F939D8E349BB
:104390004846FCF7C7F934D2E0494846FBF750FFDE
:1043A0000746FCF732F904464FF47A71B4FBF1F09A
:1043B000D849085CD84908704FF47A71B4FBF1F21F
:1043C00001FB12406421B0FBF1F0D249085C401EB1
:1043D000D14948706421B4FBF1F201FB12400A217B
:1043E000B0FBF1F0CB49085CCB4988700A21B4FBE3
:1043F000F1F201FB1240C749085CC749C87063E28B
:104400006DE0C6494846FCF797F938D8C049484698
:10441000FCF788F933D2BD494846FBF711FF074640
:10442000FCF7F3F804464FF47A71B4FBF1F0B949A4
:10443000085CB94908704FF47A71B4FBF1F201FBE2
:1044400012406421B0FBF1F0B249085CB2494870F7
:104450006421B4FBF1F201FB12400A21B0FBF1F040
:10446000AC49085C401EAC4988700A21B4FBF1F2EB
:1044700001FB1240A749085CA749C87024E24846DE
:10448000FCF7C3F804464FF47A71B4FBF1F0A1498C
:10449000085CA14908704FF47A71B4FBF1F201FB9A
:1044A00012406421B0FBF1F09A49085C9A494870C7
:1044B0006421B4FBF1F201FB12400A21B0FBF1F0E0
:1044C0009449085C944988700A21B4FBF1F201FB1D
:1044D00012409049085C401E8F49C870F4E1012EDB
:1044E00074D18A494846FCF71DF932D288494846BA
:1044F000FBF7A6FE0746FCF788F804464FF47A71EE
:10450000B4FBF1F08349085C834908704FF47A7179
:10451000B4FBF1F201FB12406421B0FBF1F07D49E4
:10452000085C7D4948706421B4FBF1F201FB124044
:104530000A21B0FBF1F07749085C774988700A21BD
:10454000B4FBF1F201FB12407249085C7249C87079
:10455000BAE16E494846FCF7EFF838D86F4948464B
:10456000FCF7E0F833D26D494846FBF769FE074691
:10457000FCF74BF804464FF47A71B4FBF1F065494F
:10458000085C654908704FF47A71B4FBF1F201FBE5
:1045900012406421B0FBF1F05E49085C5E4948704E
:1045A0006421B4FBF1F201FB12400A21B0FBF1F0EF
:1045B0005849085C584988700A21B4FBF1F201FBA4
:1045C00012405449085C5449C8707DE167E0534982
:1045D0004846FCF7B1F837D84D494846FCF7A2F8F1
:1045E00032D24A494846FBF72BFE0746FCF70DF846
:1045F00004464FF47A71B4FBF1F04649085C464931
:1046000008704FF47A71B4FBF1F201FB124064219F
:10461000B0FBF1F03F49085C3F4948706421B4FBAE
:10462000F1F201FB12400A21B0FBF1F03949085CBC
:10463000394988700A21B4FBF1F201FB1240354977
:10464000085C3549C8703FE14FF47A70B4FBF0F074
:104650003049085C304908704FF47A70B4FBF0F1CF
:1046600000FB11406421B0FBF1F02A49085C2A49A3
:1046700048706420B4FBF0F100FB11400A21B0FB4C
:10468000F1F02449085C244988700A20B4FBF0F159
:1046900000FB11401F49085C1F49C87014E1022E3D
:1046A0001CD14846FBF7B1FF04461A4901EB144000
:1046B0000078194908701749C4F30320085C1649AB
:1046C00048701449C4F30310085C1349887004F05F
:1046D0000F001049085C1049C870F5E0032E77D12F
:1046E0004846FBF792FF044628780B4908700749B3
:1046F0004846FCF717F836D205494846FBF7A0FDB7
:104700000746FBF782FF04460AE000000000204154
:1047100000007A4418000020280000200000C84251
:104720004FF47A70B4FBF0F07549085C401E75498F
:1047300048704FF47A70B4FBF0F100FB1140642133
:10474000B0FBF1F06E49085C6E4988706420B4FBE0
:10475000F0F100FB11400A21B0FBF1F06849085C60
:104760006849C8708FE068494846FBF7E5FF30D8D4
:1047700066494846FBF7D6FF2BD264494846FBF70B
:104780005FFD0746FBF741FF04464FF47A70B4FB28
:10479000F0F05B49085C5B4948704FF47A70B4FBF9
:1047A000F0F100FB11406421B0FBF1F05449085CCA
:1047B000401E544988706420B4FBF0F100FB1140A6
:1047C0000A21B0FBF1F04E49085C4E49C8705AE02E
:1047D0006BE04E494846FBF7AFFF2FD84C4948469F
:1047E000FBF7A0FF2AD248494846FBF729FD0746B8
:1047F000FBF70BFF04464FF47A70B4FBF0F040492E
:10480000085C404948704FF47A70B4FBF0F100FB4B
:1048100011406421B0FBF1F03949085C39498870D6
:104820006420B4FBF0F100FB11400A21B0FBF1F071
:104830003349085C401E3349C87024E04846FBF702
:10484000E4FE04464FF47A70B4FBF0F02C49085CA7
:104850002C4948704FF47A70B4FBF0F100FB114022
:104860006421B0FBF1F02649085C26498870642079
:10487000B4FBF0F100FB11400A21B0FBF1F020493C
:10488000085C2049C87000214846FBF74BFF1BD24B
:10489000FD201C490870084600784870084640789A
:1048A000887008468078C8700EE0042E0CD1484607
:1048B000FBF7ABFE04462878124908706878487008
:1048C000A8788870E878C87000214846FBF72AFF6E
:1048D0000BD2FD200B490870084600784870084646
:1048E0004078887008468078C8704846FBF7BAFE62
:1048F00007463A460B4607A0FFF728F9BDE8F087C0
:104900001800002028000020000020410000C842BC
:1049100000007A44646973706C61792069733A208D
:10492000202025640A00000010B5052000F02CFEB0
:1049300010BD10B50446ECB900F0E0F8007888B975
:1049400000F0DCF88078032808D000F0D7F8407831
:10495000012803DD0120FFF75DFC12E00020FFF7D6
:1049600059FC0EE000F0CAF80078012809D1FFF7E1
:1049700051FC06E000F0C2F8007810B90120FFF702
:1049800049FC10BD30B503460B4C042505FB034420
:104990000A4D2C6000200BE0084C2468246841F884
:1049A0002040064C2468241D044D2C60441CA0B2F9
:1049B0009042F1DB30BD000000EC01081000002047
:1049C0002DE9F04105460C461646FCF769FE0D48F8
:1049D000042101FB05000C49086000270CE0224679
:1049E0000023094801680220FCF702FE064800681F
:1049F000001D054908607F1CB742F0DBFCF7EEFDA7
:104A0000BDE8F08100EC01081000002038B5044634
:104A10000D46E0B2009001231A4669460248FEF7AF
:104A2000B9F9204638BD00001801002010B5012159
:104A30001C48FDF743F801280BD11B48007D40F0CE
:104A40000100194908750846806940F46260886170
:104A50000AE01548806920F0200013498861084663
:104A6000007D00F0FE00087504211048FDF726F8CF
:104A700001280BD10C48007D40F002000A4908755E
:104A80000846806940F4646088610AE00648007D59
:104A900000F46D60044908750846806920F0D00074
:104AA000886110BD00080140A8010020000C0140F1
:104AB00010B50446012C04D102210D48FCF7FEFF7D
:104AC00010BD022C04D1A1030A48FCF7F7FFF7E759
:104AD000032C04D120210848FCF7F0FFF0E7042C58
:104AE00004D110210448FCF7E9FFE9E700BFE7E73C
:104AF000000C0140001001400008014000487047D0
:104B0000380000202DE9F0478AB0064689469246D3
:104B1000B9F1000F46D170480068B04242D36E48E8
:104B2000D0F85402B0423DD2324696216A4800F095
:104B3000DBFA04462046002100F004FC67490860C7
:104B400008460068FBF78EFD634ACDE90601611C4B
:104B500052F8211052F82420881AFBF730FD07463E
:104B600088465D4951F82410701AFBF728FD002291
:104B70005B4BCDE90001FBF73CFC3A464346CDE9EF
:104B80000201FBF7A8FCCDE90401DDE90623FBF7F0
:104B900089FBCDE90801FBF7A9FD524908600AB07D
:104BA000BDE8F087B9F1010F7ED14F495046FBF7C0
:104BB000EFFA0746FBF729FD0521B0FBF1F54B485D
:104BC00000EB85100068B04249D3484800EB8510DF
:104BD000C06BB04243D2454901EB851032461021EB
:104BE00000F082FA04462046012100F0ABFB3B496D
:104BF000086008460068FBF735FDCDE906013B4932
:104C000001EB8512611C52F82110384A02EB851223
:104C100052F82420881AFBF7D2FCCDE9020133496F
:104C200001EB851151F82410701AFBF7C8FC0746F8
:104C300000222B4BFBF7DDFBCDE90001DDE9022370
:104C4000FBF749FCCDE90401DDE90623FBF72AFB6C
:104C5000CDE90801FBF74AFD224908609FE7E0B271
:104C6000012100F06FFB1D49086008460068FBF752
:104C7000F9FC074688461D4901EB851149681B4A26
:104C800002EB85121268881AFBF799FCCDE9040142
:104C9000164901EB85110968701AFBF790FC002298
:104CA0000F4BCDE9000100E014E0FBF7A2FBCDE9DA
:104CB0000201DDE90423FBF70EFC3A464346CDE949
:104CC0000601FBF7EFFACDE90801FBF70FFD0549F7
:104CD000086064E700BF62E7485E00080800002043
:104CE0000000E03F0C0000200000A040A060000891
:104CF0001E20074948800A2088800120C8801E2085
:104D0000044948800A2088800120C880704700003C
:104D1000FC0100200802002000B587B00722694688
:104D20000020FFF72FFE00985A2819D11849019842
:104D30004870029808710398FBF73CFC15494860DD
:104D40000498FBF737FC134988600598FBF732FCA1
:104D50001049C8600698FBF72DFC0E49086115E064
:104D600000200B494870022008710B48094948602F
:104D70000A49084881600849C1600161084805493D
:104D8000C86201460348016301F012F807B000BD94
:104D900038000020C40100200000C84100009041FC
:104DA0000000204100200149087070472C000020BD
:104DB00010B500F005F8014810BD00009C0100206E
:104DC00010B56A48407810B10120684908726748F8
:104DD000407800F0030000282DD00FE0FCF77CFEA7
:104DE00062494968401A40F6B831884206D35F48A4
:104DF000407840F002005D49487005E002215C48BF
:104E0000FCF75CFE0028E9D000BF58484078012834
:104E100008D10020554948700120087055A0FEF7C0
:104E200095FEA2E00020514948700220087056A06B
:104E3000FEF78CFE99E04D48407800F00C00002809
:104E40002ED00FE0FCF748FE48494968401A40F66A
:104E5000B831884206D34548407840F008004349BD
:104E6000487006E04FF400414C48FCF727FE00284C
:104E7000E8D000BF3D484078042808D100203B49D5
:104E800048700320087046A0FEF760FE6DE0002029
:104E9000364948700420087046A0FEF757FE64E0CB
:104EA0003248407800F0300068B30FE0FCF714FEA1
:104EB0002E494968401A40F6B831884206D32B483B
:104EC000407840F020002949487005E020213E4804
:104ED000FCF7F4FD0028E9D000BF244840781028F2
:104EE00008D10020214948700520087037A0FEF73E
:104EF0002DFE3AE000201D4948700620087038A0B9
:104F0000FEF724FE31E01948407800F0C00018B3E5
:104F10000FE0FCF7E1FD15494968401A40F6B83149
:104F2000884206D31148407840F080000F4948700D
:104F300005E010212448FCF7C1FD0028E9D000BF9E
:104F40000A484078402808D10020084948700720C6
:104F5000087028A0FEF7FAFD07E00020034948701A
:104F60000820087028A0FEF7F1FD10BD9C0100206C
:104F7000000C01406B6579312069732073686F7292
:104F800074206869740A00006B65793120697320A8
:104F90006C6F6E67206869740A00000000100140A1
:104FA0006B6579322069732073686F727420686949
:104FB000740A00006B657932206973206C6F6E672C
:104FC000206869740A000000000801406B657933AD
:104FD0002069732073686F7274206869740A000016
:104FE0006B657933206973206C6F6E672068697414
:104FF0000A0000006B6579342069732073686F7252
:1050000074206869740A00006B6579342069732024
:105010006C6F6E67206869740A00000070B5044602
:105020000D46012D2BD1012C06D0022C0AD0032CC9
:105030000ED0042C22D111E0012251032848FCF7A4
:1050400045FD1BE0012291032548FCF73FFD15E0DB
:10505000012220212348FCF739FD0FE001225103F2
:105060001F48FCF733FD012220211E48FCF72EFDCE
:10507000012291031A48FCF729FD00BF2EE0012C04
:1050800006D0022C0BD0032C0FD0042C25D112E01B
:1050900000224FF400511248FCF718FD1DE00122D8
:1050A00091030F48FCF712FD17E0012220210D4863
:1050B000FCF70CFD11E000224FF400510848FCF70A
:1050C00005FD002220210748FCF700FD00224FF4D7
:1050D00080410348FCF7FAFC00BF00BF70BD000030
:1050E00000100140000C0140F0B503460E460024BC
:1050F000751E002753F82400904201D8E0B2F0BD9D
:1051000053F82500904201D3E8B2F8E71FE0601998
:10511000410853F82100904200D11AE053F82100D1
:10512000904205D9481C53F82000904200D210E06C
:1051300053F82100904201D20D4600E00C4638465B
:1051400007F1010C0CF0FF07B04200DD01E0AC42BA
:10515000DDD300BFAC4201D90020D0E7C8B2CEE712
:1051600010B504465648407910B92046FEF774FF42
:1051700053484079002820D0022C1FD15048007994
:1051800002281AD10121FEF79FFF2046FEF764FF97
:1051900001280AD102204B4981F835000120FEF791
:1051A0002DFE01210846FEF78FFF2046FEF754FF33
:1051B0000228E6D1434981F8350080E0032C1FD155
:1051C0003F48007903287AD101210846FEF77CFF89
:1051D0002046FEF741FF012809D10220394981F814
:1051E00035000121FEF770FF0120FEF707FE204683
:1051F000FEF732FF022862D1324981F835005EE0C5
:10520000042C01D0052C2BD12D480079042803D083
:105210002B480079052852D101210320FEF754FFC5
:105220002046FEF719FF012811D10220254981F8F7
:1052300035000121FEF748FF01210420FEF744FF5D
:105240000120FEF7DBFD01210320FEF73DFF204694
:10525000FEF702FF022832D11A4981F835002EE00C
:10526000062C01D0072C2AD115480079062803D036
:1052700013480079072822D101210320FEF724FFDB
:105280002046FEF7E9FE012811D102200D4981F8E0
:1052900035000121FEF718FF0120FEF7AFFD0121C7
:1052A0000420FEF711FF01210320FEF70DFF204629
:1052B000FEF7D2FE022802D1024981F8350010BD66
:1052C00038000020C4010020FCF718FCFEF767F846
:1052D000FDF790FEFDF774FEFDF702FEFDF780FF7F
:1052E000FDF7B6FFFDF7D0FFFFF716FDFFF71CFB3C
:1052F00000210420FFF792FE0F481049096808605A
:105300000E480068C06820F010000C490968C860A9
:1053100010220B490948FDF7D9FC08480068C0680D
:1053200040F0100005490968C860FFF7E1FC01E0A2
:1053300000F0D0F8FCE70000EFFFFFEFD8000020FE
:10534000240200202DE9F35F8946B9F1000F11D145
:105350000098FBF734F9074600220E4BFBF749F89B
:10536000054600220C4BFBF73EF88246FBF7BEF9E0
:1053700004460BE00098FBF722F907460022074B92
:10538000FBF737F80546FBF7B1F904462046BDE8C0
:10539000FC9F00000000F03F00004440000014406B
:1053A0007CB504460D46052D37D2DFE805F00337FE
:1053B0006B758200022C09D149208DF80000444908
:1053C000032248686946FEF79DFF26E0032C09D1B9
:1053D00049208DF800003E49032288686946FEF79F
:1053E00091FF1AE0042C01D0052C09D149208DF839
:1053F000000037490322C8686946FEF783FF0CE0C6
:10540000062C01D0072C08D149208DF80000304926
:10541000032208696946FEF775FF57E0022C09D19F
:10542000E5208DF800002A49032248696946FEF705
:1054300069FF26E0032C09D1E5208DF800002449FE
:10544000032248696946FEF75DFF1AE0042C01D08B
:10545000052C09D1E5208DF800001D49032248697B
:105460006946FEF74FFF0CE0062C01D0072C08D14F
:10547000E5208DF800001649032248696946FEF7C9
:1054800041FF23E0E5208DF8000011490322C8699F
:105490006946FEF737FF19E0E5208DF800000C495A
:1054A000486AFBF787F8064601226946FEF72AFF9D
:1054B0000CE011208DF800000549886AFBF77AF8A6
:1054C000064603226946FEF71DFF00BF00BF7CBDF4
:1054D000C401002010B500F0D1F8FEF71DFCFFF765
:1054E000A5FA2648406826494861244880688861B2
:1054F0002248C068C8612148006908621F480068E6
:10550000C8621E4801681E4801631E48807803284F
:1055100004D11C494878FFF723FE08E00020194910
:105520004871FEF76BFC00210620FEF7CDFDFFF76A
:10553000E5FA007898B9FFF7E1FA807801280EDBE8
:1055400010484078082802D00E48C07818B10120D1
:1055500000F0DCFA0BE0002000F0D8FA07E0FFF7DB
:10556000CDFA0078012802D1022000F0CFFA0548D8
:10557000407810B9032000F0C9FA10BDA80100203E
:10558000C40100203800002010B50446012C06D0CC
:10559000022C1AD0032C2ED0042C56D140E001222C
:1055A00008213548FCF792FA012210213248FCF715
:1055B0008DFA0122D1033048FCF788FA00224FF41B
:1055C00080412D48FCF782FA54E0012208212A4844
:1055D000FCF77CFA012210212748FCF777FA002219
:1055E0004FF400412448FCF771FA0122910322484C
:1055F000FCF76CFA3EE0012208211F48FCF766FA2E
:10560000002210211C48FCF761FA0122D1031A483C
:10561000FCF75CFA012291031748FCF757FA29E0DE
:10562000002208211448FCF751FA012210211248E7
:10563000FCF74CFA0122D1030F48FCF747FA01228C
:1056400091030D48FCF742FA14E0012208210A48B0
:10565000FCF73CFA012210210748FCF737FA012237
:10566000D1030548FCF732FA012291030248FCF706
:105670002DFA00BF00BF10BD000C014070B5FFF750
:1056800097FB0446207801282ED1F748807801281E
:1056900003D0F5488078022817D10120F24908701C
:1056A00008464078072807DA08464078401C4870CA
:1056B00008464078087142E00020EB49087008462F
:1056C000407808710120487039E0E7488078032865
:1056D00035D1E548C07818BBE348407808282ED07B
:1056E0000120E149C8702AE02078022827D1DE484D
:1056F0008078032815D10020DB49087008464078DF
:10570000082807D008464078087108204870002013
:10571000C87014E0D4480079D34948700020C8709C
:105720000DE0D1488078012803D0CF488078022846
:1057300005D1CD480079CC49487000200870CA488E
:105740004078801E07282FD2DFE800F0040B1218E3
:105750001F262D000020C54908700220C44908708A
:1057600022E00120C14908700220C14908701BE0F5
:105770000220BE490870BE49087015E00520BB49EB
:1057800008700020BA4908700EE00320B74908707D
:105790000220B749087007E00520B44908700120CD
:1057A000B349087000E000BF00BF207803284DD146
:1057B000AD48407802281EDBAB48407807281ADC49
:1057C000AA48007805281EDAAA49A84A127851F892
:1057D0002200A949FAF7A6FF0ED8A649A34A1278D3
:1057E00051F822004FF07E51FAF7D2FCA1499F4AAE
:1057F000127841F822008EE000219E489B4A1278E0
:1058000040F8221087E09B492831984A127851F8D5
:1058100022009949FAF786FF10D896492831944A10
:10582000127851F822004FF07E51FAF7B1FC9149FD
:1058300028318F4A127841F822006CE000218D480F
:1058400028308B4A127840F8221064E0207804282F
:1058500061D18548407802285DDB8348407807287D
:1058600059DC56E0FCF738F9401BB0F5967F50D371
:10587000FCF732F905467D48007805281EDA7D4997
:105880007A4A127851F822007B49FAF74BFF0ED87A
:105890007849764A127851F822004FF07E51FAF793
:1058A00077FC7449714A127841F8220028E00021FF
:1058B00070486E4A127840F8221021E06D49283174
:1058C0006B4A127851F822006B49FAF72BFF10D877
:1058D00068492831664A127851F822004FF07E510B
:1058E000FAF756FC63492831614A127841F82200E0
:1058F00006E000215F4828305D4A127840F8221007
:10590000022000F003F90220FFF7D2F8012800D1AD
:1059100000E0A7E700BF207805282AD15248407848
:10592000022868DB50484078072864DC4F4800783C
:10593000052860DA4F494D4A127851F822004F4944
:10594000FAF7FAFE0ED24B49484A127851F8220073
:105950004FF07E51FAF76EFC4649444A127841F8FE
:10596000220048E045494348404A127840F8221056
:1059700041E0207806283ED13B48407802283ADBB7
:1059800039484078072836DC33E0FCF7A5F8401B9F
:10599000B0F5967F2DD3FCF79FF805463348007885
:1059A00005281DDA3349314A127851F8220033496B
:1059B000FAF7C2FE0ED22F492C4A127851F8220073
:1059C0004FF07E51FAF736FC2A49284A127841F8FE
:1059D000220005E029492748244A127840F822107D
:1059E000022000F093F80320FFF762F8012800D1AD
:1059F00000E0CAE700BF2078072841D11A48807824
:105A000001280DD10320184988700846007918B183
:105A100008460079487021E00220134948701DE0D3
:105A200011488078032808D101200F498870084662
:105A3000407808710120487010E00B4880780228F7
:105A40000CD10320084988700846007918B108462F
:105A50000079487002E001200349487000200249A3
:105A60000870FFF79FF94BE0380000204C00002041
:105A70004D000020C80100200000AA420000204183
:105A8000207808283CD120488078012812D10020B5
:105A90001D49887008700846007918B108460079D9
:105AA000087103E01848407817490871002016492A
:105AB000487023E014488078032809D10020124957
:105AC000087088700846407808710020487015E01A
:105AD0000D48807828B902200B4988700120487051
