:020000040800F2
:100000009805002001010008E31F0008B31C000848
:10001000E11F000809030008F124000800000000A7
:10002000000000000000000000000000E71F0008C2
:100030001903000800000000E51F0008F51F000874
:100040001B0100081B0100081B0100081B01000820
:100050001B0100081B0100081B0100082303000806
:100060001B0100081B010008290300081B010008F0
:100070001B0100081B0100081B0100080D030008FC
:100080001B0100081B0100081B0100081B010008E0
:100090001B0100081B0100081B0100082F030008BA
:1000A0001B010008AD2000081B0100081B0100080F
:1000B0001B0100081B0100081B0100081B010008B0
:1000C0001B0100081B0100081B0100081B010008A0
:1000D0001B010008C92400081B0100081B010008BF
:1000E0001B0300081B0100081B010008DFF80CD0EF
:1000F00000F09AF800480047292E000898050020D3
:100100000648804706480047FEE7FEE7FEE7FEE7B1
:10011000FEE7FEE7FEE7FEE7FEE7FEE765200008F4
:10012000ED000008D2B201E000F8012B491EFBD21D
:1001300070470022F6E710B513460A4604461946F2
:10014000FFF7F0FF204610BD80EA010210B502F073
:100150000043400022D04A001FD0010E01EB126183
:10016000C0F35600C2F3560240F4000042F400020D
:10017000A0FB022000047F39140400D0401C50EA88
:10018000124001D44000491EC2B20C0604EBD0104C
:10019000401C4008802A02D003E0002010BD20F05F
:1001A0000100002900DA0020184310BD20F00040B3
:1001B000C10DC0F3160040F400007F2901DA0020D1
:1001C0007047962903DCC1F19601C8407047963903
:1001D0008840704700F0004230F000400AD0C10D66
:1001E00001F56071C0F3160042EA0151C2084007F0
:1001F0001143704700200146704730B50B46014659
:1002000000202022012409E021FA02F59D4205D3B5
:1002100003FA02F5491B04FA02F52844151EA2F15F
:100220000102F1DC30BD0000064C074D06E0E0683D
:1002300040F0010394E8070098471034AC42F6D32D
:10024000FFF758FFD02F0008F02F000870B50446C4
:1002500000688168C943C9071CD1816821F0010188
:10026000816000F099FD05460FE000BF00F094FDAD
:10027000401B022809D9A06A40F01000A062E06A81
:1002800040F00100E062012070BD20688068C0433A
:10029000C007EBD0002070BDF8B5002604460096DC
:1002A00000688168C943C90728D0816841F001010D
:1002B0008160134813490068B0FBF1F000E0401E74
:1002C00000900028FBD100F067FD054611E000BF5B
:1002D00000F062FD401B02280BD9A06A40F010001C
:1002E000A062E06A40F00100E06284F8246001202E
:1002F000F8BD20688068C043C007E9D10020F8BD80
:100300000400002040420F00FEE70000014800F01A
:1003100017BB00002401002070474FF4004000F09C
:1003200035BC022000F032BC102000F02FBC202091
:1003300000F02CBC704700002DE9F047074686B05E
:10034000002001464FEA0D0545F82010401CC0B2C0
:100350000628F9D300264FF6FF7A41F288388946FD
:1003600019E00024214800F025FA51461F4800F00A
:1003700089F91E4800F0C8F855F82410084445F8DB
:100380002400404501D945F82490641CE4B2062CB1
:10039000E8D3761CF6B2BE42E3D3144800F06AFA02
:1003A0005FF0000055F82010B1FBF7F145F8201080
:1003B000401CC0B20628F5D30D490020059B55F816
:1003C000202002EB42029200B2FBF3F241F820201F
:1003D000401CC0B20528F1D355F82620314605A0AF
:1003E00002F088F806B0BDE8F08700003400002075
:1003F000740100206164634275665B25645D206959
:10040000733A20202025640A00000000F8B500247B
:10041000009490F824202546012A12D0012280F869
:1004200024204A681F23072A0DD20668776B521EC4
:1004300002EB820293409F430B6893401F43776314
:1004400019E00220F8BD06680D2A0AD2376BD21FC8
:1004500002EB820293409F430B6893401F43376334
:1004600009E0F76A0D3A02EB820293409F430B6862
:1004700093401F43F7620A68072306680A2A0AD3D3
:10048000F7680A3A02EB420293409F438B6893401D
:100490001F43F76008E0376902EB420293409F4335
:1004A0008B6893401F4337610A68102A01D0112AD4
:1004B00020D1124B02689A4217D193681B0219D4BB
:1004C000936843F4000393600968102912D10C4922
:1004D0000C4A0968B1FBF2F101EB8101490000E02F
:1004E000491E00910029FBD104E0816A41F02001FE
:1004F0008162012480F824502046F8BD0024014088
:100500000400002040420F000068C06C70470000EB
:100510002DE9F0414FF0000704003D467ED0A06A6F
:10052000002628B9E66284F82460204600F07EF8B0
:100530002046FFF78BFEA16AC90600D420B1A06A4D
:1005400040F01000A06269E0A16A21F4885141F0F6
:100550000201A1626268E169237B0A4347EA430121
:100560000A43A1684FF48077B94209D0012907D026
:100570005FF0000194F814C0BCF1010F02D00AE052
:100580003946F7E7F3B1A36A43F02003A362E36AB5
:1005900043F00103E3622368D3F804C02CF4694CF0
:1005A0004CEA010CC3F804C021688B68DFF870C006
:1005B00003EA0C0313438B60A168B9420BD00129F5
:1005C00009D00CE0DFF85CC0A3690CEB43330B43AC
:1005D00043F40061DFE7218A0D05A5F58015216848
:1005E000CB6A23F470032B43CB62216889680E4BDE
:1005F0001940914208D1E662A16A21F0020141F05E
:100600000101A162BDE8F081A06A20F0020040F083
:100610001000A062E06A40F00100E0620120F1E712
:10062000FDF7E1FF00E0FFFFFE0E1FFF00B585B004
:100630000021009101910291039100680E498842C6
:1006400018D10E48816941F400718161816901F41A
:1006500000710491816941F00401816180696946FA
:1006600000F004000490CE20009003200190044884
:1006700000F098FA05B000BD0024014000100240CF
:10068000000801402DE9F84300260D460446009677
:1006900000F082FB804620688168C90508D5A06A01
:1006A00040F02000A06284F824600120BDE8F883B7
:1006B0004168C90503D4C06A10F4700F26D0022027
:1006C00000F008FC38490968B1FBF0F720680369BD
:1006D00036490B424FEA61014FEAA1121BD1C368B0
:1006E0004FEA611C13EA0C0F15D103690B4221D1AB
:1006F000C06810421ED114201FE0681C06D045B30C
:1007000000F04AFBA0EB0800A84222D8206800684D
:100710008007F2D52AE003690B4202D1C168114279
:1007200006D0026922490A4206D1C068084203D1B4
:10073000542002E0292000E0FC204743009813E009
:10074000681C0ED02DB100F027FBA0EB0800A842DA
:1007500007D9A06A40F00400A06284F82460032056
:10076000A4E70098401C0090B842E9D321686FF0DC
:1007700012000860A06A40F40070A06220688068DF
:10078000C0F3424007280CD1207B50B9A06A20F466
:100790008070A062A06AC00403D4A06A40F0010087
:1007A000A062002082E70000040000202449922477
:1007B0004992240070B5044690F8240001280DD019
:1007C000012084F824002046FFF766FD02004FF068
:1007D000000005D084F82400104670BD022070BDD2
:1007E000A16A40F20123994341F48071A1621F4D37
:1007F00023681F49AB4218D10E6816F4702F14D02D
:10080000A66A46F48016A6620E68760505D5A66A25
:1008100026F4005646F48056A662A66AF6040AD567
:10082000E66A26F00606E66206E0A66A26F4801668
:10083000A6625E68E9E7E06284F824006FF00200D7
:10084000186020688368C3F34243072B05D1A84290
:1008500008D1096811F4702F04D0816841F4801127
:100860008160B9E7816841F4A001F9E700280140FF
:100870000424014010B5044690F82400012807D054
:10088000012084F824002046FFF7E0FC10B107E0C7
:10089000022010BDA16A21F4885141F00101A1623A
:1008A000002184F8241010BD10B590F82110002408
:1008B000022903D00421816301243DE001680A6814
:1008C00022F00E020A6001680A6822F001020A6042
:1008D0001A4A0168914201D1012121E0174A1432DC
:1008E000914201D110211BE0144A2832914201D1DA
:1008F000891515E0114A3C32914201D189140FE06B
:100900000E4A5032914202D14FF4803108E00B4A36
:100910006432914202D14FF4801101E04FF08071B6
:10092000064A083A5160012180F82110002180F820
:100930002010416B01B18847204610BD08000240DD
:100940002DE9F05FC16B0C6801680B68D0F840C0FE
:10095000042202FA0CF2494DDFF824A1494E4A4F15
:10096000DFF828B1DFF828E122422CD05A072AD537
:100970000A68920603D40A6822F004020A60016839
:10098000A94201D1042219E0514501D1402215E0CC
:10099000B14202D14FF4806210E0B94202D14FF46B
:1009A00080420BE0594502D14FF4802206E07145A8
:1009B00002D14FF4800201E04FF080622F490839E4
:1009C0004A60C16A3BE04FF0020808FA0CF818EAE6
:1009D000040F4FF000094FF0010235D05FEA837831
:1009E00032D50B689B0605D40B6823F00A030B6015
:1009F00080F821200168A94201D1022219E0514565
:100A000001D1202215E0B14202D14FF4007210E072
:100A1000B94202D14FF400520BE0594502D14FF4D4
:100A2000003206E0714502D14FF4001201E04FF0B0
:100A30000072124908394A6080F82090816A0029C2
:100A40001AD0BDE8F05F0847082505FA0CF52542E5
:100A500012D01B0710D50B6823F00E030B6090F823
:100A60004010C36B02FA01F15960826380F82120C3
:100A700080F82090016BE2E7BDE8F09F080002409B
:100A80001C00024030000240440002405800024076
:100A90006C00024030B528B308C813491422194429
:100AA000B1FBF2F18900C1631049816302214177F2
:100AB0001A6843F6F0718A43D0E900142143D0E963
:100AC00002452C432143046921434469214384693D
:100AD00021431143196000214163012242770177CC
:100AE000084630BD012030BDF8FFFDBF00000240C8
:100AF00010B54CF25031491EFDD2204C022814D0C2
:100B00001F4A10281ED020282AD04FF400418842C6
:100B100025D11C4800F036F9002820D100F03CF91E
:100B20006060607840F0040018E00221164800F090
:100B300029F9002813D100F02FF96060607840F0A7
:100B400001000BE01021104600F01CF9002806D12E
:100B500000F022F96060607840F04000607010BDE5
:100B60002021104600F00EF90028F8D100F014F909
:100B70006060607840F01000F0E70000680100203D
:100B80000008014000100140000C0140044910B56C
:100B90000A68024202D00860FFF7AAFF10BD0000F9
:100BA000140401402DE9F84FDFF8B891002409F151
:100BB000040A0AF1040B23460F270BF1040EC9E0C7
:100BC0000125A5402A40AA427DD1674ED1F804C034
:100BD000ACEB0608B44532D014DCBCF1030F3AD0BC
:100BE00009DCBCF1000F2AD0BCF1010F1CD0BCF114
:100BF000020F31D11DE0BCF1110F17D0BCF1120F63
:100C00002AD119E0B8F5881F19D006DCB8F5803F65
:100C100015D0B8F5801F1FD111E0B8F5001F0ED018
:100C2000B8F5041F18D10AE0CB6815E0CB681B1D8E
:100C300012E0CB6808330FE0CB680C330CE08B6814
:100C40002BB1012B4FF0080303D0456104E00423CE
:100C500002E0056100E00023FF2A01D8064601E01A
:100C600000F104064FEA840501D9A5F12005D6F864
:100C7000008007FA05FC28EA0C0803FA05F548EAA3
:100C80000508C6F800804D68ED0062D5374DAE69A5
:100C900046F00106AE61AD6924F0030605F00105DA
:100CA0000095334D06EB050CDCF80850A607360F0F
:100CB00007FA06F825EA0805DFF8B880404503D1B1
:100CC0004FF0000817E044E0DFF8AC80404502D167
:100CD0004FF001080FE0DFF8A480404502D14FF04B
:100CE000020808E0DFF89880404502D14FF0030881
:100CF00001E04FF0040808FA06F848EA0508CCF8C5
:100D000008804D68D9F80060ED034D4601D51643C3
:100D100000E096432E604D68DAF80060AD0355465A
:100D200001D5164300E096432E604D68DBF8006065
:100D3000ED025D4601D5164300E096432E604D68F6
:100D4000DEF80060AD02754601D5164300E096431B
:100D50002E60641C0D682A46E5407FF431AFBDE883
:100D6000F88F000000040140000011100010024044
:100D70000000014000080140000C0140001001404B
:100D8000001401408068084000D0012070470AB17B
:100D9000016170470904FBE7014880687047000063
:100DA0002800002002488168027811448160704761
:100DB00028000020074810B5016841F010010160CB
:100DC000032000F075F8002000F006F800F024F889
:100DD000002010BD0020024070B50D4D04464FF4B8
:100DE0007A712878B1FBF0F00A490968B1FBF0F09C
:100DF00000F0C6FB48B9102C07D200222146501E35
:100E000000F036F800206C6070BD012070BD00005D
:100E100028000020040000200C4808B5816941F03A
:100E200001018161816901F001010091C16941F015
:100E30008051C161C06900F0805000900448416851
:100E400021F0E06141F00071416008BD00100240F6
:100E500000000140002809DB00F01F020121914041
:100E60004009800000F1E020C0F800117047000048
:100E7000F0B40E4B1B680C46C3F30223C3F1070505
:100E8000042D00D90425191D072901D2002300E0F3
:100E9000DB1E012606FA05F1491E214099409E40BD
:100EA000761E16403143F0BC01F034BB0CED00E07F
:100EB000064900F0070208684FF6FF03184040EAB1
:100EC0000220034A10430860704700000CED00E068
:100ED0000000FA0510B529A401461DCC86B08DE8A6
:100EE0001D002AA02A4C006804900020012923D06C
:100EF00002293AD010291DD161682268D20119D582
:100F0000C1F38342C9031DF8020009D5616804AA30
:100F1000C1F34041515C1F4AB2FBF1F1484301E08B
:100F20001D4948436168490204D440005FF0030151
:100F3000B0FBF1F006B010BD226AC2F30121012915
:100F400003D1920701D5C803F4E7022905D1626AEB
:100F5000920702D549F64040ECE70329EAD121681F
:100F60008903E7D54FF22440E4E700F033F96168E4
:100F7000C1F38131491C4900DAE70000020304058E
:100F8000060708090A0B0C0D0E0F101001020000D5
:100F90000010024000127A0000093D002DE9F843DC
:100FA00005460078354CC00754D0E0690026C000E3
:100FB00008D4E06940F08050E061E069012600F06B
:100FC000805000902E480168C90512D401688046FF
:100FD00041F480710160FFF7DFFE074605E000BFC6
:100FE000FFF7DAFEC01B642823D8D8F80000C0053C
:100FF000F6D5206A10F4407021D0A98801F4407120
:1010000081421CD0206A1F49012220F440700A60EE
:1010100000220A602062C00711D0FFF7BDFE07461C
:1010200041F2883808E000BFFFF7B6FEC11B41451A
:1010300002D90320BDE8F883206A8007F4D5206A2E
:10104000696820F44070084320621EB1E06920F016
:101050008050E0612878800705D56068A96820F491
:101060004040084360602878C00605D56068E9689C
:1010700020F48000084360600020DBE7001002409D
:1010800000700040400442422DE9F0470F46050041
:1010900061D0434E306800F00700B84209D2306892
:1010A00020F0070038433060306800F00700B84295
:1010B00051D128683B4C810712D5400703D56068A1
:1010C00040F4E06060602878000703D5606840F471
:1010D000605060606068A96820F0F00008436060BC
:1010E0002878C00728D06868012810D02168022815
:1010F00010D0890700292EDA616821F0030101432D
:101100006160FFF749FE804641F288390DE02168B1
:101110008903EFE78901EDE7FFF73EFEA0EB080149
:10112000494502D90320BDE8F0876068696800F08E
:101130000C00B0EB810FEFD1306800F00700B8422F
:101140000BD9306820F0070038433060306800F079
:101150000700B84201D00120E5E72878400705D50F
:101160006068E96820F4E060084360602878000760
:1011700006D56068296920F4605040EAC1006060CB
:1011800000F038F86168084AC1F30311515CC840A7
:101190000649086006480068FFF71EFE0020C2E707
:1011A0000020024000100240B82F00080400002078
:1011B0002C0000200448054900684968044AC1F32E
:1011C0000221515CC840704704000020001002401A
:1011D000C82F00080448054900684968044AC1F35B
:1011E000C221515CC840704704000020001002403A
:1011F000C82F000812A185B00FC98DE80F0014A0F8
:10120000144A006804905168134801F00C03042B41
:1012100010D0082B0ED1C1F38343C9031DF803007E
:101220000AD5516804AAC1F34041515C0A4A5043AF
:10123000B0FBF1F005B0704708494843FAE70000F9
:1012400002030405060708090A0B0C0D0E0F101007
:10125000010200000010024000127A0000093D0067
:101260002DE9F84F040070D02078C04DC00749D058
:101270006868C0F38100012807D06868C0F3810066
:10128000022809D16868C00306D52868800339D5CB
:1012900060680028E7D035E06068B0F5803F0BD08B
:1012A00010B1B0F5A02F11D0286820F4803028604C
:1012B000286820F4802002E0286840F4803028600C
:1012C000606890B1FFF768FD06460AE0286840F4C0
:1012D00080202860F0E700BFFFF75EFD801B6428D8
:1012E00073D828688003F7D50CE0FFF755FD064654
:1012F00005E000BFFFF750FD801B6428F0D8286888
:101300008003F7D420789A4E80074FF001094FF000
:10131000000839D5686810F00C0F07D06868C0F372
:101320008100022809D16868C00306D428688007B4
:1013300014D52069012808D110E02069B0B1C6F8A1
:101340000090FFF729FD074605E00AE1FFF724FDBD
:10135000C01B0228C4D828688007F7D528686169AF
:1013600020F0F80040EAC10028600DE0C6F80080D7
:10137000FFF712FD074604E0FFF70EFDC01B022831
:1013800023D828688007F7D4207800072CD579481F
:10139000A169D9B1C0F80090FFF7FEFC074604E050
:1013A000FFF7FAFCC01B02280FD8686A8007F7D540
:1013B00071484FF4FA510068B0FBF1F0009000BFA3
:1013C0000098411E0091FAD20EE080E0C0F8008043
:1013D000FFF7E2FC074604E0FFF7DEFCC01B022833
:1013E00075D8686A8007F7D42078400760D5E86927
:1013F0000027C00008D4E86940F08050E861E8693F
:10140000012700F0805000905C480168C90513D4A2
:101410000168834641F480710160FFF7BDFC82469C
:1014200006E000BFFFF7B8FCA0EB0A0064284ED826
:10143000DBF80000C005F5D5E06801280AD008B146
:10144000052813D0286A20F001002862286A20F0BD
:10145000040002E0286A40F001002862E06841F2DE
:10146000883B98B1FFF798FC82460BE0286A40F071
:1014700004002862EEE700BFFFF78EFCA0EB0A0134
:1014800059455AD8286A8007F6D50CE0FFF784FC46
:10149000824605E0FFF780FCA0EB0A0159454CD8D5
:1014A000286A8007F6D41FB1E86920F08050E8610F
:1014B000E06988B36968C1F38101022944D0022838
:1014C000C6F8608004D0FFF767FC044638E034E0DB
:1014D000FFF762FC074604E0FFF75EFCC01B022832
:1014E0002BD828688001F7D4206AB0F5803F05D159
:1014F0006868A16820F4003008436860D4E90801F6
:101500000843696821F4741108436860C6F8609064
:10151000FFF742FC044606E025E000BFFFF73CFC75
:10152000001B022809D828688001F7D51BE000BFFE
:10153000FFF732FC001B022802D90320BDE8F88F18
:1015400028688001F4D40EE00128F7D06868226A88
:1015500000F48031914204D1616A00F47010884235
:1015600001D00120EAE70020E8E700000010024077
:10157000000042428004424204000020007000400B
:1015800010B5401EB0F1807F01D3012010BD4FF097
:10159000E02460610F21601700F0BCFF0020A06113
:1015A00007202061002010BD7047704710B590F8EB
:1015B0003C20012A22D0012280F83C20CA688C6895
:1015C00022F4407222434C6822F4806222430C6869
:1015D00022F4006222430C6922F4805222434C69B7
:1015E00022F400522243C969002322F480420A43B4
:1015F00001684A6480F83C30002010BD022010BD14
:1016000070B590F83C20012A19D0012400F83C4F15
:101610000222427050F83C3C5A689D6822F07006E5
:101620000A684968324325F0800529435A6050F81A
:101630003C2C9160447000210170084670BD02206E
:1016400070BD704770B50446006801694FF0000531
:10165000C943890715D4C168C943890711D4E91E54
:10166000016101202077206880698007204602D030
:10167000FFF7E7FF04E000F0BFF8204600F05EF956
:10168000257720680169C943490717D4C168C94350
:10169000490713D46FF0040101610220207720680C
:1016A000806910F4407F204602D0FFF7CAFF04E0B3
:1016B00000F0A2F8204600F041F925772068016982
:1016C000C943090716D4C168C943090712D46FF08A
:1016D00008010161042020772068C0698007204646
:1016E00002D0FFF7AEFF04E000F086F8204600F0DD
:1016F00025F9257720680169C943C90617D4C1684F
:10170000C943C90613D46FF0100101610820207786
:101710002068C06910F4407F204602D0FFF791FF97
:1017200004E000F069F8204600F008F92577206809
:101730000169C943C90708D1C168C943C90704D1B0
:10174000891E0161204600F017F920680169C9432C
:10175000090609D4C168C943090605D46FF08001A0
:1017600001612046FFF720FF20680169C94349064F
:1017700009D4C168C943490605D46FF0400101612D
:10178000204600F0FAF820680169C94389060BD4A5
:10179000C168C943890607D46FF020010161204662
:1017A000BDE87040FFF701BF70BD000000B585B017
:1017B0000021009101910291039100680B49884238
:1017C00012D10B48816941F0040181618069694649
:1017D00000F0040004904FF480700090022001900B
:1017E00003900448FFF7DEF905B000BD002C01406E
:1017F0000010024000080140704770B5044690F8A0
:101800003C000D4601280DD0012684F83C600220E2
:1018100084F83D0042B1042A18D0082A2AD00C2AA4
:101820004DD139E0022070BD206800F089FC2068AD
:10183000816941F0080181612068816921F004011A
:101840008161206881692A69114311E0206800F0F4
:101850009FFC2068816941F4006181612068816991
:1018600021F480618161206881692A6941EA02214D
:10187000816124E0206800F0B7FC2068C16941F074
:101880000801C1612068C16921F00401C1612068BB
:10189000C1692A69114311E0206800F0D1FC206879
:1018A000C16941F40061C1612068C16921F48061AE
:1018B000C1612068C1692A6941EA0221C16184F8D5
:1018C0003D60002084F83C0070BD10B5040003D0DA
:1018D00094F83D0010B107E0012010BD002084F80D
:1018E0003C00204600F00CF8022084F83D00211D49
:1018F000206800F0E1FB012084F83D00002010BDCD
:1019000008B500680B49884212D10B48816941F43F
:10191000006181618069002200F40060009011463E
:101920001920FFF7A5FABDE808401920FFF792BA81
:1019300008BD0000002C014000100240704700006C
:1019400010B504460068012200F0ECFB094920684C
:10195000884203D1416C41F40041416420688168B0
:1019600001F00701062903D0016841F0010101607F
:10197000002010BD002C01407047704770470000E8
:1019800070B5026804461068D168536910F00F0FF3
:1019900050D003F0010501F4907635435DD0C207C5
:1019A00005D0CA0503D5E26B42F00102E2634207AB
:1019B00005D5DA0703D0E26B42F00202E263820748
:1019C00005D5DA0703D0E26B42F00402E2630207B6
:1019D00005D5DA0703D0E26B42F00802E263E26B5E
:1019E000002A33D0800604D5880602D5204600F0B0
:1019F0005FFC20684069E16BC0F38010090700D4E8
:101A000028B3204600F046FC2068416949061AD5F3
:101A1000416921F040014161606BA0B11B49416304
:101A2000606BFEF741FF002810D0606B416BBDE892
:101A300070400847830610D58B060ED52046BDE8BA
:101A4000704000F035BC2046FFF798FF70BD20467F
:101A5000FFF794FF0020E06370BD030606D50B0678
:101A600004D52046BDE8704000F0CABC4006F3D55E
:101A70004806F1D5D168204621F04001D1602021EF
:101A800084F8391000F014F970BD000085220008B8
:101A900070B5040004D094F83900002510B106E0B8
:101AA000012070BD84F83850204600F023F824202F
:101AB00084F839002068C16821F40051C1602046D3
:101AC00000F042FC2068016921F490410161206826
:101AD000416921F02A0141612068C16841F4005147
:101AE000C160E563202084F8390084F83A000020C2
:101AF00070BD0000F0B585B00025009501950295F8
:101B00000395064603683548334C02210322071526
:101B1000A3423CD1836943F480438361836903F426
:101B200080430493836943F00403836180692C4CF0
:101B300000F0040004900802CDE900010392694618
:101B40002046FFF72FF8CDE900756946204602953B
:101B5000FFF728F8244C2348C4E900058020C4E995
:101B6000025025616561A5612046E561FEF792FF9F
:101B700008B1FEF7DFFB7463002211462520666280
:101B8000FFF776F92520FFF765F905B0F0BD174C92
:101B9000A342FAD1C36943F48023C361C36903F448
:101BA00080230493836943F0080383618069CDE94E
:101BB000007100F00800CDE903200D4C6946204675
:101BC000FEF7F0FFE014CDE90005694620460295D6
:101BD000FEF7E8FFD9E7000000380140001002409E
:101BE0000008014058000240240100200048004045
:101BF000000C014070472DE9F843044690F8390085
:101C00001F4616460D46202850D1A5B19EB194F826
:101C1000380001284AD0012084F838004FF000082D
:101C2000C4F83C80212084F83900FFF7B5F8A68479
:101C30008146E68426E00120BDE8F883E08C401E62
:101C4000E084A0684B46B0F5805F4FF000024FF093
:101C500080012046009703D000F003FCE8B90DE0B6
:101C600000F0FFFBC8B928882168C0F3080048606D
:101C7000206908B16D1C05E0AD1C03E0216815F872
:101C8000010B4860E08C0028D8D14B46002240214F
:101C90002046009700F0E5FB08B10320CCE72020A8
:101CA00084F8390084F838800020C5E70220C3E7B3
:101CB0007047FEE72DE9F04701250024174F8046C5
:101CC0004FF400695FEA053605FA04F010EA080FE0
:101CD00001D0012200E0002249463846FFF757F8BC
:101CE000002231463846FFF752F801223146384685
:101CF000FFF74DF8641CE4B2082CE5D3084D4FF40F
:101D00000074002221462846FFF741F82146284664
:101D1000BDE8F0470122FFF73AB800000008014093
:101D2000000C01403EB500212148009101911F4A5D
:101D300002910260921582600173012404750625E8
:101D400005614FF460224160C0E90642FEF7E0FB06
:101D5000009469461648CDE90145FEF757FB02207D
:101D60000090019069461248FEF750FB0320009056
:101D7000019069460E48FEF749FB0420CDE900506A
:101D800069460B48FEF742FB07240520CDE90040D9
:101D900069460748FEF73AFB1120CDE90005694680
:101DA00002940348FEF732FB3EBD000000240140D0
:101DB000340000202DE9F04F85B0002561480095E2
:101DC000019502950395816941F010018161816956
:101DD00001F010010491816941F020018161816964
:101DE00001F020010491816941F004018161816960
:101DF00001F004010491816941F008018161806969
:101E0000DFF8449100F008004FF4C0440490002231
:101E100021464846FEF7BBFFDFF830B100224FF203
:101E2000FD215846FEF7B3FFDFF824A14FF4C05858
:101E3000002241465046FEF7AAFF009401240226E4
:101E4000CDE90246694648460194FEF7ABFE414F94
:101E5000E003CDE90007694602944846FEF7A2FE7A
:101E600048F20100CDE90005694650460295FEF7AB
:101E700099FE3020CDE90007694602945046FEF7EE
:101E800091FE43F22100CDE90004CDE90246694606
:101E90005846FEF787FE0096CDE90174694658461C
:101EA000FEF780FE04208DE8710069465846FEF773
:101EB00079FE4CF21820CDE900040327CDE9024752
:101EC00069465846FEF76EFECDE90084CDE902462C
:101ED00069465046FEF766FEC020009001AA112018
:101EE00082E8A10069465846FEF75CFE2002CDE973
:101EF0000005694658460295FEF754FE0022114639
:101F00000720FEF7B5FF0720FEF7A4FF00221146C9
:101F10000A20FEF7ADFF0A20FEF79CFF00221146C3
:101F20001720FEF7A5FF1720FEF794FF00221146A9
:101F30002820FEF79DFF2820FEF78CFF05B0BDE8A6
:101F4000F08F00000010024000100140000C014022
:101F5000000801400000211010B592B000240F9439
:101F60001C2108A81094FEF7E4F820216846FEF72B
:101F7000E0F81A481849C0E900140421C0E90241F8
:101F800080210461C0E90541FFF79FFC0F940FA970
:101F900012481094FFF734FB602008900220CDE92E
:101FA00009040B940C940D94002208A90B480E947C
:101FB000FFF723FC00944FF40050CDE90440029455
:101FC00001940394694605480794FFF7EFFA034824
:101FD000FFF7ECFB12B010BD002C014064000020A4
:101FE000FEE770477047704701490020087070474E
:101FF0006801002010B5FEF7D5FEBDE810400120B5
:1020000000F0C8BC30B593B028216846FEF791F8BF
:1020100014210AA8FEF78DF8002401200F941094D3
:102020001194010412948DE8130004904FF4E01011
:10203000CDE90810022507956846FFF711F90F2032
:10204000CDE90A056802CDE90C4002210AA80E94E8
:10205000FFF71AF8A80311900F950FA8FEF79EFF3F
:1020600013B030BD0D48016841F0010101604168C5
:102070000B4A1140416001680A4A11400160016841
:1020800021F480210160416821F4FE0141604FF498
:102090001F0181600449C0030860704700100240BE
:1020A0000000FFF8FFFFF6FE08ED00E00148FFF733
:1020B000C9BA000064000020F0B50268164B174C46
:1020C000174D4FF08047984205D0B84203D0A04248
:1020D00001D0A84203D122F070064A6832439842E8
:1020E00005D0B84203D0A04201D0A84203D122F4C7
:1020F0004074CA6822434C6922F080022243026085
:102100008A68C2620A688262984201D109690163E1
:1021100001214161F0BD0000002C0140000400409D
:102120000008004010B501F01F030121046A994026
:102130008C430462016A9A401143016210BD0000A1
:1021400030B5026A22F001020262026A43688469C1
:1021500024F073050C682C4322F002058A682A4398
:102160000A4DA8420BD122F00805CA6823F4407337
:102170002A434D6922F004021D438B692B434360BF
:10218000846149684163026230BD0000002C014057
:1021900030B5026A22F010020262026A4368846962
:1021A0000D6824F4E64444EA05248D6822F02002F8
:1021B00042EA05120B4DA8420ED1CD6822F08002F2
:1021C00042EA05124D6923F4406343EA85038D69B1
:1021D00022F0400243EA85034360846149688163D9
:1021E000026230BD002C014030B5026A22F48072D8
:1021F0000262036A4268C46923F4007324F0730521
:102200000C682C438D6843EA05230C4DA8420ED17F
:10221000CD6823F4006343EA05234D6922F440525C
:1022200042EA05128D6923F4806342EA0512426096
:10223000C4614968C163036230BD0000002C0140E5
:1022400030B5026A22F480520262046A4268C369AD
:102250000D6823F4E64343EA05238D6824F4005413
:1022600044EA0534064DA84204D14D6922F4804267
:1022700042EA85124260C36149680164046230BD6C
:10228000002C014010B5406A0021C185C184FFF7D0
:1022900075FB10BD0168CA6822F49072CA600168BB
:1022A0004A6922F001024A61202180F83A10704701
:1022B00010B590F83A10222901D0022010BD816893
:1022C000B1F5805F11D00169002901681FD049680C
:1022D00001F07F03816A4A1C82620B70C18D491E26
:1022E0000904090CC18518D02BE00269816A002A13
:1022F0000268526805D0D2B20A80816A491C8162A4
:10230000ECE7C2F308020A80816A891CF7E74A6891
:10231000816A4B1C83620A70E0E70168CA6822F098
:102320002002CA600168CA6822F48072CA6001682B
:102330004A6922F001024A61202180F83A10FFF731
:1023400059FC002010BD00002DE9F0410446006852
:102350000169E26821F44051114301612169A068DB
:102360000843616908432168CA6841F20C639A43D3
:102370000243CA6020684169A26921F44071114397
:1023800041611E49206864253226884202D1FEF749
:1023900021FF01E0FEF70EFF00EBC00101EB001191
:1023A00060686FF018078000B1FBF0F2B2FBF5F245
:1023B000B1FBF0F37A4303EB8202B1FBF0F306EBDF
:1023C0000212B2FBF5F2B3FBF5F302F0F00202EBFE
:1023D0000312B1FBF0F3B1FBF0F0B0FBF5F0784382
:1023E00003EB800006EB0010B0FBF5F0216800F075
:1023F0000F0010448860BDE8F08100000038014003
:1024000090F83910212901D0022070478168B1F578
:10241000805F016A0BD04A1C026202680978516031
:10242000C18C491E0904090CC1840ED017E009882B
:102430000268C1F30801516001690029016A02D0F4
:10244000491C0162ECE7891CFBE70168CA6822F0BD
:102450008002CA600068C16841F04001C16000208C
:1024600070472DE9F041984617460E460446069DF2
:102470001DE0681C1BD02DB1FEF78EFCA0EB080000
:10248000A84214D92068C16821F4D071C1602068C5
:10249000416921F001014161202084F8390084F86C
:1024A0003A00002084F838000320BDE8F08120685D
:1024B000006836EA000004D00020B842D9D00020DD
:1024C000F3E70120F9E7000010B50448FFF758FAD8
:1024D000BDE8104002A000F00DB80000A4000020EC
:1024E000756172743120646174613A20200A0000C1
:1024F000FEE700000FB4054B10B503A9044A02988B
:1025000000F028F810BC5DF814FB0000912A0008C8
:10251000000000200907090E002804DB00F1E0207C
:1025200080F80014704700F00F0000F1E02080F800
:10253000141D704702E008C8121F08C1002AFAD112
:1025400070477047002001E001C1121F002AFBD133
:10255000704700002DE9FF4F89B09B4604460025D7
:1025600006E025280BD05A460B999047641C6D1C39
:1025700020780028F5D10DB02846BDE8F08F00275F
:10258000B8460122474900E0074314F8013F203BC9
:1025900002FA03F00842F7D120782E2819D114F856
:1025A000010F47F004072A280ED06FF02F02207881
:1025B000A0F1300109290CD808EB880102EB410198
:1025C00000EB0108641CF2E70A98641C50F8048BC5
:1025D0000A9020780028CED0642808D0692806D038
:1025E00075281ED05A460B9990476D1C58E00A99E1
:1025F0004FF00A0901C90A91002802DA40422D2150
:1026000002E0390504D52B218DF82010012103E0CB
:10261000F90704D02021F7E78A4608AE0DE0002133
:10262000FAE70A994FF00A0901C90A91F7E7494602
:10263000FDF7E3FD303106F8011D0028F7D1ADEBC1
:10264000060000F12009780701D44FF00108C845C1
:1026500002DDA8EB090000E000208046002706E02C
:1026600008A85A46C05D0B9990476D1C7F1C5745C2
:10267000F6DB04E030205A460B9990476D1CB8F108
:102680000001A8F10108F5DC05E016F8010B5A4637
:102690000B9990476D1CB9F10001A9F10109F4DC17
:1026A000641C65E70928010010B56420FDF744FEAD
:1026B000144801681E2914D299B141681E2913D209
:1026C00091B181681E2913D291B1C1681E2912D21D
:1026D00089B101691E2911D281B100214175C8B2A9
:1026E00010BD417D012201E0417D02221143F5E749
:1026F000417D0422FAE7417D0822F7E7417D41F45C
:102700006161EBE77401002070B5044614480D4682
:1027100081144314012D06D0012C11D0022C12D0AB
:10272000032C16D111E0012C04D0022C04D0032C70
:102730000FD103E0012204E0012208E0012205E0BC
:102740000022012103E0002201E000221946FEF7E9
:102750001EFB2A462146BDE8704002A0FFF7CABE14
:10276000000C01406465766963655F6374726C2078
:1027700069733A2020202564202025640A00000087
:102780002DE9F05F074601297ED17949DFF8E4B1F0
:1027900007EB010CCBF100017B18744D7449DFF895
:1027A000C8814FF47A764FF064094FF00A0A4FF06F
:1027B000D97E4942A5F10A0422B1012A6ED0022A2B
:1027C00070D0BCE08F4209DA4146FDF7BDFCFDF751
:1027D000EDFCB0FBF6F1695C491E6FE0BCF1D47F03
:1027E0001BD25946FDF7B0FCFDF7E0FCB0FBF6F15B
:1027F000695C2170B0FBF6F106FB11024946B2FBA1
:10280000F1F2AA5C521E6270B0FBF1F209FB1202F7
:102810005146B2FBF1F2AA5C1BE073451FD2FDF7F3
:1028200093FCFDF7C3FCB0FBF6F1695C2170B0FBD3
:10283000F6F106FB11024946B2FBF1F25146AA5CE1
:102840006270B0FBF9F209FB1202B2FBF1F2AA5C72
:10285000521EA270B0FBF1F20AFB12006DE0B0FB59
:10286000F6F1695C2170B0FBF6F106FB11024946F6
:10287000B2FBF1F25146AA5C6270B0FBF9F209FBBF
:102880001202B2FBF1F200E06BE0AA5CA270B0FBB6
:10289000FAF20AFB1270285C401E4FE08F4202DA07
:1028A000414604E031E0BCF1D47F11D25946FDF736
:1028B0004BFCFDF77BFCB0FBF6F1695C2170B0FBD3
:1028C000F6F106FB11024946B2FBF1F2AA5C9AE767
:1028D0007345ECD3B0FBF6F1695C2170B0FBF6F107
:1028E00006FB11024946B2FBF1F25146AA5C627046
:1028F000B0FBF9F209FB1202B2FBF1F2AA5CA27082
:10290000B0FBFAF20AFB127017E08F4217DA40F6BA
:10291000FF71B0FBF1F1695C217000F00F01695C9F
:1029200061701121B0FBF1F201FB1201695CA17031
:102930000F21B0FBF1F201FB1270285CE07017F17F
:10294000FF4F04D3012020706070A070E070384603
:10295000FDF740FCBDE8F05F02460B4606A0FFF71E
:10296000C9BDBDE8F09F000000007A4414000020BB
:102970000000E0BE0000C842646973706C61792099
:1029800069733A20202025640A000000042000F02A
:10299000C7BA000070B53D4C012578B300F0BCF813
:1029A000C079002829D1FEF7F7F9A168401A052857
:1029B00011D3617804F10C00405C401EC0B2FFF7F7
:1029C00079F9207800F0ACFA2078401CC0B2207071
:1029D000042800D92570FEF7DFF9A168401AB0F588
:1029E000FA6F0AD3FEF7D8F9A0606078401CC0B235
:1029F0006070102801D30020607070BDFFE700F008
:102A00008BF8224EC079B61C58B100F085F8C07919
:102A10000128F2D1FEF7C0F9A168401A05281BD29F
:102A200016E0FEF7B9F9A168401A052810D32078FE
:102A3000304410F8010CFFF73DF9207800F070FAEF
:102A40002078401CC0B220700428D6D92570D4E765
:102A5000FEF7A2F9A060D0E72078305CFFF72AF9F2
:102A600000F05AF801782078814206D1FEF794F9F7
:102A7000A168401AC82802D3207800F051FA2078C3
:102A8000401CC0B220700428E0D0B6E70800002047
:102A900038B504468DF8000001231A4669460248FD
:102AA000FFF7A9F8204638BDE400002010B5012149
:102AB0001648FEF767F9164C012816D0607D20F401
:102AC00072606075207D00F0FE00207504211148C1
:102AD000FEF758F90128207D10D000F46D602075B4
:102AE000607D20F47D60607510BD207D40F00100A8
:102AF0002075607D40F462606075E7E740F0020099
:102B00002075607D40F46460EDE70000000801403E
:102B100074010020000C0140004870478C01002027
:102B200010B500F005F8014810BD00006801002054
:102B30002DE9F041484C0127607800B127728107E8
:102B40004FF0000540F6B8361CD0DFF810810221A6
:102B50004046FEF717F938B16078657001280ED04D
:102B6000022020703EA06FE0FEF716F96168401A5F
:102B7000B042ECD3607840F002006070ECE7277060
:102B80003CA061E010F00C0F1FD0DFF8FC804FF488
:102B9000004739464046FEF7F5F838B16078657071
:102BA00004280ED00420207038A04DE0FEF7F4F881
:102BB0006168401AB042ECD3607840F00800607061
:102BC000ECE70320207036A03EE03A4F10F0300FC3
:102BD0000BD11CE0FEF7E0F86168401AB04204D364
:102BE000607840F02000607005E020213846FEF754
:102BF000C9F80028EED060786570102803D0062050
:102C000020702DA020E00520207030A01CE080095D
:102C10000DD1BDE8F08100BFFEF7BEF86168401A33
:102C2000B04204D3607840F08000607005E010216D
:102C30003846FEF7A7F80028EED060786570402887
:102C400006D00820207026A0BDE8F041FFF752BC56
:102C50000720207027A0F7E768010020000C014042
:102C60006B657931206973206C6F6E6720686974B9
:102C70000A0000006B6579312069732073686F72F8
:102C800074206869740A0000001001406B65793295
:102C9000206973206C6F6E67206869740A000000F9
:102CA0006B6579322069732073686F72742068696C
:102CB000740A0000000801406B65793320697320B5
:102CC0006C6F6E67206869740A0000006B65793369
:102CD0002069732073686F7274206869740A000039
:102CE0006B657934206973206C6F6E672068697436
:102CF0000A0000006B6579342069732073686F7275
:102D000074206869740A000070B502464FF40053DD
:102D10001B485C001B4D012918D0012A24D0022A2F
:102D200025D0032A26D0042A28D100221946064697
:102D3000FEF72DF8002220212846FEF728F8002271
:102D400021463046BDE87040FEF721B8012A0CD07C
:102D5000022A05D0032A05D0042A0FD10122E5E773
:102D6000002205E0002206E000221946EAE70122DF
:102D70002146E7E7012220212846E3E770BD000055
:102D800000100140000C01402DE9F047244C05469D
:102D9000244E207A4FF0010940B915B9E079002896
:102DA0003BD0FDF7F9FF306084F8089002274FF41C
:102DB000FA68012D0FD0E07901280CD0022D1FD028
:102DC00002281DD0032D1BD0032819D0042D17D0A5
:102DD000042815D01EE084F80790207A012819D124
:102DE00001210220FFF790FCFDF7D6FF3168401A61
:102DF00040450FD3012127720846FFF785FC09E003
:102E0000207A012806D1FDF7C7FF3168401A4045F6
:102E100000D32772002D00D0E571BDE8F0870000D7
:102E20008C0100202400002008B5FDF7C3FFFFF748
:102E3000E9F8FEF7BFFF2048416941F00101416117
:102E40004069002200F00100009011460F20FEF7BB
:102E50000FF80F20FDF7FEFFFEF764FFFFF77CF889
:102E6000174816494FF4E13500240160C0E90154C8
:102E70000C26C460C0E904468461C461FEF708FE04
:102E80000F48104940300160C0E90154C460C0E9F6
:102E900004468461C461FEF7FBFDFFF777FD084837
:102EA00000214038FEF74CFD00F00EF80021042010
:102EB000FFF72AFFF8E70000001002400038014049
:102EC000A40000200048004070B5FFF729FE04462A
:102ED000FFF7EAFBFFF7EAFD0F4D687D60B9207848
:102EE00038B10E490120C871FFF74EFFFFF77CF89B
:102EF00002E00020FFF748FF0848C079002809D108
:102F0000687D002806D03046BDE8704002220121CD
:102F1000FFF736BC70BD0000740100208C0100205A
:102F200070B54FF40045234C6E10012807D00228DD
:102F300016D0032820D0042825D0012224E0012225
:102F400008212046FDF723FF012210212046FDF72E
:102F50001EFF012229462046FDF719FF002222E02C
:102F6000012208212046FDF712FF012210212046F0
:102F7000FDF70DFF002211E0012208212046FDF798
:102F800006FF002205E0002208212046FDF7FFFE93
:102F9000012210212046FDF7FAFE01222946204693
:102FA000FDF7F5FE012231462046BDE87040FDF7F1
:102FB000EEBE0000000C0140000000000000000018
:102FC00001020304060708090000000001020304CF
:102FD000F02F000800000020340000003425000815
:102FE0002430000834000020640500004425000857
:102FF000000000000024F4000000039F250D0000E5
:1030000000000000039F250D9949411F010911C1CE
:1030100063856171000000000100000010000000E5
:0430200000000000AC
:04000005080000ED02
:00000001FF
