:020000040800F2
:100000002805002001010008FB1D0008E11A000876
:10001000F91D0008B50200087D220008000000005C
:10002000000000000000000000000000FF1D0008AC
:10003000C502000800000000FD1D0008011E0008A8
:100040001B0100081B0100081B0100081B01000820
:100050001B0100081B0100081B010008CF0200085B
:100060001B0100081B010008D50200081B01000845
:100070001B0100081B0100081B010008B902000851
:100080001B0100081B0100081B0100081B010008E0
:100090001B0100081B0100081B010008DB0200080F
:1000A0001B010008B91E00081B0100081B01000805
:1000B0001B0100081B0100081B0100081B010008B0
:1000C0001B0100081B0100081B0100081B010008A0
:1000D0001B010008712200081B0100081B01000819
:1000E000C70200081B0100081B010008DFF80CD044
:1000F00000F070F800480047A125000828050020FE
:100100000648804706480047FEE7FEE7FEE7FEE7B1
:10011000FEE7FEE7FEE7FEE7FEE7FEE7711E0008EA
:10012000ED000008D2B201E000F8012B491EFBD21D
:1001300070470022F6E710B513460A4604461946F2
:10014000FFF7F0FF204610BD80EA010210B502F073
:100150000043400022D04A001FD0010E01EB126183
:10016000C0F35600C2F3560240F4000042F400020D
:10017000A0FB022000047F39140400D0401C50EA88
:10018000124001D44000491EC2B20C0604EBD0104C
:10019000401C4008802A02D003E0002010BD20F05F
:1001A0000100002900DA0020184310BD20F00040B3
:1001B000C10DC0F3160040F400007F2901DA0020D1
:1001C0007047962903DCC1F19601C8407047963903
:1001D00088407047064C074D06E0E06840F0010398
:1001E00094E8070098471034AC42F6D3FFF782FF3B
:1001F000EC2600080C27000870B5044600688168EA
:10020000C943C9071CD1816821F00101816000F058
:100210005FFD05460FE000BF00F05AFD401B0228BD
:1002200009D9A06A40F01000A062E06A40F0010025
:10023000E062012070BD20688068C043C007EBD039
:10024000002070BDF8B5002604460096006881685D
:10025000C943C90728D0816841F001018160134872
:1002600013490068B0FBF1F000E0401E0090002848
:10027000FBD100F02DFD054611E000BF00F028FD88
:10028000401B02280BD9A06A40F01000A062E06A6F
:1002900040F00100E06284F824600120F8BD20688D
:1002A0008068C043C007E9D10020F8BD14000020D9
:1002B00040420F00FEE70000014800F0C5BA000010
:1002C000E000002070474FF4004000F0FBBB02202C
:1002D00000F0F8BB102000F0F5BB202000F0F2BBCE
:1002E00070470000014800787047000018000020A7
:1002F0000EB5694600900120019004200290074845
:1003000000F022F8054800F0F3F90A21034800F054
:1003100057F9024800F096F80EBD000030000020AA
:100320002DE9F04100250E4607462C4605E03846EB
:10033000FFF7DEFF641C0544E4B2B442F7D3B5FB1B
:10034000F6F0BDE8F0810000F8B50024009490F8C4
:1003500024202546012A12D0012280F824204A6850
:100360001F23072A0DD20668776B521E02EB82020A
:1003700093409F430B6893401F43776319E002202B
:10038000F8BD06680D2A0AD2376BD21F02EB820233
:1003900093409F430B6893401F43376309E0F76A1C
:1003A0000D3A02EB820293409F430B6893401F4338
:1003B000F7620A68072306680A2A0AD3F7680A3A26
:1003C00002EB420293409F438B6893401F43F760C8
:1003D00008E0376902EB420293409F438B689340E9
:1003E0001F4337610A68102A01D0112A20D1124B0D
:1003F00002689A4217D193681B0219D4936843F498
:10040000000393600968102912D10C490C4A09684D
:10041000B1FBF2F101EB8101490000E0491E0091BE
:100420000029FBD104E0816A41F0200181620124AE
:1004300080F824502046F8BD00240140140000201C
:1004400040420F000068C06C704700002DE9F04189
:100450004FF0000704003D467ED0A06A002628B970
:10046000E66284F82460204600F07EF82046FFF71C
:10047000C3FEA16AC90600D420B1A06A40F01000F2
:10048000A06269E0A16A21F4885141F00201A162F1
:100490006268E169237B0A4347EA43010A43A16892
:1004A0004FF48077B94209D0012907D05FF00001ED
:1004B00094F814C0BCF1010F02D00AE03946F7E706
:1004C000F3B1A36A43F02003A362E36A43F001039C
:1004D000E3622368D3F804C02CF4694C4CEA010CA5
:1004E000C3F804C021688B68DFF870C003EA0C030E
:1004F00013438B60A168B9420BD0012909D00CE0ED
:10050000DFF85CC0A3690CEB43330B4343F4006199
:10051000DFE7218A0D05A5F580152168CB6A23F454
:1005200070032B43CB62216889680E4B19409142BE
:1005300008D1E662A16A21F0020141F00101A16245
:10054000BDE8F081A06A20F0020040F01000A06237
:10055000E06A40F00100E0620120F1E7FDF7E1FF11
:1005600000E0FFFFFE0E1FFF00B585B000210091E7
:1005700001910291039100680E49884218D10E48FA
:10058000816941F400718161816901F40071049114
:10059000816941F0040181618069694600F00400CD
:1005A0000490CE20009003200190044800F096FAB9
:1005B00005B000BD002401400010024000080140C9
:1005C0002DE9F84300260D460446009600F080FB16
:1005D000804620688168C90508D5A06A40F02000DF
:1005E000A06284F824600120BDE8F8834168C90551
:1005F00003D4C06A10F4700F26D0022000F006FC6D
:1006000038490968B1FBF0F72068036936490B42A5
:100610004FEA61014FEAA1121BD1C3684FEA611C86
:1006200013EA0C0F15D103690B4221D1C0681042A7
:100630001ED114201FE0681C06D045B300F048FB13
:10064000A0EB0800A84222D8206800688007F2D5F5
:100650002AE003690B4202D1C168114206D0026947
:1006600022490A4206D1C068084203D1542002E060
:10067000292000E0FC204743009813E0681C0ED0BE
:100680002DB100F025FBA0EB0800A84207D9A06A15
:1006900040F00400A06284F824600320A4E70098DE
:1006A000401C0090B842E9D321686FF01200086046
:1006B000A06A40F40070A06220688068C0F34240E5
:1006C00007280CD1207B50B9A06A20F48070A0626A
:1006D000A06AC00403D4A06A40F00100A062002018
:1006E00082E700001400002024499224499224004B
:1006F00070B5044690F8240001280DD0012084F83C
:1007000024002046FFF79EFD02004FF0000005D0B8
:1007100084F82400104670BD022070BDA16A40F22A
:100720000123994341F48071A1621F4D23681F4941
:10073000AB4218D10E6816F4702F14D0A66A46F496
:100740008016A6620E68760505D5A66A26F40056C0
:1007500046F48056A662A66AF6040AD5E66A26F032
:100760000606E66206E0A66A26F48016A6625E68C1
:10077000E9E7E06284F824006FF002001860206866
:100780008368C3F34243072B05D1A84208D1096807
:1007900011F4702F04D0816841F480118160B9E7B1
:1007A000816841F4A001F9E70028014004240140D8
:1007B00010B590F821100024022903D00421816390
:1007C00001243DE001680A6822F00E020A60016817
:1007D0000A6822F001020A601A4A0168914201D1B6
:1007E000012121E0174A1432914201D110211BE06E
:1007F000144A2832914201D1891515E0114A3C3240
:10080000914201D189140FE00E4A5032914202D137
:100810004FF4803108E00B4A6432914202D14FF428
:10082000801101E04FF08071064A083A51600121C1
:1008300080F82110002180F82010416B01B1884719
:10084000204610BD080002402DE9F05FC16B0C6826
:1008500001680B68D0F840C0042202FA0CF2494D3E
:10086000DFF824A1494E4A4FDFF828B1DFF828E12C
:1008700022422CD05A072AD50A68920603D40A6865
:1008800022F004020A600168A94201D1042219E0A1
:10089000514501D1402215E0B14202D14FF48062AE
:1008A00010E0B94202D14FF480420BE0594502D129
:1008B0004FF4802206E0714502D14FF4800201E03E
:1008C0004FF080622F4908394A60C16A3BE04FF01F
:1008D000020808FA0CF818EA040F4FF000094FF06C
:1008E000010235D05FEA837832D50B689B0605D4C8
:1008F0000B6823F00A030B6080F821200168A942ED
:1009000001D1022219E0514501D1202215E0B14266
:1009100002D14FF4007210E0B94202D14FF40052FC
:100920000BE0594502D14FF4003206E0714502D187
:100930004FF4001201E04FF00072124908394A608A
:1009400080F82090816A00291AD0BDE8F05F08473E
:10095000082505FA0CF5254212D01B0710D50B68A7
:1009600023F00E030B6090F84010C36B02FA01F104
:100970005960826380F8212080F82090016BE2E7C3
:10098000BDE8F09F080002401C0002403000024019
:1009900044000240580002406C00024030B528B3C9
:1009A00008C8134914221944B1FBF2F18900C1634C
:1009B00010498163022141771A6843F6F0718A4336
:1009C000D0E900142143D0E902452C4321430469B6
:1009D0002143446921438469214311431960002163
:1009E0004163012242770177084630BD012030BDC6
:1009F000F8FFFDBF0000024070B52E4C40F6B83540
:100A000002280DD02C4A102821D0202832D0B0F551
:100A1000004F0DD10021294800F050F928B93CE0E1
:100A20000021274800F04AF918B100F051F9606040
:100A300070BD00F04DF96168401AA842A07802D359
:100A400040F0020001E040F00100A07070BD002104
:100A5000104600F033F90028E7D100F039F9616859
:100A6000401AA842A07802D340F08000EDE740F0A1
:100A70004000EAE70021104600F020F90028D4D118
:100A800000F026F96168401AA842A07802D340F02D
:100A90002000DAE740F01000D7E700F019F96168AC
:100AA000401AA842A07802D340F00800CDE740F0F9
:100AB0000400CAE7000000200008014000100140C7
:100AC000000C0140044910B50A68024202D00860D7
:100AD000FFF792FF10BD0000140401402DE9F84F0C
:100AE000DFF8B891002409F1040A0AF1040B234647
:100AF0000F270BF1040EC9E00125A5402A40AA42A8
:100B00007DD1674ED1F804C0ACEB0608B44532D0B5
:100B100014DCBCF1030F3AD009DCBCF1000F2AD081
:100B2000BCF1010F1CD0BCF1020F31D11DE0BCF1B2
:100B3000110F17D0BCF1120F2AD119E0B8F5881F98
:100B400019D006DCB8F5803F15D0B8F5801F1FD14D
:100B500011E0B8F5001F0ED0B8F5041F18D10AE057
:100B6000CB6815E0CB681B1D12E0CB6808330FE0A3
:100B7000CB680C330CE08B682BB1012B4FF00803D2
:100B800003D0456104E0042302E0056100E0002396
:100B9000FF2A01D8064601E000F104064FEA840569
:100BA00001D9A5F12005D6F8008007FA05FC28EA4E
:100BB0000C0803FA05F548EA0508C6F800804D68F8
:100BC000ED0062D5374DAE6946F00106AE61AD6904
:100BD00024F0030605F001050095334D06EB050CE6
:100BE000DCF80850A607360F07FA06F825EA0805CC
:100BF000DFF8B880404503D14FF0000817E044E02B
:100C0000DFF8AC80404502D14FF001080FE0DFF87B
:100C1000A480404502D14FF0020808E0DFF8988038
:100C2000404502D14FF0030801E04FF0040808FAF4
:100C300006F848EA0508CCF808804D68D9F8006045
:100C4000ED034D4601D5164300E096432E604D68F6
:100C5000DAF80060AD03554601D5164300E096432F
:100C60002E604D68DBF80060ED025D4601D516434D
:100C700000E096432E604D68DEF80060AD027546D8
:100C800001D5164300E096432E60641C0D682A4689
:100C9000E5407FF431AFBDE8F88F0000000401406B
:100CA0000000111000100240000001400008014047
:100CB000000C014000100140001401408068084011
:100CC00000D0012070470AB1016170470904FBE7B9
:100CD00001488068704700000800002002488168D1
:100CE000027811448160704708000020074810B561
:100CF000016841F010010160032000F075F8002048
:100D000000F006F800F024F8002010BD002002409A
:100D100070B50D4D04464FF47A712878B1FBF0F0B0
:100D20000A490968B1FBF0F000F0C6FB48B9102C85
:100D300007D200222146501E00F036F800206C60D9
:100D400070BD012070BD00000800002014000020CC
:100D50000C4808B5816941F001018161816901F0A8
:100D600001010091C16941F08051C161C06900F089
:100D7000805000900448416821F0E06141F000712A
:100D8000416008BD0010024000000140002809DB5E
:100D900000F01F02012191404009800000F1E02095
:100DA000C0F8001170470000F0B40E4B1B680C46F1
:100DB000C3F30223C3F10705042D00D90425191D2F
:100DC000072901D2002300E0DB1E012606FA05F107
:100DD000491E214099409E40761E16403143F0BC8A
:100DE00001F04DBA0CED00E0064900F0070208687A
:100DF0004FF6FF03184040EA0220034A1043086000
:100E0000704700000CED00E00000FA0510B529A4C1
:100E100001461DCC86B08DE81D002AA02A4C006832
:100E200004900020012923D002293AD010291DD195
:100E300061682268D20119D5C1F38342C9031DF844
:100E4000020009D5616804AAC1F34041515C1F4A00
:100E5000B2FBF1F1484301E01D4948436168490292
:100E600004D440005FF00301B0FBF1F006B010BD08
:100E7000226AC2F30121012903D1920701D5C803D7
:100E8000F4E7022905D1626A920702D549F640408B
:100E9000ECE70329EAD121688903E7D54FF2244022
:100EA000E4E700F033F96168C1F38131491C49007E
:100EB000DAE7000002030405060708090A0B0C0D17
:100EC0000E0F1010010200000010024000127A0004
:100ED00000093D002DE9F84305460078354CC00770
:100EE00054D0E0690026C00008D4E06940F080508A
:100EF000E061E069012600F0805000902E48016812
:100F0000C90512D40168804641F480710160FFF781
:100F1000DFFE074605E000BFFFF7DAFEC01B6428CE
:100F200023D8D8F80000C005F6D5206A10F4407028
:100F300021D0A98801F4407181421CD0206A1F4948
:100F4000012220F440700A6000220A602062C0077B
:100F500011D0FFF7BDFE074641F2883808E000BF18
:100F6000FFF7B6FEC11B414502D90320BDE8F88357
:100F7000206A8007F4D5206A696820F4407008432D
:100F800020621EB1E06920F08050E061287880077F
:100F900005D56068A96820F440400843606028785F
:100FA000C00605D56068E96820F4800008436060E9
:100FB0000020DBE700100240007000404004424285
:100FC0002DE9F0470F46050061D0434E306800F030
:100FD0000700B84209D2306820F00700384330607B
:100FE000306800F00700B84251D128683B4C8107B7
:100FF00012D5400703D5606840F4E060606028784F
:10100000000703D5606840F4605060606068A968BC
:1010100020F0F000084360602878C00728D0686896
:10102000012810D02168022810D0890700292EDA63
:10103000616821F0030101436160FFF749FE8046CA
:1010400041F288390DE021688903EFE78901EDE776
:10105000FFF73EFEA0EB0801494502D90320BDE899
:10106000F0876068696800F00C00B0EB810FEFD189
:10107000306800F00700B8420BD9306820F0070054
:1010800038433060306800F00700B84201D00120DA
:10109000E5E72878400705D56068E96820F4E06056
:1010A000084360602878000706D56068296920F445
:1010B000605040EAC100606000F038F86168084A9A
:1010C000C1F30311515CC840064908600648006836
:1010D000FFF71EFE0020C2E7002002400010024081
:1010E000D4260008140000200C0000200448054904
:1010F00000684968044AC1F30221515CC840704746
:101100001400002000100240E426000804480549AD
:1011100000684968044AC1F3C221515CC840704765
:101120001400002000100240E426000812A185B03F
:101130000FC98DE80F0014A0144A0068049051688C
:10114000134801F00C03042B10D0082B0ED1C1F36F
:101150008343C9031DF803000AD5516804AAC1F3EB
:101160004041515C0A4A5043B0FBF1F005B0704772
:1011700008494843FAE70000020304050607080986
:101180000A0B0C0D0E0F101001020000001002409F
:1011900000127A0000093D002DE9F84F040070D0DC
:1011A0002078C04DC00749D06868C0F3810001288D
:1011B00007D06868C0F38100022809D16868C003BD
:1011C00006D52868800339D560680028E7D035E067
:1011D0006068B0F5803F0BD010B1B0F5A02F11D0F2
:1011E000286820F480302860286820F4802002E0FD
:1011F000286840F480302860606890B1FFF768FD8F
:1012000006460AE0286840F480202860F0E700BF26
:10121000FFF75EFD801B642873D828688003F7D52C
:101220000CE0FFF755FD064605E000BFFFF750FD57
:10123000801B6428F0D828688003F7D420789A4E61
:1012400080074FF001094FF0000839D5686810F0A9
:101250000C0F07D06868C0F38100022809D16868C4
:10126000C00306D42868800714D52069012808D156
:1012700010E02069B0B1C6F80090FFF729FD0746DD
:1012800005E00AE1FFF724FDC01B0228C4D8286846
:101290008007F7D52868616920F0F80040EAC100AE
:1012A00028600DE0C6F80080FFF712FD074604E055
:1012B000FFF70EFDC01B022823D828688007F7D44B
:1012C000207800072CD57948A169D9B1C0F80090E1
:1012D000FFF7FEFC074604E0FFF7FAFCC01B0228FC
:1012E0000FD8686A8007F7D571484FF4FA51006843
:1012F000B0FBF1F0009000BF0098411E0091FAD2BF
:101300000EE080E0C0F80080FFF7E2FC074604E052
:10131000FFF7DEFCC01B022875D8686A8007F7D487
:101320002078400760D5E8690027C00008D4E86944
:1013300040F08050E861E869012700F0805000909B
:101340005C480168C90513D40168834641F4807183
:101350000160FFF7BDFC824606E000BFFFF7B8FC66
:10136000A0EB0A0064284ED8DBF80000C005F5D5D4
:10137000E06801280AD008B1052813D0286A20F0B7
:1013800001002862286A20F0040002E0286A40F088
:1013900001002862E06841F2883B98B1FFF798FCB1
:1013A00082460BE0286A40F004002862EEE700BFA6
:1013B000FFF78EFCA0EB0A0159455AD8286A80072E
:1013C000F6D50CE0FFF784FC824605E0FFF780FCD1
:1013D000A0EB0A0159454CD8286A8007F6D41FB102
:1013E000E86920F08050E861E06988B36968C1F37A
:1013F0008101022944D00228C6F8608004D0FFF79A
:1014000067FC044638E034E0FFF762FC074604E07E
:10141000FFF75EFCC01B02282BD828688001F7D498
:10142000206AB0F5803F05D16868A16820F40030DB
:1014300008436860D4E908010843696821F474111D
:1014400008436860C6F86090FFF742FC044606E077
:1014500025E000BFFFF73CFC001B022809D82868E4
:101460008001F7D51BE000BFFFF732FC001B02280C
:1014700002D90320BDE8F88F28688001F4D40EE07B
:101480000128F7D06868226A00F48031914204D1C3
:10149000616A00F47010884201D00120EAE7002060
:1014A000E8E700000010024000004242800442428F
:1014B000140000200070004010B5401EB0F1807F85
:1014C00001D3012010BD4FF0E02460610F216017AF
:1014D00000F0D5FE0020A06107202061002010BD93
:1014E0007047704710B590F83C20012A22D00122A5
:1014F00080F83C20CA688C6822F4407222434C6811
:1015000022F4806222430C6822F4006222430C69B8
:1015100022F4805222434C6922F400522243C969CA
:10152000002322F480420A4301684A6480F83C3078
:10153000002010BD022010BD70B590F83C20012A9B
:1015400019D0012400F83C4F0222427050F83C3C74
:101550005A689D6822F070060A684968324325F08F
:10156000800529435A6050F83C2C9160447000215A
:101570000170084670BD022070BD704770B504460A
:10158000006801694FF00005C943890715D4C16897
:10159000C943890711D4E91E016101202077206821
:1015A00080698007204602D0FFF7E7FF04E000F0E3
:1015B000BFF8204600F05EF9257720680169C9432D
:1015C000490717D4C168C943490713D46FF0040110
:1015D0000161022020772068806910F4407F204656
:1015E00002D0FFF7CAFF04E000F0A2F8204600F0A6
:1015F00041F9257720680169C943090716D4C168F4
:10160000C943090712D46FF0080101610420207753
:101610002068C0698007204602D0FFF7AEFF04E0D3
:1016200000F086F8204600F025F92577206801694A
:10163000C943C90617D4C168C943C90613D46FF09A
:1016400010010161082020772068C06910F4407FF4
:10165000204602D0FFF791FF04E000F069F8204631
:1016600000F008F9257720680169C943C90708D146
:10167000C168C943C90704D1891E0161204600F031
:1016800017F920680169C943090609D4C168C9432B
:10169000090605D46FF0800101612046FFF720FFA5
:1016A00020680169C943490609D4C168C94349068C
:1016B00005D46FF040010161204600F0FAF820687F
:1016C0000169C94389060BD4C168C943890607D497
:1016D0006FF0200101612046BDE87040FFF701BFB7
:1016E00070BD000000B585B000210091019102910C
:1016F000039100680B49884212D10B48816941F07F
:10170000040181618069694600F0040004904FF48F
:10171000807000900220019003900448FFF7DEF9EA
:1017200005B000BD002C014000100240000801403F
:10173000704770B5044690F83C000D4601280DD066
:10174000012684F83C60022084F83D0042B1042A5E
:1017500018D0082A2AD00C2A4DD139E0022070BDB9
:10176000206800F0F3FB2068816941F00801816185
:101770002068816921F004018161206881692A69FA
:10178000114311E0206800F009FC2068816941F4F0
:10179000006181612068816921F480618161206834
:1017A00081692A6941EA0221816124E0206800F010
:1017B00021FC2068C16941F00801C1612068C1694C
:1017C00021F00401C1612068C1692A69114311E057
:1017D000206800F03BFC2068C16941F40061C161F0
:1017E0002068C16921F48061C1612068C1692A69EA
:1017F00041EA0221C16184F83D60002084F83C0088
:1018000070BD10B5040003D094F83D0010B107E09E
:10181000012010BD002084F83C00204600F00CF8A8
:10182000022084F83D00211D206800F04BFB0120C0
:1018300084F83D00002010BD08B500680B498842BF
:1018400012D10B48816941F40061816180690022F5
:1018500000F40060009011461920FFF7A5FABDE8DA
:1018600008401920FFF792BA08BD0000002C014083
:10187000001002407047000010B5044600680122C5
:1018800000F056FB09492068884203D1416C41F4BD
:10189000004141642068816801F00701062903D0F6
:1018A000016841F001010160002010BD002C0140E1
:1018B000704770477047000070B5026804461068B2
:1018C000D168536910F00F0F50D003F0010501F4F7
:1018D000907635435DD0C20705D0CA0503D5E26BCB
:1018E00042F00102E263420705D5DA0703D0E26B5A
:1018F00042F00202E263820705D5DA0703D0E26B09
:1019000042F00402E263020705D5DA0703D0E26B76
:1019100042F00802E263E26B002A33D0800604D56D
:10192000880602D5204600F0C9FB20684069E16BBB
:10193000C0F38010090700D428B3204600F0B0FBA4
:101940002068416949061AD5416921F04001416189
:10195000606BA0B11B494163606BFEF729FF002853
:1019600010D0606B416BBDE870400847830610D50E
:101970008B060ED52046BDE8704000F09FBB204688
:10198000FFF798FF70BD2046FFF794FF0020E0634B
:1019900070BD030606D50B0604D52046BDE8704091
:1019A00000F034BC4006F3D54806F1D5D168204696
:1019B00021F04001D160202184F8391000F08FF827
:1019C00070BD00009120000870B5040004D094F8A8
:1019D0003900002510B106E0012070BD84F83850B0
:1019E000204600F023F8242084F839002068C168DC
:1019F00021F40051C160204600F0ACFB2068016971
:101A000021F4904101612068416921F02A0141617E
:101A10002068C16841F40051C160E563202084F86A
:101A2000390084F83A00002070BD000070B586B01F
:101A30000025064600950195029503950068224908
:101A400088423ED12149886940F480408861886994
:101A500000F480400490886940F00400886188693F
:101A60001B4C00F0040004904815009002200190E7
:101A70000320039069462046FFF730F82015CDE992
:101A80000005694620460295FFF728F8124C1148D8
:101A9000C4E900058020C4E9025025616561A561A3
:101AA0002046E561FEF77AFF08B1FEF719FC746382
:101AB0000022114625206662FFF776F92520FFF700
:101AC00065F906B070BD000000380140001002400A
:101AD0000008014058000240E000002070477047B5
:101AE000FEE700002DE9F04701250024174F80464E
:101AF0004FF400695FEA053605FA04F010EA080FB2
:101B000001D0012200E0002249463846FFF7DBF809
:101B1000002231463846FFF7D6F8012231463846D2
:101B2000FFF7D1F8641CE4B2082CE5D3084D4FF45C
:101B30000074002221462846FFF7C5F821462846B2
:101B4000BDE8F0470122FFF7BEB8000000080140E1
:101B5000000C01403EB500250D4800950195029509
:101B60000A498560016005730575012445604FF4DD
:101B700060210461C161FEF769FC00946946044874
:101B8000CDE90145FEF7E0FB3EBD00000024014029
:101B9000300000202DE9F04F85B000256E480095FB
:101BA000019502950395816941F010018161816978
:101BB00001F010010491816941F020018161816986
:101BC00001F020010491816941F004018161816982
:101BD00001F004010491816941F00801816180698B
:101BE000DFF8788100F008004FF4C0440490002230
:101BF00021464046FFF767F8DFF864B100224FF254
:101C0000FD215846FFF75FF8DFF858A14FF4C0599F
:101C1000002249465046FFF756F800940124022658
:101C2000CDE90246694640460194FEF757FF4E4F04
:101C3000E003CDE90007694602944046FEF74EFFF7
:101C400048F20100CDE90005694650460295FEF7CD
:101C500045FFDFF818811020CDE90008694602949D
:101C60005046FEF73BFF2020CDE90007694602946D
:101C70005046FEF733FF43F22100CDE90004CDE9E1
:101C8000024669465846FEF729FF0096CDE90184D1
:101C900069465846FEF722FF04208DE87100694628
:101CA0005846FEF71BFFA002CDE900060327694650
:101CB00003975846FEF712FFE002CDE9000569469A
:101CC00058460295FEF70AFF4CF21820CDE90004B1
:101CD000CDE9024769465846FEF700FFCDE900947A
:101CE000CDE9024669465046FEF7F8FEC020009056
:101CF00001AA112082E8A10069465846FEF7EEFECF
:101D00002002CDE90005694658460295FEF7E6FE39
:101D1000002211460720FFF747F80720FFF736F8A3
:101D2000002211460A20FFF73FF80A20FFF72EF89D
:101D3000002211461720FFF737F81720FFF726F883
:101D4000002211462820FFF72FF82820FFF71EF861
:101D500005B0BDE8F08F0000001002400010014007
:101D6000000C01400008014000002110000031106B
:101D700010B592B000240F941C2108A81094FEF70F
:101D8000D8F920216846FEF7D4F91A481849C0E965
:101D900000140421C0E9024180210461C0E9054129
:101DA000FFF72FFD0F940FA912481094FFF7C4FB03
:101DB000602008900220CDE909040B940C940D9446
:101DC000002208A90B480E94FFF7B3FC00944FF4CF
:101DD0000050CDE9044002940194039469460548FB
:101DE0000794FFF77FFB0348FFF77CFC12B010BDA0
:101DF000002C014060000020FEE7704770477047EC
:101E000010B5FEF76BFFBDE8104000F05EBB30B5CB
:101E100093B028216846FEF78CF914210AA8FEF732
:101E200088F900240F941094119401204FF4A021FC
:101E300012948DE81300049002250004CDE90750A8
:101E4000C00009906846FFF7A7F90F20CDE90A0501
:101E50006802CDE90C4001210AA80E94FFF7B0F802
:101E6000A80311900F950FA8FFF734F813B030BDF9
:101E70000D48016841F00101016041680B4A1140C1
:101E8000416001680A4A11400160016821F4802123
:101E90000160416821F4FE0141604FF41F0181603F
:101EA0000449C00308607047001002400000FFF8BA
:101EB000FFFFF6FE08ED00E00148FFF75FBB000002
:101EC00060000020F0B50268164B174C174D4FF01C
:101ED0008047984205D0B84203D0A04201D0A84222
:101EE00003D122F070064A683243984205D0B842C6
:101EF00003D0A04201D0A84203D122F44074CA68A2
:101F000022434C6922F08002224302608A68C26246
:101F10000A688262984201D1096901630121416125
:101F2000F0BD0000002C014000040040000800400B
:101F300010B501F01F030121046A99408C4304622B
:101F4000016A9A401143016210BD000030B5026A77
:101F500022F001020262026A4368846924F0730578
:101F60000C682C4322F002058A682A430A4DA842D5
:101F70000BD122F00805CA6823F440732A434D6947
:101F800022F004021D438B692B434360846149683E
:101F90004163026230BD0000002C014030B5026A8E
:101FA00022F010020262026A436884690D6824F418
:101FB000E64444EA05248D6822F0200242EA051234
:101FC0000B4DA8420ED1CD6822F0800242EA0512E4
:101FD0004D6923F4406343EA85038D6922F0400292
:101FE00043EA85034360846149688163026230BDCE
:101FF000002C014030B5026A22F480720262036A4A
:102000004268C46923F4007324F073050C682C4300
:102010008D6843EA05230C4DA8420ED1CD6823F408
:10202000006343EA05234D6922F4405242EA051257
:102030008D6923F4806342EA05124260C4614968F5
:10204000C163036230BD0000002C014030B5026A5C
:1020500022F480520262046A4268C3690D6823F464
:10206000E64343EA05238D6824F4005444EA05342A
:10207000064DA84204D14D6922F4804242EA8512FD
:102080004260C36149680164046230BD002C0140B4
:1020900010B5406A0021C185C184FFF70BFC10BD5B
:1020A0000168CA6822F49072CA6001684A6922F025
:1020B00001024A61202180F83A10704710B590F86B
:1020C0003A10222901D0022010BD8168B1F5805F4D
:1020D00011D00169002901681FD0496801F07F0310
:1020E000816A4A1C82620B70C18D491E0904090C69
:1020F000C18518D02BE00269816A002A0268526803
:1021000005D0D2B20A80816A491C8162ECE7C2F331
:1021100008020A80816A891CF7E74A68816A4B1CB9
:1021200083620A70E0E70168CA6822F02002CA6090
:102130000168CA6822F48072CA6001684A6922F0A4
:1021400001024A61202180F83A10FFF7C7FC002005
:1021500010BD00002DE9F041044600680169E26805
:1021600021F44051114301612169A068084361696C
:1021700008432168CA6841F20C639A430243CA606B
:1021800020684169A26921F44071114341611E49EF
:10219000206864253226884202D1FEF7B7FF01E0AD
:1021A000FEF7A4FF00EBC00101EB001160686FF0C7
:1021B00018078000B1FBF0F2B2FBF5F2B1FBF0F3CF
:1021C0007A4303EB8202B1FBF0F306EB0212B2FB9F
:1021D000F5F2B3FBF5F302F0F00202EB0312B1FBF0
:1021E000F0F3B1FBF0F0B0FBF5F0784303EB8000C7
:1021F00006EB0010B0FBF5F0216800F00F00104472
:102200008860BDE8F08100000038014090F8391086
:10221000212901D0022070478168B1F5805F016AF1
:102220000BD04A1C0262026809785160C18C491EB9
:102230000904090CC1840ED017E009880268C1F3B3
:102240000801516001690029016A02D0491C01623C
:10225000ECE7891CFBE70168CA6822F08002CA60CB
:102260000068C16841F04001C16000207047000073
:102270000148FFF721BB0000A0000020FEE709078E
:10228000090E002804DB00F1E02080F800147047FC
:1022900000F00F0000F1E02080F8141D704702E00C
:1022A00008C8121F08C1002AFAD1704770470020E1
:1022B00001E001C1121F002AFBD1704730B4124B5C
:1022C0009C145D1401290BD0012815D0022816D0CA
:1022D000032817D10022294630BC1846FEF7F3BC6C
:1022E000012805D0022805D003280BD10122F2E7EE
:1022F000012202E0012203E000220121ECE700229A
:102300002146E9E730BC7047000C01402DE9F05F41
:10231000684C4FF0010BA4F1010A012914D09AF87E
:1023200000005546204410F8010CFFF7DBFB28782D
:1023300000F086F92878401CC0B22870042801D12A
:1023400085F800B0BDE8F09F5B49DFF870E100EB75
:102350000108CEF10001574D00EB010C56492D1D2F
:1023600064274FF47A764FF00A0949421AB188423D
:1023700069DA53496FE0884209DA5149FDF7E4FE12
:10238000FDF714FFB0FBF6F1695C80396AE0B8F143
:10239000D47F1AD27146FDF7D7FEFDF707FFB0FBD9
:1023A000F6F1695C2170B0FBF6F106FB1101B1FB9F
:1023B000F7F1695C803961704946B0FBF1F209FBC5
:1023C0001202B2FBF7F2AA5C1BE0BCF1D97F1ED26D
:1023D000FDF7BAFEFDF7EAFEB0FBF6F1695C21708D
:1023E000B0FBF6F106FB1101B1FBF7F1695C61701E
:1023F0004946B0FBF1F209FB1202B2FBF7F2AA5C0C
:10240000803AA270B0FBF1F209FB12004CE0B3FB82
:10241000F6F0285C2070B3FBF6F006FB1030B0FB42
:10242000F7F0285C60704846B3FBF0F109FB11310E
:10243000B1FBF7F1695CA170B3FBF9F109FB113055
:10244000285C803831E0B8F1D47F01D2714602E0D7
:10245000BCF1D97F0FD2FDF777FEFDF7A7FEB0FBE9
:10246000F6F1695C2170B0FBF6F106FB1101B1FBDE
:10247000F7F1695C9FE7B3FBF6F0285C2070B3FBD3
:10248000F6F006FB1030B0FBF7F0285C60704846B1
:10249000B3FBF0F109FB1131B1FBF7F1695CA170FD
:1024A000B3FBF9F109FB1130285CE0708AF800B049
:1024B00048E700001A0000200000E0BE0000C8420B
:1024C00000007A44042000F0BBB810B5FEF700FC11
:1024D000001B052806D30022BDE810401146104617
:1024E000FFF714BFBDE81040FEF7F2BB012805D08E
:1024F000022806D104210348FEF7E0BB012102486F
:10250000FAE77047000C01400008014070B5024630
:102510004FF4005320485C00204D012918D0012AB7
:102520002ED0022A2FD0032A30D0042A32D1002202
:1025300019460646FEF7C7FB012220212846FEF772
:10254000C2FB012221463046BDE87040FEF7BBBB0E
:10255000012A16D0022A0FD0032A0FD0042A19D13B
:10256000012219460646FEF7AEFB0022202128462E
:10257000FEF7A9FB0022E5E7002205E0002206E0C5
:1025800000221946E0E701222146DDE70122202151
:102590002846D9E770BD000000100140000C014042
:1025A00008B5FEF7A3FBFFF732FCFFF7F3FA20486C
:1025B000416941F0010141614069002200F00100E0
:1025C000009011460F20FEF7EFFB0F20FEF7DEFB19
:1025D000FFF7C0FAFFF7CCFB174816490C22016041
:1025E0004FF4E131416000218160C160C0E9041213
:1025F0008161C161FFF7E8F9FFF764FF0E48002130
:102600004038FFF739F90D4C64210120FDF788FEB1
:1026100001210846FFF77AFFFDF764FE20700121D3
:102620000846FFF74BFE0120FFF760FF6070EBE705
:102630000010024000380140A000002000000020EF
:1026400070B54FF40045224C6E1001280CD00228C2
:102650001BD0032825D0042823D00122082120469E
:10266000FEF731FB012222E0012208212046FEF77D
:102670002AFB012210212046FEF725FB01222946D4
:102680002046FEF720FB00221BE001220821204605
:10269000FEF719FB012210212046FEF714FB002251
:1026A0000AE0012208212046FEF70DFB002210213E
:1026B0002046FEF708FB012229462046FEF703FBD1
:1026C000012231462046BDE87040FEF7FCBA00000A
:1026D000000C0140000000000000000001020304A3
:1026E0000607080900000000010203040C27000887
:1026F00000000020300000009E2200083C27000857
:1027000030000020F8040000AE22000800000000A5
:1027100000000000010000001000000000000000A8
:102720000024F400000100000000C0F9A4B0999258
:0C27300082F880908883C6A1868E00008D
:04000005080000ED02
:00000001FF
