:020000040800F2
:100000006805002001010008671F0008331C000874
:10001000651F000855020008692400080000000060
:100020000000000000000000000000006B1F00083E
:100030006502000800000000691F00086D1F00082D
:100040001B0100081B0100081B0100081B01000820
:100050001B0100081B0100081B0100086F020008BB
:100060001B0100081B010008750200081B010008A5
:100070001B0100081B0100081B01000859020008B1
:100080001B0100081B0100081B0100081B010008E0
:100090001B0100081B0100081B0100087B0200086F
:1000A0001B010008252000081B0100081B01000897
:1000B0001B0100081B0100081B0100081B010008B0
:1000C0001B0100081B0100081B0100081B010008A0
:1000D0001B010008412400081B0100081B01000847
:1000E000670200081B0100081B010008DFF80CD0A4
:1000F00000F040F800480047B127000868050020DC
:100100000648804706480047FEE7FEE7FEE7FEE7B1
:10011000FEE7FEE7FEE7FEE7FEE7FEE7DD1F00087D
:10012000ED000008D2B201E000F8012B491EFBD21D
:1001300070470022F6E710B513460A4604461946F2
:10014000FFF7F0FF204610BD30B50B4601460020FA
:100150002022012409E021FA02F59D4205D303FA89
:1001600002F5491B04FA02F52844151EA2F101020A
:10017000F1DC30BD064C074D06E0E06840F00103BD
:1001800094E8070098471034AC42F6D3FFF7B2FF6B
:100190001C2900083C29000870B5044600688168E5
:1001A000C943C9071CD1816821F00101816000F0B9
:1001B000B3FD05460FE000BF00F0AEFD401B022876
:1001C00009D9A06A40F01000A062E06A40F0010086
:1001D000E062012070BD20688068C043C007EBD09A
:1001E000002070BDF8B500260446009600688168BE
:1001F000C943C90728D0816841F0010181601348D3
:1002000013490068B0FBF1F000E0401E00900028A8
:10021000FBD100F081FD054611E000BF00F07CFD40
:10022000401B02280BD9A06A40F01000A062E06ACF
:1002300040F00100E06284F824600120F8BD2068ED
:100240008068C043C007E9D10020F8BD0C00002041
:1002500040420F00FEE70000014800F00FBB000025
:100260002401002070474FF4004000F04FBC0220F2
:1002700000F04CBC102000F049BC202000F046BC2F
:10028000704700000148007870470000100000200F
:100290000EB56946009001200190042002900748A5
:1002A00000F052F8054800F023FA0A21034800F054
:1002B00087F9024800F0C6F80EBD000034000020A7
:1002C0002DE9F04786B04FF000080F4682464446BD
:1002D0006D465046FFF7DCFF00264FF6FF790DE034
:1002E0004946124800F06CF9104800F0ABF855F898
:1002F0002410761C084445F82400F6B2BE42EFD321
:1003000055F824002146B0FBF7F245F8242008A058
:1003100002F0ACF8054800F04BFA641CE4B2052C7E
:10032000D7D3B8FBF7F006B0BDE8F0873400002063
:100330006164634275665B25645D2069733A2020C1
:100340002025640A00000000F8B50024009490F80D
:1003500024202546012A12D0012280F824204A6850
:100360001F23072A0DD20668776B521E02EB82020A
:1003700093409F430B6893401F43776319E002202B
:10038000F8BD06680D2A0AD2376BD21F02EB820233
:1003900093409F430B6893401F43376309E0F76A1C
:1003A0000D3A02EB820293409F430B6893401F4338
:1003B000F7620A68072306680A2A0AD3F7680A3A26
:1003C00002EB420293409F438B6893401F43F760C8
:1003D00008E0376902EB420293409F438B689340E9
:1003E0001F4337610A68102A01D0112A20D1124B0D
:1003F00002689A4217D193681B0219D4936843F498
:10040000000393600968102912D10C490C4A09684D
:10041000B1FBF2F101EB8101490000E0491E0091BE
:100420000029FBD104E0816A41F0200181620124AE
:1004300080F824502046F8BD002401400C00002024
:1004400040420F000068C06C704700002DE9F04189
:100450004FF0000704003D467ED0A06A002628B970
:10046000E66284F82460204600F07EF82046FFF71C
:1004700093FEA16AC90600D420B1A06A40F0100022
:10048000A06269E0A16A21F4885141F00201A162F1
:100490006268E169237B0A4347EA43010A43A16892
:1004A0004FF48077B94209D0012907D05FF00001ED
:1004B00094F814C0BCF1010F02D00AE03946F7E706
:1004C000F3B1A36A43F02003A362E36A43F001039C
:1004D000E3622368D3F804C02CF4694C4CEA010CA5
:1004E000C3F804C021688B68DFF870C003EA0C030E
:1004F00013438B60A168B9420BD0012909D00CE0ED
:10050000DFF85CC0A3690CEB43330B4343F4006199
:10051000DFE7218A0D05A5F580152168CB6A23F454
:1005200070032B43CB62216889680E4B19409142BE
:1005300008D1E662A16A21F0020141F00101A16245
:10054000BDE8F081A06A20F0020040F01000A06237
:10055000E06A40F00100E0620120F1E7FDF7E1FF11
:1005600000E0FFFFFE0E1FFF00B585B000210091E7
:1005700001910291039100680E49884218D10E48FA
:10058000816941F400718161816901F40071049114
:10059000816941F0040181618069694600F00400CD
:1005A0000490CE20009003200190044800F0BAFA95
:1005B00005B000BD002401400010024000080140C9
:1005C0002DE9F84300260D460446009600F0A4FBF2
:1005D000804620688168C90508D5A06A40F02000DF
:1005E000A06284F824600120BDE8F8834168C90551
:1005F00003D4C06A10F4700F26D0022000F02AFC49
:1006000038490968B1FBF0F72068036936490B42A5
:100610004FEA61014FEAA1121BD1C3684FEA611C86
:1006200013EA0C0F15D103690B4221D1C0681042A7
:100630001ED114201FE0681C06D045B300F06CFBEF
:10064000A0EB0800A84222D8206800688007F2D5F5
:100650002AE003690B4202D1C168114206D0026947
:1006600022490A4206D1C068084203D1542002E060
:10067000292000E0FC204743009813E0681C0ED0BE
:100680002DB100F049FBA0EB0800A84207D9A06AF1
:1006900040F00400A06284F824600320A4E70098DE
:1006A000401C0090B842E9D321686FF01200086046
:1006B000A06A40F40070A06220688068C0F34240E5
:1006C00007280CD1207B50B9A06A20F48070A0626A
:1006D000A06AC00403D4A06A40F00100A062002018
:1006E00082E700000C000020244992244992240053
:1006F00070B5044690F8240001280DD0012084F83C
:1007000024002046FFF76EFD02004FF0000005D0E8
:1007100084F82400104670BD022070BDA16A40F22A
:100720000123994341F48071A1621F4D23681F4941
:10073000AB4218D10E6816F4702F14D0A66A46F496
:100740008016A6620E68760505D5A66A26F40056C0
:1007500046F48056A662A66AF6040AD5E66A26F032
:100760000606E66206E0A66A26F48016A6625E68C1
:10077000E9E7E06284F824006FF002001860206866
:100780008368C3F34243072B05D1A84208D1096807
:1007900011F4702F04D0816841F480118160B9E7B1
:1007A000816841F4A001F9E70028014004240140D8
:1007B00010B5044690F82400012807D0012084F8E1
:1007C00024002046FFF7E8FC10B107E0022010BD2E
:1007D000A16A21F4885141F00101A162002184F84D
:1007E000241010BD10B590F821100024022903D068
:1007F0000421816301243DE001680A6822F00E02B1
:100800000A6001680A6822F001020A601A4A016857
:10081000914201D1012121E0174A1432914201D1C4
:1008200010211BE0144A2832914201D1891515E0AC
:10083000114A3C32914201D189140FE00E4A5032E4
:10084000914202D14FF4803108E00B4A6432914268
:1008500002D14FF4801101E04FF08071064A083A4E
:100860005160012180F82110002180F82010416B97
:1008700001B18847204610BD080002402DE9F05F15
:10088000C16B0C6801680B68D0F840C0042202FA02
:100890000CF2494DDFF824A1494E4A4FDFF828B148
:1008A000DFF828E122422CD05A072AD50A6892069E
:1008B00003D40A6822F004020A600168A94201D147
:1008C000042219E0514501D1402215E0B14202D184
:1008D0004FF4806210E0B94202D14FF480420BE045
:1008E000594502D14FF4802206E0714502D14FF400
:1008F000800201E04FF080622F4908394A60C16AE6
:100900003BE04FF0020808FA0CF818EA040F4FF029
:1009100000094FF0010235D05FEA837832D50B68C9
:100920009B0605D40B6823F00A030B6080F8212096
:100930000168A94201D1022219E0514501D12022CA
:1009400015E0B14202D14FF4007210E0B94202D179
:100950004FF400520BE0594502D14FF4003206E04B
:10096000714502D14FF4001201E04FF000721249BC
:1009700008394A6080F82090816A00291AD0BDE8C1
:10098000F05F0847082505FA0CF5254212D01B0731
:1009900010D50B6823F00E030B6090F84010C36B6A
:1009A00002FA01F15960826380F8212080F82090DA
:1009B000016BE2E7BDE8F09F080002401C00024026
:1009C0003000024044000240580002406C000240E7
:1009D00030B528B308C8134914221944B1FBF2F109
:1009E0008900C16310498163022141771A6843F687
:1009F000F0718A43D0E900142143D0E902452C4329
:100A000021430469214344692143846921431143FB
:100A1000196000214163012242770177084630BD09
:100A2000012030BDF8FFFDBF0000024070B5334C1F
:100A300040F6B835022813D0314A102827D0202894
:100A40003CD0B0F5004F21D100212E4800F05AF9DA
:100A500098B300F061F96060A07840F0040014E001
:100A60000021294800F04EF930B100F055F96060DE
:100A7000A07840F0010008E000F04EF96168401AEB
:100A8000A84203D3A07840F00200A07070BD0021FE
:100A9000104600F037F930B100F03EF96060A07800
:100AA00040F04000F1E700F037F96168401AA842D1
:100AB000ECD3A07840F08000E7E715E00021104675
:100AC00000F020F930B100F027F96060A07840F024
:100AD0001000DAE700F020F96168401AA842D5D387
:100AE000A07840F02000D0E700F016F96168401AC5
:100AF000A842CBD3A07840F00800C6E7040000204D
:100B00000008014000100140000C0140044910B5EC
:100B10000A68024202D00860FFF788FF10BD00009B
:100B2000140401402DE9F84FDFF8B891002409F1D1
:100B3000040A0AF1040B23460F270BF1040EC9E047
:100B40000125A5402A40AA427DD1674ED1F804C0B4
:100B5000ACEB0608B44532D014DCBCF1030F3AD03C
:100B600009DCBCF1000F2AD0BCF1010F1CD0BCF194
:100B7000020F31D11DE0BCF1110F17D0BCF1120FE3
:100B80002AD119E0B8F5881F19D006DCB8F5803FE6
:100B900015D0B8F5801F1FD111E0B8F5001F0ED099
:100BA000B8F5041F18D10AE0CB6815E0CB681B1D0F
:100BB00012E0CB6808330FE0CB680C330CE08B6895
:100BC0002BB1012B4FF0080303D0456104E004234F
:100BD00002E0056100E00023FF2A01D8064601E09B
:100BE00000F104064FEA840501D9A5F12005D6F8E5
:100BF000008007FA05FC28EA0C0803FA05F548EA24
:100C00000508C6F800804D68ED0062D5374DAE6925
:100C100046F00106AE61AD6924F0030605F001055A
:100C20000095334D06EB050CDCF80850A607360F8F
:100C300007FA06F825EA0805DFF8B880404503D131
:100C40004FF0000817E044E0DFF8AC80404502D1E7
:100C50004FF001080FE0DFF8A480404502D14FF0CB
:100C6000020808E0DFF89880404502D14FF0030801
:100C700001E04FF0040808FA06F848EA0508CCF845
:100C800008804D68D9F80060ED034D4601D5164344
:100C900000E096432E604D68DAF80060AD035546DB
:100CA00001D5164300E096432E604D68DBF80060E6
:100CB000ED025D4601D5164300E096432E604D6877
:100CC000DEF80060AD02754601D5164300E096439C
:100CD0002E60641C0D682A46E5407FF431AFBDE804
:100CE000F88F0000000401400000111000100240C5
:100CF0000000014000080140000C014000100140CC
:100D0000001401408068084000D0012070470AB1FB
:100D1000016170470904FBE70148806870470000E3
:100D200028000020024881680278114481607047E1
:100D300028000020074810B5016841F0100101604B
:100D4000032000F075F8002000F006F800F024F809
:100D5000002010BD0020024070B50D4D04464FF438
:100D60007A712878B1FBF0F00A490968B1FBF0F01C
:100D700000F0C6FB48B9102C07D200222146501EB5
:100D800000F036F800206C6070BD012070BD0000DE
:100D9000280000200C0000200C4808B5816941F0B3
:100DA00001018161816901F001010091C16941F096
:100DB0008051C161C06900F08050009004484168D2
:100DC00021F0E06141F00071416008BD0010024077
:100DD00000000140002809DB00F01F0201219140C2
:100DE0004009800000F1E020C0F8001170470000C9
:100DF000F0B40E4B1B680C46C3F30223C3F1070586
:100E0000042D00D90425191D072901D2002300E073
:100E1000DB1E012606FA05F1491E214099409E403D
:100E2000761E16403143F0BC01F030BB0CED00E003
:100E3000064900F0070208684FF6FF03184040EA31
:100E40000220034A10430860704700000CED00E0E8
:100E50000000FA0510B529A401461DCC86B08DE826
:100E60001D002AA02A4C006804900020012923D0EC
:100E700002293AD010291DD161682268D20119D502
:100E8000C1F38342C9031DF8020009D5616804AAB1
:100E9000C1F34041515C1F4AB2FBF1F1484301E00C
:100EA0001D4948436168490204D440005FF00301D2
:100EB000B0FBF1F006B010BD226AC2F30121012996
:100EC00003D1920701D5C803F4E7022905D1626A6C
:100ED000920702D549F64040ECE70329EAD12168A0
:100EE0008903E7D54FF22440E4E700F033F9616865
:100EF000C1F38131491C4900DAE70000020304050F
:100F0000060708090A0B0C0D0E0F10100102000055
:100F10000010024000127A0000093D002DE9F8435C
:100F200005460078354CC00754D0E0690026C00063
:100F300008D4E06940F08050E061E069012600F0EB
:100F4000805000902E480168C90512D4016880467F
:100F500041F480710160FFF7DFFE074605E000BF46
:100F6000FFF7DAFEC01B642823D8D8F80000C005BC
:100F7000F6D5206A10F4407021D0A98801F44071A0
:100F800081421CD0206A1F49012220F440700A606F
:100F900000220A602062C00711D0FFF7BDFE07469D
:100FA00041F2883808E000BFFFF7B6FEC11B41459B
:100FB00002D90320BDE8F883206A8007F4D5206AAF
:100FC000696820F44070084320621EB1E06920F097
:100FD0008050E0612878800705D56068A96820F412
:100FE0004040084360602878C00605D56068E9681D
:100FF00020F48000084360600020DBE7001002401E
:1010000000700040400442422DE9F0470F460500C1
:1010100061D0434E306800F00700B84209D2306812
:1010200020F0070038433060306800F00700B84215
:1010300051D128683B4C810712D5400703D5606821
:1010400040F4E06060602878000703D5606840F4F1
:10105000605060606068A96820F0F000084360603C
:101060002878C00728D06868012810D02168022895
:1010700010D0890700292EDA616821F003010143AD
:101080006160FFF749FE804641F288390DE0216832
:101090008903EFE78901EDE7FFF73EFEA0EB0801CA
:1010A000494502D90320BDE8F0876068696800F00F
:1010B0000C00B0EB810FEFD1306800F00700B842B0
:1010C0000BD9306820F0070038433060306800F0FA
:1010D0000700B84201D00120E5E72878400705D590
:1010E0006068E96820F4E0600843606028780007E1
:1010F00006D56068296920F4605040EAC10060604C
:1011000000F038F86168084AC1F30311515CC84027
:101110000649086006480068FFF71EFE0020C2E787
:101120000020024000100240042900080C000020AA
:101130002C0000200448054900684968044AC1F3AE
:101140000221515CC84070470C0000200010024092
:10115000142900080448054900684968044AC1F395
:10116000C221515CC84070470C00002000100240B2
:101170001429000812A185B00FC98DE80F0014A032
:10118000144A006804905168134801F00C03042BC2
:1011900010D0082B0ED1C1F38343C9031DF80300FF
:1011A0000AD5516804AAC1F34041515C0A4A504330
:1011B000B0FBF1F005B0704708494843FAE700007A
:1011C00002030405060708090A0B0C0D0E0F101088
:1011D000010200000010024000127A0000093D00E8
:1011E0002DE9F84F040070D02078C04DC00749D0D9
:1011F0006868C0F38100012807D06868C0F38100E7
:10120000022809D16868C00306D52868800339D54B
:1012100060680028E7D035E06068B0F5803F0BD00B
:1012200010B1B0F5A02F11D0286820F480302860CC
:10123000286820F4802002E0286840F4803028608C
:10124000606890B1FFF768FD06460AE0286840F440
:1012500080202860F0E700BFFFF75EFD801B642858
:1012600073D828688003F7D50CE0FFF755FD0646D4
:1012700005E000BFFFF750FD801B6428F0D8286808
:101280008003F7D420789A4E80074FF001094FF081
:10129000000839D5686810F00C0F07D06868C0F3F3
:1012A0008100022809D16868C00306D42868800735
:1012B00014D52069012808D110E02069B0B1C6F822
:1012C0000090FFF729FD074605E00AE1FFF724FD3E
:1012D000C01B0228C4D828688007F7D52868616930
:1012E00020F0F80040EAC10028600DE0C6F8008058
:1012F000FFF712FD074604E0FFF70EFDC01B0228B2
:1013000023D828688007F7D4207800072CD579489F
:10131000A169D9B1C0F80090FFF7FEFC074604E0D0
:10132000FFF7FAFCC01B02280FD8686A8007F7D5C0
:1013300071484FF4FA510068B0FBF1F0009000BF23
:101340000098411E0091FAD20EE080E0C0F80080C3
:10135000FFF7E2FC074604E0FFF7DEFCC01B0228B3
:1013600075D8686A8007F7D42078400760D5E869A7
:101370000027C00008D4E86940F08050E861E869BF
:10138000012700F0805000905C480168C90513D423
:101390000168834641F480710160FFF7BDFC82461D
:1013A00006E000BFFFF7B8FCA0EB0A0064284ED8A7
:1013B000DBF80000C005F5D5E06801280AD008B1C7
:1013C000052813D0286A20F001002862286A20F03E
:1013D000040002E0286A40F001002862E06841F25F
:1013E000883B98B1FFF798FC82460BE0286A40F0F2
:1013F00004002862EEE700BFFFF78EFCA0EB0A01B5
:1014000059455AD8286A8007F6D50CE0FFF784FCC6
:10141000824605E0FFF780FCA0EB0A0159454CD855
:10142000286A8007F6D41FB1E86920F08050E8618F
:10143000E06988B36968C1F38101022944D00228B8
:10144000C6F8608004D0FFF767FC044638E034E05B
:10145000FFF762FC074604E0FFF75EFCC01B0228B2
:101460002BD828688001F7D4206AB0F5803F05D1D9
:101470006868A16820F4003008436860D4E9080176
:101480000843696821F4741108436860C6F86090E5
:10149000FFF742FC044606E025E000BFFFF73CFCF6
:1014A000001B022809D828688001F7D51BE000BF7F
:1014B000FFF732FC001B022802D90320BDE8F88F99
:1014C00028688001F4D40EE00128F7D06868226A09
:1014D00000F48031914204D1616A00F470108842B6
:1014E00001D00120EAE70020E8E7000000100240F8
:1014F00000004242800442420C0000200070004084
:1015000010B5401EB0F1807F01D3012010BD4FF017
:10151000E02460610F21601700F0B8FF0020A06197
:1015200007202061002010BD7047704710B590F86B
:101530003C20012A22D0012280F83C20CA688C6815
:1015400022F4407222434C6822F4806222430C68E9
:1015500022F4006222430C6922F4805222434C6937
:1015600022F400522243C969002322F480420A4334
:1015700001684A6480F83C30002010BD022010BD94
:1015800070B590F83C20012A19D0012400F83C4F96
:101590000222427050F83C3C5A689D6822F0700666
:1015A0000A684968324325F0800529435A6050F89B
:1015B0003C2C9160447000210170084670BD0220EF
:1015C00070BD704770B50446006801694FF00005B2
:1015D000C943890715D4C168C943890711D4E91ED5
:1015E000016101202077206880698007204602D0B1
:1015F000FFF7E7FF04E000F0BFF8204600F05EF9D7
:10160000257720680169C943490717D4C168C943D0
:10161000490713D46FF0040101610220207720688C
:10162000806910F4407F204602D0FFF7CAFF04E033
:1016300000F0A2F8204600F041F925772068016902
:10164000C943090716D4C168C943090712D46FF00A
:1016500008010161042020772068C06980072046C6
:1016600002D0FFF7AEFF04E000F086F8204600F05D
:1016700025F9257720680169C943C90617D4C168CF
:10168000C943C90613D46FF0100101610820207707
:101690002068C06910F4407F204602D0FFF791FF18
:1016A00004E000F069F8204600F008F9257720688A
:1016B0000169C943C90708D1C168C943C90704D131
:1016C000891E0161204600F017F920680169C943AD
:1016D000090609D4C168C943090605D46FF0800121
:1016E00001612046FFF720FF20680169C9434906D0
:1016F00009D4C168C943490605D46FF040010161AE
:10170000204600F0FAF820680169C94389060BD425
:10171000C168C943890607D46FF0200101612046E2
:10172000BDE87040FFF701BF70BD000000B585B097
:101730000021009101910291039100680B498842B8
:1017400012D10B48816941F00401816180696946C9
:1017500000F0040004904FF480700090022001908B
:1017600003900448FFF7DEF905B000BD002C0140EE
:101770000010024000080140704770B5044690F820
:101780003C000D4601280DD0012684F83C60022063
:1017900084F83D0042B1042A18D0082A2AD00C2A25
:1017A0004DD139E0022070BD206800F085FC206832
:1017B000816941F0080181612068816921F004019B
:1017C0008161206881692A69114311E0206800F075
:1017D0009BFC2068816941F4006181612068816916
:1017E00021F480618161206881692A6941EA0221CE
:1017F000816124E0206800F0B3FC2068C16941F0F9
:101800000801C1612068C16921F00401C16120683B
:10181000C1692A69114311E0206800F0CDFC2068FD
:10182000C16941F40061C1612068C16921F480612E
:10183000C1612068C1692A6941EA0221C16184F855
:101840003D60002084F83C0070BD10B5040003D05A
:1018500094F83D0010B107E0012010BD002084F88D
:101860003C00204600F00CF8022084F83D00211DC9
:10187000206800F0DDFB012084F83D00002010BD51
:1018800008B500680B49884212D10B48816941F4C0
:10189000006181618069002200F4006000901146BF
:1018A0001920FFF7A5FABDE808401920FFF792BA02
:1018B00008BD0000002C01400010024070470000ED
:1018C00010B504460068012200F0E8FB09492068D1
:1018D000884203D1416C41F4004141642068816831
:1018E00001F00701062903D0016841F00101016000
:1018F000002010BD002C0140704770477047000069
:1019000070B5026804461068D168536910F00F0F73
:1019100050D003F0010501F4907635435DD0C20745
:1019200005D0CA0503D5E26B42F00102E26342072B
:1019300005D5DA0703D0E26B42F00202E2638207C8
:1019400005D5DA0703D0E26B42F00402E263020736
:1019500005D5DA0703D0E26B42F00802E263E26BDE
:10196000002A33D0800604D5880602D5204600F030
:101970005BFC20684069E16BC0F38010090700D46C
:1019800028B3204600F042FC2068416949061AD578
:10199000416921F040014161606BA0B11B49416385
:1019A000606BFEF71FFF002810D0606B416BBDE835
:1019B00070400847830610D58B060ED52046BDE83B
:1019C000704000F031BC2046FFF798FF70BD204604
:1019D000FFF794FF0020E06370BD030606D50B06F9
:1019E00004D52046BDE8704000F0C6BC4006F3D5E3
:1019F0004806F1D5D168204621F04001D160202170
:101A000084F8391000F014F970BD0000FD210008C1
:101A100070B5040004D094F83900002510B106E038
:101A2000012070BD84F83850204600F023F82420AF
:101A300084F839002068C16821F40051C160204653
:101A400000F03EFC2068016921F4904101612068AA
:101A5000416921F02A0141612068C16841F40051C7
:101A6000C160E563202084F8390084F83A00002042
:101A700070BD0000F0B585B0002500950195029578
:101A80000395064603683548334C022103220715A7
:101A9000A3423CD1836943F480438361836903F4A7
:101AA00080430493836943F00403836180692C4C71
:101AB00000F0040004900802CDE900010392694699
:101AC0002046FFF72FF8CDE90075694620460295BC
:101AD000FFF728F8244C2348C4E900058020C4E916
:101AE000025025616561A5612046E561FEF770FF42
:101AF00008B1FEF7C5FB746300221146252066621B
:101B0000FFF776F92520FFF765F905B0F0BD174C12
:101B1000A342FAD1C36943F48023C361C36903F4C8
:101B200080230493836943F0080383618069CDE9CE
:101B3000007100F00800CDE903200D4C69462046F5
:101B4000FEF7F0FFE014CDE9000569462046029556
:101B5000FEF7E8FFD9E7000000380140001002401E
:101B600000080140580002402401002000480040C5
:101B7000000C014070472DE9F843044690F8390005
:101B80001F4616460D46202850D1A5B19EB194F8A7
:101B9000380001284AD0012084F838004FF00008AE
:101BA000C4F83C80212084F83900FFF7B5F8A684FA
:101BB0008146E68426E00120BDE8F883E08C401EE3
:101BC000E084A0684B46B0F5805F4FF000024FF014
:101BD00080012046009703D000F0FFFBE8B90DE03C
:101BE00000F0FBFBC8B928882168C0F308004860F2
:101BF000206908B16D1C05E0AD1C03E0216815F8F3
:101C0000010B4860E08C0028D8D14B4600224021CF
:101C10002046009700F0E1FB08B10320CCE720202C
:101C200084F8390084F838800020C5E70220C3E733
:101C30007047FEE72DE9F04701250024174F804645
:101C40004FF400695FEA053605FA04F010EA080F60
:101C500001D0012200E0002249463846FFF757F83C
:101C6000002231463846FFF752F801223146384605
:101C7000FFF74DF8641CE4B2082CE5D3084D4FF48F
:101C80000074002221462846FFF741F821462846E5
:101C9000BDE8F0470122FFF73AB800000008014014
:101CA000000C01403EB500211C48009101911A4AE8
:101CB00002910260921582600173017505244FF450
:101CC00060220461C2614160FEF7C0FB012004256F
:101CD0000090CDE9010569461048FEF735FB02206A
:101CE0000090019069460D48FEF72EFB03200090FE
:101CF000019069460948FEF727FB0620CDE900055B
:101D000069460648FEF720FB0720CDE90004694636
:101D10000248FEF719FB3EBD0024014034000020BC
:101D20002DE9F04F85B00025664800950195029594
:101D30000395816941F010018161816901F0100111
:101D40000491816941F020018161816901F02001E4
:101D50000491816941F004018161816901F004010C
:101D60000491816941F0080181618069DFF858813F
:101D700000F008004FF4C044049000222146404681
:101D8000FEF7C5FFDFF844B100224FF2FD215846AF
:101D9000FEF7BDFFDFF838A14FF4C05900224946D5
:101DA0005046FEF7B4FF009401240226CDE9024616
:101DB000694640460194FEF7B5FE464FE003CDE983
:101DC0000007694602944046FEF7ACFE48F2010067
:101DD000CDE90005694650460295FEF7A3FEDFF8FF
:101DE000F8801020CDE90008694602945046FEF7BD
:101DF00099FE2020CDE90007694602945046FEF77F
:101E000091FE43F22100CDE90004CDE90246694686
:101E10005846FEF787FE0096CDE90184694658468C
:101E2000FEF780FE04208DE8710069465846FEF7F3
:101E300079FE4CF21820CDE900040327CDE90247D2
:101E400069465846FEF76EFECDE90094CDE902469C
:101E500069465046FEF766FEC020009001AA112098
:101E600082E8A10069465846FEF75CFE2002CDE9F3
:101E70000005694658460295FEF754FE00221146B9
:101E80000720FEF7B5FF0720FEF7A4FF002211464A
:101E90000A20FEF7ADFF0A20FEF79CFF0022114644
:101EA0001720FEF7A5FF1720FEF794FF002211462A
:101EB0002820FEF79DFF2820FEF78CFF05B0BDE827
:101EC000F08F00000010024000100140000C0140A3
:101ED00000080140000021100000311010B592B040
:101EE00000240F941C2108A81094FEF722F9202149
:101EF0006846FEF71EF91A481849C0E90014042183
:101F0000C0E9024180210461C0E90541FFF79DFC61
:101F10000F940FA912481094FFF732FB602008902D
:101F20000220CDE909040B940C940D94002208A919
:101F30000B480E94FFF721FC00944FF40050CDE9BC
:101F40000440029401940394694605480794FFF7FE
:101F5000EDFA0348FFF7EAFB12B010BD002C014078
:101F600064000020FEE770477047704710B5FEF729
:101F7000D9FEBDE8104000F093BB30B593B02821E6
:101F80006846FEF7D6F814210AA8FEF7D2F8002416
:101F90000F941094119401204FF4A02112948DE815
:101FA0001300049002250004CDE90750C0000990F9
:101FB0006846FFF715F90F20CDE90A056802CDE95B
:101FC0000C4001210AA80E94FFF71EF8A8031190F7
:101FD0000F950FA8FEF7A2FF13B030BD0D480168A2
:101FE00041F00101016041680B4A11404160016804
:101FF0000A4A11400160016821F4802101604168B2
:1020000021F4FE0141604FF41F0181600449C003C7
:1020100008607047001002400000FFF8FFFFF6FE66
:1020200008ED00E00148FFF7CDBA00006400002091
:10203000F0B50268164B174C174D4FF08047984289
:1020400005D0B84203D0A04201D0A84203D122F06B
:1020500070064A683243984205D0B84203D0A04285
:1020600001D0A84203D122F44074CA6822434C69CB
:1020700022F08002224302608A68C2620A68826299
:10208000984201D10969016301214161F0BD00005D
:10209000002C0140000400400008004010B501F091
:1020A0001F030121046A99408C430462016A9A402B
:1020B0001143016210BD000030B5026A22F0010236
:1020C0000262026A4368846924F073050C682C4339
:1020D00022F002058A682A430A4DA8420BD122F059
:1020E0000805CA6823F440732A434D6922F00402AC
:1020F0001D438B692B4343608461496841630262DD
:1021000030BD0000002C014030B5026A22F0100200
:102110000262026A436884690D6824F4E64444EA72
:1021200005248D6822F0200242EA05120B4DA842D8
:102130000ED1CD6822F0800242EA05124D6923F4E7
:10214000406343EA85038D6922F0400243EA850338
:102150004360846149688163026230BD002C0140A4
:1021600030B5026A22F480720262036A4268C4696E
:1021700023F4007324F073050C682C438D6843EA44
:1021800005230C4DA8420ED1CD6823F4006343EA29
:1021900005234D6922F4405242EA05128D6923F469
:1021A000806342EA05124260C4614968C163036208
:1021B00030BD0000002C014030B5026A22F480528C
:1021C0000262046A4268C3690D6823F4E64343EA85
:1021D00005238D6824F4005444EA0534064DA842D2
:1021E00004D14D6922F4804242EA85124260C36103
:1021F00049680164046230BD002C014010B5406A9A
:102200000021C185C184FFF779FB10BD0168CA6850
:1022100022F49072CA6001684A6922F001024A61A0
:10222000202180F83A10704710B590F83A10222912
:1022300001D0022010BD8168B1F5805F11D0016925
:10224000002901681FD0496801F07F03816A4A1C98
:1022500082620B70C18D491E0904090CC18518D01A
:102260002BE00269816A002A0268526805D0D2B266
:102270000A80816A491C8162ECE7C2F308020A8085
:10228000816A891CF7E74A68816A4B1C83620A707D
:10229000E0E70168CA6822F02002CA600168CA68E3
:1022A00022F48072CA6001684A6922F001024A6120
:1022B000202180F83A10FFF75DFC002010BD0000DF
:1022C0002DE9F041044600680169E26821F44051BB
:1022D000114301612169A0680843616908432168CD
:1022E000CA6841F20C639A430243CA60206841699C
:1022F000A26921F44071114341611E49206864259F
:102300003226884202D1FEF725FF01E0FEF712FFD8
:1023100000EBC00101EB001160686FF0180780004E
:10232000B1FBF0F2B2FBF5F2B1FBF0F37A4303EB51
:102330008202B1FBF0F306EB0212B2FBF5F2B3FB43
:10234000F5F302F0F00202EB0312B1FBF0F3B1FB84
:10235000F0F0B0FBF5F0784303EB800006EB0010E3
:10236000B0FBF5F0216800F00F0010448860BDE874
:10237000F08100000038014090F83910212901D087
:10238000022070478168B1F5805F016A0BD04A1C5A
:102390000262026809785160C18C491E0904090C67
:1023A000C1840ED017E009880268C1F308015160AA
:1023B00001690029016A02D0491C0162ECE7891C0D
:1023C000FBE70168CA6822F08002CA600068C16841
:1023D00041F04001C160002070472DE9F04198466E
:1023E00017460E460446069D1DE0681C1BD02DB105
:1023F000FEF792FCA0EB0800A84214D92068C1683F
:1024000021F4D071C1602068416921F0010141616E
:10241000202084F8390084F83A00002084F838003D
:102420000320BDE8F0812068006836EA000004D08F
:102430000020B842D9D00020F3E70120F9E70000DE
:1024400010B50448FFF75CFABDE8104002A000F0A8
:102450000DB80000A4000020756172743120646121
:1024600074613A20200A0000FEE700000FB4054B1B
:1024700010B503A9044A029800F028F810BC5DF8D2
:1024800014FB0000E1260008000000200907090EE7
:10249000002804DB00F1E02080F80014704700F011
:1024A0000F0000F1E02080F8141D704702E008C81A
:1024B000121F08C1002AFAD170477047002001E0BE
:1024C00001C1121F002AFBD1704700002DE9FF4F08
:1024D00089B09B460446002506E025280BD05A46C5
:1024E0000B999047641C6D1C20780028F5D10DB025
:1024F0002846BDE8F08F0027B8460122474900E092
:10250000074314F8013F203B02FA03F00842F7D1D9
:1025100020782E2819D114F8010F47F004072A2833
:102520000ED06FF02F022078A0F1300109290CD8CD
:1025300008EB880102EB410100EB0108641CF2E7A3
:102540000A98641C50F8048B0A9020780028CED09A
:10255000642808D0692806D075281ED05A460B99E1
:1025600090476D1C58E00A994FF00A0901C90A9179
:10257000002802DA40422D2102E0390504D52B2142
:102580008DF82010012103E0F90704D02021F7E79E
:102590008A4608AE0DE00021FAE70A994FF00A09D1
:1025A00001C90A91F7E74946FDF7CEFD303106F83B
:1025B000011D0028F7D1ADEB060000F120097807D6
:1025C00001D44FF00108C84502DDA8EB090000E086
:1025D00000208046002706E008A85A46C05D0B99F7
:1025E00090476D1C7F1C5745F6DB04E030205A46AF
:1025F0000B9990476D1CB8F10001A8F10108F5DCBA
:1026000005E016F8010B5A460B9990476D1CB9F17D
:102610000001A9F10109F4DC641C65E70928010047
:1026200070B5044614480D4681144314012D06D09C
:10263000012C11D0022C12D0032C16D111E0012C48
:1026400004D0022C04D0032C0FD103E0012204E0BB
:10265000012208E0012205E00022012103E000221E
:1026600001E000221946FEF752FB2A462146BDE84A
:10267000704002A0FFF7FABE000C01406465766965
:1026800063655F6374726C2069733A20202025644F
:10269000202025640A000000042000F0E9B80000B2
:1026A00010B5FEF739FB001B052813D30B48441E59
:1026B0002178084410F8010CFFF7BCFA207800F0EC
:1026C000D7F82078401CC0B22070042801D1012026
:1026D000207010BDBDE81040FEF71EBB12000020A8
:1026E00038B504468DF8000001231A4669460248B1
:1026F000FFF741FA204638BDE4000020012805D04C
:10270000022806D104210348FEF7FCBA0121024841
:10271000FAE77047000C01400008014070B502461E
:102720004FF4005320485C00204D012918D0012AA5
:102730002ED0022A2FD0032A30D0042A32D10022F0
:1027400019460646FEF7E3FA012220212846FEF745
:10275000DEFA012221463046BDE87040FEF7D7BAC6
:10276000012A16D0022A0FD0032A0FD0042A19D129
:10277000012219460646FEF7CAFA00222021284601
:10278000FEF7C5FA0022E5E7002205E0002206E098
:1027900000221946E0E701222146DDE7012220213F
:1027A0002846D9E770BD000000100140000C014030
:1027B00008B5FEF7BFFAFFF7E0FBFFF7B1FA2748CD
:1027C000416941F0010141614069002200F00100CE
:1027D000009011460F20FEF70BFB0F20FEF7FAFAD0
:1027E000FFF760FAFFF77AFB1E481D494FF4E13509
:1027F00000240160C0E901540C26C460C0E904460D
:102800008461C461FFF704F916481749403001603C
:10281000C0E90154C460C0E904468461C461FFF7A3
:10282000F7F8FFF739FF0F4800214038FFF748F865
:102830000E4C64210120FDF743FD01210846FFF7FE
:102840006DFFFDF71FFD207001210846FFF7E8FE30
:102850000120FFF753FF6070EBE70000001002401B
:1028600000380140A400002000480040040000207F
:1028700070B54FF40045224C6E1001280CD0022890
:102880001BD0032825D0042823D00122082120466C
:10289000FEF73DFA012222E0012208212046FEF740
:1028A00036FA012210212046FEF731FA012229468C
:1028B0002046FEF72CFA00221BE0012208212046C8
:1028C000FEF725FA012210212046FEF720FA002209
:1028D0000AE0012208212046FEF719FA0022102101
:1028E0002046FEF714FA012229462046FEF70FFA89
:1028F000012231462046BDE87040FEF708BA0000CC
:10290000000C014000000000000000000102030470
:102910000607080900000000010203043C29000822
:102920000000002034000000AC24000870290008DA
:102930003400002034050000BC2400080000000022
:1029400000000000000000000024F400000100006E
:102950000000C0F9A4B0999282F880908883C6A143
:10296000868E000001000000100000000000000042
:04000005080000ED02
:00000001FF
