:020000040800F2
:100000009813002001010008253C0008F93200087F
:100010006D350008490A000841480008000000004A
:10002000000000000000000000000000053F000884
:10003000B50B000800000000273C000849410008FB
:100040001B0100081B0100081B0100081B01000820
:100050001B0100081B0100081B0100081B01000810
:100060001B0100081B0100081B0100081B01000800
:100070001B0100081B0100081B0100081B010008F0
:100080001B0100081B0100081B0100081B010008E0
:100090001B0100081B0100081B0100081B010008D0
:1000A0001B0100081B0100081B0100081B010008C0
:1000B0002D4200081B0100081B0100081B0100085D
:1000C0001B0100081B0100081B0100081B010008A0
:1000D0001B010008314800081B0100081B01000833
:1000E0001B0100081B0100081B010008DFF80CD0F1
:1000F00000F00CFC00480047DD5300089813002076
:100100000648804706480047FEE7FEE7FEE7FEE7B1
:10011000FEE7FEE7FEE7FEE7FEE7FEE7D541000863
:10012000ED000008202A04DB203A21FA02F0002129
:10013000704721FA02F3D040C2F1200291400843F7
:1001400019467047D2B201E000F8012B491EFBD2DC
:1001500070470022F6E710B513460A4604461946D2
:10016000FFF7F0FF204610BDF0B480EA0102D40F83
:100170004200B2EB410F02D20246084611464A0045
:1001800042D0C30DDDB2C1F3C752AD1A202D35DA0E
:10019000C1F3160141F4000204B15242C5F1200638
:1001A00002FA06F12A411044B3EBD05F23D0C4B168
:1001B000012DA0EBC35009DCF0BC4FF0004202EA75
:1001C000C352DBB200F5000000F03EBA400000F17F
:1001D000807000EBC350A0F1807040EAD1704900FC
:1001E00009E0490841EAC071A0EBC35000F50000E6
:1001F000400800EBC350F0BC00F01DBA6142012280
:1002000002EB4101001BF6E7F0BC704781F00041B2
:10021000AAE780F00040A7E780EA010210B502F0EB
:100220000043400022D04A001FD0010E01EB1261B2
:10023000C0F35600C2F3560240F4000042F400023C
:10024000A0FB022000047F39140400D0401C50EAB7
:10025000124001D44000491EC2B20C0604EBD0107B
:10026000401C4008802A02D003E0002010BD20F08E
:100270000100002900DA0020184310BD30B480EAE4
:10028000010202F0004530F0004221F0004013D09E
:1002900090B1C30DD40DC2F31601C0F31600E41AD9
:1002A00041F4000140F400027D34914201D3641C0A
:1002B00000E04900002C02DA30BC002070474FF407
:1002C00000000023914201D3891A034340084FEAFA
:1002D0004101F7D151B1914202D14FF0004105E007
:1002E00002D24FF0010101E06FF0010103EBC450B5
:1002F000284430BC00F09FB92DE9FE4F81EA030489
:1003000004F0004421F0004100944FF0000B23F072
:10031000004350EA01045ED052EA03045BD0C3F309
:100320000A54C1F30A552C44A4F2F3340194A0FBFF
:100330000254C1F3130141F48011C3F3130343F4D6
:10034000801301FB024400FB034E840A970A44EA2F
:10035000815447EA8357A4FB076802958D0A05FB81
:1003600007854FEA932C04FB0C542705029D4FEAA6
:10037000065847EA1637B5EB08056EEB070C870EF3
:10038000920E47EA811742EA8312A7FB0201B6EBFD
:100390000B0164EB00042B0D43EA0C335E1844EBB5
:1003A0001C50DA465146E7FB0201C5F313044FEA3D
:1003B0000B3343EA14534FEA0432019C43EA060329
:1003C000A4F10C040294009CCDE900B400F079F98A
:1003D00003B0BDE8F08F00200146F9E72DE9F04DAC
:1003E00081EA030404F0004B21F0004514464FF06D
:1003F000000A23F0004150EA050220D054EA01022D
:100400001DD0C5F30A570246C5F31303C1F3130009
:10041000C1F30A5640F4801543F48013A7EB060895
:10042000101BD64608F2FD3873EB050002D308F125
:10043000010801E092185B41B8F1000F03DA0020D7
:100440000146BDE8F08D00204FF480110646844639
:100450000EE0171B73EB050705D3121B63EB0503B7
:1004600006434CEA010C49084FEA300092185B4100
:1004700050EA0107EDD152EA030012D082EA0400EB
:1004800083EA0501084305D0101BAB4106D20122C7
:10049000002306E000224FF0004302E06FF001026B
:1004A00053101AEB06004CEB085110EB0A0041EB1D
:1004B0000B01BDE8F04D00F0F5B89623002211467F
:1004C00000F0C2B80EB540F2334102910021CDE9EF
:1004D00000110A460B4600F0F4F803B000BD20F00E
:1004E0000040C10DC0F3160040F400007F2901DA7E
:1004F00000207047962903DCC1F19601C84070477F
:1005000096398840704700F0004230F000400AD031
:10051000C10D01F56071C0F3160042EA0151C20835
:1005200040071143704700200146704730B5041E54
:1005300071F1000404DB4FF00044404264EB010120
:10054000141E73F1000405DB1C464FF000435242B9
:1005500063EB04038B4208BF824230BD01F00043CD
:1005600030B421F0004150EA010206D00A0DA2F594
:100570006072C1F31301002A02DC30BC0020704716
:10058000440F44EAC104C100E01830BC00EBC25083
:1005900000F051B8002801DBC0F10040002901DB68
:1005A000C1F100418142704730B50B460146002041
:1005B0002022012409E021FA02F59D4205D303FA25
:1005C00002F5491B04FA02F52844151EA2F10102A6
:1005D000F1DC30BD2DE9F05F0546002092469B46D8
:1005E00088460646814640241BE028464146474649
:1005F0002246FFF797FD53465A46C01A914110D341
:1006000011461846224600F093F92D1A67EB0108AF
:100610004F4622460120002100F08AF917EB00091D
:100620004E41201EA4F10104DFDC484631462A4633
:100630004346BDE8F09F0029A8BF7047401C490011
:1006400008BF20F00100704710B4B0FA80FC00FA37
:100650000CF050EA010404BF10BC704749B1CCF162
:10066000200421FA04F411FA0CF118BF01212143EE
:100670000843A3EB0C01CB1D4FEA00614FEA1020A9
:1006800042BF002010BC704700EBC350104400294B
:10069000A4BF10BC7047401C490008BF20F00100F7
:1006A00010BC704710B5141E73F1000408DA401C2A
:1006B00041F1000192185B411A4301D120F0010081
:1006C00010BD2DE9F04D92469B4611B1B1FA81F271
:1006D00002E0B0FA80F22032904600F029F9044698
:1006E0000F4640EA0A0041EA0B0153465A460843C6
:1006F00013D0114653EA010019D0C8F14002504608
:10070000FFF710FD05460E4650465946424600F09A
:100710000FF9084305D0012004E020463946BDE822
:10072000F08D0020054346EAE0762C4337430A98D3
:100730006305E40AA0EB08000022FD0A44EA4754DE
:100740000A3002D500200146E9E701051019694188
:10075000DDE9084500196941BDE8F04DA2E72DE942
:10076000FE4F804681EA0300C00F0C46009021F046
:10077000004123F00045B8EB0200A94105D24046F4
:10078000214690461C460B46024623F0004010438B
:1007900047D0270DC7F30A00C3F30A510290401A4D
:1007A000019040286BDAC3F3130040F4801B0098DB
:1007B000924620B10023D2EB030A63EB0B0B0198A6
:1007C0005946C0F14002504600F0B2F806460D46C8
:1007D00050465946019A00F0BAF810EB0800614102
:1007E000002487EA115284EAE7731A4340D0009A42
:1007F00062B3019A012A4FEA075215DC001B61EB34
:1008000002014FF0004202EA0752CDE90042001C0B
:1008100041F5801132462B46FFF753FF03B0BDE888
:10082000F08F40462146F9E7001B61EB0201001CF6
:1008300041F5801300185B412018A2F5001747EB23
:10084000030140EAD570B6196D4111E06D084FEA19
:10085000360645EAC0754FEA0752001B61EB0201FC
:10086000001C41F5801149084FEA30000019514140
:1008700032462B4603B0BDE8F04FFFF713BF009898
:10088000012240000023D0EB020263EBE0730098EA
:1008900021464FEAE074B8EB000061EB0401E9E7A0
:1008A00083F000435BE781F0004158E7C1F30A524F
:1008B000C1F3130140F2FF3341F480119A4202DA8E
:1008C00000200146704740F233439A42A2F233427D
:1008D00002DC5242FFF726BC00F02AB830B5041EF5
:1008E00071F1000404DB4FF00044404264EB01016D
:1008F000141E73F1000405DB1C464FF00043524206
:1009000063EB0403994208BF904230BD064C074D8B
:1009100006E0E06840F0010394E8070098471034CF
:10092000AC42F6D3FFF7E6FBB8570008D8570008EB
:10093000202A04DB203A00FA02F10020704791409F
:10094000C2F1200320FA03F3194390407047202A94
:1009500006DBCB17203A41FA02F043EAE07306E0E7
:1009600041FA02F3D040C2F12002914008431946F7
:10097000704770B5044600252068806800F00100CB
:10098000F0B12068806820F001002168886001F0E3
:1009900043FA05460EE001F03FFA401B022809D950
:1009A000A06A40F01000A062E06A40F00100E0623E
:1009B000012070BD2068806800F001000028EAD1A5
:1009C0000020F6E738B50446002500200090206896
:1009D000806800F0010080BB2068806840F0010062
:1009E00021688860164800681649B0FBF1F0009055
:1009F00002E00098401E009000980028F9D101F014
:100A00000BFA054613E001F007FA401B02280ED945
:100A1000A06A40F01000A062E06A40F00100E062CD
:100A200000BF002084F8240000BF012038BD2068EA
:100A3000806800F001000028E5D00020F6E7000003
:100A40004800002040420F0000BFFEE770B502469C
:100A50000C46FF25FF2309E012F8010B80EA05018F
:100A60000648405C80EA03050548435C201EA4F16B
:100A70000104F1D143EA052070BD0000A055000833
:100A8000A05600082DE9F05F824600249AF80090F5
:100A90004FEA09694C449AF804904FEA09494C44DA
:100AA0009AF808904FEA09294C449AF80C904C4463
:100AB00004F00040D0B1E043441C2046FFF702FDA3
:100AC00007460022134BFFF717FC0546FFF746FDCC
:100AD00083465846FFF717FD074600220E4BFFF7E7
:100AE0007DFC0546FFF73AFD83460FE02046FFF701
:100AF000E4FC83465846FFF706FD05460022064BF8
:100B0000FFF76CFC0746FFF729FD83465846BDE812
:100B1000F09F00000000F0BF000024402DE9F05FCE
:100B2000824600249AF800904FEA09694C449AF8EA
:100B300001904FEA09494C449AF802904FEA09297A
:100B40004C449AF803904C4404F00040D0B1E04388
:100B5000441C2046FFF7B6FC07460022134BFFF764
:100B6000CBFB0546FFF7FAFC83465846FFF7CBFC64
:100B7000074600220E4BFFF731FC0546FFF7EEFC5F
:100B800083460FE02046FFF798FC83465846FFF760
:100B9000BAFC05460022064BFFF720FC0746FFF78C
:100BA000DDFC83465846BDE8F09F00000000F0BF22
:100BB00000002440704700002DE9F04F87B08146C7
:100BC0000E46052E11D2DFE806F00305070A0D00D8
:100BD0000A240AE0642408E04FF47A7405E042F243
:100BE000107402E042F2107400BF00BF2046FFF70D
:100BF00064FC80464946FFF70FFB0746FFF76FFC92
:100C000005460A21B5FBF1F201FB1250052800D37D
:100C10000A352046FFF756FCCDE902012846FFF7CA
:100C200051FC074600221C4BFFF7D8FBCDE9000121
:100C3000DDE90223FFF7D2FBCDE90401FFF78EFCCB
:100C400082460A20B4FBF0FB5846FFF736FC80468C
:100C50005146FFF7E1FA0746FFF741FC05462046FB
:100C6000FFF730FC00220D4BCDE90001FFF7B6FB8A
:100C7000074688462846FFF725FC3A464346CDE915
:100C80000201FFF7ABFBCDE90401FFF767FC8246E9
:100C9000504607B0BDE8F08F0000F03F0000244050
:100CA000704700000021074AD1610749096941F0F6
:100CB0000401054A11611146096941F040011161C1
:100CC00070470000780F0020002002400021074AF2
:100CD000D1610749096941F00201054A11611146D4
:100CE0004861096941F0400111617047780F0020A7
:100CF000002002400022054BDA61054A126942F0E9
:100D00000102034B1A61018070470000780F002038
:100D10000020024000201E49C96801F0100139B1CD
:100D20001C49C96941F002011A4AD16140F0100022
:100D30001749C96801F0040139B11649C96941F080
:100D40000101144AD16140F004001149C96901F060
:100D5000010169B10F49C96941F004010D4AD1612E
:100D600000BF0B49C96921F00101094AD16100BFE7
:100D700000BF40F20111884206D10549C96921F03E
:100D80000101034AD16101E00149C86000BF704719
:100D900000200240780F002070B5044601F03CF8B6
:100DA000054609E0601C38B124B101F035F8401B5C
:100DB000A04201D9032070BD1248C06800F00100B4
:100DC0000028EFD10F48C06800F0200020B100BF1C
:100DD00020200C49C86000BF0A48C06800F010001D
:100DE00048B90848C06900F0010020B90548C0684A
:100DF00000F0040018B1FFF78DFF0120DBE70020B1
:100E0000D9E700000020024070B5054600212846C1
:100E1000FFF7C0FB0BD20B492846FFF7FDF906464A
:100E20003046FFF75CFB0446E043441C08E00649FB
:100E30002846FFF7F1F906463046FFF750FB044617
:100E4000204670BD000020C1000020412DE9FC5F5C
:100E50004FF00009002438E0684800F07FF94FF0B7
:100E6000000A2DE0654800F057FC4FF6FF7163481B
:100E700000F09AFB614800F0A3FA8146BAF1000F36
:100E800009D0BAF1010F0AD0BAF1020F0BD0BAF1B2
:100E9000030F10D10BE05A4840F824900BE059485A
:100EA00040F8249007E0584840F8249003E0574861
:100EB00040F8249000BF00BF0AF1010000F0FF0AD3
:100EC000BAF1040FCEDB601CC4B2302CC4DB4B483B
:100ED00000F0BAFC012004F0BDF90546FFF7EDFA79
:100EE0004B49086008460068FFF70DFB494A4A4B2A
:100EF000CDE90001FFF700FA07460022474BFFF754
:100F00006DFA0546FFF72AFB45490860086802218B
:100F1000FFF752FE42490860022004F09BF90546A3
:100F2000FFF7CBFA3A49086008460068FFF7EBFA8A
:100F30000746384A384BFFF7DFF90022374BCDE937
:100F40000001FFF74BFA0546FFF708FB34494860FC
:100F500048680421FFF730FE31494860032004F05F
:100F600079F90546FFF7A9FA29490860084600689B
:100F7000FFF7C9FA274A284BCDE90001FFF7BCF972
:100F800007460022254BFFF729FA0546FFF7E6FA48
:100F90002349886088680421FFF70EFE2049886095
:100FA00008460168002002F0AFFF0546FFF797FAF8
:100FB0001B4948610846007F00F0800030B10846B8
:100FC000007FC043401C00F0FF0B02E0144890F883
:100FD0001CB05846FFF771FA06461148826841680E
:100FE000002003F029F807463146FFF7BDF8054613
:100FF000FFF775FA0A498861BDE8FC9FC40E00201E
:101000009408002054090020140A0020D40A00206B
:101010001C0000205C8FC2F5285C0A4000FEAF4037
:10102000740800202DE9F04105460F4600262048AF
:1010300001780078401C1E4A10701E4840F821506C
:1010400010460078642805D101201B490870002053
:101050001146087018480078012811D1002407E0D3
:10106000144850F824103046FFF77EF80646641CFA
:10107000642CF5DB11493046FFF700F9BDE8F0813B
:10108000002407E00B4850F824103046FFF76CF8B6
:101090000646641C064800788442F3DB0448007866
:1010A000FFF70BFA044621463046FFF7E7F8E5E77D
:1010B00024000020A40B0020250000200000C842CE
:1010C0002DE9F04105460F460026204801780078BA
:1010D000401C1E4A10701E4840F8215010460078EF
:1010E000642805D101201B490870002011460870B2
:1010F00018480078012811D1002407E0144850F85E
:1011000024103046FFF730F80646641C642CF5DBEB
:1011100011493046FFF7B2F8BDE8F081002407E03E
:101120000B4850F824103046FFF71EF80646641CA2
:10113000064800788442F3DB04480078FFF7BDF9E5
:10114000044621463046FFF799F8E5E726000020DF
:10115000340D0020270000200000C842F8B50446E6
:1011600000260020009000BF94F82400012801D13F
:101170000220F8BD012084F8240000BF2046FFF7BC
:10118000F8FB0646002E62D1A06A20F4885040F099
:101190000200A062022000F017FF30490968B1FB8D
:1011A000F0F04000009002E00098401E009000988F
:1011B0000028F9D12046FFF705FC2068806840F040
:1011C00008002168886000F027FE054611E000F065
:1011D00023FE401B0A280CD9A06A20F0020040F030
:1011E0001000A06200BF002084F8240000BF01208E
:1011F000BFE72068806800F008000028E7D1206879
:10120000806840F004002168886000F005FE054613
:1012100011E000F001FE401B0A280CD9A06A20F062
:10122000020040F01000A06200BF002084F82400FB
:1012300000BF01209DE72068806800F004000028BE
:10124000E7D1A06A20F0020040F00100A06200BFD8
:10125000002084F8240000BF30468AE748000020C0
:1012600038B5024600230020009000BF92F8240009
:10127000012801D1022038BD012082F8240000BFDE
:101280004868072812D21068406B0C79641E04EB82
:1012900084051F24AC40A0430D796D1E05EB850528
:1012A0000C68AC4020431468606327E048680D2850
:1012B00012D21068006B0C79E41F04EB84051F2424
:1012C000AC40A0430D79ED1F05EB85050C68AC40E3
:1012D00020431468206311E01068C06A0C790D3C4B
:1012E00004EB84051F24AC40A0430D790D3D05EBB4
:1012F00085050C68AC4020431468E06208680A2841
:1013000012D31068C0680C780A3C04EB440507242B
:10131000AC40A0430D780A3D05EB45058C68AC4018
:1013200020431468E0600FE0106800690C7804EB5B
:1013300044050724AC40A0430D7805EB45058C68B7
:10134000AC402043146820610868102802D0086867
:10135000112827D1174C1068A0421ED11068806850
:1013600000F40000F0B91068806840F400001468D0
:10137000A0600868102815D10F4800680F4CB0FB1A
:10138000F4F000EB80004000009002E00098401E66
:10139000009000980028F9D104E0906A40F0200005
:1013A0009062012300BF002082F8240000BF18468D
:1013B00061E70000002401404800002040420F0087
:1013C00001460868C06C70472DE9F04104460027CB
:1013D00000250026A84614B90120BDE8F081A068C8
:1013E00010B1207D00B100BFA06A30B90020E062DA
:1013F00084F82400204600F089F82046FFF7B9FA67
:101400000746A06A00F01000002873D1002F71D1A8
:10141000A06A20F4885040F00200A062E169606890
:101420000843217B40EA41000643A068B0F5807F75
:1014300002D0A068012802D14FF4807000E00020A3
:101440000543207D012811D1207B38B9A069401EB9
:101450004FF4006141EA4030054307E0A06A40F0E4
:101460002000A062E06A40F00100E062206840686D
:1014700020F4694028432168486020688068214939
:101480000840304321688860A068B0F5807F02D0B2
:10149000A068012802D14FF4807000E00020B0F570
:1014A000807F03D1208A401E4FEA00582068C06A1E
:1014B00020F4700040EA08002168C8622068806853
:1014C00011490840B04208D10020E062A06A20F033
:1014D000020040F00100A06211E0A06A20F00200CA
:1014E00040F01000A062E06A40F00100E0620127D5
:1014F00005E0FFE7A06A40F01000A062012738462F
:101500006BE70000FDF7E1FFFE0E1FFF10B586B090
:101510000446002002900390049005901E49206824
:10152000884237D100BF1D48806940F400701B49D4
:1015300088610846806900F40070019000BF00BF18
:1015400000BF0846806940F0040088610846806951
:1015500000F00400019000BF00BF00BF0846806992
:1015600040F0080088610846806900F0080001909A
:1015700000BF00BFC62002900320039002A90848C4
:1015800000F0ACFA012002900320039002A9054864
:1015900000F0A4FA06B010BD002401400010024083
:1015A00000080140000C0140F8B504460D46002635
:1015B00000200090002700F02FFC0646206880687D
:1015C00000F4807050B1A06A40F02000A06200BF1B
:1015D000002084F8240000BF0120F8BD2068406886
:1015E00000F48070F8B92068C06A00F47000D0B9C7
:1015F00012E0681C80B125B100F00EFC801BA842EF
:101600000AD9A06A40F00400A06200BF002084F85C
:10161000240000BF0320E0E72068006800F002001B
:101620000028E6D050E0022000F0CEFC36490968E0
:10163000B1FBF0F021680969344A114091B9216881
:10164000C9689211114069B921680969304A11408D
:1016500031B92168C9689211114009B9142117E004
:10166000292115E021680969294A114021B9216819
:10167000C9689211114041B121680969254A114098
:1016800029B92168C968114009B9542100E0FC2139
:1016900000FB01F715E0681C80B125B100F0BCFB30
:1016A000801BA8420AD9A06A40F00400A06200BFD3
:1016B000002084F8240000BF03208EE70098401C1F
:1016C00000900098B842E6D36FF0120021680860DD
:1016D000A06A40F40070A0622068806800F4602076
:1016E000B0F5602F0DD1207B58B9A06A20F480702E
:1016F000A062A06A00F4805018B9A06A40F001000E
:10170000A062002069E700004800002024499224DC
:10171000922449124992240070B50446002500BF66
:1017200094F82400012801D1022070BD012084F822
:10173000240000BF2046FFF745F90546002D77D16C
:10174000A06A40F20121884340F48070A0623C49C5
:101750002068884208D13B48006800F4702008B92E
:10176000012002E0002000E0012078B1A06A20F40E
:101770008010A0622068406800F4806000B3A06A16
:1017800020F4005040F48050A06219E0A06A40F4B8
:101790008010A0622B49091F2068884203D0284985
:1017A0002068884204D12748006800F4806000E087
:1017B000002028B1A06A20F4005040F48050A062BC
:1017C000A06A00F4805020B1E06A20F00600E062D8
:1017D00001E00020E06200BF002084F8240000BF88
:1017E000C01E216808602068806800F46020B0F5A1
:1017F000602F16D112492068884208D1114800682C
:1018000000F4702008B9012002E0002000E001206F
:1018100038B12068806840F4A000216888600CE03E
:1018200006E02068806840F480102168886004E049
:1018300000BF002084F8240000BF284675E70000A0
:10184000002801400424014070B50446002500BF73
:1018500094F82400012801D1022070BD012084F8F1
:10186000240000BF2046FFF784F805462DB9A06A82
:1018700020F4885040F00100A06200BF002084F8EE
:10188000240000BF2846E8E770B50446002594F818
:101890002100022803D00420A063012548E020682D
:1018A000006820F00E00216808602068006820F0C1
:1018B0000100216808601F492068884201D1012089
:1018C00026E01C4914312068884201D110201FE015
:1018D000184928312068884201D1801518E015493F
:1018E0003C312068884201D1801411E01149503107
:1018F0002068884202D14FF4803009E00D496431FC
:101900002068884202D14FF4801001E04FF08070CF
:10191000084908394860012084F8210000BF0020F0
:1019200084F8200000BF606B10B12046616B8847CF
:10193000284670BD080002402DE9F04104460E46DD
:101940000127002500BF2648007E012802D1022081
:10195000BDE8F08101202249087600BF20680228F6
:1019600013D14CF25030FFF717FA90BB0120FFF76C
:1019700099F94CF25030FFF70FFA07461948006901
:1019800020F004001749086123E04CF25030FFF7C3
:1019900003FAF0B94FF0FF303060A56812E0284636
:1019A000FFF794F94CF25030FFF7F6F907460D486F
:1019B000006920F002000B4908610FB1356007E0B3
:1019C00005F58065D4E9021001EB8020A842E6D835
:1019D00000BF00BF00200249087600BF3846B7E7C5
:1019E000780F0020002002400348006940F080008A
:1019F0000149086100207047002002402DE9FE4F98
:101A000005468B4617469846012600240020029082
:101A100000BF2448007E012802D10220BDE8FE8FCD
:101A200001202049087600BF4CF25030FFF7B4F98E
:101A3000064686BB012D02D10120029006E0022D50
:101A400002D10220029001E00420029000241EE056
:101A50002201B946C24648465146FEF763FB80B2B2
:101A60000190022000FB04B000900199FFF742F9B9
:101A70004CF25030FFF790F906460B48006920F011
:101A800001000949086106B104E0601CC4B2029873
:101A90008442DDDB00BF00BF00200249087600BFA2
:101AA0003046BBE7780F00200020024000200849A4
:101AB000096901F0800151B10649054A51600649A2
:101AC00051601146096901F0800101B101207047A0
:101AD0000020024023016745AB89EFCD2DE9F8478F
:101AE0000346002294466EE14FF0010808FA02F422
:101AF000D1F8008008EA0400A0427DD1DFF8DCA222
:101B0000D1F80480A8EB0A09D0453AD014DCB8F12A
:101B1000030F50D009DCB8F1000F31D0B8F1010F3C
:101B20001CD0B8F1020F49D120E0B8F1110F18D044
:101B3000B8F1120F42D11EE0B9F5881F25D006DC9E
:101B4000B9F5803F20D0B9F5801F37D11AE0B9F53B
:101B5000001F18D0B9F5041F30D117E0D1F80CC020
:101B60002DE0D1F80C8008F1040C28E0D1F80C80AD
:101B700008F1080C23E0D1F80C8008F10C0C1EE0F1
:101B800000BF00BF00BF00BF00BF00BFD1F808808A
:101B9000B8F1000F02D14FF0040C0BE0D1F808802F
:101BA000B8F1010F03D14FF0080C1C6102E04FF0B7
:101BB000080C5C6103E04FF0000C00E000BF00BFC8
:101BC000FF2801D8984601E003F104084646FF28A3
:101BD00002D84FEA820803E0A2F108084FEA880819
:101BE0004746D6F800804FF00F0909FA07F928EAAE
:101BF00009080CFA07F900E088E048EA0908C6F885
:101C00000080D1F8048008F08058B8F1805F7DD161
:101C100000BFDFF8CC81D8F8188048F00108DFF861
:101C2000C091C9F81880C846D8F8188008F0010893
:101C3000CDF8008000BF00BF4FEAB9384FEA9209E3
:101C400058F829504FEA82784FEA18794FF00F0878
:101C500008FA09F825EA0805DFF88881434502D12A
:101C60004FF0000816E0DFF88081434502D14FF0C5
:101C700001080FE0DFF87481434502D14FF00208FC
:101C800008E0DFF86C81434502D14FF0030801E022
:101C90004FF004084FEA82794FEA197908FA09F8F7
:101CA00048EA0505DFF84C814FEA920948F82950C7
:101CB000D1F8048008F48038B8F5803F0AD1DFF805
:101CC0003881D8F8008048EA0008DFF82C91C9F87C
:101CD000008009E0DFF82081D8F8008028EA0008B9
:101CE000DFF81491C9F80080D1F8048008F40038B6
:101CF000B8F5003F10D1DFF8008108F10408D8F8EA
:101D0000008048EA0008DFF8F09000E05AE009F1AE
:101D10000409C9F800800DE0DFF8DC8008F1040850
:101D2000D8F8008028EA0008DFF8CC9009F104090F
:101D3000C9F80080D1F8048008F48018B8F5801F35
:101D40000ED1DFF8B48008F10808D8F8008048EA1E
:101D50000008DFF8A49009F10809C9F800800DE037
:101D6000DFF8948008F10808D8F8008028EA000815
:101D7000DFF8849009F10809C9F80080D1F80480DF
:101D800008F40018B8F5001F0ED1DFF86C8008F1D8
:101D90000C08D8F8008048EA0008DFF85C9009F1E8
:101DA0000C09C9F800800DE0DFF84C8008F10C0840
:101DB000D8F8008028EA0008DFF83C9009F10C0907
:101DC000C9F80080521CD1F8008028FA02F8B8F156
:101DD000000F7FF489AEBDE8F88700000000111005
:101DE0000010024000080140000C014000100140BA
:101DF000001401400800014000040140C2680A408C
:101E00000AB1416100E0016170470AB1016101E07E
:101E10000B04036170470000014800687047000030
:101E20003C00002003480068034909780844014940
:101E3000086070473C0000204400002010B50848AE
:101E4000006840F0100006490860032000F0A8F880
:101E5000002000F007F800F02BF8002010BD000073
:101E60000020024070B504460E4800784FF47A71A5
:101E7000B1FBF0F00C490968B1FBF0F5284600F021
:101E80002FFD08B1012070BD102C07D20022214681
:101E9000501E00F047F80548046001E00120F2E719
:101EA0000020F0E74400002048000020400000200F
:101EB00008B500BF1148806940F001000F498861F2
:101EC0000846806900F00100009000BF00BF00BF1D
:101ED0000846C06940F08050C8610846C06900F0FB
:101EE0008050009000BF00BF00BF0549486820F047
:101EF000E06040F00070486000BF08BD0010024084
:101F00000000014001460846002809DB00F01F03DD
:101F100001229A4043099B0003F1E023C3F800210A
:101F200000BF70472DE9F05F80460D46164600273A
:101F300002F098FC074639462A46334601F007006E
:101F4000C0F1070ABAF1040F02D94FF0040A01E008
:101F5000C0F1070AD14600F1040ABAF1070F02D214
:101F60004FF0000A01E0A0F1030AD4464FF0010A45
:101F70000AFA09FAAAF1010A0AEA020A0AFA0CFAAA
:101F80004FF0010B0BFA0CFBABF1010B0BEA030B4F
:101F90004AEA0B042146404602F06CFCBDE8F09F83
:101FA00000BF00F00702064B19684FF6FF03194007
:101FB000044B0B4343EA0221014B196000BF7047F9
:101FC0000CED00E00000FA052DE9F04385B006466F
:101FD0003BA30FCB01AC0FC43DA0006800904FF0B5
:101FE0000008002500270024A146012E30D0022E33
:101FF00055D0102E5ED137484468006800F08070DC
:1020000000B301A8C4F38341475C04F4803070B18D
:1020100030484068C0F340401DF8008004F4803030
:1020200040B12D48B0FBF8F000FB07F502E02B486B
:1020300007FB00F52748406800F48000B0F5800FEA
:1020400001D1A94603E068000321B0FBF1F932E0B9
:102050002048046A04F44070B0F5807F05D104F094
:10206000020010B14FF4004918E004F44070B0F5DC
:10207000007F07D11748406A00F0020010B149F60E
:1020800040490BE004F44070B0F5407F06D11148A0
:10209000006800F4003008B14FF224490BE000F072
:1020A00093F90C494968C1F38131491C4900B0FBDF
:1020B000F1F900E000BF00BF484605B0BDE8F0837D
:1020C00002030405060708090A0B0C0D0E0F101079
:1020D000010200000010024000127A0000093D00D9
:1020E000F8B5044600260025207800F001000028FD
:1020F0006BD000274348C06900F0805070B900BF22
:102100004048C06940F080503E49C8610846C069F7
:1021100000F08050009000BF00BF01273A480068DF
:1021200000F48070B0B93848006840F480703649D7
:102130000860FFF771FE064606E0FFF76DFE801BA4
:10214000642801D90320F8BD2F48006800F480708E
:102150000028F2D02B48006A00F440752DB3A08807
:1021600000F44070A84220D02648006A20F4407550
:10217000012026490860002008602248056205F019
:10218000010090B1FFF748FE064608E0FFF744FE65
:10219000801B41F28831884201D90320D3E71948D6
:1021A000006A00F002000028F0D01648006A20F40F
:1021B00040706168084313490862012F04D1084642
:1021C000C06920F08050C86100BF207800F0020094
:1021D000022807D10B48406820F44040A16808431A
:1021E00008494860207800F01000102807D1054801
:1021F000406820F48000E1680843024948600020FC
:10220000A1E700000010024000700040400442427C
:1022100070B504460D460CB9012070BD5A480068DF
:1022200000F00700A8420ED25748006820F00700CF
:102230002843554908600846006800F00700A84296
:1022400001D00120E9E7207800F0020002281DD12A
:10225000207800F00400042805D14C48406840F480
:10226000E0604A494860207800F00800082805D15D
:102270004648406840F460504449486043484068DC
:1022800020F0F000A168084340494860207800F041
:10229000010078B36068012806D13C48006800F46A
:1022A000003090B90120B8E76068022806D13748AD
:1022B000006800F0007040B90120AEE733480068C4
:1022C00000F0020008B90120A7E73048406820F07C
:1022D0000300616808432D494860FFF79DFD0646ED
:1022E00009E0FFF799FD801B41F28831884202D94D
:1022F000032092E707E02548406800F00C00616881
:10230000B0EB810FEDD12048006800F00700A84233
:102310000ED91D48006820F0070028431A490860BC
:102320000846006800F00700A84201D0012074E7C9
:10233000207800F00400042807D11448406820F4F5
:10234000E060E168084311494860207800F0080027
:10235000082808D10D48406820F46050216940EAFF
:10236000C1000A49486000F03FF808494968C1F3D4
:102370000311074A515CC8400649086006480068D6
:10238000FFF770FD002048E70020024000100240E7
:10239000A0570008480000204000002001480068C5
:1023A000704700004800002000B5FFF7F7FF044920
:1023B0004968C1F30221034A515CC84000BD0000D6
:1023C00000100240B057000800B5FFF7E7FF0449CE
:1023D0004968C1F3C221034A515CC84000BD0000F6
:1023E00000100240B0570008F0B585B00FF26C0C39
:1023F0009CE8E01001A8A0E8E0101CA52D6800955D
:1024000000210022002300240020194D696801F0FA
:102410000C05F5B1042D02D0082D19D101E01548A5
:1024200019E001ADC1F38346AC5D01F4803555B1CF
:102430000F4D6D68C5F340451DF805200D4D6543F2
:10244000B5FBF2F302E00C4D04FB05F3184602E085
:1024500000BF084800BF00BF05B0F0BD020304057F
:10246000060708090A0B0C0D0E0F101001020000E0
:102470000010024000127A0000093D00F8B5044641
:102480000CB90120F8BD207800F00100002878D0B8
:10249000F848406800F00C0004280CD0F54840686B
:1024A00000F00C00082811D1F248406800F4803098
:1024B000B0F5803F0AD1EF48006800F400300028F2
:1024C0005FD0606800285CD10120DBE700BF606856
:1024D000B0F5803F06D1E748006840F48030E54918
:1024E000086028E0606858B9E248006820F480304D
:1024F000E04908600846006820F4802008601AE07F
:102500006068B0F5A02F0BD1DA48006840F4802055
:10251000D84908600846006840F4803008600AE046
:10252000D448006820F48030D2490860084600682A
:1025300020F48020086000BF606888B1FFF76CFC61
:10254000054606E0FFF768FC401B642801D903201C
:1025500098E7C848006800F400300028F2D010E086
:10256000FFF75AFC054606E0FFF756FC401B6428BF
:1025700001D9032086E7BF48006800F40030002836
:10258000F2D1207800F00200022857D1B948406803
:1025900000F00C0050B1B748406800F00C0008286B
:1025A00018D1B448406800F4803098B9B148006848
:1025B00000F0020020B12069012801D0012061E76C
:1025C000AC48006820F0F800616940EAC100A94900
:1025D000086033E02069E8B10120A7490860FFF7EF
:1025E0001BFC054606E0FFF717FC401B022801D93B
:1025F000032047E79F48006800F002000028F2D05F
:102600009C48006820F0F800616940EAC1009949DF
:10261000086013E0002098490860FFF7FDFB0546BD
:1026200006E0FFF7F9FB401B022801D9032029E748
:102630009048006800F002000028F2D1207800F0F5
:10264000080008282DD1A069B8B101208B49086085
:10265000FFF7E2FB054606E0FFF7DEFB401B022822
:1026600001D903200EE78348406A00F002000028E9
:10267000F2D0012001F0D8FA13E000207F49086071
:10268000FFF7CAFB054606E0FFF7C6FB401B022822
:1026900001D90320F6E67748406A00F002000028DE
:1026A000F2D1207800F00400042873D1002771488B
:1026B000C06900F0805070B900BF6E48C06940F03A
:1026C00080506C49C8610846C06900F08050009095
:1026D00000BF00BF01276A48006800F48070B0B9ED
:1026E0006748006840F4807065490860FFF794FB14
:1026F000054606E0FFF790FB401B642801D9032044
:10270000C0E65F48006800F480700028F2D000BF87
:10271000E068012806D15748006A40F00100554999
:10272000086227E0E06858B95248006A20F00100CA
:10273000504908620846006A20F00400086219E067
:10274000E06805280BD14B48006A40F00400494975
:1027500008620846006A40F0010008620AE0454845
:10276000006A20F00100434908620846006A20F030
:102770000400086200BFE068A0B1FFF74DFB05460A
:1027800009E0FFF749FB401B41F28831884202D93A
:10279000032077E622E03748006A00F002000028B4
:1027A000EFD012E0FFF738FB054608E0FFF734FBF7
:1027B000401B41F28831884201D9032062E62D484E
:1027C000006A00F002000028F0D1012F05D129484D
:1027D000C06920F080502749C86100BFE069C8B3D4
:1027E0002448406800F00C00082860D0E069022806
:1027F00048D1002020490866FFF70EFB054606E099
:10280000FFF70AFB401B022801D903203AE61948CA
:10281000006800F000700028F2D1206AB0F5803F17
:1028200007D11448406820F40030A16808431149DA
:102830004860D4E9080108430E49496821F474113D
:1028400008430C49486001200B490866FFF7E4FA89
:10285000054607E03DE0FFF7DFFA401B022801D9FB
:1028600003200FE60348006800F000700028F2D053
:102870002FE000000010024000004242800442426B
:1028800000700040002014490866FFF7C5FA0546AD
:1028900006E0FFF7C1FA401B022801D90320F1E549
:1028A0000E48006800F000700028F2D111E0E069E5
:1028B000012800D1E6E50948466806F48031206A1F
:1028C000814204D106F47011606A814201D0012076
:1028D000D8E50020D6E5000000004242001002408A
:1028E00070B504462546681EB0F1807F01D30120F3
:1028F0000FE0681E4FF0E02148610F214FF0FF30DC
:1029000001F0B8FF00204FF0E02188610720086146
:10291000002070BD7047704710B5024600BF92F8A6
:102920003C00012801D1022010BD012082F83C00AA
:1029300000BF022082F83D00106843681068846878
:1029400023F070030868034324F0800448680443BC
:102950001068436010688460012082F83D0000BF69
:10296000002082F83C0000BF00BFDDE710B5044640
:102970000CB9012010BD94F83D0028B9002084F85E
:102980003C00204600F00CF8022084F83D00211D98
:10299000206801F053FC012084F83D000020E9E7A5
:1029A00038B504462068B0F1804F15D100BF0B4800
:1029B000C06940F001000949C8610846C06900F0DB
:1029C0000100009000BF00BF002211461C20FFF74D
:1029D000A9FA1C20FFF796FA38BD0000001002404B
:1029E00001460868C06840F001000B68D8600868BC
:1029F000806800F00702062A05D00868006840F0E9
:102A000001000B6818600020704701460868C06824
:102A100020F001000A68D06000BF0868006A41F237
:102A20001112104050B90868006A9210104028B97D
:102A30000868006820F001000A68106000BF0020EC
:102A400070472DE9F04104460D4600BF94F83C0064
:102A5000012802D10220BDE8F081012084F83C0069
:102A600000BF022084F83D002068866826F07706C3
:102A700026F47F46206886602868502833D00CDC16
:102A8000202850D004DC00284BD0102851D149E038
:102A9000302849D040284CD139E060282DD070280A
:102AA00007D0B0F5805F03D0B0F5005F41D10DE0F5
:102AB00040E0D5E902136A68206801F00AFC20684A
:102AC000866846F077062068866033E0D5E9021311
:102AD0006A68206801F0FDFB2068806840F480404F
:102AE0002168886026E0EA686968206801F0C2FC15
:102AF0005021206801F0F8FB1CE0EA686968206852
:102B000001F0CBFC6021206801F0EEFB12E0EA68E6
:102B10006968206801F0AEFC4021206801F0E4FB08
:102B200008E000BF00BF00BF2968206801F0DCFB9F
:102B300000E000BF00BF012084F83D0000BF00207E
:102B400084F83C0000BF00BF85E7704710B504461D
:102B500020680069C0F34000D8B12068C068C0F3A5
:102B60004000B0B16FF002002168086101202077B9
:102B70002068806900F0030018B12046FFF7E5FFE8
:102B800005E0204600F0D8F8204600F075F9002056
:102B9000207720680069C0F38000D8B12068C06841
:102BA000C0F38000B0B16FF004002168086102201A
:102BB00020772068806900F4407018B12046FFF744
:102BC000C4FF05E0204600F0B7F8204600F054F9B5
:102BD0000020207720680069C0F3C000D8B12068C9
:102BE000C068C0F3C000B0B16FF008002168086190
:102BF000042020772068C06900F0030018B1204647
:102C0000FFF7A3FF05E0204600F096F8204600F00D
:102C100033F90020207720680069C0F30010D8B194
:102C20002068C068C0F30010B0B16FF010002168D8
:102C30000861082020772068C06900F4407018B14E
:102C40002046FFF782FF05E0204600F075F8204699
:102C500000F012F9002020772068006900F00100E0
:102C600058B12068C06800F0010030B16FF0010079
:102C700021680861204600F027F920680069C0F348
:102C8000C01058B12068C068C0F3C01030B16FF0F8
:102C90008000216808612046FFF73CFE206800693B
:102CA000C0F3801058B12068C068C0F3801030B104
:102CB0006FF0400021680861204600F006F92068A6
:102CC0000069C0F3401058B12068C068C0F34010DC
:102CD00030B16FF02000216808612046FFF71BFE2D
:102CE00010BD000010B586B004460020029003908D
:102CF000049005902068B0F1804F16D100BF0C48B9
:102D0000806940F004000A4988610846806900F043
:102D10000400019000BF00BF012002900220039038
:102D2000059002A90348FEF7D9FE06B010BD0000C9
:102D30000010024000080140704770B504460D467F
:102D4000164600BF94F83C00012801D1022070BD56
:102D5000012084F83C0000BF022084F83D0036B119
:102D6000042E1BD0082E31D00C2E5ED145E0294612
:102D7000206801F0C3FA2068806940F008002168EB
:102D800088612068806920F00400216888612068DB
:102D90008069296908432168886147E029462068DD
:102DA00001F0DCFA2068806940F4006021688861E5
:102DB0002068806920F480602168886120688069CB
:102DC000296940EA0120216888612FE029462068AE
:102DD00001F0F8FA2068C06940F008002168C86175
:102DE0002068C06920F004002168C8612068C069BB
:102DF000296908432168C86118E02946206801F064
:102E000015FB2068C06940F400602168C861206833
:102E1000C06920F480602168C8612068C0692969A0
:102E200040EA01202168C86100E000BF00BF012026
:102E300084F83D0000BF002084F83C0000BF00BFC4
:102E400085E710B504460CB9012010BD94F83D008B
:102E500028B9002084F83C00204600F00CF802203D
:102E600084F83D00211D206801F0E8F9012084F874
:102E70003D000020E9E770477047000070B5044648
:102E80000E4601223146206801F012FA0D492068F1
:102E9000884201D1012000E0002028B12068406C68
:102EA00040F40040216848642068806800F007050D
:102EB000062D05D02068006840F0010021680860F8
:102EC000002070BD002C01407047704770470146DC
:102ED000C86B70472DE9F0470446206805682068F4
:102EE000C668206847694FF00008C14605F00F0822
:102EF000B8F1000F0AD105F0200038B106F020002B
:102F000020B1204601F007FBBDE8F087B8F1000FC3
:102F10006DD007F0010018B906F49070002866D053
:102F200005F0010030B106F4807018B1E06B40F09C
:102F30000100E06305F0040030B107F0010018B1B2
:102F4000E06B40F00200E06305F0020030B107F0F2
:102F5000010018B1E06B40F00400E06305F00800E8
:102F600030B107F0010018B1E06B40F00800E063F9
:102F7000E06B68B305F0200028B106F0200010B126
:102F8000204601F0C8FA20684069C0F38019E06B60
:102F900000F0080010B9B9F1000F22D0204601F06E
:102FA0009AFA2068406900F04000B0B1206840699A
:102FB00020F0400021684861606B50B11748616B98
:102FC0004863606BFEF760FC10B1606B416B884733
:102FD0000CE02046FFF77AFF08E02046FFF776FF77
:102FE00004E02046FFF772FF0020E0638CE705F065
:102FF000800030B106F0800018B1204601F0AEFB31
:1030000082E705F0400030B106F0400018B12046DC
:1030100001F071FA78E700BF76E70000C3440008CA
:1030200010B504460CB9012010BDA06900B100E044
:1030300000BF94F8390028B9002084F838002046F1
:1030400000F028F8242084F839002068C06820F4B3
:1030500000502168C860204601F0B0FA206800697D
:1030600020F49040216808612068406920F02A001F
:10307000216848612068C06840F400502168C86039
:103080000020E063202084F8390084F83A00002012
:10309000CAE7000010B586B00446002002900390F5
:1030A000049005901E492068884236D100BF1D4813
:1030B000806940F480401B4988610846806900F4BB
:1030C0008040019000BF00BF00BF0846806940F00B
:1030D000040088610846806900F00400019000BF88
:1030E00000BF48150290022003900320059002A91A
:1030F0000D48FEF7F3FC4FF480600290002003902F
:10310000049002A90848FEF7E9FC00221146252098
:10311000FEF708FF2520FEF7F5FE06B010BD000003
:1031200000380140001002400008014010B503467D
:1031300093F83A0020282FD101B10AB9012010BD1F
:1031400000BF93F83800012801D10220F7E70120E1
:1031500083F8380000BF99629A85DA850020D86329
:10316000222083F83A0000BF002083F8380000BF17
:103170001868C06840F480701C68E0601868406996
:1031800040F001001C6860611868C06840F02000D1
:103190001C68E0600020D2E70220D0E770B5054649
:1031A0001949286888422DD118480078401C1749D1
:1031B00008701748FFF78BFE08B1012400E00024D7
:1031C0001448D0F8100440F2FF71884215D2A4B917
:1031D000114801780F48D0F810240D3081540D3873
:1031E000D0F81004401C0B49C1F81004012081F8EC
:1031F0001404FEF711FE094908600122064904483B
:10320000FFF794FF70BD0000003801400E00002061
:10321000340F0020580000200D0000201000002076
:103220002DE9F84304460D4616461F464FF00009A7
:1032300094F8390020285CD105B116B90120BDE809
:10324000F88300BF94F83800012801D10220F6E786
:10325000012084F8380000BF0020E063212084F8BA
:103260003900FEF7D9FD8146A684E6842BE0E08C88
:10327000401EE084A068B0F5805F16D14B46002266
:1032800080212046009701F09DFA08B10320D6E77F
:10329000A846B8F80000C0F308002168486020691B
:1032A00008B9AD1C0FE06D1C0DE04B4600228021DB
:1032B0002046009701F086FA08B10320BFE715F811
:1032C000010B21684860E08C0028D0D14B460022D9
:1032D00040212046009701F075FA08B10320AEE7BF
:1032E000202084F8390000BF002084F8380000BF97
:1032F000A5E70220A3E7704700BFFEE70EB5002058
:1033000000900190029024482449086081152348C8
:103310008160002101730121017581614FF46021F9
:10332000C16100201D49486004211C480161FEF76D
:103330004BF808B1FDF7B4FC11200090012001907A
:103340000620029069461548FDF78AFF08B1FDF78F
:10335000A7FC062000900220019069460F48FDF767
:103360007FFF08B1FDF79CFC08200090032001902E
:1033700069460A48FDF774FF08B1FDF791FC072084
:1033800000900420019069460448FDF769FF08B1E8
:10339000FDF786FC0EBD000000240140C40E002095
:1033A00000B585B00020019002900390049000BF0A
:1033B0003348806940F020003149886108468069BF
:1033C00000F02000009000BF00BF00BF08468069E9
:1033D00040F0040088610846806900F00400009015
:1033E00000BF00BF00BF0846806940F00800886148
:1033F0000846806900F00800009000BF00BF00226E
:1034000001212048FEF701FD00224FF488711E487B
:10341000FEF7FBFC00224FF400511C48FEF7F5FCC0
:10342000012001900290002003900220049001A945
:103430001448FEF753FB4FF488700190012002906E
:10344000002003900220049001A90F48FEF746FBDC
:103450004FF40050019001200290002003900220C0
:10346000049001A90948FEF739FB00BF08494868E4
:1034700040F0E06040F40040486000BF05B000BD8F
:10348000001002400014014000080140000C0140FF
:103490000000014000B58DB0002009900A900B900B
:1034A0000C90079008901C216846FCF752FE4FF0E4
:1034B00080401F49086041F2BF20486010211C482D
:1034C00081602721C160002101618161FFF74EFA0F
:1034D00008B1FDF7E5FB4FF48050099009A91448A5
:1034E000FFF7AFFA08B1FDF7DBFB1148FFF7A9FCC6
:1034F00008B1FDF7D5FB00200790089007A90C48FC
:10350000FFF70AFA08B1FDF7CBFB6020009000201E
:10351000019002900490002269460548FFF70DFCD7
:1035200008B1FDF7BDFB0248FFF7DCFB0DB000BDA5
:10353000F40E002010B50B480B4908604FF41650EC
:103540004860002108488160C16001610C2141612F
:1035500000218161C161FFF763FD08B1FDF7A0FBA8
:1035600010BD000000380140340F002000BFFEE70E
:1035700010B56F48817C407C41EA00206D490860AD
:103580006D48006809680844B0F57A7F77D26A48C8
:10359000006802280ED06848006803280AD06648F0
:1035A0000068B0F5807F05D06348006840F20111E3
:1035B000884264D15E48407B5D4981F81504084625
:1035C000817B80F816145B4800784006010E58484D
:1035D00080F8171400247EE057490968022927D192
:1035E000012C11DA55494869010A09B1012200E0AC
:1035F0000022032101EB44035149CA54042101EB89
:1036000044034F49C85464E0022C62DA4B4988698C
:10361000010A09B1012200E00022032101EB440369
:103620004749CA54042101EB44034549C85450E0BA
:1036300041490968032915D1012C4ADA3F498969B2
:10364000090A09B1012200E00022032101EB440331
:103650003B49CA5439490A7E042101EB44033849E5
:10366000CA5436E034490968B1F5807F16D1012C7F
:103670002FDA2F494979091211B1012201E056E0F0
:103680000022032101EB44032D49CA5428494A79F9
:10369000042101EB44032A49CA541AE02649096867
:1036A00040F20112914214D1012C12DA204909682A
:1036B000090A09B1012200E00022032101EB4403C1
:1036C0001F49CA541A490A78042101EB44031C49D2
:1036D000CA54601CC4B2174800688442FFF47CAF2F
:1036E00014480068032202EB40011548FDF7AEF9CB
:1036F0001449086008460088C0F307210D48006897
:10370000032202EB40020E4881540E48017809481A
:103710000068042202EB4002094881540548007801
:10372000052202EB4000C1B2054800F0D9FA10BDF5
:103730005800002004000020000000207408002031
:103740006D0400200800002070B56748817C407C33
:1037500041EA002065490860654800680968084436
:10376000B0F57A7F7ED262480068B0F5807F05D0E0
:103770005F48006840F20111884273D15A48407B8B
:10378000594981F815040846817B80F81614584879
:103790000088010A544880F81714554801785248A7
:1037A00080F81814417C80F81914817C80F81A1470
:1037B00000257EE04E480068B0F5807F07D1012DDE
:1037C00034DA494890F81A04474948712EE04848CD
:1037D000006840F20111884228D1012D26DA4248C2
:1037E00090F81A0430B1012809D002280CD003281F
:1037F00014D10EE04FF416603B49086013E04FF41B
:103800009650394908600EE04FF41650364908606A
:1038100009E04FF4E1303449086004E04FF41650F9
:103820003149086000BF00BF00F012FA002401F027
:1038300047FD2046641C01225A2101F071FD2A4AED
:1038400051792046641C012201F06AFD264A204677
:10385000641C1168012201F063FD234A117920469E
:10386000641C00E03FE0012201F05AFD2149086894
:10387000FDF7CAFA06462046641C0122314601F0D3
:103880004FFD1C494868FDF7BFFA06462046641CF8
:103890000122314601F044FD16498868FDF7B4FA6B
:1038A00006462046641C0122314601F039FD681CA1
:1038B000C5B20E4800688542FFF47CAF06210E4871
:1038C000FDF7C4F80D49086008460088010A06485B
:1038D00080F81B1409480178034880F81C1408215B
:1038E000054800F0FDF970BD5800002004000020DC
:1038F00000000020940B00206D0400200800002030
:103900002DE9FF471D48817C407C41EA00201C498D
:1039100008601C48006809680844B0F57A7F2AD21C
:103920001848006840F20311884224D10122C11EC8
:103930001548FEF76AFA15498868FCF7E4FD044665
:103940000D4612494868FCF7DEFD06460F460F4952
:103950000868FCF7D8FD804642460B460CA0CDE92E
:103960000067CDE9024500F06DFF00224FF4807141
:103970000548FEF74AFABDE8FF870000580000201E
:10398000040000200000002000080140740800200E
:103990005248205445312054453220566F6C746192
:1039A00067653A20202025662020202566202020DB
:1039B00025660A0010B55548817C407C41EA00200C
:1039C000534908605348006809680844B0F57A7F95
:1039D0007ED2504800684E49096808440C2877D3C5
:1039E0004C480068B0F5817F72D14848407B474918
:1039F00081F815040846817B80F816144548008834
:103A0000010A424880F81714424801783F4880F87C
:103A10001814417C80F81914817C80F81A14C17C38
:103A200080F81B14017D80F81C14417D80F81D1462
:103A3000817D80F81E14C17D80F81F14017E80F8FE
:103A40002014417E80F82114817E80F82214C17EEA
:103A500080F82314017F80F82414417F80F8251416
:103A6000817F80F8261404211330FDF757F82A4986
:103A70000860042125481730FDF750F826494860B2
:103A8000042122481B30FDF749F8234988600024AF
:103A900001F016FC2046641C01225A2101F040FC72
:103AA0001A4A51792046641C012201F039FC174A58
:103AB0002046641C1168012201F032FC134A11797E
:103AC0002046641C012201F02BFC2046641C00E00F
:103AD0001AE00C220D49133101F048FC12210F4865
:103AE000FCF7B4FF0E49086008460088010A074841
:103AF00080F827140A480178044880F82814142113
:103B0000064800F0EDF800BF10BD0000580000208E
:103B10000400002000000020940B00206D04002011
:103B20000800002010B53948817C407C41EA002023
:103B3000374908603748006809680844B0F57A7F5B
:103B400063D234480068B0F5827F5ED12F48407B55
:103B50002E4981F815040846817B80F816142D48FB
:103B60000088010A294880F817142A480178274854
:103B700080F81814417C80F81914817C80F81A149C
:103B8000C17C80F81B14002401F09AFB2046641CC1
:103B900001225A2101F0C4FB1C4A51792046641CC1
:103BA000012201F0BDFB194A2046641C1168012264
:103BB00001F0B6FB154A11792046641C012201F080
:103BC000AFFB204601F0D8FA1048C17C012204F175
:103BD0000C0001F0A5FB0D48C07C0F4908770721B8
:103BE0000E48FCF733FF0E49086008460088010ABA
:103BF000064880F81C140A480178044880F81D140F
:103C00000921064800F06CF800BF10BD58000020E4
:103C10000400002000000020740800206D04002033
:103C2000080000207047704708B508490968C908AE
:103C30004FF47A72B1FBF2F14143009100BF00BF33
:103C400000994A1E00920029F9D108BD48000020C1
:103C500010B51E481E4908601E48006848600021D3
:103C60001B488160C16001610C21416100218161BB
:103C7000C1611848007920B1012806D002280ED170
:103C800008E000211248016109E04FF4C0611048CA
:103C9000016104E04FF480610D48016100BF00BF85
:103CA0000B48FFF7BDF908B1FCF7FAFF00224FF40B
:103CB00080710948FEF7A9F800200649087301221F
:103CC00006490348FFF732FA10BD000000380140F2
:103CD000340F002058000020000801400D00002093
:103CE00070B504460D46012211020648FEF78DF814
:103CF00001200549087364232A4621460348FFF73B
:103D00008FFA70BD0008014058000020340F0020D9
:103D100010B5FEF781F874490968401A322818D3A3
:103D20003020FDF793F8FEF777F86F4908606F4889
:103D30000078401C6D4908706D48007801280CD14E
:103D4000084600781E2808DB00200870FFF7D8FD21
:103D500003E06548006864490860664890F8140408
:103D600002287CD16348407B62494979884260D10E
:103D70006048807B03280FD05E48807B06280BD0EC
:103D80005C48807B072807D05A48807B082803D0EE
:103D90005848807B092879D15648017CC07B41EA8C
:103DA00000205549086008460068B0F57A7F57D270
:103DB0005048D0F81004811E4E480D30FCF746FEE6
:103DC0004E4908604B48D0F81004401E49490D3157
:103DD0000A5C4848D0F81004801E085C42EA0024BF
:103DE00046480068A04225D14248807BC01E072873
:103DF0001BD2DFE800F0041A1A0A10141700002082
:103E00003B490870FFF7B4FB13E000203849087005
:103E1000FFF79AFC0DE001203549087009E0FFF733
:103E2000C9FD06E0FFF77EFE03E000203049087080
:103E300000BF3FE02F48407B2E4981F8150408461B
:103E4000807B40F080012B4880F81614042180F814
:103E50001714032100F21540FFF742FF2AE030E07B
:103E60002448407B234981F815040846807B40F0B4
:103E70008001204880F81614022180F817140321CD
:103E800000F21540FFF72CFF14E0FFE71948407BD4
:103E9000184981F815040846807B40F080011548D8
:103EA00080F81614012180F81714032100F2154040
:103EB000FFF716FF00200F4981F81404C1F8100421
:103EC00008730C4890F81404032806D1002009490F
:103ED00081F81404C1F81004087300224FF48071B3
:103EE0000748FDF792FF10BD1400002018000020C5
:103EF0000C000020580000200000002008000020D6
:103F000000080140704700002DE9F04705460E46C5
:103F1000012D1DD1424908683146FCF77DF98046E4
:103F20003146FCF779F907463D4881683846FCF789
:103F30001BF93B49C86048683146FCF76DF90746F4
:103F40003748C1683846FCF70FF93549C8601CE0AE
:103F5000334908683146FCF75FF980463146FCF783
:103F60005BF907462E4881683846FCF7FDF82C4976
:103F7000C86048683146FCF74FF907462848C168D1
:103F80003846FCF7F1F82649C8603046FCF7BBFA22
:103F90000746244A244BFCF7C9FA04D200202049E2
:103FA000C860224908601E48C16820480068FCF7C4
:103FB000DBF81E4908601E480078401C1C49087048
:103FC0001749C8681A490978FDF77AF881461848F0
:103FD0000078642802DB002015490870002148465B
:103FE000FCF7D8FA06D24846FCF779FA0446E043D3
:103FF000441C07E00F494846FCF70EF90746FCF75A
:104000006EFA04462046FCF758FA0549C860C868AD
:10401000FCF765FA0746FCF750FABDE8F0870000A8
:10402000940B00203D0AD7A3703DF83F2C000020E0
:1040300028000020000020412DE9F04F89B00E46F5
:1040400091463948079039480690394805903949D2
:104050003046FCF7E1F880464946FCF70FF9074681
:104060003449FCF7D3F8824633495046FCF7D4F87C
:104070008046FCF734FA0746FCF71FFA82465046A2
:10408000FCF741FA00222D4BCDE90001FCF7A6F91F
:104090000746FCF763FA824651460798FCF7BCF8DE
:1040A00007465146FCF7B8F8049051460698FCF7CD
:1040B000B3F80390DDE90310FCF756F88346584641
:1040C0000599FCF751F883461D495846FCF7A4F8BA
:1040D0008346CDF810B00298401CC0B20290601C1C
:1040E000C4B221465846FCF79DFF8346642C00DB92
:1040F000002414495846FCF789F8834600215846A5
:10410000FCF748FA06D25846FCF7E9F90546E843B9
:10411000451C03E05846FCF7E2F905462846FCF743
:10412000CCF909B0BDE8F08F52499D3A9F3C14404C
:10413000299C73C30080F94300401C460088C3409B
:10414000000020410000F04110B5FDF76BFE01F0CA
:10415000FBF910BD00B593B0282109A8FBF7F9FFC2
:10416000142104A8FBF7F5FF0020009001900290B5
:1041700003900220099001200D9010200E90022043
:104180001090002111914FF42011129109A8FEF70F
:1041900075F908B1FCF784FD0F200490022005900A
:1041A000002006904FF480600790002008900121C5
:1041B00004A8FEF72DF808B1FCF772FD022000906C
:1041C000400302906846FDF78BFF08B1FCF768FDDD
:1041D00013B000BD1148006840F001000F490860AD
:1041E000084640680E4908400C4948600846006887
:1041F0000C490840094908600846006820F48020FE
:1042000008600846406820F4FE0048604FF41F0034
:104210008860C8030449086070470000001002402D
:104220000000FFF8FFFFF6FE08ED00E010B50248C1
:10423000FEF78CFC10BD0000F40E002010B50268E3
:10424000184B984208D0B0F1804F05D0164B9842D9
:1042500002D0164B984203D122F070024B681A43E9
:10426000104B984208D0B0F1804F05D00E4B9842C9
:1042700002D00E4B984203D122F44072CB681A430D
:1042800022F080034C6943EA040202608B68C36237
:104290000B688362034B984201D10B6903630123CE
:1042A000436110BD002C01400004004000080040A4
:1042B00030B501F01F05012404FA05F3046A9C439C
:1042C0000462046A01F01F0502FA05F52C4304623A
:1042D00030BD30B50C46816821F47F4142EA0325A8
:1042E00025432943816030BD0A46816821F0700171
:1042F00042F00703194381607047000030B5056A3A
:1043000025F001050562026A4368846924F070049F
:1043100024F003040D682C4322F002028D682A4326
:104320000D4DA84206D100BF22F00802CD682A43F5
:1043300022F00402084DA84207D123F4807323F42D
:1043400000734D692B438D692B43436084614D6835
:104350004563026230BD0000002C014030B5056AA3
:1043600025F010050562026A4368846924F4E0447C
:1043700024F440740D6844EA052422F020028D687C
:1043800042EA05120E4DA84207D100BF22F080027A
:10439000CD6842EA051222F04002094DA84209D137
:1043A00023F4806323F400634D6943EA85038D6938
:1043B00043EA8503436084614D688563026230BDD2
:1043C000002C014030B5056A25F480750562026A4B
:1043D0004368C46924F0700424F003040D682C437E
:1043E00022F400728D6842EA05220F4DA84207D1DF
:1043F00000BF22F40062CD6842EA052222F4806206
:10440000094DA84209D123F4805323F400534D6988
:1044100043EA05138D6943EA05134360C4614D689F
:10442000C563026230BD0000002C014030B5056A52
:1044300025F480550562036A4468C26922F4E042AB
:1044400022F440720D6842EA052223F400538D687D
:1044500043EA0533064DA84204D124F480444D6953
:1044600044EA85144460C2614D680564036230BD4E
:10447000002C014030B50B461446026A056A25F04F
:1044800001050562816921F0F00141EA041122F081
:104490000A021A438161026230BD30B50B461446F0
:1044A000056A25F0100505628169026A21F47041F0
:1044B00041EA043122F0A00242EA03128161026261
:1044C00030BD70B505466C6A0020E085E08420466A
:1044D000FEF7FCFC70BD0168C96821F490710268A8
:1044E000D1600168496921F0010102685161202110
:1044F00080F83A10704710B504462068C06820F074
:1045000040002168C860202084F839002046FEF76A
:10451000F2FE002010BD70B5044694F83A0022283F
:104520004AD1A068B0F5805F13D1A56A206940B96F
:1045300020684068C0F308002880A06A801CA06240
:1045400019E020684068C0B22880A06A401CA062C0
:1045500011E0206938B920684068C1B2A26A501CD5
:10456000A062117007E02068406800F07F01A26A35
:10457000501CA0621170E08D401E80B2E085C8B969
:104580002068C06820F020002168C8602068C068EA
:1045900020F480702168C8602068406920F0010024
:1045A00021684861202084F83A002046FEF7F6FD95
:1045B000002070BD0020FCE70220FAE770B5044639
:1045C0002168096921F44051E268114322681161B0
:1045D0002269A1681143626941EA02052168C9683C
:1045E00041F20C62914329432268D16021684969F4
:1045F00021F44071A269114322685161564A216831
:10460000914254D1FDF7E0FE00EBC00101EB001137
:1046100062689200B1FBF2F100EBC00202EB001203
:1046200063689B00B2FBF3F26423B2FBF3F202EB8C
:10463000C20303EB0212A1EB8201322202EB011151
:104640006422B1FBF2F101F0F00100EBC00202EBD9
:10465000001263689B00B2FBF3F26423B2FBF3F237
:1046600001EB021200EBC00101EB001163689B003B
:10467000B1FBF3F100EBC00303EB00136668B60077
:10468000B3FBF6F36426B3FBF6F303EBC30606EBCA
:104690000313A1EB8301322303EB01116423B1FB6C
:1046A000F3F101F00F0111442268916053E0FDF72E
:1046B0007BFE00EBC00101EB001162689200B1FBD0
:1046C000F2F100EBC00202EB001263689B00B2FB48
:1046D000F3F26423B2FBF3F202EBC20303EB021228
:1046E000A1EB8201322202EB01116422B1FBF2F153
:1046F00001F0F00100EBC00202EB001263689B00C6
:10470000B2FBF3F26423B2FBF3F201EB021200EB13
:10471000C00101EB001163689B00B1FBF3F100EBFA
:10472000C00303EB00136668B600B3FBF6F3642620
:10473000B3FBF6F303EBC30606EB0313A1EB830114
:10474000322303EB01116423B1FBF3F101F00F01FC
:1047500011442268916070BD00380140014691F813
:10476000390021282CD18868B0F5805F0FD10A6A02
:104770001088C0F308000B685860086918B9086A07
:10478000801C086209E0086A401C086205E00B6AA8
:10479000581C086218780B685860C88C401E80B29C
:1047A000C88458B90868C06820F080000B68D860D9
:1047B0000868C06840F040000B68D860002070476F
:1047C0000220FCE72DE9F04104460D4617469846C5
:1047D000069E21E0701CF8B12EB1FDF71DFBA0EB89
:1047E0000800B04218D92068C06820F4D070216851
:1047F000C8602068406920F00100216848612020DD
:1048000084F8390084F83A0000BF002084F83800AA
:1048100000BF0320BDE8F081206800682840A8425E
:1048200001D1012000E00020B842D3D00020F1E700
:1048300010B50248FEF74EFB10BD0000340F0020FB
:1048400000BFFEE70FB4054B10B503A9044A029858
:1048500000F0F6F810BC5DF814FB0000BD53000832
:104860004C00002002480068C0F30220704700009E
:104870000CED00E010B5002804DB0A07130E054A12
:10488000135406E00A07140E034A00F00F031B1F1F
:10489000D45410BD00E400E018ED00E002E008C8C8
:1048A000121F08C1002AFAD170477047002001E0AA
:1048B00001C1121F002AFBD1704700002DE9FF5FE4
:1048C00082B00021DDE90430020DDDF840B0034381
:1048D00018D044F61050A2F2FF324243151411983A
:1048E00001281FD0A5EB0B00401C5FEA000A4FF027
:1048F00000064E4FDFF83891B046504615D5CAF144
:10490000000413E0119801244AA3012801D16FEAA1
:104910000B010298119AC0E90031C0E9024206B0C9
:10492000BDE8F09FCBF10000DFE704460021404ADC
:10493000491842EB0450CDE9001012E0E00707D01F
:1049400032463B4640464946FBF7D6FC8046894600
:1049500032463B4610461946FBF7CEFC06460F464C
:104960006410002CEAD1DDE90401DDE90023BAF18D
:10497000000F06DAFBF7C0FC42464B46FBF7BCFCD7
:1049800005E0FBF72BFD42464B46FBF727FD0446AF
:104990000E460022284BFBF7A1FF03D84FF0FF3053
:1049A000014607E00022254B20463146FBF7D7FEA3
:1049B000FBF77CFF102409E0002C0ADB0A2200230D
:1049C000FBF708FE039B30321A55641E50EA0102C1
:1049D000F2D1641C039AC4F111031444119A012A00
:1049E00003D0012208430DD10AE0084304D000207F
:1049F0004FF0110B119072E7A3EB0B056D1E0DE04C
:104A00005B4504DD4FF0000205F1010504E003DA27
:104A10004FF00002A5F10105002AECD0029811998F
:104A2000C0E90231C0E9004579E700000000144008
:104A30000000F03F300000000000F0430000E03FC5
:104A40002DE9FF4F95B09B468946064600250FE2AB
:104A5000252877D100242746F84A0121059400E053
:104A6000044316F8013F203B01FA03F01042F7D14E
:104A700030782A2811D06FF02F033078A0F130025F
:104A8000092A16D8059A44F0020402EB820203EBCD
:104A900042021044761C0590EFE759F8042B05926A
:104AA000002A03DA504244F40054059044F0020412
:104AB000761C30782E2816D116F8010F44F0040425
:104AC0002A280DD06FF02F023078A0F13003092B87
:104AD00009D807EB870302EB4303C718761CF3E7FB
:104AE00059F8047B761C30786C280FD006DC4C28F3
:104AF00017D068280DD06A2814D104E0742810D08B
:104B00007A280FD10DE044F400140AE044F4801434
:104B100001E044F440147278824202D104F580141A
:104B2000761C761C307866280BD013DC582877D09A
:104B300009DC002875D04528F6D04628F4D047284F
:104B40001AD19DE118E0632835D0642879D0652812
:104B500012D195E1702873D008DC6728F1D069285C
:104B60006FD06E280DD06F2806D1B5E073282CD0F9
:104B7000752875D0782874D05A46179990476D1CBF
:104B800075E1C4F30250022809D003280DD0D9F8EA
:104B9000001004280DD00D6009F1040967E1D9F86F
:104BA0000010EA17C1E90052F6E7D9F800100D80AD
:104BB000F2E70D70F0E719F8041B8DF800100020E3
:104BC0008DF80100EA46012003E059F804AB4FF0EC
:104BD000FF3061074FF0000102D40DE008F1010140
:104BE0008846B9420FDA8045F8DB1AF80810002928
:104BF000F4D108E008F1010188468142FADB1AF895
:104C000008100029F6D105985B46A0EB080721465D
:104C10003846179A00F094FA284400EB080507E09C
:104C20004DE029E10DE01AF8010B5A46179990471B
:104C3000B8F10108F7D25B4621463846179A13E1CE
:104C400042E00A220092C4F302524FF0000A022A04
:104C500008D059F804CB032A4FEAEC710AD00DE0D2
:104C600029E02AE009F1070121F00702F2E802C178
:104C7000914609E00FFA8CFC4FEAEC71042A03D14B
:104C80004FFA8CFC4FEAEC71002907DA0A46002142
:104C9000DCF1000C61EB02012D2202E0220504D5BB
:104CA0002B228DF80420012203E0E20701D020220C
:104CB000F7E7904659E00A2102E010220DE01021AA
:104CC0004FF0000A00910BE010224FF0000A44F070
:104CD00004040827009203E008224FF0000A009223
:104CE000C4F30252022A05D059F804CB0021032A4A
:104CF00008D009E009F1070121F00702F2E802C13A
:104D0000914605E01FFA8CFC042A01D10CF0FF0C3F
:104D10004FF00008220728D5702806D0009B83F0AA
:104D2000100353EA0A0305D00EE040228DF8042058
:104D3000012208E05CEA010206D030228DF804204E
:104D40008DF8050002229046009B83F0080353EA89
:104D50000A030AD15CEA010201D1620705D53022BB
:104D60008DF804204FF001087F1E582804D034A08D
:104D700003900EA802900DE036A0F9E75346604676
:104D8000009AFBF727FC84460398825C0298401E39
:104D9000029002705CEA0100F0D1029806A9081A9C
:104DA00000F1200A600702D524F4803400E00127D6
:104DB000574502DDA7EB0A0000E0002000EB0A01E6
:104DC000009005984144401A0590E00306D45B46E4
:104DD0002146179A059800F0B3F90544002706E02C
:104DE00001A85A46C05D179990476D1C7F1C474526
:104DF000F6DBE0030CD55B462146179A059800F0D8
:104E00009FF9054404E030205A46179990476D1CDD
:104E10000099481E00900029F5DC08E002980299EC
:104E20005A460078491C0291179990476D1CBAF1B7
:104E30000001AAF1010AF1DC65E100000928010086
:104E40003031323334353637383961626364656600
:104E500000000000303132333435363738394142C2
:104E6000434445460000000000F058F90544761C14
:104E7000307800287FF4ECAD19B02846BDE8F08FFB
:104E8000620700D4062709F1070222F0070CFCE8AC
:104E90000223E14603F000485FEA080C02D00FF25B
:104EA000702C0DE05FEA045C02D50FF2682C07E07D
:104EB0005FEAC47C02D00FF2602C01E0AFF2700C0C
:104EC0004FF0FF3823F00043CDF850C065280CD0D8
:104ED00006DC452809D046281DD047283DD13DE0B5
:104EE000662818D067287ED138E00021112F01DB19
:104EF000112000E0781CCDE9000106A90EA8FFF7FB
:104F0000DDFCDDE90F010E9A03910021009207F10B
:104F1000010A04914DE04FF000400097CDE90110E7
:104F200006A90EA8FFF7CAFCDDE90F0203920E9B4B
:104F300011990022DDF80CA00093049211B9791C9C
:104F400000EB010AB7EB0A0004D4C0F1FF3007F10F
:104F5000010A0490AAEB0700019044E0012F00DA57
:104F600001270021112F01DD112000E03846CDE995
:104F7000000106A90EA8FFF7A1FCDDE90F010E9ABA
:104F80000391002104910092BA4621070CD40399A1
:104F9000514500DA8A46BAF1010F05DD009AAAF1FF
:104FA0000101515C302908D0B84202DA10F1040F37
:104FB00006DA0121CDE9011015E0AAF10101E9E7C6
:104FC000002805DC049901440491AAEB000102E0E9
:104FD000411C514500DD8A460499401A401C01904D
:104FE0004FF000400290200704D40198504501DBA7
:104FF000CDF8048000208DF84F0002980DF14F0786
:10500000B0F1004F25D02B200E9002984FF00208EF
:1050100000280CDA404202902D200E9007E00A2171
:105020000298FBF7C1FA3031029007F8011DB8F180
:105030000001A8F10108F2DC02980028EFD1791EE6
:105040000E980870307800F0200040F0450007F816
:10505000020D12A8C01B00F107081498007800B1D7
:10506000012000EB0A01019801EBE0710598414431
:10507000401A401E0590E00306D45B462146179A6D
:10508000059800F05DF805441498007818B15A4668
:10509000179990476D1CE00324D55B462146179A6B
:1050A000059800F04DF805441CE00498002807DB43
:1050B000DDE90301884203DD0098405C179901E0B7
:1050C000179930205A469047049805F10105401C75
:1050D00004900198401E019004D12E205A46179941
:1050E00090476D1CBAF10001AAF1010ADDDC05E070
:1050F00017F8010B5A46179990476D1CB8F100013B
:10510000A8F10108F4DC5B462146179A0598ABE646
:105110002D0000002B000000200000002DE9F041D0
:10512000044600251E461746880404D405E0394687
:105130002020B0476D1C641EF9D52846BDE8F081DB
:105140002DE9F041044600251E469046C80301D5CE
:10515000302700E02027880404D505E04146384682
:10516000B0476D1C641EF9D52846BDE8F08110B526
:10517000FEF7CEFD10BD000070B504463449086846
:10518000FBF742FE0546290E2046631CDCB20122D5
:1051900000F0C6F82046621CD4B20122C5F30741D4
:1051A00000F0BEF82046621CD4B20122C5F30721EC
:1051B00000F0B6F8E9B22046631CDCB2012200F030
:1051C000AFF823494868FBF71FFE0546290E204625
:1051D000631CDCB2012200F0A3F82046621CD4B2AA
:1051E0000122C5F3074100F09BF82046621CD4B2AF
:1051F0000122C5F3072100F093F8E9B22046631CB1
:10520000DCB2012200F08CF811498868FBF7FCFD44
:105210000546290E2046631CDCB2012200F080F80E
:105220002046621CD4B20122C5F3074100F078F891
:105230002046621CD4B20122C5F3072100F070F8A9
:10524000E9B22046631CDCB2012200F069F870BDAF
:10525000940B002030B502460023002432B1012A0D
:1052600008D0022A0AD0032A10D10BE00F48104DB3
:1052700028600BE00F480E4D286007E00E480C4DEB
:10528000286003E00D480A4D286000BF00BF0021E0
:1052900006E00748006850F821000344481CC1B2EA
:1052A0003029F6DB3020B3FBF0F030BD940800204D
:1052B0002000002054090020140A0020D40A0020F5
:1052C0001FB5FCF7F3FB01200090044802900E206C
:1052D000039003496846FCF72FFB1FBD00B8010887
:1052E0005400002030B503460B4C042505FB034455
:1052F0000A4D2C6000200BE0084C2468246841F81B
:105300002040064C2468241D044D2C60441CA0B28F
:105310009042F1DB30BD000000B8010850000020D1
:105320002DE9F04105460C461646FCF7BFFB0D483B
:10533000042101FB05000C49086000270CE022460F
:105340000023094801680220FCF758FB0648006862
:10535000001D054908607F1CB742F0DBFCF744FBE9
:10536000BDE8F08100B80108500000202DE9F041AF
:1053700005460E461746FCF799FB0E48042101FB33
:1053800005000D49086000240EE016F804C06246CE
:105390000023094801680220FCF730FB064800683A
:1053A000001D05490860641CBC42EEDBFCF71CFBD9
:1053B000BDE8F08100B801085000002038B504466F
:1053C0000D46E0B200904FF4FA730122694602489C
:1053D000FDF726FF204638BD340F0020FCF72EFDD8
:1053E000FEF7B8FEFDF7DCFFFDF788FFFEF7A2F839
:1053F000FEF750F800F030F8FEF72AFC00220121F9
:105400001148FCF702FD1148FDF7EAFA00210F48A8
:10541000FDF734FDFCF700FD0D49086012E0FCF7D4
:10542000FBFC0B490968401AB0F57A7F08D34FF4AA
:1054300000510848FCF7E2FCFCF7EEFC0449086068
:10544000FFF795FEEBE7000000140140F40E00208A
:1054500034000020000C014010B592B0002411224D
:1054600001A92046FFF73EFF0120314948714FF462
:1054700016500860002008712E4908774877019877
:105480005A2820D12A490298487103980860049844
:105490000871012105A8FBF7F5FA274908600121E9
:1054A00009A8FBF7EFFA2449486001210DA8FBF792
:1054B000E9FA214988601198401C002835D01D491F
:1054C0001198087731E0FFF7FBFE1C481A49086085
:1054D0001B4848601B4888602046621CD4B20122E9
:1054E0005A21FFF71DFF124A51792046631CDCB296
:1054F0000122FFF715FF0E4A2046631CDCB211683B
:105500000122FFF70DFF0A4A11792046631CDCB225
:105510000122FFF705FF2046FFF72EFE0548017F19
:10552000012204F10C00FFF7FBFE12B010BD0000D9
:105530005800002074080020940B00209AA133C565
:10554000CDD00F46CD64E5C510B51248FDF75DFA24
:10555000012011490873084690F8140401280BD162
:10556000FCF75AFC0D490968401A042811D302209F
:10557000094981F814040CE0074890F81404022843
:1055800007D0FCF749FC054908600320024981F86F
:10559000140410BDF40E002058000020100000205C
:1055A00000C1814001C0804101C0804100C18140F3
:1055B00001C0804100C1814000C1814001C08041E3
:1055C00001C0804100C1814000C1814001C08041D3
:1055D00000C1814001C0804101C0804100C18140C3
:1055E00001C0804100C1814000C1814001C08041B3
:1055F00000C1814001C0804101C0804100C18140A3
:1056000000C1814001C0804101C0804100C1814092
:1056100001C0804100C1814000C1814001C0804182
:1056200001C0804100C1814000C1814001C0804172
:1056300000C1814001C0804101C0804100C1814062
:1056400000C1814001C0804101C0804100C1814052
:1056500001C0804100C1814000C1814001C0804142
:1056600000C1814001C0804101C0804100C1814032
:1056700001C0804100C1814000C1814001C0804122
:1056800001C0804100C1814000C1814001C0804112
:1056900000C1814001C0804101C0804100C1814002
:1056A00000C0C101C30302C2C60607C705C5C404C2
:1056B000CC0C0DCD0FCFCE0E0ACACB0BC90908C832
:1056C000D81819D91BDBDA1A1EDEDF1FDD1D1CDC22
:1056D00014D4D515D71716D6D21213D311D1D01092
:1056E000F03031F133F3F23236F6F737F53534F482
:1056F0003CFCFD3DFF3F3EFEFA3A3BFB39F9F838F2
:1057000028E8E929EB2B2AEAEE2E2FEF2DEDEC2CE1
:10571000E42425E527E7E62622E2E323E12120E051
:10572000A06061A163A3A26266A6A767A56564A441
:105730006CACAD6DAF6F6EAEAA6A6BAB69A9A868B1
:1057400078B8B979BB7B7ABABE7E7FBF7DBDBC7CA1
:10575000B47475B577B7B67672B2B373B17170B011
:105760005090915193535292965657975595945401
:105770009C5C5D9D5F9F9E5E5A9A9B5B9959589871
:10578000884849894B8B8A4A4E8E8F4F8D4D4C8C61
:1057900044848545874746868242438341818040D1
:1057A00000000000000000000102030406070809D1
:1057B0000000000001020304D85700080000002088
:1057C000580000009C48000830580008580000208D
:1057D00040130000AC48000800000000000000007A
:1057E00000000000000000000000000000000000B9
:1057F00000000000000000000000000000000000A9
:105800000000000000000000000000000000000098
:105810000000000000000000100000000100000077
:105820000024F4000000000000B80108000000009F
:04000005080000ED02
:00000001FF
