:020000040800F2
:100000004806002001010008DF2C0008B522000886
:10001000DD2C00083D0900089131000800000000B7
:100020000000000000000000000000004D2D00084E
:100030008309000800000000E12C00085D2D000885
:100040001B0100081B0100081B0100081B01000820
:100050001B0100081B0100081B010008850900089E
:100060001B0100081B0100081B0100081B01000800
:100070001B010008410900081B0100084D09000888
:100080001B0100081B0100081B0100081B010008E0
:100090001B0100081B0100081B0100088B09000858
:1000A0001B0100081B0100081B0100081B010008C0
:1000B0001B0100081B0100081B0100081B010008B0
:1000C0001B0100081B0100081B0100081B010008A0
:1000D0001B0100086D3100081B0100088531000874
:1000E0001B0100081B0100081B010008DFF80CD0F1
:1000F00000F0B4FB00480047493E000848060020D5
:100100000648804706480047FEE7FEE7FEE7FEE7B1
:10011000FEE7FEE7FEE7FEE7FEE7FEE7CD2D00087F
:10012000ED000008202A04DB203A21FA02F0002129
:10013000704721FA02F3D040C2F1200291400843F7
:100140001946704710B540EA01040346A40703D0DE
:1001500009E010C9121F10C3042AFAD203E011F8F3
:10016000014B03F8014B521EF9D210BDD2B201E08F
:1001700000F8012B491EFBD270470022F6E710B5AC
:1001800013460A4604461946FFF7F0FF204610BD05
:10019000F0B480EA0102D40F4200B2EB410F02D268
:1001A0000246084611464A0042D0C30DDDB2C1F3F3
:1001B000C752AD1A202D35DAC1F3160141F4000201
:1001C00004B15242C5F1200602FA06F12A41104458
:1001D000B3EBD05F23D0C4B1012DA0EBC35009DC39
:1001E000F0BC4FF0004202EAC352DBB200F500005F
:1001F00000F0A8BA400000F1807000EBC350A0F1FD
:10020000807040EAD170490009E0490841EAC071B4
:10021000A0EBC35000F50000400800EBC350F0BC59
:1002200000F087BA6142012202EB4101001BF6E7B0
:10023000F0BC704781F00041AAE780F00040A7E7DA
:1002400080EA010210B502F00043400022D04A00CB
:100250001FD0010E01EB1261C0F35600C2F356022B
:1002600040F4000042F40002A0FB022000047F39A9
:10027000140400D0401C50EA124001D44000491E32
:10028000C2B20C0604EBD010401C4008802A02D0F9
:1002900003E0002010BD20F00100002900DA00205A
:1002A000184310BD2DE9FE4F804681EA0300C00FC0
:1002B0000C46009021F0004123F00045B8EB02000D
:1002C000A94105D24046214690461C460B460246AF
:1002D00023F00040104347D0270DC7F30A00C3F3B3
:1002E0000A510290401A019040286BDAC3F31300C0
:1002F00040F4801B0098924620B10023D2EB030A01
:1003000063EB0B0B01985946C0F14002504600F0D8
:10031000EFF906460D4650465946019A00F0F7F9A6
:1003200010EB08006141002487EA115284EAE77368
:100330001A4340D0009A62B3019A012A4FEA075249
:1003400015DC001B61EB02014FF0004202EA07528C
:10035000CDE90042001C41F5801132462B4600F0E9
:100360002EFA03B0BDE8F08F40462146F9E7001BA6
:1003700061EB0201001C41F5801300185B4120185D
:10038000A2F5001747EB030140EAD570B6196D419D
:1003900011E06D084FEA360645EAC0754FEA07528C
:1003A000001B61EB0201001C41F5801149084FEA76
:1003B00030000019514132462B4603B0BDE8F04FE2
:1003C00000F0EEB90098012240000023D0EB0202B9
:1003D00063EBE073009821464FEAE074B8EB00004D
:1003E00061EB0401E9E783F000435BE781F0004142
:1003F00058E72DE9FE4F81EA030404F0004421F0A0
:10040000004100944FF0000B23F0004350EA010438
:100410005ED052EA03045BD0C3F30A54C1F30A5519
:100420002C44A4F2F3340194A0FB0254C1F3130151
:1004300041F48011C3F3130343F4801301FB02441E
:1004400000FB034E840A970A44EA815447EA835723
:10045000A4FB076802958D0A05FB07854FEA932CDC
:1004600004FB0C542705029D4FEA065847EA16374D
:10047000B5EB08056EEB070C870E920E47EA811765
:1004800042EA8312A7FB0201B6EB0B0164EB000406
:100490002B0D43EA0C335E1844EB1C50DA465146F0
:1004A000E7FB0201C5F313044FEA0B3343EA14538D
:1004B0004FEA0432019C43EA0603A4F10C040294BF
:1004C000009CCDE900B400F07AF903B0BDE8F08FEC
:1004D00000200146F9E72DE9F04D81EA030404F01C
:1004E000004B21F0004514464FF0000A23F0004174
:1004F00050EA050220D054EA01021DD0C5F30A5784
:100500000246C5F31303C1F31300C1F30A5640F4C6
:10051000801543F48013A7EB0608101BD64608F29B
:10052000FD3873EB050002D308F1010801E09218D1
:100530005B41B8F1000F03DA00200146BDE8F08D01
:1005400000204FF48011064684460EE0171B73EB23
:10055000050705D3121B63EB050306434CEA010CA8
:1005600049084FEA300092185B4150EA0107EDD18B
:1005700052EA030012D082EA040083EA050108432C
:1005800005D0101BAB4106D20122002306E0002259
:100590004FF0004302E06FF0010253101AEB060027
:1005A0004CEB085110EB0A0041EB0B01BDE8F04D9C
:1005B00000F0F6B870B521F0004303430CD0C1F34E
:1005C0000A550024D5EB040564EB0403D617AD1AD5
:1005D000B34102DB0020014670BD201841EB0251FF
:1005E00070BD96230022114600F0ACB80EB540F263
:1005F000334102910021CDE900110A460B4600F07B
:10060000DEF803B000BD00F0004220F00040C10D54
:10061000C0F3160040F400007F2901DA0020704783
:10062000962903DCC1F19601C84001E09639884063
:10063000002AF4D04042704720F00040C10DC0F3C2
:10064000160040F400007F2901DA00207047962947
:1006500003DCC1F19601C840704796398840704765
:10066000C1F30A5210B5C1F3130140F2FF3341F454
:1006700080119A4201DA002010BD40F233439A42C1
:10068000A2F2334203DC5242FFF74CFD10BD904012
:1006900010BD00F0004230F000400AD0C10D01F55D
:1006A0006071C0F3160042EA0151C20840071143CD
:1006B000704700200146704701F0004330B421F03C
:1006C000004150EA010206D00A0DA2F56072C1F3A2
:1006D0001301002A02DC30BC00207047440F44EABA
:1006E000C104C100E01830BC00EBC25000F021B8DA
:1006F000202A04DB203A00FA02F1002070479140E2
:10070000C2F1200320FA03F3194390407047202AD6
:1007100006DBCB17203A41FA02F043EAE07306E029
:1007200041FA02F3D040C2F1200291400843194639
:1007300070470029A8BF7047401C490008BF20F03F
:100740000100704710B4B0FA80FC00FA0CF050EAD7
:10075000010404BF10BC704749B1CCF1200421FA58
:1007600004F411FA0CF118BF012121430843A3EB53
:100770000C01CB1D4FEA00614FEA102042BF002060
:1007800010BC704700EBC35010440029A4BF10BC3C
:100790007047401C490008BF20F0010010BC7047A2
:1007A00010B5141E73F1000408DA401C41F1000179
:1007B00092185B411A4301D120F0010010BD2DE9D0
:1007C000F04D92469B4611B1B1FA81F202E0B0FAC7
:1007D00080F220329046FFF78BFF04460F4640EA36
:1007E0000A0041EA0B0153465A46084313D011460A
:1007F00053EA010019D0C8F140025046FFF792FCBD
:1008000005460E46504659464246FFF771FF0843DB
:1008100005D0012004E020463946BDE8F08D0020D7
:10082000054346EAE0762C4337430A986305E40A19
:10083000A0EB08000022FD0A44EA47540A3002D522
:1008400000200146E9E7010510196941DDE9084585
:1008500000196941BDE8F04DA2E70000064C074DC4
:1008600006E0E06840F0010394E807009847103480
:10087000AC42F6D3FFF73EFC547A0008747A0008C5
:1008800070B5044600688168C943C9071CD18168F6
:1008900021F00101816000F0CBFE05460FE000BFB2
:1008A00000F0C6FE401B022809D9A06A40F01000E3
:1008B000A062E06A40F00100E062012070BD2068A3
:1008C0008068C043C007EBD0002070BDF8B500269B
:1008D0000446009600688168C943C90728D081682A
:1008E00041F001018160134813490068B0FBF1F049
:1008F00000E0401E00900028FBD100F099FE054664
:1009000011E000BF00F094FE401B02280BD9A06A42
:1009100040F01000A062E06A40F00100E06284F85C
:1009200024600120F8BD20688068C043C007E9D179
:100930000020F8BD5000002040420F00FEE70000FC
:10094000014800F0A1BB0000E0010020014800F0D8
:100950009BBB00009C01002030B590F84050012462
:10096000AC40C56B6C60046863604368102B03681F
:1009700003D099600068C26030BD9A600068C160B1
:1009800030BD7047022000F04DBD10B5402000F092
:1009900049FDBDE81040802000F044BD70470000D4
:1009A000044B0022DA61044A136943F00103136126
:1009B00001807047280200200020024014480022D5
:1009C000C168CB06134904D5CA6942F00202CA6164
:1009D0001022C3685B0705D5CB6943F00103CB61E7
:1009E00042F00402C369DB0707D0CB6943F004037C
:1009F000CB61C16921F00101C161A2F580710139AA
:100A000001D0C2607047C16921F00101C161704726
:100A1000002002402802002070B5054600F008FEC4
:100A20000646114C09E0681C07D025B100F000FE15
:100A3000801BA84201D9032070BDE068C007F2D135
:100A4000E068800601D52020E060E068C00605D49B
:100A5000E069C00702D1E068400703D5FFF7AEFFA9
:100A6000012070BD002070BD002002402DE9F0473C
:100A7000064688B0002001464FEA0D0545F82010D3
:100A8000401CC0B20728F9D300274FF6FF7ADFF8E1
:100A9000C080894619E000242E4800F049FA5146EA
:100AA0002C4800F0ADF92B4800F0DAF855F8241086
:100AB0004045014445F8241001D945F82490641CB0
:100AC000E4B2072CE8D37F1CFFB2B742E3D3002186
:100AD00055F82100B0FBF6F045F82100491CC9B2D9
:100AE0000729F5D31C4E1D4F00240698FFF77EFD05
:100AF00000223346FFF77DFC00223B46FFF773FCE4
:100B0000FFF7AEFD55F82410084445F82400641C96
:100B1000E4B2062CE9D3124E012400BF35F82400BC
:100B2000002180B2726802F063FF06EB8401641C4E
:100B3000E4B241F8040C062CF0D30098726880B23D
:100B4000012102F055FF306008B0BDE8F0870000D9
:100B500020A10700EC0000200000064000FEAF408E
:100B600054000020F8B50024009490F82420254675
:100B7000012A12D0012280F824204A681F23072A64
:100B80000DD20668776B521E02EB820293409F43A0
:100B90000B6893401F43776319E00220F8BD066895
:100BA0000D2A0AD2376BD21F02EB820293409F4379
:100BB0000B6893401F43376309E0F76A0D3A02EB75
:100BC000820293409F430B6893401F43F7620A6879
:100BD000072306680A2A0AD3F7680A3A02EB420298
:100BE00093409F438B6893401F43F76008E0376949
:100BF00002EB420293409F438B6893401F4337614F
:100C00000A68102A01D0112A20D1124B02689A4298
:100C100017D193681B0219D4936843F400039360BF
:100C20000968102912D10C490C4A0968B1FBF2F18C
:100C300001EB8101490000E0491E00910029FBD130
:100C400004E0816A41F020018162012480F824508F
:100C50002046F8BD002401405000002040420F0013
:100C60000068C06C704700002DE9F0414FF00007AC
:100C700004003D467ED0A06A002628B9E66284F8CA
:100C80002460204600F07EF82046FFF7F9FDA16AB7
:100C9000C90600D420B1A06A40F01000A06269E04B
:100CA000A16A21F4885141F00201A1626268E16900
:100CB000237B0A4347EA43010A43A1684FF4807744
:100CC000B94209D0012907D05FF0000194F814C09F
:100CD000BCF1010F02D00AE03946F7E7F3B1A36A8D
:100CE00043F02003A362E36A43F00103E362236855
:100CF000D3F804C02CF4694C4CEA010CC3F804C0CE
:100D000021688B68DFF870C003EA0C0313438B6023
:100D1000A168B9420BD0012909D00CE0DFF85CC012
:100D2000A3690CEB43330B4343F40061DFE7218AF3
:100D30000D05A5F580152168CB6A23F470032B43BC
:100D4000CB62216889680E4B1940914208D1E66256
:100D5000A16A21F0020141F00101A162BDE8F08128
:100D6000A06A20F0020040F01000A062E06A40F0AB
:100D70000100E0620120F1E7FDF7E1FF00E0FFFF85
:100D8000FE0E1FFF10B586B0002100910191029167
:100D9000039100681649884227D11648816941F4B9
:100DA00000718161816901F400710491816941F0F0
:100DB00004018161816901F004010491816941F0BC
:100DC000080181618069032400F0080004903E203E
:100DD000CDE900046946084800F030FB0120CDE968
:100DE00000046946054800F029FB06B010BD00006C
:100DF000002401400010024000080140000C0140A6
:100E00002DE9F84300260D460446009600F010FC3C
:100E1000804620688168C90508D5A06A40F0200096
:100E2000A06284F824600120BDE8F8834168C90508
:100E300003D4C06A10F4700F26D0022000F096FC94
:100E400038490968B1FBF0F72068036936490B425D
:100E50004FEA61014FEAA1121BD1C3684FEA611C3E
:100E600013EA0C0F15D103690B4221D1C06810425F
:100E70001ED114201FE0681C06D045B300F0D8FB3B
:100E8000A0EB0800A84222D8206800688007F2D5AD
:100E90002AE003690B4202D1C168114206D00269FF
:100EA00022490A4206D1C068084203D1542002E018
:100EB000292000E0FC204743009813E0681C0ED076
:100EC0002DB100F0B5FBA0EB0800A84207D9A06A3D
:100ED00040F00400A06284F824600320A4E7009896
:100EE000401C0090B842E9D321686FF012000860FE
:100EF000A06A40F40070A06220688068C0F342409D
:100F000007280CD1207B50B9A06A20F48070A06221
:100F1000A06AC00403D4A06A40F00100A0620020CF
:100F200082E70000500000202449922449922400C6
:100F300070B5044690F8240001280DD0012084F8F3
:100F400024002046FFF7C2FC02004FF0000005D04D
:100F500084F82400104670BD022070BDA16A40F2E2
:100F60000123994341F48071A1621F4D23681F49F9
:100F7000AB4218D10E6816F4702F14D0A66A46F44E
:100F80008016A6620E68760505D5A66A26F4005678
:100F900046F48056A662A66AF6040AD5E66A26F0EA
:100FA0000606E66206E0A66A26F48016A6625E6879
:100FB000E9E7E06284F824006FF00200186020681E
:100FC0008368C3F34243072B05D1A84208D10968BF
:100FD00011F4702F04D0816841F480118160B9E769
:100FE000816841F4A001F9E7002801400424014090
:100FF00010B590F821100024022903D00421816348
:1010000001243DE001680A6822F00E020A600168CE
:101010000A6822F001020A601A4A0168914201D16D
:10102000012121E0174A1432914201D110211BE025
:10103000144A2832914201D1891515E0114A3C32F7
:10104000914201D189140FE00E4A5032914202D1EF
:101050004FF4803108E00B4A6432914202D14FF4E0
:10106000801101E04FF08071064A083A5160012179
:1010700080F82110002180F82010416B01B18847D1
:10108000204610BD080002402DE9F05FC16B0C68DE
:1010900001680B68D0F840C0042202FA0CF2494DF6
:1010A000DFF824A1494E4A4FDFF828B1DFF828E1E4
:1010B00022422CD05A072AD50A68920603D40A681D
:1010C00022F004020A600168A94201D1042219E059
:1010D000514501D1402215E0B14202D14FF4806266
:1010E00010E0B94202D14FF480420BE0594502D1E1
:1010F0004FF4802206E0714502D14FF4800201E0F6
:101100004FF080622F4908394A60C16A3BE04FF0D6
:10111000020808FA0CF818EA040F4FF000094FF023
:10112000010235D05FEA837832D50B689B0605D47F
:101130000B6823F00A030B6080F821200168A942A4
:1011400001D1022219E0514501D1202215E0B1421E
:1011500002D14FF4007210E0B94202D14FF40052B4
:101160000BE0594502D14FF4003206E0714502D13F
:101170004FF4001201E04FF00072124908394A6042
:1011800080F82090816A00291AD0BDE8F05F0847F6
:10119000082505FA0CF5254212D01B0710D50B685F
:1011A00023F00E030B6090F84010C36B02FA01F1BC
:1011B0005960826380F8212080F82090016BE2E77B
:1011C000BDE8F09F080002401C00024030000240D1
:1011D00044000240580002406C00024030B528B381
:1011E00008C8134914221944B1FBF2F18900C16304
:1011F00010498163022141771A6843F6F0718A43EE
:10120000D0E900142143D0E902452C43214304696D
:10121000214344692143846921431143196000211A
:101220004163012242770177084630BD012030BD7D
:10123000F8FFFDBF0000024070B5044690F82000A2
:10124000002501280CD0012084F8200094F82160AA
:101250000020012E06D084F820000225284670BD0B
:10126000022070BD022684F82160A0632068066811
:1012700026F0010606602046FFF76EFBE06A0028B4
:101280002068016802D041F00E0106E021F004015F
:1012900001602068016841F00A010160206801686E
:1012A00041F001010160D9E770B5044600F0C0F9D2
:1012B0000546601C02D004480078044400F0B8F9E8
:1012C000401BA042FAD370BD4400002003480169CE
:1012D00041F08001016100207047000000200240C1
:1012E0002DE9F05F07461C4888460024017E15461C
:1012F0001E46012909D00121814601764CF2503A5F
:101300005046FFF789FB18B122E00220BDE8F09FAC
:10131000012F02D0022F00D00427D346DFF83CA0D3
:10132000220128463146FEF7FDFE81B208EB44005B
:10133000FFF736FB5846FFF76FFBDAF8102022F074
:101340000102CAF8102018B9641CE4B2BC42E7D309
:10135000002289F81820D9E7280200200020024046
:10136000064900200A69120607D5054A4A60054A5F
:101370004A600969090600D5012070470020024033
:1013800023016745AB89EFCD10B54CF25031491EB2
:10139000FDD2204C022814D01F4A80281ED040289D
:1013A0002AD04FF40041884225D11C4800F036F97C
:1013B000002820D100F03CF96060607840F0040023
:1013C00018E00221164800F029F9002813D100F096
:1013D0002FF96060607840F001000BE0802110463A
:1013E00000F01CF9002806D100F022F96060607856
:1013F00040F04000607010BD4021104600F00EF932
:101400000028F8D100F014F96060607840F0100016
:10141000F0E70000700000200008014000100140CB
:10142000000C0140044910B50A68024202D008606D
:10143000FFF7AAFF10BD0000140401402DE9F84F8A
:10144000DFF8B891002409F1040A0AF1040B2346DD
:101450000F270BF1040EC9E00125A5402A40AA423E
:101460007DD1674ED1F804C0ACEB0608B44532D04C
:1014700014DCBCF1030F3AD009DCBCF1000F2AD018
:10148000BCF1010F1CD0BCF1020F31D11DE0BCF149
:10149000110F17D0BCF1120F2AD119E0B8F5881F2F
:1014A00019D006DCB8F5803F15D0B8F5801F1FD1E4
:1014B00011E0B8F5001F0ED0B8F5041F18D10AE0EE
:1014C000CB6815E0CB681B1D12E0CB6808330FE03A
:1014D000CB680C330CE08B682BB1012B4FF0080369
:1014E00003D0456104E0042302E0056100E000232D
:1014F000FF2A01D8064601E000F104064FEA840500
:1015000001D9A5F12005D6F8008007FA05FC28EAE4
:101510000C0803FA05F548EA0508C6F800804D688E
:10152000ED0062D5374DAE6946F00106AE61AD699A
:1015300024F0030605F001050095334D06EB050C7C
:10154000DCF80850A607360F07FA06F825EA080562
:10155000DFF8B880404503D14FF0000817E044E0C1
:10156000DFF8AC80404502D14FF001080FE0DFF812
:10157000A480404502D14FF0020808E0DFF89880CF
:10158000404502D14FF0030801E04FF0040808FA8B
:1015900006F848EA0508CCF808804D68D9F80060DC
:1015A000ED034D4601D5164300E096432E604D688D
:1015B000DAF80060AD03554601D5164300E09643C6
:1015C0002E604D68DBF80060ED025D4601D51643E4
:1015D00000E096432E604D68DEF80060AD0275466F
:1015E00001D5164300E096432E60641C0D682A4620
:1015F000E5407FF431AFBDE8F88F00000004014002
:1016000000001110001002400000014000080140DD
:10161000000C0140001001400014014080680840A7
:1016200000D0012070470AB1016170470904FBE74F
:10163000014880687047000044000020024881682B
:10164000027811448160704744000020074810B5BB
:10165000016841F010010160032000F075F80020DE
:1016600000F006F800F024F8002010BD0020024031
:1016700070B50D4D04464FF47A712878B1FBF0F047
:101680000A490968B1FBF0F000F0C6FB48B9102C1C
:1016900007D200222146501E00F036F800206C6070
:1016A00070BD012070BD00004400002050000020EB
:1016B0000C4808B5816941F001018161816901F03F
:1016C00001010091C16941F08051C161C06900F020
:1016D000805000900448416821F0E06141F00071C1
:1016E000416008BD0010024000000140002809DBF5
:1016F00000F01F02012191404009800000F1E0202C
:10170000C0F8001170470000F0B40E4B1B680C4687
:10171000C3F30223C3F10705042D00D90425191DC5
:10172000072901D2002300E0DB1E012606FA05F19D
:10173000491E214099409E40761E16403143F0BC20
:1017400001F03EBD0CED00E0064900F0070208681C
:101750004FF6FF03184040EA0220034A1043086096
:10176000704700000CED00E00000FA0510B529A458
:1017700001461DCC86B08DE81D002AA02A4C0068C9
:1017800004900020012923D002293AD010291DD12C
:1017900061682268D20119D5C1F38342C9031DF8DB
:1017A000020009D5616804AAC1F34041515C1F4A97
:1017B000B2FBF1F1484301E01D4948436168490229
:1017C00004D440005FF00301B0FBF1F006B010BD9F
:1017D000226AC2F30121012903D1920701D5C8036E
:1017E000F4E7022905D1626A920702D549F6404022
:1017F000ECE70329EAD121688903E7D54FF22440B9
:10180000E4E700F033F96168C1F38131491C490014
:10181000DAE7000002030405060708090A0B0C0DAD
:101820000E0F1010010200000010024000127A009A
:1018300000093D002DE9F84305460078354CC00706
:1018400054D0E0690026C00008D4E06940F0805020
:10185000E061E069012600F0805000902E480168A8
:10186000C90512D40168804641F480710160FFF718
:10187000DFFE074605E000BFFFF7DAFEC01B642865
:1018800023D8D8F80000C005F6D5206A10F44070BF
:1018900021D0A98801F4407181421CD0206A1F49DF
:1018A000012220F440700A6000220A602062C00712
:1018B00011D0FFF7BDFE074641F2883808E000BFAF
:1018C000FFF7B6FEC11B414502D90320BDE8F883EE
:1018D000206A8007F4D5206A696820F440700843C4
:1018E00020621EB1E06920F08050E0612878800716
:1018F00005D56068A96820F44040084360602878F6
:10190000C00605D56068E96820F48000084360607F
:101910000020DBE70010024000700040400442421B
:101920002DE9F0470F46050061D0434E306800F0C6
:101930000700B84209D2306820F007003843306011
:10194000306800F00700B84251D128683B4C81074D
:1019500012D5400703D5606840F4E06060602878E5
:10196000000703D5606840F4605060606068A96853
:1019700020F0F000084360602878C00728D068682D
:10198000012810D02168022810D0890700292EDAFA
:10199000616821F0030101436160FFF749FE804661
:1019A00041F288390DE021688903EFE78901EDE70D
:1019B000FFF73EFEA0EB0801494502D90320BDE830
:1019C000F0876068696800F00C00B0EB810FEFD120
:1019D000306800F00700B8420BD9306820F00700EB
:1019E00038433060306800F00700B84201D0012071
:1019F000E5E72878400705D56068E96820F4E060ED
:101A0000084360602878000706D56068296920F4DB
:101A1000605040EAC100606000F038F86168084A30
:101A2000C1F30311515CC8400649086006480068CC
:101A3000FFF71EFE0020C2E7002002400010024017
:101A40003A7A000850000020480000200448054968
:101A500000684968044AC1F30221515CC8407047DC
:101A600050000020001002404A7A0008044805494E
:101A700000684968044AC1F3C221515CC8407047FC
:101A800050000020001002404A7A000812A185B0E0
:101A90000FC98DE80F0014A0144A00680490516823
:101AA000134801F00C03042B10D0082B0ED1C1F306
:101AB0008343C9031DF803000AD5516804AAC1F382
:101AC0004041515C0A4A5043B0FBF1F005B0704709
:101AD00008494843FAE7000002030405060708091D
:101AE0000A0B0C0D0E0F1010010200000010024036
:101AF00000127A0000093D002DE9F84F040070D073
:101B00002078C04DC00749D06868C0F38100012823
:101B100007D06868C0F38100022809D16868C00353
:101B200006D52868800339D560680028E7D035E0FD
:101B30006068B0F5803F0BD010B1B0F5A02F11D088
:101B4000286820F480302860286820F4802002E093
:101B5000286840F480302860606890B1FFF768FD25
:101B600006460AE0286840F480202860F0E700BFBD
:101B7000FFF75EFD801B642873D828688003F7D5C3
:101B80000CE0FFF755FD064605E000BFFFF750FDEE
:101B9000801B6428F0D828688003F7D420789A4EF8
:101BA00080074FF001094FF0000839D5686810F040
:101BB0000C0F07D06868C0F38100022809D168685B
:101BC000C00306D42868800714D52069012808D1ED
:101BD00010E02069B0B1C6F80090FFF729FD074674
:101BE00005E00AE1FFF724FDC01B0228C4D82868DD
:101BF0008007F7D52868616920F0F80040EAC10045
:101C000028600DE0C6F80080FFF712FD074604E0EB
:101C1000FFF70EFDC01B022823D828688007F7D4E1
:101C2000207800072CD57948A169D9B1C0F8009077
:101C3000FFF7FEFC074604E0FFF7FAFCC01B022892
:101C40000FD8686A8007F7D571484FF4FA510068D9
:101C5000B0FBF1F0009000BF0098411E0091FAD255
:101C60000EE080E0C0F80080FFF7E2FC074604E0E9
:101C7000FFF7DEFCC01B022875D8686A8007F7D41E
:101C80002078400760D5E8690027C00008D4E869DB
:101C900040F08050E861E869012700F08050009032
:101CA0005C480168C90513D40168834641F480711A
:101CB0000160FFF7BDFC824606E000BFFFF7B8FCFD
:101CC000A0EB0A0064284ED8DBF80000C005F5D56B
:101CD000E06801280AD008B1052813D0286A20F04E
:101CE00001002862286A20F0040002E0286A40F01F
:101CF00001002862E06841F2883B98B1FFF798FC48
:101D000082460BE0286A40F004002862EEE700BF3C
:101D1000FFF78EFCA0EB0A0159455AD8286A8007C4
:101D2000F6D50CE0FFF784FC824605E0FFF780FC67
:101D3000A0EB0A0159454CD8286A8007F6D41FB198
:101D4000E86920F08050E861E06988B36968C1F310
:101D50008101022944D00228C6F8608004D0FFF730
:101D600067FC044638E034E0FFF762FC074604E015
:101D7000FFF75EFCC01B02282BD828688001F7D42F
:101D8000206AB0F5803F05D16868A16820F4003072
:101D900008436860D4E908010843696821F47411B4
:101DA00008436860C6F86090FFF742FC044606E00E
:101DB00025E000BFFFF73CFC001B022809D828687B
:101DC0008001F7D51BE000BFFFF732FC001B0228A3
:101DD00002D90320BDE8F88F28688001F4D40EE012
:101DE0000128F7D06868226A00F48031914204D15A
:101DF000616A00F47010884201D00120EAE70020F7
:101E0000E8E7000000100240000042428004424225
:101E1000500000200070004010B5401EB0F1807FDF
:101E200001D3012010BD4FF0E02460610F21601745
:101E300001F0C6F90020A06107202061002010BD3C
:101E400090F8381001290BD0012180F83810016872
:101E50004A6990F83930C2F3C012212B02D006E053
:101E6000022070471AB14A6922F080024A61016873
:101E70004A6990F83A30C2F38012222B0ED16AB12F
:101E8000CA6822F48072CA6001684A6922F00102BD
:101E90004A6101684A6922F040024A61002180F8E3
:101EA000381008467047704770B5026804461068DD
:101EB000D168536910F00F0F50D003F0010501F401
:101EC000907635435DD0C20705D0CA0503D5E26BD5
:101ED00042F00102E263420705D5DA0703D0E26B64
:101EE00042F00202E263820705D5DA0703D0E26B13
:101EF00042F00402E263020705D5DA0703D0E26B81
:101F000042F00802E263E26B002A33D0800604D577
:101F1000880602D5204601F01EF820684069E16B72
:101F2000C0F38010090700D428B3204600F0FCFF5E
:101F30002068416949061AD5416921F04001416193
:101F4000606BA0B11B494163606BFFF751F800283B
:101F500010D0606B416BBDE870400847830610D518
:101F60008B060ED52046BDE8704000F0F4BF204639
:101F7000FFF799FF70BD2046FFF795FF0020E06353
:101F800070BD030606D50B0604D52046BDE870409B
:101F900001F088B84006F3D54806F1D5D16820464F
:101FA00021F04001D160202184F8391000F081F93E
:101FB00070BD0000892E000870B5040004D094F8AC
:101FC0003900002510B106E0012070BD84F83850BA
:101FD000204600F023F8242084F839002068C168E6
:101FE00021F40051C160204601F000F82068016929
:101FF00021F4904101612068416921F02A01416189
:102000002068C16841F40051C160E563202084F874
:10201000390084F83A00002070BD00002DE9F0413D
:1020200086B0002400940194029403940646036849
:102030004348DFF808C102210322051580276345C4
:1020400039D1836943F480438361836903F4804316
:102050000493836943F0040383618069DFF8E480BB
:1020600000F0040004900802CDE9000103926946E3
:102070004046FFF7E3F9CDE9005469464046029433
:10208000FFF7DCF9314D3048C5E90004C5E90247E6
:102090002C616C61AC612846EC61FFF79FF808B1D8
:1020A000FEF77CFC75630022114625206E62FFF767
:1020B0002BFB25203CE0DFF898C063453AD1C3698B
:1020C00043F48023C361C36903F4802304938369C9
:1020D00043F0080383618069CDE9005100F00800F6
:1020E000CDE903201B4D69462846FFF7A7F9E81400
:1020F000CDE90004694628460294FFF79FF912488B
:10210000154D2838C5E90004C5E902472C616C610A
:10211000AC612846EC61FFF761F808B1FEF73EFCC0
:1021200075630022114627206E62FFF7EDFA272023
:10213000FFF7DCFA06B0BDE8F0810000003801408E
:102140000010024000080140580002409C0100209D
:1021500000480040000C0140E0010020F8B50446B2
:1021600090F83A0020283CD1C1B3BAB394F83800B3
:10217000012836D0012084F83800A162A28500250C
:10218000E563222084F83A00636B17489862636B1A
:102190001648D862636B16481863606B1346456334
:1021A0000846666B216802463046091DFFF744F871
:1021B000206801684168009184F83850C16841F492
:1021C0008071C1602068416941F00101416120686E
:1021D000416941F0400141610020F8BDFFE7012065
:1021E000FBE70220F9E70000E32E00081F2F00089C
:1021F000992E0008704770472DE9F843044690F87F
:1022000039001F4616460D46202850D1A5B19EB173
:1022100094F8380001284AD0012084F838004FF0A3
:102220000008C4F83C80212084F83900FFF700FA48
:10223000A6848146E68426E00120BDE8F883E08C90
:10224000401EE084A0684B46B0F5805F4FF000026E
:102250004FF080012046009703D000F054FFE8B90A
:102260000DE000F050FFC8B928882168C0F30800CD
:102270004860206908B16D1C05E0AD1C03E02168D1
:1022800015F8010B4860E08C0028D8D14B4600229D
:1022900040212046009700F036FF08B10320CCE72C
:1022A000202084F8390084F838800020C5E7022017
:1022B000C3E77047FEE72DE9F04104461D46164688
:1022C0000F462A2000F0DEFB204600F0CEFB304611
:1022D00000F0CBFB2B2000F0D5FB384600F0C5FB0F
:1022E000284600F0C2FBBDE8F0412C2000F0CABB3C
:1022F00010B514460B460246FFF7DDFF2046BDE849
:10230000104000F0B2BB2DE9F0471F4616460C46C0
:1023100080465B1E521EDDF82090FFF7CCFF08E0E0
:10232000454603E0484600F0A0FB6D1CB542F9D3DA
:10233000641CBC42F4D3BDE8F087000070B58C4D3E
:102340004FF40074002221462846FFF76CF9642000
:10235000FEF7AAFF012221462846FFF764F9642010
:10236000FEF7A2FF0122D1032846FFF75CF96420A3
:10237000FEF79AFF112000F085FB7820FEF794FF0E
:10238000CF2000F07FFB002000F092FBC12000F086
:102390008FFB302000F08CFBED2000F073FB6420FD
:1023A00000F086FB032000F083FB122000F080FB8E
:1023B000812000F07DFBE82000F064FB852000F028
:1023C00077FB002000F074FB792000F071FBCB203C
:1023D00000F058FB392000F06BFB2C2000F068FB6C
:1023E000002000F065FB342000F062FB022000F0CA
:1023F0005FFBF72000F046FB202000F059FBEA20AD
:1024000000F040FB002000F053FB002000F050FBE8
:10241000C02000F037FB1D2000F04AFBC12000F077
:1024200031FB122000F044FBC52000F02BFB3320D1
:1024300000F03EFB3F2000F03BFBC72000F022FBFA
:10244000922000F035FB3A2000F01CFB552000F0F4
:102450002FFB362000F016FB782000F029FBB1207E
:1024600000F010FB002000F023FB122000F020FB06
:10247000B62000F007FB0A2000F01AFBA22000F0B3
:1024800017FB442000F0FEFA022000F011FBF220BE
:1024900000F0F8FA002000F00BFB262000F0F2FA22
:1024A000012000F005FBE02000F0ECFA0F2000F026
:1024B000FFFA222000F0FCFA1C2000F0F9FA1B20A1
:1024C00000F0F6FA082000F0F3FA0F2000F0F0FA1E
:1024D000482000F0EDFAB82000F0EAFA342000F0CD
:1024E000E7FA052000F0E4FA0C2000F0E1FA0920F8
:1024F00000F0DEFA0F2000F0DBFA072000F0D8FA37
:10250000002000F0D5FAE12000F0BCFA002000F035
:10251000CFFA232000F0CCFA242000F0C9FA0720DB
:1025200000F0C6FA102000F0C3FA072000F0C0FA4D
:10253000382000F0BDFA472000F0BAFA4B2000F036
:10254000B7FA0A2000F0B4FA132000F0B1FA06201E
:1025500000F0AEFA302000F0ABFA382000F0A8FA14
:102560000F2000F0A5FABDE87040292000F08ABADB
:10257000000C01402DE9FF4F81B00446DDE90F7BDF
:102580004FEA570800904FEAD80000FB07FA203ABC
:10259000D0B20390029804EB0802C319014620460A
:1025A000521E5B1EFFF787FE002634E0102F22D05C
:1025B000202F32D11A49039801EB80105FF00005FB
:1025C00010F80690BBF1000F4FF0010000FA05F083
:1025D00000EA090014D020B12046049A0299FFF7BE
:1025E00087FE0098641C211A41450FD10298009C77
:1025F000401C02900EE00B49039801EB0010DDE750
:1026000008B1049800E00E9800F02FFA6D1CEDB2AE
:10261000082DD7D3761C5645C8D305B0BDE8F08F3A
:1026200054510008644B00082DE9FE4F9946DDE93E
:102630000D4715468A460646DDF8308011E0102C1D
:1026400014D0182C1DD0202C0ED1CDF80080CDE94F
:1026500001474B462A465146304600F0E3F82644EF
:10266000AD1C28780028EAD1BDE8FE8FCDF80080A7
:10267000CDE901474B462A465146304600F00CF85A
:10268000EDE7CDF80080CDE901474B462A4651469B
:10269000304600F063F8E2E72DE9FF4F83B00446CF
:1026A000DDE9119B00904FEAD90000FB09FA0520F3
:1026B000002702902848059A07EB071110F81130FF
:1026C0001278934241D100EB410001904178059886
:1026D0004078814239D1049804EB090200EB0903E8
:1026E00001462046521E5B1EFFF7E5FD00262AE04C
:1026F0000198002500EB0608BBF1000F98F80210C6
:102700004FF0010000FA05F001EA00010FD021B1FD
:102710002046069A0499FFF7EBFD0098641C211AE5
:1027200049450AD10498009C401C049009E009B175
:10273000069800E0109800F098F96D1CEDB2082D95
:10274000DAD3761CF6B25645D2D302987F1C874264
:10275000B0D307B0BDE8F08F146900082DE9FF4F32
:1027600083B00446DDE9119B00904FEAD90000FBDD
:1027700009FA05200027029007EB870000EB4711BC
:102780002748059A10F811301278934241D100EB96
:1027900041000190417805984078814239D10499EF
:1027A00004EB090201EB09032046521E5B1EFFF7F2
:1027B00082FD00262BE00198002500EB060800BFF3
:1027C000BBF1000F98F802104FF0010000FA05F07D
:1027D00001EA00010FD021B12046069A0499FFF7C3
:1027E00087FD0098641C211A49450AD10498009C71
:1027F000401C049009E009B1069800E0109800F030
:1028000034F96D1CEDB2082DDAD3761CF6B25645BC
:10281000D1D302987F1C8742AED307B0BDE8F08FBA
:10282000BE6900082DE9FF4F83B00446DDE9119B26
:1028300000904FEAD90000FB09FA0520002702901A
:102840002848059A07EB871110F811301278934247
:1028500041D100EB410001904178059840788142D8
:1028600039D1049804EB090200EB09030146204624
:10287000521E5B1EFFF71FFD00262AE0019800256F
:1028800000EB0608BBF1000F98F802104FF00100B2
:1028900000FA05F001EA00010FD021B12046069AA6
:1028A0000499FFF725FD0098641C211A49450AD1B7
:1028B0000498009C401C049009E009B1069800E0CF
:1028C000109800F0D2F86D1CEDB2082DDAD3761C0A
:1028D000F6B25645D2D302987F1C8742B0D307B0D8
:1028E000BDE8F08F306B00082DE9FF4F83B08346C1
:1028F000129F1D467E081D491046FDF7A1FCFDF7FD
:102900009BFE00248146A2462BE0281B401EC1B23C
:102910000A2001F08FFBB9FBF0F00A21B0FBF1F2C5
:1029200001FB1208A81E84420DD1119A00FB06B0CB
:102930008DE884042E22109B0499FFF71BFE641C73
:102940006D1CE4B2EDB2119908F130008DE88204FB
:10295000C2B204FB06B0109B0499FFF70BFE641C87
:10296000E4B2AC42D1D307B0BDE8F08F0000C8425A
:102970002DE9FF4F83B00026DDE911B81D468246E0
:102980004FEA58073446B1462AE0281B401EC1B220
:102990000A2001F04FFB0599B1FBF0F00A21B0FBD2
:1029A000F1F201FB120026B9691E8C4201DA50B126
:1029B00001263030C2B2CDF800B004FB07A0CDE94B
:1029C0000189109B07E0CDF800B0CDE9018904FB37
:1029D00007A0109B20220499FFF7CCFD641CE4B2F1
:1029E000AC42D2D307B0BDE8F08F2DE9F0471F46C7
:1029F0009046CB1900EB08020024521E5B1EDDF846
:102A00002090FFF758FC00260FE000250AE019F897
:102A1000140000F035F809EB4400407800F030F87D
:102A2000641C6D1CBD42F2D3761C4645EDD3BDE857
:102A3000F0872DE9FE4F9946DDE90D6714468A4679
:102A40000546DDF830800BE0CDF800804B4651465E
:102A50002846CDE90167FFF78DFD05EB5605641C9F
:102A60002278002AF0D1BDE8FE8F10B50446C0F3ED
:102A7000072000F01DF8E0B2BDE8104000F018B8E3
:102A800000F016B870B5094D06464FF48044002298
:102A900021462846FEF7C7FD304600F009F82146DA
:102AA0002846BDE870400122FEF7BDBD000C014084
:102AB00070B50E4E05460024002220213046FEF758
:102AC000B2FD280601D5012200E00022082130468F
:102AD000FEF7A9FD012220213046FEF7A4FD68067D
:102AE000641C050EE4B2082CE6D370BD000C014056
:102AF000FEB50021234800910191214A0291026014
:102B000092158260017301240475072606614FF453
:102B100060224160C0E90642FEF7A6F80525009450
:102B200069461848CDE90145FEF71CF802200190DE
:102B300069461448FEF716F804270320CDE9007013
:102B400069461048FEF70EF8CDE9004769460D4882
:102B5000FEF708F8009569460A480195FEF702F865
:102B6000082000900620019069460648FDF7FAFF0C
:102B70001120CDE9000669460248FDF7F3FFFEBDCE
:102B800000240140EC0000202DE9F04F85B0002426
:102B90004D480094019402940394816941F010011E
:102BA0008161816901F010010491816941F0200186
:102BB0008161816901F020010491816941F0040182
:102BC0008161816901F004010491816941F008018A
:102BD00081618069DFF8F4A000F0080047F2030586
:102BE0000490002229465046FEF71DFD4FF2EC38B6
:102BF000002241463648FEF716FDDFF8D8B04FF404
:102C00008079002249465846FEF70DFD00950226C0
:102C100001250396CDE9015469465046FEF70EFCA6
:102C20002D4FE803CDE90007694602945046FEF7B0
:102C300005FCCDE90054694658460294FEF7FEFBB8
:102C4000C020CDE90007694602945846FEF7F6FB1E
:102C50007814CDE90004694650460294FEF7EEFB75
:102C60000096CDE9017469461948FEF7E7FBCDF8F7
:102C700000800396CDE9015469461548FEF7DEFB56
:102C8000CDF800900396CDE9015469465846FEF709
:102C9000D5FB1020CDE9000469460D480294FEF7EB
:102CA000CDFB002211460720FEF72EFD0720FEF780
:102CB0001DFD002211461720FEF726FD1720FEF706
:102CC00015FD05B0BDE8F08F001002400010014076
:102CD000000C01400008014000002110FEE7704791
:102CE00070470000164910B5164A48700020137846
:102CF000AA2B00D1C870D37B552B16D18870002029
:102D00008C78135C401C23448B700E28F8DB907B7E
:102D1000DBB2984207D10B4B0020103B145C1C54D3
:102D2000401C1028FADB012008700748FFF788F8DC
:102D3000BDE81040102203490348FFF70FBA000016
:102D40002C0000208C0000201C0100207047000097
:102D500001490020087070477000002010B5FEF790
:102D60006DFCBDE81040002000F08EBD30B593B082
:102D700028216846FDF701FA14210AA8FDF7FDF99C
:102D8000002401200F9410941194010412948DE8F2
:102D9000130004904FF4E010CDE9081002250795C8
:102DA0006846FEF7A9FE0F20CDE90A056802CDE9C5
:102DB0000C4002210AA80E94FEF7B2FDA803119060
:102DC0000F950FA8FEF736FD13B030BD0D48016812
:102DD00041F00101016041680B4A11404160016806
:102DE0000A4A11400160016821F4802101604168B4
:102DF00021F4FE0141604FF41F0181600449C003CA
:102E000008607047001002400000FFF8FFFFF6FE68
:102E100008ED00E033B585B00546AA208DF8000026
:102E200000248DF8014006A90DF10200FDF78AF992
:102E3000280A8DF804009DF818108DF80C400844FD
:102E400028448DF80D40AA308DF808408DF80E000A
:102E50008DF805408DF8094055208DF806408DF815
:102E60000A408DF80F008DF803508DF807408DF85B
:102E70000B400A23102269460248FFF7BDF907B04C
:102E800030BD00001C01002010B5406A0021C18542
:102E9000C184FFF708F810BD70B5446A2068406926
:102EA00094F83910C0F3C0100025212904D118B1BD
:102EB000E584204600F046F82068406994F83A100E
:102EC000C0F38010222904D118B1E585204600F016
:102ED0002BF8E06B40F01000E0632046FEF7E3FFC4
:102EE00070BD10B50146406A09680968890613D4A7
:102EF0000021C1850168CA6822F48072CA60016835
:102F00004A6922F001024A6101684A6922F04002DE
:102F10004A61202180F83A10FFF76CF910BD10B516
:102F2000406AFFF768F910BD0168CA6822F4907220
:102F3000CA6001684A6922F001024A61202180F8D2
:102F40003A1070470168CA6822F0C002CA602021A6
:102F500080F83910704710B590F83A10222901D046
:102F6000022010BD8168B1F5805F11D00169002990
:102F700001681FD0496801F07F03816A4A1C8262A0
:102F80000B70C18D491E0904090CC18518D02BE0B6
:102F90000269816A002A0268526805D0D2B20A80AA
:102FA000816A491C8162ECE7C2F308020A80816AE7
:102FB000891CF7E74A68816A4B1C83620A70E0E764
:102FC0000168CA6822F02002CA600168CA6822F457
:102FD0008072CA6001684A6922F001024A612021B8
:102FE00080F83A10FFF706F9002010BD2DE9F041F6
:102FF000044600680169E26821F44051114301610F
:103000002169A0680843616908432168CA6841F2E0
:103010000C639A430243CA6020684169A26921F4A3
:103020004071114341611E4920686425322688425F
:1030300002D1FEF71BFD01E0FEF708FD00EBC00129
:1030400001EB001160686FF018078000B1FBF0F22F
:10305000B2FBF5F2B1FBF0F37A4303EB8202B1FB72
:10306000F0F306EB0212B2FBF5F2B3FBF5F302F05C
:10307000F00202EB0312B1FBF0F3B1FBF0F0B0FB96
:10308000F5F0784303EB800006EB0010B0FBF5F0A1
:10309000216800F00F0010448860BDE8F081000056
:1030A0000038014090F83910212901D002207047E2
:1030B0008168B1F5805F016A0BD04A1C0262026828
:1030C00009785160C18C491E0904090CC1840ED0D5
:1030D00017E009880268C1F30801516001690029FD
:1030E000016A02D0491C0162ECE7891CFBE7016818
:1030F000CA6822F08002CA600068C16841F04001DD
:10310000C160002070472DE9F041984617460E46F1
:103110000446069D1DE0681C1BD02DB1FEF788FA01
:10312000A0EB0800A84214D92068C16821F4D0712E
:10313000C1602068416921F001014161202084F8CB
:10314000390084F83A00002084F838000320BDE8F4
:10315000F0812068006836EA000004D00020B84200
:10316000D9D00020F3E70120F9E7000010B50448AA
:10317000FEF79AFEBDE81040012000F00BB80000F9
:103180001C0100200148FEF78FBE00005C010020FA
:10319000FEE7000001280FD1084801680A68C2F361
:1031A0000012002A08D06FF010020A60006801685F
:1031B0004068C0B2FFF796BD704700001C010020B8
:1031C0000907090E002804DB00F1E02080F8001454
:1031D000704700F00F0000F1E02080F8141D7047E8
:1031E00002E008C8121F08C1002AFAD170477047D0
:1031F000002001E001C1121F002AFBD1704700002E
:1032000010B56420FDF732FC19481A490268A2F58E
:1032100000028A4203D340F60162816907E04268F6
:10322000A2F500028A4204D3816940F6026211438A
:103230001BE08268A2F500028A4203D340F60462D2
:103240008169F4E7C268A2F500028A4203D340F61E
:1032500008628169EBE70269A2F500028A4203D3A2
:10326000816941F4616100E000218161084610BD7F
:10327000540000200000FA442DE9F04781463F4AFF
:103280003F4840F6B83A51684161936883611369D9
:10329000C361556905621268C2620263B9F1010F28
:1032A00063D1466880463046FCF7C4FF0446294691
:1032B0003046FCF7BFFF05462046FDF7A4F906B2ED
:1032C0002846FDF7A0F907B22D483146383000F006
:1032D0005FF806462A483946443000F059F8294B31
:1032E0004FF07E5141F288329C420DDB8D4202DC70
:1032F000494630461BE0B5F1804F0DDAF8E7494604
:10330000104614E0494612E014F1FF4F08D2B5F51B
:10331000000FEDDB8D42F5DB30449042F2DBEEE74F
:1033200004F1FF40B0F17A5F04D849465046FFF7F8
:1033300071FD15E0B4F13F4F08D900215046FFF769
:1033400069FD0021062000F089F809E0B4F17C5FF6
:1033500006DB01215046FFF75DFD0B490020487157
:103360000A49D8F81C00884205DB5046BDE8F04702
:103370000021FFF74FBDBDE8F0870000540000209A
:103380009C0000200000A0403C00002000008C4277
:1033900010B5B0F904306BB102890A4412B202814F
:1033A000642A02DD6422028104E06FF06304A24219
:1033B00000DA0481B0F90820B0F90A405343B0F9AB
:1033C00002200C1B02FB0132B0F9063003FB042281
:1033D00012B24FF47E739A4201DD1A4602E0002ACF
:1033E00000DA002202EBC20292000A2392FBF3F2FF
:1033F00002F5FA6212B24181104610BD70B5164D49
:103400000646A5F10C046879C8B1FEF711F96168A8
:10341000401AB0F5FA6F02D36879012817D0FEF789
:1034200007F96168401A4EF66021884206D3687930
:10343000022803D1FEF7FCF86060022070BD012075
:103440006871FEF7F5F860602E71002070BD0220F3
:103450006871012070BD00003C0000202DE9F0479C
:10346000364B374C9E145D149F15DFF8D880012928
:1034700007D007285FD2DFE800F05E3235383B3FE7
:103480004200072857D2DFE800F0560406080C0E69
:103490001200012224E0012225E0012226E020463C
:1034A00045E0002225E00122294618463FE001229E
:1034B000022199461846FEF7B6F801223146204609
:1034C000FEF7B1F8012229462046FEF7ACF80022AB
:1034D00039464046FEF7A7F80122294626E0002299
:1034E0000221E2E700223146D9E700222946D6E749
:1034F0000122394640461AE000220121D5E7002288
:10350000022199461846FEF78EF8002231462046E1
:10351000FEF789F8002229462046FEF784F80122AA
:1035200039464046FEF77FF8002201214846BDE8B3
:10353000F047FEF778B8BDE8F087000000100140C2
:10354000000C01400008014070B50125194C01280C
:1035500007D1FEF76DF8E1684FF4FA76401AB042F1
:1035600010D2FEF765F8A168401A052809D3FEF7C6
:103570005FF8A0602078401CC0B22070042800D9F9
:10358000257070BDFEF754F8E1684FF47A75401A63
:10359000B04205D3FEF74CF8E168401AA842F0D3D8
:1035A000FEF746F8E168401AA842EAD3FEF740F871
:1035B000E06070BD0C0000202DE9F84F8A46AF494D
:1035C000AD4D01440091AE4907464FF47A764FF075
:1035D00064084FF00A0900EB010BA5F10F0442B19A
:1035E000012A7ED0022A79D0032A78D0042A77D003
:1035F00038E1A24949428F4209DAA249FCF720FE8C
:10360000FDF71AF8B0FBF6F1695C491E7CE0009802
:10361000B0F1D47F23D29A4938464942FCF710FED4
:10362000FDF70AF8B0FBF6F1695C2170B0FBF6F12A
:1036300006FB11024146B2FBF1F2AA5C521E627017
:10364000B0FBF1F208FB12024946B2FBF1F2AA5CB0
:10365000A270B0FBF1F209FB1200285C01E1BBF1A2
:10366000D97F38461AD2FCF7EBFDFCF7E5FFB0FB3B
:10367000F6F1695C2170B0FBF6F106FB11024146E0
:10368000B2FBF1F24946AA5C6270B0FBF8F208FBAB
:103690001202B2FBF1F2AA5C521ED9E7FCF7CCFF92
:1036A000B0FBF6F1695C2170B0FBF6F106FB11028C
:1036B0004146B2FBF1F24946AA5C6270B0FBF8F2F7
:1036C00008FB1202B2FBF1F2AA5CA270B0FBF9F2A5
:1036D00009FB1200285C401EC3E002E03CE04CE025
:1036E000B4E0664949428F4201DA664905E0009A32
:1036F000B2F1D47F12D262494942FCF7A1FDFCF736
:103700009BFFB0FBF6F1695C2170B0FBF6F106FBA4
:1037100011024146B2FBF1F2AA5C90E7BBF1D97FFE
:10372000EBD3B0FBF6F1695C2170B0FBF6F106FB60
:1037300011024146B2FBF1F24946AA5C6270B0FB4D
:10374000F8F208FB1202B2FBF1F2AA5CA270B0FB25
:10375000F9F209FB127080E7FCF76EFF05EB1041F0
:1037600009782170C0F30321695C6170C0F3031113
:1037700000F00F00695CA1706FE7FCF75DFF9AF83D
:10378000001021703D4949428F420ADA3D493846CE
:10379000FCF756FDFCF750FFB0FBF6F1695C491EE3
:1037A0004AE0009AB2F1D47F1CD2354938464942EA
:1037B000FCF746FDFCF740FFB0FBF6F1695C617079
:1037C000B0FBF6F106FB11024146B2FBF1F2AA5C36
:1037D000521EA270B0FBF1F208FB1201B1FBF9F02E
:1037E000285C1CE0BBF1D97F23D23846FCF728FDCA
:1037F000FCF722FFB0FBF6F1695C6170B0FBF6F1FB
:1038000006FB11024146B2FBF1F2AA5CA270B0FBCA
:10381000F8F208FB1201B1FBF9F0285C401EE070E1
:1038200017F1FF4F26D3FD2020706070A070E0706C
:103830001BE0B0FBF6F1695C6170B0FBF6F106FBD2
:1038400011024146B2FBF1F2AA5CC2E79AF800000D
:1038500020709AF8010060709AF80200A0709AF83F
:103860000300E07017F1FF4F04D3FD20207060705B
:10387000A070E070BDE8F88F1C0000200000E0BEE2
:10388000000038BD00007A4410B520B100F0ACF85B
:103890000078A0B110BD00F0A7F8007828B100F0C2
:1038A000A3F8007801280AD010BD00F09DF88078B8
:1038B000032806D000F098F84078012801D90120AB
:1038C00000E00020BDE81040FFF73EBE094B10B5F8
:1038D00003EB8000084B1860002008E01C68246897
:1038E00041F820401C68241D401C80B21C6090429E
:1038F000F4D310BD00EC0108080000202DE9F041D0
:1039000017460E460446FDF72BFD0B48002500EB3D
:1039100084000A4C206009E0014632460023022060
:10392000FDF7DEFC2068001D6D1C2060BD42F3DB4E
:10393000BDE8F041FDF7CABC00EC0108080000201A
:1039400010B501211648FDF769FE164C012816D066
:10395000A06920F02000A061207D00F0FE0020750D
:1039600004211148FDF75AFE0128207D10D000F4F3
:103970006D602075A06920F0D000A06110BD207D91
:1039800040F001002075A06940F46260A061E7E7A3
:1039900040F002002075A06940F46460EDE700008B
:1039A0000008014054000020000C014001280BD009
:1039B00002280CD0094A03280DD004280DD18021FB
:1039C0004FEA0200FDF72ABE02210548FAE74FF44C
:1039D00000410448F6E74021F2E770470008014043
:1039E000000C014000100140004870473C000020DE
:1039F0002DE9F05F424E04464FF0FF3BC9B3012969
:103A00007BD140491046FCF7C3FBFCF715FE0521AE
:103A1000B0FBF1F03C4901EB80152868A04247D388
:103A2000E86BA04244D228462246102100F054F907
:103A30000746012100F006FBB2463060FCF729FE84
:103A4000804605EB870055F8277040688946C01B03
:103A5000FCF7CCFD06460D46E01BFCF7C7FD5A46B9
:103A6000FCF7A8FD32462B46FCF735FD42464B4697
:103A70003DE0FFE7A4F5897040F6226188423CD81A
:103A800022469621214800F027F90546002100F042
:103A9000D9FAB2463060FCF7FCFD88461B49064661
:103AA00001EB8500426851F825008146101A0DE0AF
:103AB000F8B2012100F0C6FAB2463060FCF7E9FD29
:103AC00006468846D5E900018146081AFCF78EFDB6
:103AD00005460F46A4EB0900FCF788FD5A46FCF7A3
:103AE00069FD2A463B46FCF7F6FC32464346FCF7A6
:103AF000D9FBFCF7E1FDCAF80400BDE8F09F000027
:103B0000000000200000A040A44800084C46000827
:103B100005481E220A21428081800123C3800C3087
:103B200042808180C3807047D400002010B588B0E7
:103B3000072269460020FFF7C9FE00991448154C7A
:103B40005A2910D0002141700221017113491248F5
:103B5000C4E90101E06020611148E062206300F0E7
:103B60003DFD08B010BD01994170029901710398A3
:103B7000FCF737FD60600498FCF733FDA060059802
:103B8000FCF72FFDE0600698FCF72BFD2061E8E7CD
:103B90003C0000209C0000200000C8410000904133
:103BA0000000204101490020087070470C000020EF
:103BB00010B500F005F8014810BD000070000020AD
:103BC0002DE9F041404C0127607800B12772810750
:103BD0004FF0000540F6B8361AD0DFF8F080022129
:103BE0004046FDF71BFD28B16078657001280CD0B8
:103BF00002202BE0FDF71CFD6168401AB042EED3B5
:103C0000607840F002006070EEE72770BDE8F08158
:103C100010F00C0F1CD0DFF8B8804FF40047394685
:103C20004046FDF7FBFC28B16078657004280CD095
:103C300004200BE0FDF7FCFC6168401AB042EED3B3
:103C4000607840F008006070EEE703202070DDE748
:103C5000204F10F0300F0CD119E000BFFDF7E8FC49
:103C60006168401AB04204D3607840F02000607070
:103C700005E040213846FDF7D1FC0028EED0607801
:103C80006570102801D00620E0E70520DEE78009F6
:103C90000BD1BBE7FDF7CCFC6168401AB04204D3FE
:103CA000607840F08000607005E080213846FDF7C4
:103CB000B5FC0028EED060786570402801D008205F
:103CC000C4E70720C2E7000070000020000C01409C
:103CD0000010014000080140F0B5002507684B1EA8
:103CE0002E46974220D950F82370974218D3D8B265
:103CF000F0BDEC18640850F82470974212D005D932
:103D000000EB840CDCF804C094450BD3974201D23D
:103D1000234600E025463746761CF6B28F4201D88E
:103D20009D42E6D39D4201D90020F0BDE0B2F0BD36
:103D30002DE9F041424E0746707928B93846FFF721
:103D40005DFB7079002835D002243E4D022F18D03B
:103D5000032F31D0042F45D0052F43D0062F01D09B
:103D6000072F27D13079062801D0072822D1012139
:103D70000320FFF773FB3846FFF740FB01284DD0C7
:103D800011E03079022815D10121FFF767FB384691
:103D9000FFF734FB012806D185F83540FFF76CFAB0
:103DA0000121084649E03846FFF728FB022801D1E7
:103DB00085F83540BDE8F08130790328FAD101213A
:103DC0000846FFF74BFB3846FFF718FB0128EAD1FE
:103DD00085F8354001210220FFF740FB0120FFF765
:103DE0004BFAE0E73079042801D00528E2D101211F
:103DF0000320FFF733FB3846FFF700FB0128D2D141
:103E000085F8354001210220FFF728FB012104201D
:103E1000FFF724FB0120FFF72FFA0CE085F835406F
:103E200001210220FFF71AFB0120FFF725FA0121EB
:103E30000420FFF713FB01210320FFF70FFBB2E77C
:103E40003C0000209C0000200EB5FDF7FFFBFEF7B4
:103E50008DFFFEF799FE6448416941F0010141611F
:103E60004069002200F00100009011460D20FDF78E
:103E70004BFC0D20FDF73AFC002211460F20FDF708
:103E800043FC0F20FDF732FCFEF732FE584D574839
:103E9000002428604FF41650C5E901040C26EC609C
:103EA000C5E90446AC612846EC61FEF785F805F1EA
:103EB0004000504901604FF4E131C0E90114C46091
:103EC000C0E904468461C461FEF776F8FFF72EFE70
:103ED0002968494808602868C16821F01001C1605C
:103EE000102246492846FEF739F92868C16841F092
:103EF0001001C160FFF70CFEFEF720FA4FF6FF75C8
:103F00004FF4A0780021F023424608460095FEF7C2
:103F1000FAF920200095CDE901044FF478470021FB
:103F20003B4637A20846FEF77FFB10260095CDE9F9
:103F300001643B4635A228210020FEF77AFD009758
:103F4000CDE901560323424628213020FEF710FD1B
:103F50000095CDE901643B462EA228215020FEF7B2
:103F600068FD0097CDE901560323F0222821802027
:103F7000FEF7FEFC0095CDE901643B4625A2282111
:103F80005020FEF756FD0095CDE901643B4623A283
:103F900046210020FEF74DFD0097CDE90156042390
:103FA000224646218020FEF79FFC214F00254FF03E
:103FB000780805EB8500002408EBC00604EB8400BC
:103FC00028233146C0001A460097FEF70EFD641CF8
:103FD000E4B2062CF2D36D1CEDB2052DE9D300BF7F
:103FE00000F09AF8FCE700000010024000380140A1
:103FF0001C01002000480040EFFFFFEF8C00002074
:10400000D6D0BEB0D4B0B5E7D7D300004C43445FA0
:10401000573A00004C43445F483A0000496E6372CF
:1040200065617365696E67204E756E3A0000000029
:10403000BA6D00080246012000E05043491EC9B293
:10404000FBD2704710B50C46FCF7D0FA4FF00002D7
:1040500034B1054BFCF7CDF9BDE81040FCF72CBBA3
:10406000024BFCF7C0F9F7E70000144000004440A1
:104070001CB5284AE523052943D2DFE801F00321D6
:1040800035394300492102280ED0032810D00428D6
:1040900012D0052810D0062801D0072831D18DF87C
:1040A00000101069032229E08DF800105068F9E72C
:1040B0008DF800109068F5E78DF80010D068F1E7F2
:1040C000144902284C6909D0032807D0042805D0D8
:1040D000052803D0062801D0072812D18DF800301A
:1040E0000322694620460AE08DF80030D069D9E7FE
:1040F0008DF80030506AFCF774FA01226946FFF728
:104100005BFA1CBD11208DF80000906AFCF769FA7B
:10411000C8E700009C00002010B500F035F8FFF75C
:104120006FF8FFF70DFC144914484A6842618A6829
:104130008261CA68C2610A6902620968C162016378
:104140000F488178032907D0002141710846FFF705
:1041500093F8002106200AE04078FFF7E9FD0121ED
:104160000848FDF75BFA012804D000210520FFF77D
:1041700075F910BD0121F9E7540000209C000020D2
:104180003C000020000801402DE9F84FFFF710FD2A
:104190000646007801250024AA49012802D00228F9
:1041A0001BD030E08878012804D0022802D00328F0
:1041B0000CD028E00D704878072803D2401C4870C6
:1041C000087120E00C7008714D701CE0C878D0B9FF
:1041D0004878082817D0CD7015E08878032804D0D7
:1041E00001280DD002280BD00DE00C70487808286B
:1041F00002D00871082000E008794870CC7002E015
:10420000087948700C7048788E4F8B4605210C3F1A
:10421000801E4FF0020A062817D2DFE800F00305DF
:10422000090E11143C7000E03D7087F801A00CE00D
:1042300087F800A087F801A007E039707C7004E0DF
:1042400003213970F1E739707D703178DFF8F8912A
:10425000032902D004292BD063E005287CD83978C3
:10426000052910D209EB8100009040687749884207
:1042700006DC4FF07E51FBF78BFF0099486050E061
:10428000009844604DE009EB8101CA6A6F498A4297
:10429000797809EB810009DC0090C06A4FF07E510B
:1042A000FBF776FF01460098C1623AE0C46238E04D
:1042B000052851D8FDF7BCF9A0EB0800B0F5967FB2
:1042C000F8D3FDF7B5F980463878052810D209EB08
:1042D0008000009040685D49884206DC4FF07E51C6
:1042E000FBF756FF0099486013E00098446010E027
:1042F000797809EB81000090C06A5449884206DC55
:104300004FF07E51FBF744FF0099C86201E000982E
:10431000C462022000F09EF80220FFF747FB01284C
:10432000C8D131784A48052902D0062915D041E084
:104330009BF80110891E05297CD83978052979D286
:1043400009EB81077A68824204DD4FF07E51104606
:10435000FBF770FF78602DE031E09BF80110891EBB
:10436000052967D84FEA0009FDF762F9A0EB0800BC
:10437000B0F5967FF8D3FDF75BF9804631480C38ED
:10438000007805280ED2304901EB80077A684A454B
:1043900006DD4FF07E511046FBF74CFF786001E0E0
:1043A000C7F80490022000F055F80320FFF7FEFA4A
:1043B0000128D9D13078072802D008281FD039E049
:1043C0009BF802105846012904D0032909D002297C
:1043D0000BD011E003218170017951B980F801A05F
:1043E0000AE085704178017105E00321817001794F
:1043F00009B1417000E045708BF8004018E09BF86F
:1044000002105846012905D0032917D061B10229AD
:1044100014D00DE084700470017919B101718BF82A
:10442000014005E04178F9E780F802A08BF80150DF
:10443000FFF7B8FBBDE8F84FFEF78ABC0470847044
:10444000F0E700003C0000209C0000200000AA4291
:10445000000020412DE9FF415BA30DF104080ECBC4
:104460005D4E88E80E005B4D4FF42F77A6F10C04EB
:1044700088B1012851D002287CD003282ED1FD20FC
:104480008DF800008DF801008DF802008DF8030012
:10449000042268691EE0FDF7CBF8A168401AB84213
:1044A0001CD3FDF7C5F8A0607278E5209321082A97
:1044B00014D2DFE802F0130415151A1A24248320FD
:1044C0008DF8000031208DF80100C5208DF8020024
:1044D000D520DBE74FEA0D01FFF76EF8BDE8FF815D
:1044E0008DF8000003226869F4E7A2781AB18DF80C
:1044F0000010E86A09E08DF80000686905E0A2781C
:10450000002AF8D08DF80010286B03226946FFF7C7
:1045100053F8A078C043A070E0E7FDF789F8A168E0
:10452000401AB842DAD3F0780025012800D1F5709E
:10453000FDF77EF8A060307908280FD2DFE800F0A0
:104540000E04040714141717A178022001E0A178C3
:104550000320FFF78DFDA078401CA070A0780528EF
:10456000BCD3A570BAE705E0A1780420F1E7A178F3
:104570000620EEE7FDF75CF8A168401AB842ADD31B
:10458000FDF756F8A060707801A90828A6D2DFE8E8
:1045900000F0040505080C1012169FE70322686856
:1045A0009AE70322891CA86896E70322491CE86859
:1045B00092E7E86A04E00322C91C28698CE7286BAB
:1045C0000322091D88E70000636591719349E71193
:1045D000E50000009C0000203C00002010B50122F6
:1045E0005A210020FFF78AF9164C01221046617803
:1045F000FFF784F9217901220220FFF77FF9124C9D
:104600006068FCF719F8014601220320FFF776F9EC
:10461000A068FCF711F8014601220420FFF76EF9AB
:10462000E068FCF709F8014601220520FFF766F96A
:104630002069FCF701F801460122BDE81040062080
:10464000FFF75CB93C0000209C000020340F000004
:104650002C0F0000230F0000190F00000E0F0000A8
:10466000030F0000F60E0000E80E0000DA0E000056
:10467000CB0E0000BC0E0000AC0E00009B0E000034
:104680008A0E0000790E0000670E0000540E000034
:10469000410E00002D0E0000190E0000040E000057
:1046A000EE0D0000D80D0000C10D0000A90D0000A6
:1046B000910D0000780D00005E0D0000430D00001C
:1046C000270D00000B0D0000EE0C0000D00C0000C8
:1046D000B20C0000920C0000730C0000520C0000A1
:1046E000310C00000F0C0000ED0B0000CB0B0000A4
:1046F000A80B0000850B0000610B00003E0B0000C2
:104700001A0B0000F60A0000D20A0000AE0A0000F0
:104710008A0A0000660A0000620A0000510A0000CE
:10472000360A0000120A0000E9090000BC09000076
:104730008C0900005909000026090000F308000058
:10474000C00800008E0800005D0800002E08000070
:1047500000080000D4070000A90700007F07000040
:1047600057070000300700000B070000E6060000B6
:10477000C20600009F0600007C0600005A060000EA
:104780003806000016060000F5050000D5050000FB
:10479000B4050000940500007405000055050000F4
:1047A0003605000017050000F9040000DB040000D6
:1047B000BD040000A00400008304000067040000A2
:1047C0004A0400002E04000013040000F703000058
:1047D000DB030000BF030000A3030000860300000A
:1047E0007A0300006B0300005B0300004803000035
:1047F00035030000210300000D030000F902000052
:10480000E4020000D1020000BD020000AB02000083
:104810009902000088020000770200006802000090
:10482000590200004B0200003E020000310200006D
:1048300024020000190200000D0200000202000024
:10484000F7010000ED010000E2010000D8010000C6
:10485000CD010000C3010000B8010000AD0100005F
:10486000A3010000980100008D01000083010000F9
:10487000780100006D010000630100005801000094
:104880004E0100003C010000330100002B0100003C
:10489000240100001D0100001801000014010000A7
:1048A00011010000F90F0000F90F0000F90F0000DE
:1048B000F10F0000E30F0000C50F0000930F000090
:1048C000320F0000A40E0000C60D0000AA0C00006C
:1048D000260B0000D80900004E080000DB0600008F
:1048E00079050000FF0F0000FF0F0000F60F000029
:1048F000EC0F0000D90F0000AF0F0000670F0000A1
:10490000EE0E00004B0E0000490D0000470C0000A9
:10491000490A0000D308000059070000790500008B
:104920003C040000F90F0000F90F0000F20F000036
:10493000E30F0000C30F00008B0F00002A0F0000E0
:104940009E0E0000E40D0000DC0C00008E0B000049
:10495000B9090000000800009606000030050000BC
:104960000F040000FF0F0000AF0F0000EE0F00006B
:10497000DA0F0000B20F00006A0F0000EE0E000018
:10498000420E0000550D0000240C0000AA0A000091
:10499000E3080000350700001F060000CF040000F8
:1049A000B1030000F90F0000F30F0000E80F000052
:1049B000CF0F00009C0F0000400F0000A10E000070
:1049C000CE0D0000BB0C0000590B0000B90900001F
:1049D00028080000B2060000300500000F040000A7
:1049E00019030000F60F0000EE0F0000E10F0000B9
:1049F000C00F00007A0F0000020F00003D0E000003
:104A0000490D0000180C0000AA0A0000630900000C
:104A100059070000F00500007D040000800300003D
:104A2000AB020000F50F0000EA0F0000D80F0000F5
:104A3000B20F00006C0F0000E50E00000C0E00002D
:104A4000090D0000BB0B0000D80900006108000040
:104A5000CE060000670500002604000019030000D0
:104A600071020000F10F0000E40F0000CF0F000002
:104A7000A20F0000590F0000C40E0000CE0D000070
:104A8000850C0000260B000038090000AA07000072
:104A900010060000CF040000800300008E0200001A
:104AA00016020000EE0F0000DA0F0000C10F000038
:104AB000870F00002D0F00005D0E0000600D00004C
:104AC000FF0B0000620A0000A0080000CE060000F4
:104AD0007905000026040000FE02000035020000F7
:104AE000B7010000E80F0000D10F0000B70F000071
:104AF000670F0000DB0E0000FF0D0000DC0C000063
:104B00004B0B0000A6090000CB07000010060000B8
:104B1000A7040000800300008E020000F7010000DF
:104B200074010000E30F0000C50F0000A00F00009B
:104B3000320F0000AA0E0000930D0000470C000089
:104B40007B0A0000DB0800000207000043050000AC
:104B5000F80300004D03000035020000B70100001B
:104B600052010000000000000000000000000000F2
:104B700000000000000000080808080808080000FD
:104B80001818000000486C2412000000000000000B
:104B9000000000000000002424247F1212127F1263
:104BA000121200000000081C2A2A0A0C1828282AC1
:104BB0002A1C080800000022251515152A585454EF
:104BC000542200000000000C1212120A762529114E
:104BD000916E0000000606040300000000000000C3
:104BE0000000000000402010100808080808081005
:104BF00010204000000204080810101010101008C7
:104C0000080402000000000008086B1C1C6B080868
:104C10000000000000000000080808087F080808DD
:104C2000080000000000000000000000000000007C
:104C3000060604030000000000000000FE00000063
:104C40000000000000000000000000000000000064
:104C500006060000000080404020201010080804D4
:104C60000402020000000018244242424242424232
:104C700024180000000000080E08080808080808AA
:104C8000083E00000000003C424242202010080480
:104C9000427E00000000003C42422018204040427A
:104CA000221C0000000000203028242422227E2024
:104CB000207800000000007E0202021A26404042D6
:104CC000221C0000000000382402021A2642424240
:104CD000241800000000007E222210100808080896
:104CE000080800000000003C4242422418244242CE
:104CF000423C0000000000182442424264584040F8
:104D0000241C000000000000000018180000000033
:104D1000181800000000000000000008000000005B
:104D200000080804000000402010080402040810D5
:104D3000204000000000000000007F0000007F0015
:104D400000000000000000020408102040201008AD
:104D5000040200000000003C4242464020101000C7
:104D6000181800000000001C225A555555552D42B8
:104D7000221C00000000000808181414243C2242E1
:104D800042E700000000001F2222221E224242426F
:104D9000221F00000000007C42420101010101428B
:104DA000221C00000000001F2242424242424242B6
:104DB000221F00000000003F4212121E1212024287
:104DC000423F00000000003F4212121E1212020277
:104DD000020700000000003C222201010171212293
:104DE000221C0000000000E7424242427E42424252
:104DF00042E700000000003E08080808080808080C
:104E0000083E00000000007C101010101010101060
:104E10001010110F0000007722120A0E0A1212223F
:104E200022770000000000070202020202020202D2
:104E3000427F000000000077363636362A2A2A2ABA
:104E40002A6B0000000000E346464A4A5252526272
:104E5000624700000000001C2241414141414141A4
:104E6000221C00000000003F424242423E02020279
:104E7000020700000000001C2241414141414D5306
:104E8000321C60000000003F4242423E12122222C9
:104E900042C700000000007C424202041820404249
:104EA000423E00000000007F490808080808080882
:104EB000081C0000000000E74242424242424242D7
:104EC000423C0000000000E742422224241414184F
:104ED000080800000000006B494949495555362231
:104EE00022220000000000E742242418181824247D
:104EF00042E7000000000077222214140808080886
:104F0000081C00000000007E21201010080404424C
:104F1000423F000000780808080808080808080848
:104F20000808780000000202040408080810102095
:104F300020204040001E10101010101010101010F3
:104F400010101E00003844000000000000000000A7
:104F50000000000000000000000000000000000051
:104F6000000000FF00060800000000000000000034
:104F700000000000000000000000003C42784442B5
:104F800042FC0000000000030202021A26424242D4
:104F9000261A00000000000000000038440202024F
:104FA00044380000000000604040407844424242E3
:104FB00064D80000000000000000003C427E0202B5
:104FC000423C0000000000F08808087E080808083D
:104FD000083E0000000000000000007C22221C02AD
:104FE0003C42423C000000030202023A4642424276
:104FF00042E700000000000C0C00000E0808080842
:10500000083E000000000030300000382020202042
:105010002020221E0000000302020272120A161251
:10502000227700000000000E080808080808080899
:10503000083E0000000000000000007F9292929263
:1050400092B70000000000000000003B46424242D0
:1050500042E70000000000000000003C42424242E3
:10506000423C0000000000000000001B26424242BB
:10507000221E020700000000000000784442424265
:10508000447840E000000000000000774C04040475
:10509000041F0000000000000000007C42023C40B1
:1050A000423E0000000000000008083E0808080812
:1050B000083000000000000000000063424242424D
:1050C00062DC000000000000000000E7422424141D
:1050D0000808000000000000000000EB4949555599
:1050E000222200000000000000000076241818189A
:1050F000246E000000000000000000E74224241499
:1051000018080807000000000000007E22100808B0
:10511000447E000000C020202020201020202020DD
:105120002020C000101010101010101010101010BF
:1051300010101010000608080808081008080808D1
:10514000080806000C32C200000000000000000049
:10515000000000000000000000000000000000004F
:10516000000000000000000000000000000000003F
:10517000000000000000000000000000000000002F
:10518000000000000000000000000000000000001F
:105190000000000000000000000000000000C0014E
:1051A000C001C001C001C001C001C0018000800079
:1051B000800080008000800080000000000000006F
:1051C00000008001C003C003800100000000000057
:1051D00000000000000000000000E01CE01CF01EC9
:1051E000700E38071803080184000000000000005A
:1051F00000000000000000000000000000000000AF
:10520000000000000000000000000000000000009E
:10521000000000000000000000000000000000008E
:1052200020102010201020102010FE7FFE7F10087C
:10523000100810081008100810081008FE7FFE7FE4
:105240000804080408040804080400000000000022
:10525000000000000000000000000000000100014C
:10526000C007601910311831183918393801700128
:10527000E001C0038007000F001D003900311C3120
:105280001C310C310C11180DE00700010001000168
:10529000000000000000000000000000000000000E
:1052A0001C1036186308630C630463046302630212
:1052B0006301361D9C378022806340634063206316
:1052C0002063306310221836081C00000000000024
:1052D00000000000000000000000000000000000CE
:1052E000F00098018C018C018C018C018C00CC00A9
:1052F0007800183E1C083608320863046304C304AF
:10530000C303834306438E26781C00000000000080
:10531000000000000000000000001C003C003C00F9
:105320003000300010000C000600000000000000FB
:10533000000000000000000000000000000000006D
:10534000000000000000000000000000000000005D
:1053500000000000000000000000004000200010DD
:105360000008000C00040006000300030003800195
:1053700080018001800180018001800180010003A3
:105380000003000300060006000C000800100020C7
:1053900000400000000000000000020004000800BF
:1053A0001000300020006000C000C000C00080017C
:1053B0008001800180018001800180018001C000A6
:1053C000C000C00060006000300010000800040051
:1053D00002000000000000000000000000000000CB
:1053E0000000000000018003800300011C713C7973
:1053F000783DC0070001C007783D3C791C71000171
:105400008003800380010000000000000000000015
:10541000000000000000000000000000000000008C
:105420000000000000000001000100010001000177
:1054300000010001FC7F00010001000100010001EA
:10544000000100010000000000000000000000005A
:10545000000000000000000000000000000000004C
:10546000000000000000000000000000000000003C
:10547000000000000000000000000000000000002C
:10548000000000001C003C003C0030003000100018
:105490000C000600000000000000000000000000FA
:1054A00000000000000000000000000000000000FC
:1054B00000000000FE7F000000000000000000006F
:1054C00000000000000000000000000000000000DC
:1054D00000000000000000000000000000000000CC
:1054E00000000000000000000000000000000000BC
:1054F00000000000000000000000000000000000AC
:10550000000018003C003C001800000000000000F3
:1055100000000000000000000000004000600020CB
:105520000030001000180008000C00040006000203
:105530000003000180018000C000400060002000E6
:1055400030001000180008000C00040006000200E3
:10555000000000000000000000000000000000004B
:10556000C007600C30181830183018200C600C6020
:105570000C600C600C600C600C600C600C601820FF
:10558000183018303018600CC00700000000000010
:10559000000000000000000000000000000000000B
:1055A00000018001F80180018001800180018001FB
:1055B00080018001800180018001800180018001E3
:1055C000800180018001C003F81F0000000000007E
:1055D00000000000000000000000000000000000CB
:1055E000E007101C0818043004300C300C30003078
:1055F0000018000800040002000180004000202084
:10560000102008200430FC1FFC1F000000000000D8
:10561000000000000000000000000000000000008A
:10562000E003180E0C0C0C180C180C180018000CC9
:105630000006C003000E00180010003000300C30CF
:105640000C300C100C18180CE003000000000000D7
:10565000000000000000000000000000000000004A
:10566000000C000E000E000F800E800E400E600E2B
:10567000200E100E100E080E040E040EFE7F000EFB
:10568000000E000E000E000E000EC07F0000000095
:10569000000000000000000000000000000000000A
:1056A000F03FF03F10001000100008000800C8078D
:1056B000280C1818081000300030003000300C3072
:1056C0000C3004180418080CF0030000000000005F
:1056D00000000000000000000000000000000000CA
:1056E000800FC010203010301800180008000C0087
:1056F0008C0F6C183C301C600C600C600C600C60F3
:105700001860182030306018C0070000000000004A
:105710000000000000000000000000000000000089
:10572000F83FF83F1C100C080408040400040002B1
:105730000002000100010001800080008000C00024
:10574000C000C000C000C000C00000000000000099
:105750000000000000000000000000000000000049
:10576000E007300C18180C300C300C301C30381896
:105770007008E007B007180E0C1C0638063006301B
:10578000063006300C18180CE00300000000000082
:105790000000000000000000000000000000000009
:1057A000E00318040C080C1806100630063006300A
:1057B000063006380C3C1836F0310030001800185E
:1057C00000180C0C0C060C03F00100000000000097
:1057D00000000000000000000000000000000000C9
:1057E0000000000000000000000000000000800138
:1057F000C003C003800100000000000000000000A2
:1058000000008001C003C003800100000000000010
:105810000000000000000000000000000000000088
:105820000000000000000000000000000000C000B8
:10583000C0000000000000000000000000000000A8
:10584000000000000000C000C00080008000400098
:1058500040000000000000000000000000000020E8
:10586000001000080004000600038001C000600072
:10587000300018000C00180030006000C0008001EB
:1058800000030006000400080010002000000000D3
:105890000000000000000000000000000000000008
:1058A0000000000000000000000000000000FE7F7B
:1058B00000000000000000000000FE7F000000006B
:1058C00000000000000000000000000000000000D8
:1058D00000000000000000000000000000000400C4
:1058E0000800100020006000C000800100030006D6
:1058F000000C001800300018000C000600038001A6
:10590000C00060002000100008000400000000003B
:105910000000000000000000000000000000C007C0
:105920003018083008600C601C601C601C6000307F
:10593000001C000600018000800080008000000044
:1059400000008001C003C0038001000000000000CF
:105950000000000000000000000000000000000047
:10596000C0076018103018200C2F8C4D864CC64C88
:10597000C64C664C66446644662666266615CC1C94
:105980000C40082018303018C0070000000000004C
:105990000000000000000000000000000000000106
:1059A000C001C001C00140016003200320032003A7
:1059B0003006100610061006F80F080C080C080C2C
:1059C0000C0C0418041806181F7C000000000000CE
:1059D00000000000000000000000000000000000C7
:1059E000FE07181C183818301830183018301818DE
:1059F000180CF8071818183018201860186018606C
:105A00001860186018301818FE0F00000000000021
:105A10000000000000000000000000000000000086
:105A2000C0276038103018200C400C4004000600DD
:105A300006000600060006000600060006000C40F0
:105A40000C400C2018303018C00700000000000087
:105A50000000000000000000000000000000000046
:105A6000FE03180E18181830183018301860186017
:105A70001860186018601860186018601860183096
:105A8000183018101818180EFE030000000000004F
:105A90000000000000000000000000000000000006
:105AA000FE3F183018201860184018001808180811
:105AB000180CF80F180C180818081800180018000F
:105AC0001840184018201830FE3F00000000000069
:105AD00000000000000000000000000000000000C6
