:020000040800F2
:100000004006002001010008013700087B2A000893
:10001000FD360008F50800080D3D0008000000004E
:10002000000000000000000000000000B9370008D8
:10003000190900080000000003370008C93700084C
:100040001B0100081B0100081B0100081B01000820
:100050001B0100081B0100081B01000827090008FC
:100060001B0100081B0100081B0100081B01000800
:100070001B010008F90800081B0100080909000815
:100080001B0100081B0100081B0100081B010008E0
:100090001B0100081B0100081B01000831090008B2
:1000A0001B0100081B0100081B0100081B010008C0
:1000B0001B0100081B0100081B0100081B010008B0
:1000C0001B0100081B0100081B0100081B010008A0
:1000D0001B010008E93C00081B010008FD3C00086A
:1000E0001B0900081B0100081B010008DFF80CD0E9
:1000F00000F082FB004800475152000840060020F3
:100100000648804706480047FEE7FEE7FEE7FEE7B1
:10011000FEE7FEE7FEE7FEE7FEE7FEE755380008EC
:10012000ED000008202A04DB203A21FA02F0002129
:10013000704721FA02F3D040C2F1200291400843F7
:1001400019467047D2B201E000F8012B491EFBD2DC
:1001500070470022F6E710B513460A4604461946D2
:10016000FFF7F0FF204610BDF0B480EA0102D40F83
:100170004200B2EB410F02D20246084611464A0045
:1001800042D0C30DDDB2C1F3C752AD1A202D35DA0E
:10019000C1F3160141F4000204B15242C5F1200638
:1001A00002FA06F12A411044B3EBD05F23D0C4B168
:1001B000012DA0EBC35009DCF0BC4FF0004202EA75
:1001C000C352DBB200F5000000F08ABA400000F133
:1001D000807000EBC350A0F1807040EAD1704900FC
:1001E00009E0490841EAC071A0EBC35000F50000E6
:1001F000400800EBC350F0BC00F069BA6142012234
:1002000002EB4101001BF6E7F0BC704781F00041B2
:10021000AAE780F00040A7E72DE9FE4F804681EA7B
:100220000300C00F0C46009021F0004123F0004570
:10023000B8EB0200A94105D24046214690461C4633
:100240000B46024623F00040104347D0270DC7F36A
:100250000A00C3F30A510290401A019040286BDA59
:10026000C3F3130040F4801B0098924620B1002392
:10027000D2EB030A63EB0B0B01985946C0F1400225
:10028000504600F003FA06460D4650465946019A7C
:1002900000F00BFA10EB08006141002487EA1152CC
:1002A00084EAE7731A4340D0009A62B3019A012AA4
:1002B0004FEA075215DC001B61EB02014FF00042D0
:1002C00002EA0752CDE90042001C41F58011324696
:1002D0002B4600F042FA03B0BDE8F08F40462146BD
:1002E000F9E7001B61EB0201001C41F580130018C7
:1002F0005B412018A2F5001747EB030140EAD570D7
:10030000B6196D4111E06D084FEA360645EAC07531
:100310004FEA0752001B61EB0201001C41F58011FE
:1003200049084FEA30000019514132462B4603B0CC
:10033000BDE8F04F00F002BA00980122400000230F
:10034000D0EB020263EBE073009821464FEAE074C1
:10035000B8EB000061EB0401E9E783F000435BE7E1
:1003600081F0004158E72DE9FE4F81EA030404F0D3
:10037000004421F0004100944FF0000B23F00043B3
:1003800050EA01045ED052EA03045BD0C3F30A547E
:10039000C1F30A552C44A4F2F3340194A0FB025497
:1003A000C1F3130141F48011C3F3130343F4801329
:1003B00001FB024400FB034E840A970A44EA81547D
:1003C00047EA8357A4FB076802958D0A05FB07855A
:1003D0004FEA932C04FB0C542705029D4FEA065864
:1003E00047EA1637B5EB08056EEB070C870E920E41
:1003F00047EA811742EA8312A7FB0201B6EB0B0121
:1004000064EB00042B0D43EA0C335E1844EB1C50E4
:10041000DA465146E7FB0201C5F313044FEA0B33FA
:1004200043EA14534FEA0432019C43EA0603A4F161
:100430000C040294009CCDE900B400F08EF903B0E6
:10044000BDE8F08F00200146F9E72DE9F04D81EA83
:10045000030404F0004B21F0004514464FF0000A5D
:1004600023F0004150EA050220D054EA01021DD0D9
:10047000C5F30A570246C5F31303C1F31300C1F3D2
:100480000A5640F4801543F48013A7EB0608101BAE
:10049000D64608F2FD3873EB050002D308F10108D7
:1004A00001E092185B41B8F1000F03DA0020014629
:1004B000BDE8F08D00204FF48011064684460EE022
:1004C000171B73EB050705D3121B63EB05030643EC
:1004D0004CEA010C49084FEA300092185B4150EA9F
:1004E0000107EDD152EA030012D082EA040083EA48
:1004F0000501084305D0101BAB4106D201220023A1
:1005000006E000224FF0004302E06FF001025310BA
:100510001AEB06004CEB085110EB0A0041EB0B0103
:10052000BDE8F04D00F00AB996230022114600F014
:10053000D7B80EB540F2334102910021CDE9001148
:100540000A460B4600F009F903B000BD00F0004276
:1005500020F00040C10DC0F3160040F400007F29D8
:1005600001DA00207047962903DCC1F19601C840EA
:1005700001E096398840002AF4D04042704720F0CC
:100580000040C10DC0F3160040F400007F2901DADD
:1005900000207047962903DCC1F19601C8407047DE
:1005A00096398840704700F0004230F000400AD091
:1005B000C10D01F56071C0F3160042EA0151C20895
:1005C00040071143704700200146704730B5041EB4
:1005D00071F1000404DB4FF00044404264EB010180
:1005E000141E73F1000405DB1C464FF00043524219
:1005F00063EB04038B4208BF824230BD30B5041E5A
:1006000071F1000404DB4FF00044404264EB01014F
:10061000141E73F1000405DB1C464FF000435242E8
:1006200063EB0403994208BF904230BD01F00043E0
:1006300030B421F0004150EA010206D00A0DA2F5C3
:100640006072C1F31301002A02DC30BC0020704745
:10065000440F44EAC104C100E01830BC00EBC250B2
:1006600000F035B8002801DBC0F10040002901DBB3
:10067000C1F1004181427047002801DBC0F1004018
:10068000002901DBC1F1004188427047202A04DBC8
:10069000203A00FA02F1002070479140C2F1200395
:1006A00020FA03F3194390407047202A06DBCB174A
:1006B000203A41FA02F043EAE07306E041FA02F31D
:1006C000D040C2F1200291400843194670470029EA
:1006D000A8BF7047401C490008BF20F001007047C8
:1006E00010B4B0FA80FC00FA0CF050EA010404BF28
:1006F00010BC704749B1CCF1200421FA04F411FA7E
:100700000CF118BF012121430843A3EB0C01CB1DC1
:100710004FEA00614FEA102042BF002010BC704732
:1007200000EBC35010440029A4BF10BC7047401C0C
:10073000490008BF20F0010010BC704710B5141E1E
:1007400073F1000408DA401C41F1000192185B418A
:100750001A4301D120F0010010BD2DE9F04D924661
:100760009B4611B1B1FA81F202E0B0FA80F2203278
:100770009046FFF78BFF04460F4640EA0A0041EA25
:100780000B0153465A46084313D0114653EA010061
:1007900019D0C8F140025046FFF7C4FC05460E468A
:1007A000504659464246FFF771FF084305D00120E5
:1007B00004E020463946BDE8F08D0020054346EAB6
:1007C000E0762C4337430A986305E40AA0EB08005F
:1007D0000022FD0A44EA47540A3002D500200146AF
:1007E000E9E7010510196941DDE90845001969418A
:1007F000BDE8F04DA2E70000064C074D06E0E068BA
:1008000040F0010394E8070098471034AC42F6D357
:10081000FFF770FC389D0008589D000870B504462D
:1008200000252068806800F00100F0B12068806831
:1008300020F001002168886001F08EF905460EE085
:1008400001F08AF9401B022809D9A06A40F0100083
:10085000A062E06A40F00100E062012070BD206803
:10086000806800F001000028EAD10020F6E70000CF
:1008700038B504460025002000902068806800F00C
:10088000010080BB2068806840F00100216888601A
:10089000164800681649B0FBF1F0009002E000989D
:1008A000401E009000980028F9D101F055F9054646
:1008B00013E001F051F9401B02280ED9A06A40F064
:1008C0001000A062E06A40F00100E06200BF00207A
:1008D00084F8240000BF012038BD2068806800F043
:1008E00001000028E5D00020F6E700003C000020D1
:1008F00040420F0000BFFEE710B5024800F040FD87
:1009000010BD0000D801002010B5024800F038FDED
:1009100010BD000094010020704710B54FF4004056
:1009200000F06EFF10BD10B5022000F069FF10BD91
:1009300010B5402000F064FF802000F061FF10BD82
:10094000704700000021074AD1610749096941F059
:100950000401054A11611146096941F04001116124
:100960007047000020020020002002400021074ABA
:10097000D1610749096941F00201054A1161114637
:100980004861096941F0400111617047200200206F
:10099000002002400022054BDA61054A126942F04C
:1009A0000102034B1A610180704700002002002001
:1009B0000020024000201E49C96801F0100139B131
:1009C0001C49C96941F002011A4AD16140F0100086
:1009D0001749C96801F0040139B11649C96941F0E4
:1009E0000101144AD16140F004001149C96901F0C4
:1009F000010169B10F49C96941F004010D4AD16192
:100A000000BF0B49C96921F00101094AD16100BF4A
:100A100000BF40F20111884206D10549C96921F0A1
:100A20000101034AD16101E00149C86000BF70477C
:100A3000002002402002002070B5044601F08CF82E
:100A4000054609E0601C38B124B101F085F8401B6F
:100A5000A04201D9032070BD1248C06800F0010017
:100A60000028EFD10F48C06800F0200020B100BF7F
:100A700020200C49C86000BF0A48C06800F0100080
:100A800048B90848C06900F0010020B90548C068AD
:100A900000F0040018B1FFF78DFF0120DBE7002014
:100AA000D9E70000002002402DE9F04F87B08146D1
:100AB0004FF0000B002404E000204DF82400601CDF
:100AC000C4B2072CF8DB4FF0000A23E0304800F0F6
:100AD00069F8002418E02E4800F042FB4FF6FF7141
:100AE0002B4800F085FA2A4800F08EF983465DF81D
:100AF000240058444DF824002648834502D900209C
:100B00004DF82400601CC4B2072CE4DB0AF101009C
:100B100000F0FF0ACA45D9DB1D4800F0B9FB0024EC
:100B200007E05DF82400B0FBF9F04DF82400601CEC
:100B3000C4B2072CF5DB0698FFF7FBFC07463A46E4
:100B40000B4600201449FFF780FC0546FFF76EFDB9
:100B50001249086001240CE011494A683DF824104C
:100B600088B2002104F068F80D4941F82400601CA7
:100B7000C4B2062CF0DB0A494A68009988B2012108
:100B800004F05AF80649086007B0BDE8F08F00008D
:100B9000E400002020A107000032B3400000002044
:100BA00040000020F8B5044600260020009000BF59
:100BB00094F82400012801D10220F8BD012084F816
:100BC000240000BF2046FFF729FE0646002E62D112
:100BD000A06A20F4885040F00200A062022001F0D8
:100BE00093F830490968B1FBF0F04000009002E052
:100BF0000098401E009000980028F9D12046FFF789
:100C000037FE2068806840F008002168886000F0A6
:100C1000A3FF054611E000F09FFF401B0A280CD9F6
:100C2000A06A20F0020040F01000A06200BF002087
:100C300084F8240000BF0120BFE72068806800F02E
:100C400008000028E7D12068806840F0040021688F
:100C5000886000F081FF054611E000F07DFF401B39
:100C60000A280CD9A06A20F0020040F01000A0620F
:100C700000BF002084F8240000BF01209DE7206809
:100C8000806800F004000028E7D1A06A20F002008C
:100C900040F00100A06200BF002084F8240000BFE3
:100CA00030468AE73C00002038B502460023002089
:100CB000009000BF92F82400012801D1022038BD25
:100CC000012082F8240000BF4868072812D210686B
:100CD000406B0C79641E04EB84051F24AC40A043D8
:100CE0000D796D1E05EB85050C68AC40204314683A
:100CF000606327E048680D2812D21068006B0C79F9
:100D0000E41F04EB84051F24AC40A0430D79ED1FC4
:100D100005EB85050C68AC4020431468206311E0A6
:100D20001068C06A0C790D3C04EB84051F24AC40AC
:100D3000A0430D790D3D05EB85050C68AC402043C3
:100D40001468E06208680A2812D31068C0680C783A
:100D50000A3C04EB44050724AC40A0430D780A3D4F
:100D600005EB45058C68AC4020431468E0600FE05B
:100D7000106800690C7804EB44050724AC40A043DC
:100D80000D7805EB45058C68AC4020431468206164
:100D90000868102802D00868112827D1174C10685D
:100DA000A0421ED11068806800F40000F0B91068FD
:100DB000806840F400001468A0600868102815D10D
:100DC0000F4800680F4CB0FBF4F000EB80004000CF
:100DD000009002E00098401E009000980028F9D191
:100DE00004E0906A40F020009062012300BF0020E0
:100DF00082F8240000BF184661E70000002401408B
:100E00003C00002040420F0001460868C06C70475B
:100E10002DE9F0410446002700250026A84614B914
:100E20000120BDE8F081A06810B1207D00B100BFB5
:100E3000A06A30B90020E06284F82400204600F067
:100E400089F82046FFF7EAFC0746A06A00F0100088
:100E5000002873D1002F71D1A06A20F4885040F08F
:100E60000200A062E16960680843217B40EA41001A
:100E70000643A068B0F5807F02D0A068012802D1A7
:100E80004FF4807000E000200543207D012811D13F
:100E9000207B38B9A069401E4FF4006141EA403020
:100EA000054307E0A06A40F02000A062E06A40F03D
:100EB0000100E0622068406820F46940284321680E
:100EC0004860206880682149084030432168886074
:100ED000A068B0F5807F02D0A068012802D14FF44D
:100EE000807000E00020B0F5807F03D1208A401E92
:100EF0004FEA00582068C06A20F4700040EA0800F9
:100F00002168C8622068806811490840B04208D151
:100F10000020E062A06A20F0020040F00100A06220
:100F200011E0A06A20F0020040F01000A062E06A28
:100F300040F00100E062012705E0FFE7A06A40F011
:100F40001000A062012738466BE70000FDF7E1FFC3
:100F5000FE0E1FFF10B586B00446002002900390DD
:100F6000049005901E492068884237D100BF1D4873
:100F7000806940F400701B4988610846806900F46C
:100F80000070019000BF00BF00BF0846806940F0BC
:100F9000040088610846806900F00400019000BFE9
:100FA00000BF00BF0846806940F00800886108461D
:100FB000806900F00800019000BF00BF3E20029051
:100FC0000320039002A9084800F028FC01200290A9
:100FD0000320039002A9054800F020FC06B010BDD4
:100FE000002401400010024000080140000C0140B4
:100FF000F8B504460D46002600200090002700F0BA
:10100000ABFD06462068806800F4807050B1A06A8D
:1010100040F02000A06200BF002084F8240000BF40
:101020000120F8BD2068406800F48070F8B920689D
:10103000C06A00F47000D0B912E0681C80B125B11C
:1010400000F08AFD801BA8420AD9A06A40F0040083
:10105000A06200BF002084F8240000BF0320E0E766
:101060002068006800F002000028E6D050E002206E
:1010700000F04AFE36490968B1FBF0F021680969C1
:10108000344A114091B92168C9689211114069B977
:1010900021680969304A114031B92168C968921143
:1010A000114009B9142117E0292115E021680969C7
:1010B000294A114021B92168C9689211114041B1F2
:1010C00021680969254A114029B92168C968114078
:1010D00009B9542100E0FC2100FB01F715E0681C70
:1010E00080B125B100F038FD801BA8420AD9A06A62
:1010F00040F00400A06200BF002084F8240000BF7C
:1011000003208EE70098401C00900098B842E6D378
:101110006FF0120021680860A06A40F40070A062BD
:101120002068806800F46020B0F5602F0DD1207B2E
:1011300058B9A06A20F48070A062A06A00F48050C0
:1011400018B9A06A40F00100A062002069E7000021
:101150003C00002024499224922449124992240000
:1011600070B50446002500BF94F82400012801D181
:10117000022070BD012084F8240000BF2046FFF744
:1011800077FB0546002D77D1A06A40F20121884304
:1011900040F48070A0623C492068884208D13B48F6
:1011A000006800F4702008B9012002E0002000E08F
:1011B000012078B1A06A20F48010A0622068406805
:1011C00000F4806000B3A06A20F4005040F4805026
:1011D000A06219E0A06A40F48010A0622B49091FA8
:1011E0002068884203D028492068884204D12748D3
:1011F000006800F4806000E0002028B1A06A20F4BC
:10120000005040F48050A062A06A00F4805020B1E9
:10121000E06A20F00600E06201E00020E06200BF2A
:10122000002084F8240000BFC01E216808602068E8
:10123000806800F46020B0F5602F16D11249206854
:10124000884208D11148006800F4702008B90120D4
:1012500002E0002000E0012038B12068806840F4FE
:10126000A000216888600CE006E02068806840F4F7
:1012700080102168886004E000BF002084F824000A
:1012800000BF284675E70000002801400424014003
:1012900070B50446002500BF94F82400012801D150
:1012A000022070BD012084F8240000BF2046FFF713
:1012B000B5FA05462DB9A06A20F4885040F0010027
:1012C000A06200BF002084F8240000BF2846E8E7A1
:1012D00070B50446002594F82100022803D00420AC
:1012E000A063012548E02068006820F00E00216816
:1012F00008602068006820F00100216808601F492C
:101300002068884201D1012026E01C491431206860
:10131000884201D110201FE01849283120688842F6
:1013200001D1801518E015493C312068884201D16F
:10133000801411E0114950312068884202D14FF4E5
:10134000803009E00D4964312068884202D14FF4B1
:10135000801001E04FF08070084908394860012092
:1013600084F8210000BF002084F8200000BF606BDB
:1013700010B12046616B8847284670BD08000240C6
:1013800070B50446E06B05682068066894F8401064
:10139000042088402840002846D006F00400002899
:1013A00042D02068006800F0200028B9206800685A
:1013B00020F004002168086057492068884201D164
:1013C000042027E0544914312068884201D140208C
:1013D00020E0514928312068884201D1001519E0E8
:1013E0004D493C312068884202D14FF4804011E0E1
:1013F000494950312068884202D14FF4802009E0E9
:10140000454964312068884202D14FF4800001E0F0
:101410004FF08060404908394860E06A00287AD07F
:101420002046E16A884776E094F840100220884020
:101430002840A0B306F0020088B32068006800F0DE
:10144000200040B92068006820F00A002168086088
:10145000012084F8210030492068884201D102200F
:1014600028E02D4914312068884201D1202021E054
:10147000294928312068884201D140151AE02649BF
:101480003C312068884202D14FF4005012E02249DA
:1014900050312068884203D14FF400300AE017E051
:1014A0001D4964312068884202D14FF4001001E0E8
:1014B0004FF0007018490839486000BF002084F8D8
:1014C000200000BFA06A30B32046A16A884722E00E
:1014D00094F84010082088402840E0B106F0080049
:1014E000C8B12068006820F00E002168086094F8F8
:1014F000401001208840E16B48600120A06384F81F
:10150000210000BF002084F8200000BF206B10B134
:101510002046216B884770BD08000240014600222A
:1015200009B901207047164B0868C01A1423B0FB94
:10153000F3F08000086412480838C863022081F87C
:1015400021000868026843F6F0708243D1E9010384
:101550001843CB6818430B6918434B6918438B69D0
:101560001843CB691843024308680260002088636F
:10157000012081F82100002081F8200000BFD1E780
:101580000800024070B5044600F0E6FA064625461B
:10159000681C10B104480078054400BF00F0DCFA74
:1015A000801BA842FAD370BD380000202DE9F0411D
:1015B00004460E460127002500BF2648007E01286C
:1015C00002D10220BDE8F08101202249087600BF47
:1015D0002068022813D14CF25030FFF72DFA90BB4F
:1015E0000120FFF7AFF94CF25030FFF725FA07461C
:1015F0001948006920F004001749086123E04CF203
:101600005030FFF719FAF0B94FF0FF303060A5689D
:1016100012E02846FFF7AAF94CF25030FFF70CFA17
:1016200007460D48006920F002000B4908610FB120
:10163000356007E005F58065D4E9021001EB8020F4
:10164000A842E6D800BF00BF00200249087600BFCC
:101650003846B7E720020020002002400348006916
:1016600040F08000014908610020704700200240DE
:101670002DE9FE4F05468B46174698460126002465
:101680000020029000BF2448007E012802D10220E1
:10169000BDE8FE8F01202049087600BF4CF2503093
:1016A000FFF7CAF9064686BB012D02D10120029040
:1016B00006E0022D02D10220029001E004200290F7
:1016C00000241EE02201B946C24648465146FEF7B4
:1016D00029FD80B20190022000FB04B00090019926
:1016E000FFF758F94CF25030FFF7A6F906460B48C1
:1016F000006920F001000949086106B104E0601C9E
:10170000C4B202988442DDDB00BF00BF0020024962
:10171000087600BF3046BBE72002002000200240D0
:1017200000200849096901F0800151B10649054AC4
:101730005160064951601146096901F0800101B10B
:10174000012070470020024023016745AB89EFCD9F
:1017500070B504464CF2503500BF281EA5F10105B6
:10176000FBD1022C0FD10221214800F0E7F900281B
:101770003DD100F0F1F91F4948600846407840F03B
:101780000100487033E0802C0ED180211A4800F00F
:10179000D5F960BB00F0E0F916494860084640788A
:1017A00040F04000487022E0402C0ED14021124809
:1017B00000F0C4F9D8B900F0CFF90E4948600846E6
:1017C000407840F01000487011E0B4F5004F0ED1A1
:1017D0004FF40041094800F0B1F940B900F0BCF9FC
:1017E000044948600846407840F00400487070BDE5
:1017F000000C01406400002000080140001001407E
:1018000010B5044604480068204020B10248046036
:101810002046FFF79DFF10BD140401402DE9F84755
:101820000346002294466EE14FF0010808FA02F4E4
:10183000D1F8008008EA0400A0427DD1DFF8DCA2E4
:10184000D1F80480A8EB0A09D0453AD014DCB8F1ED
:10185000030F50D009DCB8F1000F31D0B8F1010FFF
:101860001CD0B8F1020F49D120E0B8F1110F18D007
:10187000B8F1120F42D11EE0B9F5881F25D006DC61
:10188000B9F5803F20D0B9F5801F37D11AE0B9F5FE
:10189000001F18D0B9F5041F30D117E0D1F80CC0E3
:1018A0002DE0D1F80C8008F1040C28E0D1F80C8070
:1018B00008F1080C23E0D1F80C8008F10C0C1EE0B4
:1018C00000BF00BF00BF00BF00BF00BFD1F808804D
:1018D000B8F1000F02D14FF0040C0BE0D1F80880F2
:1018E000B8F1010F03D14FF0080C1C6102E04FF07A
:1018F000080C5C6103E04FF0000C00E000BF00BF8B
:10190000FF2801D8984601E003F104084646FF2865
:1019100002D84FEA820803E0A2F108084FEA8808DB
:101920004746D6F800804FF00F0909FA07F928EA70
:1019300009080CFA07F900E088E048EA0908C6F847
:101940000080D1F8048008F08058B8F1805F7DD124
:1019500000BFDFF8CC81D8F8188048F00108DFF824
:10196000C091C9F81880C846D8F8188008F0010856
:10197000CDF8008000BF00BF4FEAB9384FEA9209A6
:1019800058F829504FEA82784FEA18794FF00F083B
:1019900008FA09F825EA0805DFF88881434502D1ED
:1019A0004FF0000816E0DFF88081434502D14FF088
:1019B00001080FE0DFF87481434502D14FF00208BF
:1019C00008E0DFF86C81434502D14FF0030801E0E5
:1019D0004FF004084FEA82794FEA197908FA09F8BA
:1019E00048EA0505DFF84C814FEA920948F829508A
:1019F000D1F8048008F48038B8F5803F0AD1DFF8C8
:101A00003881D8F8008048EA0008DFF82C91C9F83E
:101A1000008009E0DFF82081D8F8008028EA00087B
:101A2000DFF81491C9F80080D1F8048008F4003878
:101A3000B8F5003F10D1DFF8008108F10408D8F8AC
:101A4000008048EA0008DFF8F09000E05AE009F171
:101A50000409C9F800800DE0DFF8DC8008F1040813
:101A6000D8F8008028EA0008DFF8CC9009F10409D2
:101A7000C9F80080D1F8048008F48018B8F5801FF8
:101A80000ED1DFF8B48008F10808D8F8008048EAE1
:101A90000008DFF8A49009F10809C9F800800DE0FA
:101AA000DFF8948008F10808D8F8008028EA0008D8
:101AB000DFF8849009F10809C9F80080D1F80480A2
:101AC00008F40018B8F5001F0ED1DFF86C8008F19B
:101AD0000C08D8F8008048EA0008DFF85C9009F1AB
:101AE0000C09C9F800800DE0DFF84C8008F10C0803
:101AF000D8F8008028EA0008DFF83C9009F10C09CA
:101B0000C9F80080521CD1F8008028FA02F8B8F118
:101B1000000F7FF489AEBDE8F887000000001110C7
:101B20000010024000080140000C0140001001407C
:101B3000001401400800014000040140024693687F
:101B40000B400BB1012000E0002070470AB1016199
:101B500001E00B0403617047014800687047000012
:101B6000300000200348006803490978084401490F
:101B700008607047300000203800002010B5084889
:101B8000006840F0100006490860032000F0A8F843
:101B9000002000F007F800F02BF8002010BD000036
:101BA0000020024070B504460E4800784FF47A7168
:101BB000B1FBF0F00C490968B1FBF0F5284600F0E4
:101BC0002FFD08B1012070BD102C07D20022214644
:101BD000501E00F047F80548046001E00120F2E7DC
:101BE0000020F0E7380000203C00002034000020F6
:101BF00008B500BF1148806940F001000F498861B5
:101C00000846806900F00100009000BF00BF00BFDF
:101C10000846C06940F08050C8610846C06900F0BD
:101C20008050009000BF00BF00BF0549486820F009
:101C3000E06040F00070486000BF08BD0010024046
:101C40000000014001460846002809DB00F01F03A0
:101C500001229A4043099B0003F1E023C3F80021CD
:101C600000BF70472DE9F05F80460D4616460027FD
:101C700002F05EF8074639462A46334601F007006F
:101C8000C0F1070ABAF1040F02D94FF0040A01E0CB
:101C9000C0F1070AD14600F1040ABAF1070F02D2D7
:101CA0004FF0000A01E0A0F1030AD4464FF0010A08
:101CB0000AFA09FAAAF1010A0AEA020A0AFA0CFA6D
:101CC0004FF0010B0BFA0CFBABF1010B0BEA030B12
:101CD0004AEA0B042146404602F032F8BDE8F09F84
:101CE00000BF00F00702064B19684FF6FF031940CA
:101CF000044B0B4343EA0221014B196000BF7047BC
:101D00000CED00E00000FA052DE9F04385B0064631
:101D10003BA30FCB01AC0FC43DA0006800904FF077
:101D20000008002500270024A146012E30D0022EF5
:101D300055D0102E5ED137484468006800F080709E
:101D400000B301A8C4F38341475C04F4803070B150
:101D500030484068C0F340401DF8008004F48030F3
:101D600040B12D48B0FBF8F000FB07F502E02B482E
:101D700007FB00F52748406800F48000B0F5800FAD
:101D800001D1A94603E068000321B0FBF1F932E07C
:101D90002048046A04F44070B0F5807F05D104F057
:101DA000020010B14FF4004918E004F44070B0F59F
:101DB000007F07D11748406A00F0020010B149F6D1
:101DC00040490BE004F44070B0F5407F06D1114863
:101DD000006800F4003008B14FF224490BE000F035
:101DE00093F90C494968C1F38131491C4900B0FBA2
:101DF000F1F900E000BF00BF484605B0BDE8F08340
:101E000002030405060708090A0B0C0D0E0F10103B
:101E1000010200000010024000127A0000093D009B
:101E2000F8B5044600260025207800F001000028BF
:101E30006BD000274348C06900F0805070B900BFE4
:101E40004048C06940F080503E49C8610846C069BA
:101E500000F08050009000BF00BF01273A480068A2
:101E600000F48070B0B93848006840F4807036499A
:101E70000860FFF771FE064606E0FFF76DFE801B67
:101E8000642801D90320F8BD2F48006800F4807051
:101E90000028F2D02B48006A00F440752DB3A088CA
:101EA00000F44070A84220D02648006A20F4407513
:101EB000012026490860002008602248056205F0DC
:101EC000010090B1FFF748FE064608E0FFF744FE28
:101ED000801B41F28831884201D90320D3E7194899
:101EE000006A00F002000028F0D01648006A20F4D2
:101EF00040706168084313490862012F04D1084605
:101F0000C06920F08050C86100BF207800F0020056
:101F1000022807D10B48406820F44040A1680843DC
:101F200008494860207800F01000102807D10548C3
:101F3000406820F48000E1680843024948600020BE
:101F4000A1E700000010024000700040400442423F
:101F500070B504460D460CB9012070BD5A480068A2
:101F600000F00700A8420ED25748006820F0070092
:101F70002843554908600846006800F00700A84259
:101F800001D00120E9E7207800F0020002281DD1ED
:101F9000207800F00400042805D14C48406840F443
:101FA000E0604A494860207800F00800082805D120
:101FB0004648406840F4605044494860434840689F
:101FC00020F0F000A168084340494860207800F004
:101FD000010078B36068012806D13C48006800F42D
:101FE000003090B90120B8E76068022806D1374870
:101FF000006800F0007040B90120AEE73348006887
:1020000000F0020008B90120A7E73048406820F03E
:102010000300616808432D494860FFF79DFD0646AF
:1020200009E0FFF799FD801B41F28831884202D90F
:10203000032092E707E02548406800F00C00616843
:10204000B0EB810FEDD12048006800F00700A842F6
:102050000ED91D48006820F0070028431A4908607F
:102060000846006800F00700A84201D0012074E78C
:10207000207800F00400042807D11448406820F4B8
:10208000E060E168084311494860207800F00800EA
:10209000082808D10D48406820F46050216940EAC2
:1020A000C1000A49486000F03FF808494968C1F397
:1020B0000311074A515CC840064908600648006899
:1020C000FFF770FD002048E70020024000100240AA
:1020D0001E9D00083C0000203400002001480068DC
:1020E000704700003C00002000B5FFF7F7FF0449EF
:1020F0004968C1F30221034A515CC84000BD000099
:10210000001002402E9D000800B5FFF7E7FF0449CC
:102110004968C1F3C221034A515CC84000BD0000B8
:10212000001002402E9D0008F0B585B00FF26C0C37
:102130009CE8E01001A8A0E8E0101CA52D6800951F
:1021400000210022002300240020194D696801F0BD
:102150000C05F5B1042D02D0082D19D101E0154868
:1021600019E001ADC1F38346AC5D01F4803555B192
:102170000F4D6D68C5F340451DF805200D4D6543B5
:10218000B5FBF2F302E00C4D04FB05F3184602E048
:1021900000BF084800BF00BF05B0F0BD0203040542
:1021A000060708090A0B0C0D0E0F101001020000A3
:1021B0000010024000127A0000093D00F8B5044604
:1021C0000CB90120F8BD207800F00100002878D07B
:1021D000F848406800F00C0004280CD0F54840682E
:1021E00000F00C00082811D1F248406800F480305B
:1021F000B0F5803F0AD1EF48006800F400300028B5
:102200005FD0606800285CD10120DBE700BF606818
:10221000B0F5803F06D1E748006840F48030E549DA
:10222000086028E0606858B9E248006820F480300F
:10223000E04908600846006820F4802008601AE041
:102240006068B0F5A02F0BD1DA48006840F4802018
:10225000D84908600846006840F4803008600AE009
:10226000D448006820F48030D249086008460068ED
:1022700020F48020086000BF606888B1FFF76CFC24
:10228000054606E0FFF768FC401B642801D90320DF
:1022900098E7C848006800F400300028F2D010E049
:1022A000FFF75AFC054606E0FFF756FC401B642882
:1022B00001D9032086E7BF48006800F400300028F9
:1022C000F2D1207800F00200022857D1B9484068C6
:1022D00000F00C0050B1B748406800F00C0008282E
:1022E00018D1B448406800F4803098B9B14800680B
:1022F00000F0020020B12069012801D0012061E72F
:10230000AC48006820F0F800616940EAC100A949C2
:10231000086033E02069E8B10120A7490860FFF7B1
:102320001BFC054606E0FFF717FC401B022801D9FD
:10233000032047E79F48006800F002000028F2D021
:102340009C48006820F0F800616940EAC1009949A2
:10235000086013E0002098490860FFF7FDFB054680
:1023600006E0FFF7F9FB401B022801D9032029E70B
:102370009048006800F002000028F2D1207800F0B8
:10238000080008282DD1A069B8B101208B49086048
:10239000FFF7E2FB054606E0FFF7DEFB401B0228E5
:1023A00001D903200EE78348406A00F002000028AC
:1023B000F2D0012001F0A6F913E000207F49086067
:1023C000FFF7CAFB054606E0FFF7C6FB401B0228E5
:1023D00001D90320F6E67748406A00F002000028A1
:1023E000F2D1207800F00400042873D1002771484E
:1023F000C06900F0805070B900BF6E48C06940F0FD
:1024000080506C49C8610846C06900F08050009057
:1024100000BF00BF01276A48006800F48070B0B9AF
:102420006748006840F4807065490860FFF794FBD6
:10243000054606E0FFF790FB401B642801D9032006
:10244000C0E65F48006800F480700028F2D000BF4A
:10245000E068012806D15748006A40F0010055495C
:10246000086227E0E06858B95248006A20F001008D
:10247000504908620846006A20F00400086219E02A
:10248000E06805280BD14B48006A40F00400494938
:1024900008620846006A40F0010008620AE0454808
:1024A000006A20F00100434908620846006A20F0F3
:1024B0000400086200BFE068A0B1FFF74DFB0546CD
:1024C00009E0FFF749FB401B41F28831884202D9FD
:1024D000032077E622E03748006A00F00200002877
:1024E000EFD012E0FFF738FB054608E0FFF734FBBA
:1024F000401B41F28831884201D9032062E62D4811
:10250000006A00F002000028F0D1012F05D129480F
:10251000C06920F080502749C86100BFE069C8B396
:102520002448406800F00C00082860D0E0690228C8
:1025300048D1002020490866FFF70EFB054606E05B
:10254000FFF70AFB401B022801D903203AE619488D
:10255000006800F000700028F2D1206AB0F5803FDA
:1025600007D11448406820F40030A168084311499D
:102570004860D4E9080108430E49496821F4741100
:1025800008430C49486001200B490866FFF7E4FA4C
:10259000054607E03DE0FFF7DFFA401B022801D9BE
:1025A00003200FE60348006800F000700028F2D016
:1025B0002FE000000010024000004242800442422E
:1025C00000700040002014490866FFF7C5FA054670
:1025D00006E0FFF7C1FA401B022801D90320F1E50C
:1025E0000E48006800F000700028F2D111E0E069A8
:1025F000012800D1E6E50948466806F48031206AE2
:10260000814204D106F47011606A814201D0012038
:10261000D8E50020D6E5000000004242001002404C
:1026200070B504462546681EB0F1807F01D30120B5
:102630000FE0681E4FF0E02148610F214FF0FF309E
:1026400001F07EFB00204FF0E02188610720086147
:10265000002070BD704700002DE9F0470446206857
:1026600005682068C668206847694FF00008C146C1
:1026700005F00F08B8F1000F0AD105F0200038B1BD
:1026800006F0200020B1204601F0A0F9BDE8F08757
:10269000B8F1000F6DD007F0010018B906F4907082
:1026A000002866D005F0010030B106F4807018B142
:1026B000E06B40F00100E06305F0040030B107F08A
:1026C000010018B1E06B40F00200E06305F0020089
:1026D00030B107F0010018B1E06B40F00400E06396
:1026E00005F0080030B107F0010018B1E06B40F0D0
:1026F0000800E063E06B68B305F0200028B106F045
:10270000200010B1204601F061F920684069C0F353
:102710008019E06B00F0080010B9B9F1000F22D069
:10272000204601F033F92068406900F04000B0B164
:102730002068406920F0400021684861606B50B11A
:102740001748616B4863606BFEF7C2FD10B1606BA8
:10275000416B88470CE02046FFF77CFF08E02046ED
:10276000FFF778FF04E02046FFF774FF0020E063E6
:102770008CE705F0800030B106F0800018B12046EB
:1027800001F048FA82E705F0400030B106F0400061
:1027900018B1204601F00AF978E700BF76E700009B
:1027A0007939000810B504460CB9012010BDA069A4
:1027B00000B100E000BF94F8390028B9002084F887
:1027C0003800204600F028F8242084F839002068DA
:1027D000C06820F400502168C860204601F04AF922
:1027E0002068006920F490402168086120684069F1
:1027F00020F02A00216848612068C06840F4005039
:102800002168C8600020E063202084F8390084F843
:102810003A000020CAE7000010B586B00446002048
:10282000029003900490059055492068884250D149
:1028300000BF5448806940F480405249886108468E
:10284000806900F48040019000BF00BF00BF0846CF
:10285000806940F0040088610846806900F0040047
:10286000019000BF00BF4815029002200390032092
:10287000059002A94448FEF7D1FF4FF48060029012
:1028800000200390049002A93F48FEF7C7FF3F488D
:102890003F4908600020486000213D488160802158
:1028A000C1600021016141618161C161FEF736FEB5
:1028B00008B1FEF745F800BF35486063446200BFC9
:1028C000002211462520FFF7CDF92520FFF7BAF9A0
:1028D00054E030492068884250D100BF2948C0697F
:1028E00040F480202749C8610846C06900F4802070
:1028F000019000BF00BF00BF0846806940F008009B
:1029000088610846806900F00800019000BF00BFA0
:1029100008150290022003900320059002A91E488A
:10292000FEF77CFF4FF400600290002003900490BB
:1029300002A91948FEF772FF1448283817490860A1
:10294000002048600021154881608021C16000217D
:10295000016141618161C161FEF7E0FD08B1FDF7F0
:10296000EFFF00BF0D486063446200BF00221146C4
:102970002720FFF777F92720FFF764F906B010BD8D
:102980000038014000100240000801405800024099
:102990009401002000480040000C0140D8010020B4
:1029A00070472DE9F84304460D4616461F464FF082
:1029B000000994F8390020285CD105B116B901202E
:1029C000BDE8F88300BF94F83800012801D1022047
:1029D000F6E7012084F8380000BF0020E0632120E2
:1029E00084F83900FFF7B8F88146A684E6842BE026
:1029F000E08C401EE084A068B0F5805F16D14B46A5
:102A0000002280212046009701F038F908B1032008
:102A1000D6E7A846B8F80000C0F30800216848606F
:102A2000206908B9AD1C0FE06D1C0DE04B4600227B
:102A300080212046009701F021F908B10320BFE76B
:102A400015F8010B21684860E08C0028D0D14B4676
:102A5000002240212046009701F010F908B1032020
:102A6000AEE7202084F8390000BF002084F8380049
:102A700000BFA5E70220A3E7704700BFFEE72DE9EE
:102A8000F04107460C4615461E462A2000F07EFC03
:102A9000384600F06AFC284600F067FC2B2000F066
:102AA00075FC204600F061FC304600F05EFC2C20F6
:102AB00000F06CFCBDE8F0812DE9FF4F85B0814648
:102AC0008A460020039083460798A0EB09040898E3
:102AD000A0EB0A06CDF80890CDF804A0002C01DD8B
:102AE000012705E00CB9002702E04FF0FF376442F0
:102AF000002E02DD4FF0010806E016B94FF0000885
:102B000002E04FF0FF386642B44201DD254600E0A6
:102B10003546002004901BE0129ADDE9011000F018
:102B20001EF8039820440390B3440398A84205DD9F
:102B30000398401B0390029838440290AB4504DD93
:102B4000ABEB050B0198404401900498401C0490A5
:102B5000691C04988842DFD309B0BDE8F08F70B5D6
:102B600004460D4616462B46224629462046FFF7C8
:102B700086FF304600F0F9FB70BD2DE9F0470646B0
:102B80000F4614461D46DDF820A06B1E621E394616
:102B90003046FFF774FFB8460AE0B14604E05046FD
:102BA00000F0E3FB09F10109A145F8D308F10108A0
:102BB000A845F2D3BDE8F0877047000010B5FFF7D5
:102BC000FBFF00224FF400718948FEF7BFFF64202D
:102BD000FEF7D8FC012251028548FEF7B7FF6420BA
:102BE000FEF7D0FC0122D1038148FEF7AFFF64203D
:102BF000FEF7C8FC112000F0C9FB7820FEF7C2FCEC
:102C0000CF2000F0C3FB002000F0B9FBC12000F092
:102C1000B6FB302000F0B3FBED2000F0B7FB6420E2
:102C200000F0ADFB032000F0AAFB122000F0A7FB90
:102C3000812000F0A4FBE82000F0A8FB852000F034
:102C40009EFB002000F09BFB792000F098FBCB203E
:102C500000F09CFB392000F092FB2C2000F08FFB51
:102C6000002000F08CFB342000F089FB022000F0F3
:102C700086FBF72000F08AFB202000F080FBEA2092
:102C800000F084FB002000F07AFB002000F077FBCE
:102C9000C02000F07BFB1D2000F071FBC12000F084
:102CA00075FB122000F06BFBC52000F06FFB33209A
:102CB00000F065FB3F2000F062FBC72000F066FBE0
:102CC000922000F05CFB3A2000F060FB552000F001
:102CD00056FB362000F05AFB782000F050FBB12064
:102CE00000F054FB002000F04AFB122000F047FBEC
:102CF000B62000F04BFB0A2000F041FBA22000F0C0
:102D00003EFB442000F042FB022000F038FBF220A2
:102D100000F03CFB002000F032FB262000F036FBE8
:102D2000012000F02CFBE02000F030FB0F2000F031
:102D300026FB222000F023FB1C2000F020FB1B20A0
:102D400000F01DFB082000F01AFB0F2000F017FB1D
:102D5000482000F014FBB82000F011FB342000F0F4
:102D60000EFB052000F00BFB0C2000F008FB0920F7
:102D700000F005FB0F2000F002FB072000F0FFFA37
:102D8000002000F0FCFAE12000F000FB002000F041
:102D9000F6FA232000F0F3FA242000F0F0FA0720DE
:102DA00000F0EDFA102000F0EAFA072000F0E7FA50
:102DB000382000F0E4FA472000F0E1FA4B2000F060
:102DC000DEFA0A2000F0DBFA132000F0D8FA062021
:102DD00000F0D5FA302000F0D2FA382000F0CFFA17
:102DE0000F2000F0CCFA292000F0D0FA10BD00002E
:102DF000000C01402DE9FF5F80468A4617469B463E
:102E00000F9D00200290CDF80080284605EBD07180
:102E1000C1F347042046E21704EB5272D210214658
:102E2000E31704EB5373DB10A4EBC3030BB10123D3
:102E300000E000231A446A430192A7F12000C7B2C0
:102E40000AEB0500431E08EB0400421E51464046B3
:102E5000FFF715FE002664E00C2D07D107EB4700B5
:102E6000324901EB8000805D03901BE0102D05D1FD
:102E70002F4800EB0710805D039013E0182D07D159
:102E800007EB47002B4901EB0010805D039009E040
:102E9000202D05D1284800EB8710805D039001E0CC
:102EA000BDE8FF9F4FF0000936E01098C8B9012037
:102EB00000FA09F00399084018B1584600F055FA95
:102EC00002E00E9800F051FA0298401CC0B2029045
:102ED000029890FBF4F104FB1100C8B900200290A5
:102EE0001DE0012000FA09F00399084020B15A467C
:102EF00051464046FFF733FE08F101080098A8EB61
:102F00000000A04204D1DDF800800AF1010A06E0C9
:102F100009F1010000F0FF09B9F1080FC5DB00BF9E
:102F2000761C0198864297D300BFB9E7B85D0008C8
:102F30002C620008DC7F00081C6800082DE9FE4FA9
:102F40008046894615469A46DDE90D470C9E27E0E6
:102F5000102C09D153462A4649464046CDE901473F
:102F6000009600F023F819E0182C09D153462A46A0
:102F700049464046CDE90147009600F091F80DE042
:102F8000202C09D153462A4649464046CDE90147FF
:102F9000009600F007F901E0BDE8FE8FAD1CA044EB
:102FA00028780028D4D100BFF6E700002DE9FE4FB5
:102FB0000646894692469B460D9C00962046E117A0
:102FC00004EB5171C9106143019105200290002565
:102FD0005FE005EB0510314911F810009AF8001078
:102FE000884254D105EB05102C4901EB4000407894
:102FF0009AF8011088424AD109EB0400431E3019A7
:10300000421E49463046FFF73AFD00273CE04FF0AC
:10301000000833E00E9898B905EB05101F4901EB45
:103020004000801CC05D012101FA08F1084018B180
:10303000584600F09AF91DE00C9800F096F919E056
:1030400005EB0510154901EB4000801CC05D012116
:1030500001FA08F1084020B15A4649463046FFF7C8
:103060007EFD761C0098301AA04203D1009E09F123
:10307000010906E008F1010000F0FF08B8F1080FAF
:10308000C8DB00BF781CC7B201988742BFD300BF1E
:103090006D1C029885429CD3BDE8FE8FAC91000860
:1030A0002DE9FE4F0646894692469B460D9C0096AA
:1030B0002046E11704EB5171C910614301911920B9
:1030C0000290002567E005EB850000EB45103449D0
:1030D00011F810009AF8001088425AD105EB8500CB
:1030E00000EB45102E4901EB400040789AF80110A2
:1030F00088424ED109EB0400431E3019421E494656
:103100003046FFF7BCFC002740E04FF0000837E0F6
:103110000E98A8B905EB850000EB4510204901EB9E
:103120004000801CC05D012101FA08F1084018B17F
:10313000584600F01AF91FE00C9800F016F91BE051
:1031400005EB850000EB4510154901EB4000801CA4
:10315000C05D012101FA08F1084020B15A464946F4
:103160003046FFF7FCFC761C0098301AA04203D1D1
:10317000009E09F1010906E008F1010000F0FF08D6
:10318000B8F1080FC4DB00BF781CC7B201988742B2
:10319000BBD300BF6D1C0298854294D3BDE8FE8F5F
:1031A000569200082DE9FE4F0646894692469B46F8
:1031B0000D9C00962046E11704EB5171C910614344
:1031C00001910720029000255FE005EB8510314951
:1031D00011F810009AF80010884254D105EB8510C0
:1031E0002C4901EB400040789AF8011088424AD1FE
:1031F00009EB0400431E3019421E49463046FFF7D2
:103200003EFC00273CE04FF0000833E00E9898B9F0
:1032100005EB85101F4901EB4000801CC05D0121BA
:1032200001FA08F1084018B1584600F09EF81DE078
:103230000C9800F09AF819E005EB8510154901EBA0
:103240004000801CC05D012101FA08F1084020B156
:103250005A4649463046FFF782FC761C0098301AE1
:10326000A04203D1009E09F1010906E008F1010026
:1032700000F0FF08B8F1080FC8DB00BF781CC7B228
:1032800001988742BFD300BF6D1C029885429CD332
:10329000BDE8FE8F909900082DE9FF4F85B00746E5
:1032A00091461D46DDE913A600200490304606EB4A
:1032B000D071C1F3470B002432E0281B401EC1B27D
:1032C0000A2001F0F5FFB9FBF0F00A21B0FBF1F2A2
:1032D00001FB1208049898B9681EA04210DDB8F1ED
:1032E000000F0BD10020CDE900A6029004FB0B706B
:1032F0002022129B0699FFF77DFD0FE0012004902C
:10330000002008F13001CAB2CDE900A6029004FB0A
:103310000B70129B0699FFF76DFD00BF601CC4B2D5
:10332000AC42CADB09B0BDE8F08F2DE9FE4F06467E
:103330000F4614469846DDE90D5ADDF830900FE04F
:10334000CDE9015ACDF800902278434639463046FF
:10335000FFF750FD284605EBD07106EB6106641CB3
:1033600020780028ECD1BDE8FE8F10B50446C4F3E8
:10337000072000F01FF8E0B200F01CF810BD10B5F7
:103380000446204600F016F810BD000010B50446B3
:1033900000224FF480410648FEF7D8FB204600F09B
:1033A00009F8012291030248FEF7D0FB10BD00008E
:1033B000000C014070B5044600251BE000222021CE
:1033C0000E48FEF7C3FB04F0800028B1012208215B
:1033D0000A48FEF7BBFB04E0002208210748FEF77D
:1033E000B5FB012220210548FEF7B0FB6006040E64
:1033F000681CC5B2082DE1DB70BD0000000C014067
:103400000EB50020009001900290344834490860C5
:1034100081153348816000210173012101758161AB
:103420004FF46021C16100202D49486007212C48DC
:103430000161FDF7EDFC08B1FDF782FA082000906C
:10344000012001900220029069462548FDF72CFCDE
:1034500008B1FDF775FA012000900220019069463D
:103460001F48FDF721FC08B1FDF76AFA0220009021
:103470000320019069461A48FDF716FC08B1FDF7D4
:103480005FFA032000900420019069461448FDF77C
:103490000BFC08B1FDF754FA0420009005200190C0
:1034A00069460F48FDF700FC08B1FDF749FA052011
:1034B00000900620019069460948FDF7F5FB08B128
:1034C000FDF73EFA1120009007200190694604485C
:1034D000FDF7EAFB08B1FDF733FA0EBD0024014009
:1034E000E400002000B585B0002001900290039018
:1034F000049000BF6048806940F010005E49886118
:103500000846806900F01000009000BF00BF00BFB7
:103510000846806940F0200088610846806900F014
:103520002000009000BF00BF00BF0846806940F047
:10353000040088610846806900F00400009000BF24
:1035400000BF00BF0846806940F008008861084657
:10355000806900F00800009000BF00BF002247F221
:1035600003014648FEF7F2FA00224FF2EC314448DC
:10357000FEF7ECFA00224FF480714248FEF7E6FABB
:1035800047F20300019001200290002003900220E6
:10359000049001A93948FEF741F94FF40040019029
:1035A000394802900020039001A93448FEF736F90B
:1035B0000120019000200290039001A93148FEF7FC
:1035C0002DF9C0200190304802900020039001A9FD
:1035D0002C48FEF723F94FF401600190002002907F
:1035E000039001A92548FEF719F902200190264809
:1035F00002900020039001A92148FEF70FF94FF235
:10360000EC300190012002900020039002200490F1
:1036100001A91B48FEF702F94FF4807001900120C8
:103620000290002003900220049001A91548FEF7A3
:10363000F5F81020019000200290039001A9104895
:10364000FEF7ECF8002211460720FEF70BFB0720DF
:10365000FEF7F8FA002211461720FEF703FB1720A9
:10366000FEF7F0FA002211462820FEF7FBFA282088
:10367000FEF7E8FA05B000BD00100240001001405E
:10368000000C0140000801400000211010B50B485B
:103690000B4908604FF416504860002108488160CB
:1036A000C16001610C21416100218161C161FFF7AD
:1036B00079F808B1FDF744F910BD00000038014069
:1036C0001401002010B50B480B4908604FF4E1309D
:1036D0004860002108488160C16001610C2141619E
:1036E00000218161C161FFF75DF808B1FDF728F99C
:1036F00010BD0000004800405401002000BFFEE75C
:103700007047704708B508490968C9084FF47A72CC
:10371000B1FBF2F14143009100BF00BF00994A1E86
:1037200000920029F9D108BD3C00002010B50146E7
:103730001B4801700078AA2802D10020194A107095
:1037400017480278174803780078401C154C207001
:103750001548C254C07B552820D10020134A107050
:1037600000BF07E0104A125C104B1B781A440F4B45
:103770001A70401C0E28F5DB0B48807B0B4A127830
:10378000904208D1002004E0074A125C084B1A540A
:10379000401C1028F8DB0120064A107010BD000004
:1037A00015000020170000208000002016000020D7
:1037B0007000002014000020704700000020014924
:1037C000087070476400002010B5FEF7CBF910BDFB
:1037D00000B593B0282109A8FCF7BBFC142104A86C
:1037E000FCF7B7FC002000900190029003900120AC
:1037F000099000040A9000200B9001200D900220F7
:103800001090C10311914FF4E011129109A8FEF735
:10381000D5FC08B1FDF794F80F2004900220059024
:10382000002006904FF4806007900020089002214D
:1038300004A8FEF78DFB08B1FDF782F80220009086
:10384000800302906846FEF7EBFA08B1FDF778F8BE
:1038500013B000BD1148006840F001000F49086036
:10386000084640680E4908400C4948600846006810
:103870000C490840094908600846006820F4802087
:1038800008600846406820F4FE0048604FF41F00BE
:103890008860C803044908607047000000100240B7
:1038A0000000FFF8FFFFF6FE08ED00E02DE9FF4104
:1038B00080460F46AA2600242146641C0DF80160AC
:1038C00000262146641C0DF801603E462146641C1A
:1038D0000DF8016008F0FF0635462146641C0DF81E
:1038E0000160C8F307262146641C0DF80160B81971
:1038F0002844AA30C6B200252146641C0DF80150A8
:103900002146641C0DF801502046611CCCB20DF814
:1039100000502046611CCCB20DF800502046611CBE
:10392000CCB20DF800502046611CCCB20DF800500E
:103930002046611CCCB20DF800502046611CCCB270
:103940000DF800502046611CCCB20DF80050204606
:10395000611CCCB20DF8006055262046611CCCB22B
:103960000DF800601423102269460248FFF719F889
:10397000BDE8FF811401002070B505466C6A002087
:10398000E085E0842046FEF765FE70BD0168C968E9
:1039900021F490710268D1600168496921F0010148
:1039A00002685161202180F83A10704710B5044632
:1039B0002068C06820F040002168C860202084F89A
:1039C00039002046FFF758F8002010BD70B50446B6
:1039D00094F83A0022284AD1A068B0F5805F13D14C
:1039E000A56A206940B920684068C0F308002880B3
:1039F000A06A801CA06219E020684068C0B22880DC
:103A0000A06A401CA06211E0206938B920684068B3
:103A1000C1B2A26A501CA062117007E02068406821
:103A200000F07F01A26A501CA0621170E08D401E60
:103A300080B2E085C8B92068C06820F02000216805
:103A4000C8602068C06820F480702168C860206861
:103A5000406920F0010021684861202084F83A0084
:103A60002046FEF79DFF002070BD0020FCE70220ED
:103A7000FAE7000070B504462168096921F4405155
:103A8000E2681143226811612269A16811436269E9
:103A900041EA02052168C96841F20C629143294359
:103AA0002268D1602168496921F44071A2691143FB
:103AB00022685161564A2168914254D1FEF724FB95
:103AC00000EBC00101EB001162689200B1FBF2F162
:103AD00000EBC00202EB001263689B00B2FBF3F242
:103AE0006423B2FBF3F202EBC20303EB0212A1EB7D
:103AF0008201322202EB01116422B1FBF2F101F0EA
:103B0000F00100EBC00202EB001263689B00B2FB05
:103B1000F3F26423B2FBF3F201EB021200EBC001FB
:103B200001EB001163689B00B1FBF3F100EBC003F4
:103B300003EB00136668B600B3FBF6F36426B3FB31
:103B4000F6F303EBC30606EB0313A1EB8301322369
:103B500003EB01116423B1FBF3F101F00F011144F8
:103B60002268916053E0FEF7BFFA00EBC00101EB61
:103B7000001162689200B1FBF2F100EBC00202EBAF
:103B8000001263689B00B2FBF3F26423B2FBF3F212
:103B900002EBC20303EB0212A1EB8201322202EB21
:103BA00001116422B1FBF2F101F0F00100EBC0025F
:103BB00002EB001263689B00B2FBF3F26423B2FBDA
:103BC000F3F201EB021200EBC00101EB001163689C
:103BD0009B00B1FBF3F100EBC00303EB001366683D
:103BE000B600B3FBF6F36426B3FBF6F303EBC306B0
:103BF00006EB0313A1EB8301322303EB01116423D2
:103C0000B1FBF3F101F00F0111442268916070BD26
:103C100000380140014691F8390021282CD18868EC
:103C2000B0F5805F0FD10A6A1088C0F308000B68F6
:103C30005860086918B9086A801C086209E0086AB7
:103C4000401C086205E00B6A581C086218780B6873
:103C50005860C88C401E80B2C88458B90868C068D3
:103C600020F080000B68D8600868C06840F0400011
:103C70000B68D860002070470220FCE72DE9F04176
:103C800004460D4617469846069E21E0701CF8B182
:103C90002EB1FDF761FFA0EB0800B04218D92068F3
:103CA000C06820F4D0702168C8602068406920F0A6
:103CB000010021684861202084F8390084F83A0026
:103CC00000BF002084F8380000BF0320BDE8F08169
:103CD000206800682840A84201D1012000E00020AF
:103CE000B842D3D00020F1E710B50348FEF7B4FC8A
:103CF000012000F00DF810BD1401002010B502489D
:103D0000FEF7AAFC10BD00005401002000BFFEE732
:103D100030B50446012C08D1044800680568034802
:103D200000684568E8B2FFF701FD30BD14010020CE
:103D300002480068C0F30220704700000CED00E06C
:103D400010B5002804DB0A07130E054A135406E0D9
:103D50000A07140E034A00F00F031B1FD45410BDB2
:103D600000E400E018ED00E002E008C8121F08C1FE
:103D7000002AFAD170477047002001E001C1121FEC
:103D8000002AFBD17047000010B56420FCF78CFEC0
:103D9000344908683449FCF76FFC05D93149086893
:103DA0000021FCF75FFC07D82E48006A40F601614D
:103DB00008432C49086251E02A4948682A49FCF71F
:103DC0005BFC05D9274948680021FCF74BFC07D864
:103DD0002448006A40F602610843224908623DE037
:103DE000204988682049FCF747FC05D91D498868A7
:103DF0000021FCF737FC07D81A48006A40F6046136
:103E000008431849086229E01649C8681649FCF7B2
:103E100033FC05D91349C8680021FCF723FC07D8F7
:103E20001048006A40F6086108430E49086215E030
:103E30000C4908690C49FCF71FFC05D909490869B8
:103E40000021FCF70FFC06D80648006A40F46160C8
:103E50000449086202E00020024908620148006A41
:103E600010BD00004000002000007A452DE9F84F09
:103E700081468A4840688A494861884880688861E4
:103E800086480069C86185484069086283480068BF
:103E900008638248016882484163B9F1010F77D114
:103EA0008048407802280CD17D4A51695068FCF75F
:103EB000ADF900907A4A116A5068FCF7A7F90646F6
:103EC00031E07848407803280CD1754A51699068F0
:103ED000FCF79CF90090724A116A9068FCF796F919
:103EE000064620E06F48407804280CD16C4A51699E
:103EF000D068FCF78BF90090694A116AD068FCF72A
:103F000085F906460FE06748407805280BD1644ADA
:103F100051691069FCF77AF90090614A116A1069D9
:103F2000FCF774F906460098FCF710FB0FFA80FACC
:103F30003046FCF70BFB0FFA80FB51465A4800F065
:103F4000BFF804465946594800F0BAF805465849A2
:103F50000098FCF791FB26D84FF07E513046FCF7D5
:103F600081FB04D849462046FFF7A0FC82E04FF0D1
:103F700080413046FCF780FB10D8601941F288314F
:103F8000884206DB494641F28830FFF78FFC71E03A
:103F90007CE060194946FFF789FC6BE04946204602
:103FA000FFF784FC66E042490098FCF75BFB29D2EE
:103FB00000210098FCF760FB24D800213046FCF774
:103FC00051FB04D849462046FFF770FC52E04FF001
:103FD0007E513046FCF750FB0FD8601941F2883112
:103FE000884205DB494641F28830FFF75FFC41E03B
:103FF00060194946FFF75AFC3CE049462846FFF75E
:1040000055FC37E000210098FCF72CFB0ED20098FD
:10401000FCF7C9FA07460022264BFCF7EFFA05D851
:10402000494640F6B830FFF741FC23E00098FCF722
:10403000BAFA074600221F4BFCF7C8FA09D2002142
:1040400040F6B830FFF732FC0021062000F0AEF851
:1040500010E00098FCF7A7FA07460022164BFCF781
:10406000CDFA07D8012140F6B830FFF71FFC002039
:104070000C4948710A49C8691049FCF7FDFA0AD889
:10408000002140F6B830FFF711FC04E0002140F6B3
:10409000B830FFF70BFCBDE8F88F000040000020AF
:1040A0009000002018000020CC000020D800002044
:1040B0000000A0400000E0BF0000E03F00008C4294
:1040C00030B50246938893B113890B441BB2138118
:1040D000B2F90830642B02DD6423138107E0B2F9E2
:1040E000083013F1640F02DA6FF063031381B2F941
:1040F0000430B2F908406343B2F9024004FB0133D3
:10410000B2F90640B2F90A504D1B04FB053318B250
:10411000B0F57E7F02DD4FF47E7002E0002800DA09
:10412000002000EBC0039B000A2493FBF4F303F58B
:10413000FA6318B2518130BD10B504461948407970
:1041400050B9012017494871FDF706FD164908606E
:1041500014480471002010BDFDF7FEFC12490968E7
:10416000401AB0F5FA6F08D30E484079012804D1FF
:1041700002200C4948710120EDE7FDF7EDFC0A49EA
:104180000968401A41F27071884209D305484079A4
:10419000022805D1FDF7E0FC034908600220DAE7B8
:1041A00000BFD8E7180000202800002070B50446A2
:1041B0000D46012D42D1072C3FD2DFE804F03E042A
:1041C0000A10161D2300012202213F48FDF7BEFC04
:1041D00033E0012211033D48FDF7B8FC2DE0012238
:1041E00051033A48FDF7B2FC27E000224FF48071FA
:1041F0003748FDF7ABFC20E0012211463248FDF7BD
:10420000A5FC1AE0012202212F48FDF79FFC0122A4
:1042100011032E48FDF79AFC012251032B48FDF7AC
:1042200095FC00224FF480712948FDF78FFC012294
:1042300011462548FDF78AFC00BF44E0072C41D217
:10424000DFE804F040040A11181E240000220221B5
:104250001D48FDF77BFC35E000224FF480511B48E0
:10426000FDF774FC2EE000224FF400511748FDF7D3
:104270006DFC27E0012211021548FDF767FC21E0E3
:10428000002201211048FDF761FC1BE00022022101
:104290000D48FDF75BFC00224FF480510B48FDF701
:1042A00055FC00224FF400510848FDF74FFC012255
:1042B00011020748FDF74AFC002201210248FDF7E0
:1042C00045FC00BF00BF70BD00100140000C014064
:1042D0000008014001B586B005200590FDF73CFCC3
:1042E0000499401A64287DD3FDF736FC04900698A3
:1042F000002878D0FE484078062818D2DFE800F081
:1043000003BB18467799FB4840680290FCF737F9E1
:104310000390202000214FF6E0720223CDE9002116
:104320000290682105984830039AFEF7B5FFE8E04F
:1043300000201821CDE9000147F67C53EEA2C121EF
:10434000029005984430FEF7F9FD00201821CDE9D0
:1043500000010346EAA2C121029005987430FEF7DD
:10436000E4FFE44840680290FCF709F9039020203C
:1043700000214FF6E0720223CDE90021029068216E
:1043800005984830039AFEF787FFBAE0002018210D
:10439000CDE9000147F67C53DBA2C12102900598CC
:1043A0004430FEF7CBFD00201821CDE90001034683
:1043B000D3A2C121029005987430FEF7B6FFCD4814
:1043C00080680290FCF7DBF80390202000214FF674
:1043D000E0720223CDE9002102906821059848305F
:1043E000039A01E008E28DE0FEF756FF89E0002025
:1043F0001821CDE9000147F67C53C5A2C1210290E6
:1044000005984430FEF79AFDBA48C0680290FCF760
:10441000B6F80390202000214FF6E0720223CDE988
:1044200000210290682105984830039AFEF734FF76
:1044300067E000201821CDE9000147F67C53B7A2C0
:10444000C121029005984430FEF778FDA948006923
:104450000290FCF794F80390202000214FF6E072C0
:104460000223CDE900210290682105984830039A83
:10447000FEF712FF45E09E48007920B19C48007984
:104480009B4948701BE00220994948700020182180
:10449000CDE9000147F67C5397A2C121029005980F
:1044A0004430FEF74BFD00201821CDE90001034602
:1044B00093A2C121029005987430FEF736FF0020C8
:1044C0001821CDE9000147F67C5397A212210290F2
:1044D00005984830FEF732FD864840680290FCF7A8
:1044E0004EF80390202000214FF6E0720223CDE920
:1044F00000210290682105984830039AFEF7CCFE0F
:1045000000BF00BF069840B90020F0234FF4A0720E
:1045100001460090FEF731FBC5E2069801287CD1E8
:1045200000201821CDE9000147F67C5380A212211A
:1045300002900598FEF702FD6D48807803280CD1A3
:1045400000201821CDE9000147F67C537AA2122100
:10455000029005984830FEF7F1FC00201821CDE9C3
:10456000000147F67C5376A2122102900598A830EC
:10457000FEF7E4FC5F48406A0290FCF700F8039005
:104580002020002147F67C520223CDE90021029031
:104590000E210598F030039AFEF77EFE00202021C0
:1045A000CDE9000147F67C5367A20E2102900598E1
:1045B00000F58970FEF7C2FC00202021CDE9000142
:1045C00047F67C5361A2552102900598FEF7B6FC90
:1045D00000202021CDE9000147F67C535DA2752122
:1045E00002900598FEF7AAFC00202021CDE90001E9
:1045F0004FF6E07354A26821029005986C30FEF7E4
:104600009DFC00202021CDE9000147F67C5353A2F8
:10461000552102900598A03000E0EEE0FEF78EFCF8
:1046200000202021CDE9000147F67C5349A27521E5
:1046300002900598A030FEF781FC2E484069029058
:10464000FBF79DFF2022039000204FF6E07102232C
:10465000CDE90102009168210598F030039AFEF738
:104660001BFE00202021CDE900014FF6E07336A2A9
:1046700068210290059800F58970FEF75FFC002024
:104680001821CDE9000147F67C5336A2C1210290E2
:1046900005980A30FEF752FC00201821CDE90001F0
:1046A00047F67C5331A2C12102900598A830FEF74D
:1046B00045FC1048006B0290FBF761FF039020203F
:1046C000002147F67C520223CDE900210290C1214E
:1046D0000598F030039AFEF7DFFD00202021CDE998
:1046E000000147F67C5323A2C1210290059843E0C4
:1046F0001800002090000020D6C6C0E40000000092
:104700002020202000000000D6C6C8C800000000FD
:10471000BCD3CAAAD6C6C0E400000000BFECCBD907
:10472000D6C6C0E400000000B4FDBBFA00000000E3
:10473000D7B4CCAC00000000D4CBD0D00000000037
:10474000CBAECEC200000000A1E60000C9E8B6A8CA
:1047500000000000CEC2B6C800000000B5B1C7B06E
:1047600000000000C4A3CABD00000000CAAAB6C869
:10477000000000002500000000F58970FEF7D5FD5F
:104780004FF6E07000234FF4A0723C2100901846D1
:10479000FEF792F94FF6E07000234FF4A0723D212E
:1047A00000901846FEF788F94FF6E07000234FF4AA
:1047B000A0723E2100901846FEF77EF94FF6E07099
:1047C00000234FF4A072B42100901846FEF774F94C
:1047D0004FF6E07000234FF4A072B5210090184608
:1047E000FEF76AF94FF6E07000234FF4A072B6218D
:1047F00000901846FEF760F955E106980228FBD1B3
:1048000000201821CDE9000147F67C53AFF2E00209
:10481000122102900598FEF791FBA44880780328A6
:104820000DD000201821CDE9000147F67C53AFF2EE
:1048300008121221029005984830FEF77FFB0020F5
:104840001821CDE9000147F67C53AFF20C1212217A
:1048500002900598A830FEF771FB9548406A0290D7
:10486000FBF78DFE03902020002147F67C520223A7
:10487000CDE9002102900E210598F030039AFEF751
:104880000BFD00202021CDE9000147F67C53AFF25B
:1048900048120E210290059800F58970FEF74EFB34
:1048A00000202021CDE9000147F67C53AFF26412CD
:1048B000552102900598FEF741FB00202021CDE90B
:1048C000000147F67C53AFF27412752102900598EF
:1048D000FEF734FB00202021CDE900014FF6E07304
:1048E000AFF29C126821029005986C30FEF726FB0F
:1048F00000202021CDE9000147F67C53AFF2A4123D
:10490000552102900598A030FEF718FB00202021C9
:10491000CDE9000147F67C53AFF2C8127521029031
:104920000598A030FEF70AFB614840690290FBF74A
:1049300026FE0390202000214FF6E0720223CDE9ED
:104940000021029068210598F030039AFEF7A4FC3C
:1049500000202021CDE900014FF6E073AFF21822CC
:1049600068210290059800F58970FEF7E7FA0020AB
:104970001821CDE9000147F67C53AFF21822C1217E
:10498000029005980A30FEF7D9FA48484078E8B90D
:1049900002204649487000201821CDE9000147F661
:1049A0007C53AFF2AC22C121029005984430FEF74F
:1049B000C5FA00201821CDE900010346AFF2C0225C
:1049C000C121029005987430FEF7AFFC0020182139
:1049D000CDE9000147F67C53AFF27022C12102906D
:1049E0000598A830FEF7AAFA3148006B0290FBF751
:1049F000C6FD20220390002047F67C510223CDE91A
:104A000001020091C1210598F030039AFEF744FCA1
:104A100000202021CDE9000147F67C53AFF2AC2203
:104A2000C1210290059800F58970FEF77EFC4FF6D3
:104A3000E07000234FF4A0723C2100901846FEF76E
:104A40003BF84FF6E07000234FF4A0723D21009038
:104A50001846FEF731F84FF6E07000234FF4A072CD
:104A60003E2100901846FEF727F84FF6E07000232D
:104A70004FF4A072B42100901846FEF71DF84FF6CF
:104A8000E07000234FF4A072B52100901846FEF7A5
:104A900013F84FF6E07000234FF4A072B621009097
:104AA0001846FEF709F807B000BD00001800002006
:104AB000900000201FB5FCF733FE01200090044851
:104AC00002900120039003496846FCF76FFD1FBD6B
:104AD00000EC01081000002030B503460B4C042503
:104AE00005FB03440A4D2C6000200BE0084C2468B1
:104AF000246841F82040064C2468241D044D2C6095
:104B0000441CA0B29042F1DB30BD000000EC010873
:104B10000C0000202DE9F04105460C461646FCF736
:104B2000FFFD0D48042101FB05000C49086000272A
:104B30000CE022460023094801680220FCF798FD9A
:104B400006480068001D054908607F1CB742F0DB7D
:104B5000FCF784FDBDE8F08100EC01080C000020AA
:104B600010B501211C48FCF7E9FF01280BD11B48B7
:104B7000007F40F00100194908770846006A40F4B8
:104B8000626008620AE01548006A20F020001349BC
:104B900008620846007F00F0FE00087704211048F4
:104BA000FCF7CCFF01280BD10C48007F40F002003D
:104BB0000A4908770846006A40F4646008620AE01F
:104BC0000648007F00F46D60044908770846006AD3
:104BD00020F0D000086210BD000801404000002015
:104BE000000C014010B50446012C04D102210D48EF
:104BF000FCF7A4FF10BD022C04D1A1030A48FCF766
:104C00009DFFF7E7032C04D140210848FCF796FFED
:104C1000F0E7042C04D180210448FCF78FFFE9E77A
:104C20000020E7E7000C01400010014000080140AF
:104C300000487047180000202DE9F0478AB006466A
:104C400089469246B9F1000F46D170480068B042DB
:104C500042D36E48D0F85402B0423DD2324696213B
:104C60006A4800F007FA04462046002100F02CFBB9
:104C70006749086008460068FBF795FC634ACDE980
:104C80000601611C52F8211052F82420881AFBF703
:104C900050FC074688465D4951F82410701AFBF70E
:104CA00048FC00225B4BCDE90001FBF75CFB3A4678
:104CB0004346CDE90201FBF7C8FBCDE90401DDE97C
:104CC0000623FBF7A9FACDE90801FBF7AFFC52492F
:104CD00008600AB0BDE8F087B9F1010F7ED14F49F5
:104CE0005046FBF741FA0746FBF749FC0521B0FBAC
:104CF000F1F54B4800EB85100068B04249D34848B5
:104D000000EB8510C06BB04243D2454901EB8510E2
:104D10003246102100F0AEF904462046012100F091
:104D2000D3FA3B49086008460068FBF73CFCCDE934
:104D300006013B4901EB8512611C52F82110384AEB
:104D400002EB851252F82420881AFBF7F2FBCDE91A
:104D50000201334901EB851151F82410701AFBF759
:104D6000E8FB074600222B4BFBF7FDFACDE90001DB
:104D7000DDE90223FBF769FBCDE90401DDE9062348
:104D8000FBF74AFACDE90801FBF750FC224908601D
:104D90009FE7E0B2012100F097FA1D49086008463C
:104DA0000068FBF700FC074688461D4901EB8511AA
:104DB00049681B4A02EB85121268881AFBF7B9FB97
:104DC000CDE90401164901EB85110968701AFBF75A
:104DD000B0FB00220F4BCDE9000100E014E0FBF72F
:104DE000C2FACDE90201DDE90423FBF72EFB3A46C6
:104DF0004346CDE90601FBF70FFACDE90801FBF7C1
:104E000015FC0549086064E7002062E7A058000827
:104E1000040000200000E03F080000200000A04047
:104E2000F85A00081E20074948800A20888001207F
:104E3000C8801E20044948800A2088800120C8803C
:104E400070470000CC000020D800002000B587B0DB
:104E5000072269460020FFF73FFE00985A2819D123
:104E6000194901984870029808710398FBF75CFB98
:104E7000164948600498FBF757FB14498860059869
:104E8000FBF752FB1149C8600698FBF74DFB0F4931
:104E9000086114E002200C49487008710C480B4965
:104EA00048600C49094881600949C16001610A48AC
:104EB0000649086301460548416300F0AFFC022043
:104EC0000149887007B000BD180000209000002044
:104ED0000000C841000090410000204110B500F0E2
:104EE00005F8014810BD00006400002010B55D48C1
:104EF000407810B101205B4908725A48407800F0B0
:104F0000030038B30FE0FCF727FE56494968401A02
:104F100040F6B831884206D35248407840F002004B
:104F20005049487005E002214F48FCF707FE002871
:104F3000E9D000BF4B484078012805D100204949FD
:104F40004870012008708CE000204649487002201B
:104F5000087086E04348407800F00C0040B30FE052
:104F6000FCF7FAFD3F494968401A40F6B8318842DB
:104F700006D33C48407840F008003A49487006E0C3
:104F80004FF400413948FCF7D9FD0028E8D000BFB4
:104F900034484078042805D1002032494870032065
:104FA00008705EE000202F4948700420087058E027
:104FB0002C48407800F0300038B30FE0FCF7CCFD0F
:104FC00028494968401A40F6B831884206D3254836
:104FD000407840F020002349487005E040212448F3
:104FE000FCF7ACFD0028E9D000BF1E48407810282F
:104FF00005D100201B4948700520087031E00020D1
:1050000018494870062008702BE01648407800F0D8
:10501000C00000B30FE0FCF79FFD12494968401A39
:1050200040F6B831884206D30E48407840F0800000
:105030000C49487005E080210D48FCF77FFD0028F1
:10504000E9D000BF07484078402805D10020054935
:1050500048700720087004E00020024948700820CA
:10506000087010BD64000020000C014000100140D9
:1050700000080140F0B503460E460024751E0027C7
:1050800053F82400904201D8E0B2F0BD53F8250057
:10509000904201D3E8B2F8E71FE06019410853F8E5
:1050A0002100904200D11AE053F82100904205D926
:1050B000481C53F82000904200D210E053F8210021
:1050C000904201D20D4600E00C46384607F1010C33
:1050D0000CF0FF07B04200DD01E0AC42DDD300BFC1
:1050E000AC4201D90020D0E7C8B2CEE770B5044683
:1050F0005548407910B92046FFF71EF852484079CC
:10510000002824D0022C23D14F48007902281ED138
:105110000121FFF74BF82046FFF70EF80546012D59
:1051200001D0022D0BD100250220484981F8390019
:105130000120FEF79BFE01210846FFF737F82046C5
:10514000FEF7FAFF022802D1404981F8390079E0E0
:10515000032C23D13C480079032873D10121084650
:10516000FFF724F82046FEF7E7FF0546012D01D0A2
:10517000022D0AD100250220344981F8390001218D
:10518000FFF714F80120FEF771FE2046FEF7D4FF6A
:10519000022802D12D4981F8390053E0042C2BD18B
:1051A0002948007904284DD101210320FEF7FEFF94
:1051B0002046FEF7C1FF0546012D01D0022D12D178
:1051C00000250220214981F839000121FEF7EEFF78
:1051D00001210420FEF7EAFF0120FEF747FE01212E
:1051E0000320FEF7E3FF2046FEF7A6FF022802D1C8
:1051F000164981F8390025E0052C23D112480079A1
:1052000005281FD101210320FEF7D0FF2046FEF71D
:1052100093FF0546012D01D0022D12D10025022059
:105220000A4981F839000121FEF7C0FF0120FEF78D
:105230001DFE01210420FEF7B9FF01210320FEF726
:10524000B5FF00BF70BD00001800002090000020D6
:1052500008B5FCF793FCFEF7BBFAFEF743F9FEF73F
:10526000CFF8FEF713FAFEF72DFAFFF7EFFD0E4821
:105270000E49096808600D480068C06840F02000C9
:105280000A490968C860FFF7CDFDFDF797FC0020CB
:10529000F0234FF4A07201460090FDF76EFC01E090
:1052A00000F046F8FCE70000DFFFFFEF14010020EC
:1052B00010B50246012000E050430B1EA1F101048D
:1052C000E1B2F9D110BD00002DE9F35F8B46BBF1CF
:1052D000000F11D10098FBF72CF980460022104BEB
:1052E000FBF741F8064600220E4BFBF736F8044662
:1052F000FBF79CF9824610E00098FBF71AF9064686
:105300000022094BFBF72FF804460022074BFAF75F
:1053100083FF8046FBF78AF982465046BDE8FC9F32
:105320000000F03F00004440000014400000344002
:1053300010B500F073F8FEF727FDFFF711FC3348B6
:105340004068334948613148806888612F48C068A7
:10535000C8612E48006908622C48406948622B48A1
:105360000068086329480168294841632948807812
:10537000032813D127494878FFF7B8FE4FF400619E
:105380002548FCF7DBFB20B901210520FEF70EFFC5
:105390000DE000210520FEF709FF08E000201D496F
:1053A0004871FEF763FD00210620FEF7FFFE194855
:1053B000007838B917488078032803DB0120FEF70E
:1053C00089FF17E0FFF734FC0078012803D10220A1
:1053D000FEF780FF0EE0FFF72BFC8078022802D159
:1053E000FEF778FF06E0FFF723FC8078012801D163
:1053F000FEF770FF0748407830B9FFF719FC807856
:1054000010B90020FEF766FF10BD0000400000202C
:1054100090000020180000200010014070B5FFF738
:105420005DFD0446207801282AD1F64880780128BD
:1054300017DB0120F349087008464078052807DA91
:1054400008464078401C487008464078087118E0CB
:105450000020EC4908700846407808710220487026
:105460000FE0E848807803280BD1E648C07840B9BF
:10547000E4484078062804D00120E249C87000E0E2
:1054800000BFE0484078801E052820D2DFE800F009
:10549000030A11171E000020DB4908700220DB49B7
:1054A000087014E00120D84908700220D74908701C
:1054B0000DE00220D4490870D449087007E00320A9
:1054C000D14908700220D149087000E000BF00BF38
:1054D000207803284DD1CB48407802281EDBC948EC
:1054E000407805281ADCC848007805281EDAC84923
:1054F000C54A127851F82200C649FBF7B3F80ED816
:10550000C349C14A127851F822004FF07E51FAF790
:105510002BFEBF49BC4A127841F822008BE00021E3
:10552000BB48B94A127840F8221084E0B8492C31BF
:10553000B54A127851F82200B649FBF793F810D813
:10554000B3492C31B14A127851F822004FF07E5104
:10555000FAF70AFEAE492C31AC4A127841F8220023
:1055600069E00021AA482C30A84A127840F822109D
:1055700061E0207804285ED1A248407802285ADBF6
:10558000A0484078052856DC53E0FCF7E5FA401BBC
:10559000B0F5967F4DD3FCF7DFFA05469A480078C0
:1055A00005281EDA9A49984A127851F8220099493A
:1055B000FBF758F80ED89649934A127851F8220012
:1055C0004FF07E51FAF7D0FD91498F4A127841F899
:1055D000220028E000218E488B4A127840F82210E1
:1055E00021E08B492C31894A127851F822008949EF
:1055F000FBF738F810D886492C31844A127851F8D4
:1056000022004FF07E51FAF7AFFD81492C317F4ADD
:10561000127841F8220006E000217D482C307B4AB8
:10562000127840F822100220FFF7DCFA012800D19E
:1056300000E0AAE700BF207805282AD17148407809
:10564000022865DB6F484078052861DC6E480078E9
:1056500005285DDA6E496C4A127851F822006E49CD
:10566000FBF70AF80ED26A49674A127851F822000D
:105670004FF07E51FAF7CAFD6549634A127841F846
:10568000220045E0644962485F4A127840F82210DF
:105690003EE0207806283BD15A484078022837DB84
:1056A00058484078052833DC30E0FCF755FA401BB9
:1056B000B0F5967F2AD3FCF74FFA0546524800789A
:1056C00005281DDA5249504A127851F822005249F1
:1056D000FAF7D2FF0ED24E494B4A127851F8220007
:1056E0004FF07E51FAF792FD4949474A127841F846
:1056F000220005E048494648434A127840F8221003
:105700000320FFF76FFA012800D100E0CDE700BFCA
:105710002078072835D13B48807801280FD1032015
:10572000384988700846007918B1084600794870F1
:1057300002E002203349487000F070F81DE0314863
:105740008078032808D101202E49887008464078C7
:1057500008710120487010E02A48807802280CD196
:105760000320284988700846007918B10846007956
:10577000487002E001202349487000202149087048
:105780003DE0207808283AD11E488078012812D1BF
:1057900000201C49887008700846007918B1084636
:1057A0000079087103E01748407816490871002015
:1057B0001449487023E013488078032809D1002059
:1057C00010490870887008464078087100204870B9
:1057D00015E00C48807828B902200A498870012019
:1057E00048700CE007488078022808D1002005495D
:1057F0000870887008464078087100204870FDF7EE
:10580000DDFF70BD180000202C0000202D000020BE
:10581000940000200000AA420000204110B5FFF7CC
:1058200049F901225A210020FFF774F91A484178FA
:1058300001221046FFF76EF9174801790122022074
:10584000FFF768F915494868FAF799FE04460122FE
:1058500021460320FFF75EF910498868FAF78FFEAA
:105860000446012221460420FFF754F90B49C86879
:10587000FAF785FE0446012221460520FFF74AF982
:1058800006490869FAF77BFE0446012221460620F4
:10589000FFF740F910BD0000180000209000002024
:1058A000340F00002C0F0000230F0000190F000020
:1058B0000E0F0000030F0000F60E0000E80E0000BF
:1058C000DA0E0000CB0E0000BC0E0000AC0E000093
:1058D0009B0E00008A0E0000790E0000670E00008B
:1058E000540E0000410E00002D0E0000190E0000A5
:1058F000040E0000EE0D0000D80D0000C10D0000E8
:10590000A90D0000910D0000780D00005E0D000053
:10591000430D0000270D00000B0D0000EE0C0000F1
:10592000D00C0000B20C0000920C0000730C0000C0
:10593000520C0000310C00000F0C0000ED0B0000B9
:10594000CB0B0000A80B0000850B0000610B0000D2
:105950003E0B00001A0B0000F60A0000D20A0000FD
:10596000AE0A00008A0A0000660A0000620A00000F
:10597000510A0000360A0000120A0000E90900007E
:10598000BC0900008C09000059090000260900002C
:10599000F3080000C00800008E0800005D08000049
:1059A0002E08000000080000D4070000A90700002E
:1059B0007F07000057070000300700000B070000BA
:1059C000E6060000C20600009F0600007C060000FC
:1059D0005A0600003806000016060000F505000013
:1059E000D5050000B4050000940500007405000012
:1059F000550500003605000017050000F9040000F9
:105A0000DB040000BD040000A004000083040000CB
:105A1000670400004A0400002E0400001304000084
:105A2000F7030000DB030000BF030000A303000036
:105A3000860300007A0300006B0300005B03000094
:105A40004803000035030000210300000D0300009F
:105A5000F9020000E4020000D1020000BD020000D3
:105A6000AB020000990200008802000077020000EB
:105A700068020000590200004B0200003E020000D4
:105A80003102000024020000190200000D02000093
:105A900002020000F7010000ED010000E201000039
:105AA000D8010000CD010000C3010000B8010000D2
:105AB000AD010000A3010000980100008D0100006D
:105AC00083010000780100006D0100006301000007
:105AD000580100004E0100003C01000033010000AD
