:020000040800F2
:10000000D0090020A10100089F1A00081F1900084C
:100010009D1A0008D90200083524000800000000DD
:10002000000000000000000000000000C51C0008E7
:100030002F030008000000001D1B0008C71C00085B
:10004000BB010008BB010008BB010008BB010008A0
:10005000BB010008BB010008BB010008BB01000890
:10006000BB010008BB010008BB010008BB01000880
:10007000BB010008DD020008BB010008E90200081E
:10008000F5020008BB010008BB010008BB01000825
:10009000BB010008BB010008BB01000831030008D8
:1000A000BB010008BB010008BB010008BB01000840
:1000B000BB0100080000000000000000BB010008B8
:1000C000BB010008BB010008BB010008BB01000820
:1000D000BB010008ED230008052400081D240008CA
:1000E000BB010008BB010008000000000000000088
:1000F0000000000000000000000000000000000000
:1001000000000000BB01000800000000BB01000867
:100110000000000000000000BB010008BB01000857
:10012000BB010008BB010008BB010008BB010008BF
:10013000BB010008000000000000000000000000FB
:10014000BB010008BB010008BB0100080000000063
:10015000BB010008BB010008BB010008BB0100088F
:10016000BB010008BB010008BB0100080000000043
:10017000BB010008BB0100080000000000000000F7
:10018000BB010008BB010008BB010008DFF80CD070
:1001900000F090F80048004799250008D009002099
:1001A0000648804706480047FEE7FEE7FEE7FEE711
:1001B000FEE7FEE7FEE7FEE7FEE7FEE7311D00088B
:1001C0008D0100082DE9F05F0546002092469B4610
:1001D00088460646814640241BE02846414647465D
:1001E000224600F056F853465A46C01A914110D3A1
:1001F00011461846224600F03DF82D1A67EB01081B
:100200004F4622460120002100F034F817EB000988
:100210004E41201EA4F10104DFDC484631462A4647
:10022000434600F000B830BCBDE8C09F40EA01037F
:100230009B0703D009E008C9121F08C0042AFAD29C
:1002400003E011F8013B00F8013B521EF9D2704760
:10025000D2B201E000F8012B491EFBD27047002208
:10026000F6E710B513460A4604461946FFF7F0FFB5
:10027000204610BD202A04DB203A00FA02F10020BB
:1002800070479140C2F1200320FA03F319439040D4
:100290007047202A04DB203A21FA02F0002170473F
:1002A00021FA02F3D040C2F12002914008431946DE
:1002B00070470000064C074D06E0E06840F001037F
:1002C00094E8070098471034AC42F6D3FFF762FF7A
:1002D000D0270008F0270008FEE70000014800F0E2
:1002E0007AB8000020020020014800F074B8000035
:1002F00090010020014800F06EB80000D8010020F5
:1003000030B590F8444004F01C050124AC40056C65
:100310006C60046863608368102B036803D0996085
:100320000068C26030BD9A600068C16030BD70472F
:100330004FF4807000F068B9704710B590F8251040
:100340000022022905D00421C16380F82420012065
:1003500010BD01680B6823F00E030B6001680B6889
:1003600023F001030B6090F84410012401F01C03FA
:1003700004FA03F1036C596080F8254080F82420CA
:10038000104610BD10B590F825100024022903D0A6
:100390000421C16301241AE001680A6822F00E02F8
:1003A0000A6001680A6822F001020A6090F84410AD
:1003B000012301F01C0203FA02F1026C516080F883
:1003C0002530002180F82410816B01B18847204638
:1003D00010BDC06B7047F0B4016C0B6801680A680F
:1003E00090F84440042504F01C0405FA04F61E426B
:1003F00011D056070FD50A68920603D40A6822F076
:1004000004020A6090F8441001F01C018D40016C58
:100410004D60016B1DE0022606FA04F71F424FF003
:10042000000C4FF0010518D0970716D50A68920600
:1004300005D40A6822F00A020A6080F8255090F874
:10044000441001F01C018E40016C4E6080F824C005
:10045000C16A00291AD0F0BC08470826A6401E42EF
:1004600014D0120712D50A6822F00E020A6090F822
:100470004410026C01F01C0105FA01F15160C563E2
:1004800080F8255080F824C0416BE2E7F0BC70474B
:1004900070B568B1334C01681423334AA14209D2C4
:1004A000324C0C44B4FBF3F39B00C0E910230BE087
:1004B000012070BD2B4C64420C44B4FBF3F39B0051
:1004C0004364284B083B0364022380F825300C6802
:1004D00047F6F0739C43D0E902352B43D0E904562C
:1004E00035432B4385692B43C5692B43056A2B4351
:1004F00023430B608168B1F5804F29D0016C0F2335
:10050000914212D152F8A81F90F8444004F01C0404
:10051000A3409943116090F84430416803F01C03F4
:10052000994013681943116012E00E49A0310A681E
:1005300090F8444004F01C04A3409A430A6090F8E9
:100540004430426803F01C039A400B681A430A6067
:100550000021C163012280F8252080F8241008467C
:1005600070BD00000804024000000240F8FFFDBF1B
:1005700070B5044690F82400002501280CD0012015
:1005800084F8240094F825600020012E06D084F819
:1005900024000225284670BD022070BD022684F882
:1005A0002560E0632068066826F0010606602046A4
:1005B000FFF7A6FE206B00282068016802D041F0FA
:1005C0000E0106E021F0040101602068016841F09D
:1005D0000A0101602068016841F001010160D9E76A
:1005E00070B5044600F0ECF80546601C02D00448E3
:1005F0004068044400F0E4F8401BA042FAD370BD08
:100600000000002070470000044910B50A6802424B
:1006100002D00860FFF7F6FF10BD0000140401408F
:100620002DE9F84FDFF86C91002209F1040A0AF174
:10063000040B4FF00F080BF1040EA3E001269640C7
:10064000334070D04C68022C01D0122C11D1D40848
:1006500000EB84073D6A5407E40E08FA04FC25EA1F
:100660000C05D1F810C00CFA04FC4CEA050CC7F8D4
:1006700020C007685400032591F804C0A5400CF081
:10068000030CAF430CFA04FC4CEA070CC0F800C0A2
:100690004F68012F05D0022F03D0112F01D0122F48
:1006A00011D18768D1F80CC0AF430CFA04FC4CEAB6
:1006B000070CC0F808C04768B7430E79C6F30016A8
:1006C00096403E434660C668AE438D68A5403543BC
:1006D000C5604C68E40054D52F4C256E45F00105EB
:1006E0002566246E22F0030504F0010400942B4CCF
:1006F0002E19B7689407250F08FA05F4A743B0F13F
:10070000904F04D0264CA04203D1012412E00024D3
:1007100010E0244CA04201D102240BE0224CA04264
:1007200002D1032406E02CE0204CA04201D1042495
:1007300000E00724AC403C43B460D9F800404D468B
:100740004E689C43F60300D51C432C60DAF8004049
:1007500055464E689C43B60300D51C432C60DBF81D
:1007600000405D464E689C43F60200D51C432C6059
:10077000DEF8004075464E689C43B60200D51C4327
:100780002C60521C0B6833FA02F47FF457AF00F070
:100790000FB80000000401400010024000000140BA
:1007A0000004004800080048000C00480010004801
:1007B00018BCBDE8E08F0AB1816170478162704763
:1007C00001488068704700000000002002488168EE
:1007D00042681144816070470000002010B5002479
:1007E000032000F071F8002000F008F808B101249F
:1007F00001E000F025F8204610BD000070B50E4E57
:1008000005460024706898B14FF47A71B1FBF0F09E
:100810000A490968B1FBF0F000F096FD40B9102DCF
:1008200006D200222946501E00F02EF8356000E066
:100830000124204670BD0000000000200C000020B4
:10084000094808B5016E41F001010166016E01F031
:1008500001010091816D41F080518165806D00F052
:100860008050009008BD000000100240002809DB05
:1008700000F01F02012191404009800000F1E020BA
:10088000C0F8001170470000F0B40E4B1B68C3F3B2
:100890000223C3F10704042C00D904241D1D072DD5
:1008A00001D2002300E0DB1E012606FA04F56D1ECE
:1008B0000D409D409E40761E164045EA0601F0BC64
:1008C00001F04ABE0CED00E0064A00F00701106896
:1008D0004FF6FF03184040EA012003490843106027
:1008E000704700000CED00E00000FA051649B0F575
:1008F000007F0868C0F3412009D0022805D00868AD
:1009000020F4C06040F48060086000207047012837
:10091000FBD0086820F4C06040F4007008600B4809
:100920003222006850430A4AB0FBF2F0401C00E05B
:10093000401E4A69520501D50028F9D14869400591
:10094000E3D5032070470000007000400C00002039
:1009500040420F000248006800F4C0607047000089
:10096000007000402DE9F84F044600250088A64E8F
:100970002F46000515D5606C60B1B0F5000F04D0AE
:10098000B0F5400F2BD001250AE0F06840F480302C
:10099000F06024E00021201D01F0C2F805001ED007
:1009A0002F462068800365D5B06D4FF00009C00068
:1009B00009D4B06D40F08050B065B06D4FF00109C2
:1009C00000F080500090DFF844A2DAF8001041F403
:1009D0008071CAF80010FFF7F3FE804610E0D6F8E9
:1009E0008800616C20F440000843C6F88800D8E70E
:1009F000FFF7E6FEA0EB0800022801D9032531E04D
:100A0000DAF80000C005F3D565BBD6F8900010F405
:100A1000407014D0A16D814211D0D6F89000D6F864
:100A2000901020F4407041F48031C6F89010D6F850
:100A3000901021F48031C6F89010C6F89000C007DD
:100A40004ED0FFF7BDFE804641F2883A05E0FFF741
:100A5000B7FEA0EB08015145D0D8D6F8900080072A
:100A6000F5D5EDB32F46B9F1000F03D0B06D20F0EE
:100A70008050B0652078C00707D0D6F88800216A7A
:100A800020F003000843C6F888002078800707D5C7
:100A9000D6F88800616A20F00C000843C6F8880088
:100AA0002078400707D5D6F88800A16A20F03000EA
:100AB0000843C6F888002078800607D5D6F8880055
:100AC000E16A20F440600843C6F888002088800569
:100AD00009D5D6F88800E16B20F44020084300E0F7
:100AE00044E0C6F888002088400507D5D6F888007D
:100AF000216C20F440100843C6F888002078400696
:100B000007D5D6F88800216B20F440500843C6F87A
:100B100088002078000607D5D6F88800616B20F49D
:100B200040400843C6F888002088C00507D5D6F89D
:100B30008800A16B20F440300843C6F88800206884
:100B40004FF0006500034FF0806820D5D6F888008C
:100B5000A16C20F040600843C6F88800A06CA84251
:100B60000DD1F06840F48010F06010E0D6F89000ED
:100B7000A16D20F440700843C6F8900073E740452B
:100B800005D10121201D00F0CBFF00B107462068F0
:100B9000400317D5D6F88800E16C20F04060084388
:100BA000C6F88800E06CA84204D1F06840F48010D8
:100BB000F06007E0404505D10121201D00F0B0FFA5
:100BC00000B107462088400411D5D6F88800216D71
:100BD00020F040500843C6F88800206DB0F1805FD7
:100BE00005D10221201D00F09BFF00B1074620889F
:100BF000000406D556F8880F616D20F08040084348
:100C00003060384600F004B8001002400070004028
:100C100018BCBDE8E08F00002DE9F0470D46040048
:100C20005ED0DFF80C81D8F8000000F00700A84281
:100C30000CD2D8F8001021F007012943C8F80010A1
:100C4000D8F8000000F00700A84249D12078394EBA
:100C5000C0072BD06068032811D0022812D0316859
:100C600098B1490500293BDAB16821F0030101433D
:100C7000B160FFF7A5FD074641F288390FE0316802
:100C80008901EFE731688903ECE78907EAE7FFF7B5
:100C900097FDC11B494502D90320BDE8F087B06824
:100CA000616800F00C00B0EB810FF0D12078800774
:100CB00005D5B068A16820F0F0000843B060D8F80E
:100CC0000010404601F00701A9420BD9016821F04C
:100CD000070129430160006800F00700A84201D025
:100CE0000120DAE72078400705D5B068E16820F4F4
:100CF000E0600843B0602078000706D5B06821693D
:100D000020F4605040EAC100B06000F03FF8B168E4
:100D1000094AC1F30311515C01F01F01C8400749A2
:100D2000086007480068BDE8F047FFF767BD0000AE
:100D30000020024000100240882700080C0000201C
:100D4000000000200548064900688968054AC1F38B
:100D50000221515C01F01F01C84070470C000020C7
:100D600000100240C8270008054806490068896845
:100D7000054AC1F3C221515C01F01F01C840704710
:100D80000C00002000100240C827000870B5254B59
:100D9000002210469968DC6811F00C0104F003068B
:100DA000214C4FEA640508D00C2904D0042931D025
:100DB000082931D010E0012E10D11A68120704D48E
:100DC000D3F89420C2F3032202E01A68C2F303129C
:100DD000164E56F82220D9B10C2918D1D86800F047
:100DE000030002281AD003281AD01046D968DA68FE
:100DF000C1F30211C2F306224243491CB2FBF1F0D7
:100E0000D968C1F34161491C4900B0FBF1F070BDE4
:100E1000104670BD204670BD284670BD2046E5E7EF
:100E20002846E3E7001002400024F4009827000859
:100E30002DE9F84304006ED0FB4DA86800F00C06C5
:100E4000E86800F003072078C00663D576B10C2E61
:100E500001D1012F0AD0A0690028286878D040F07D
:100E600001002860FFF7ACFC80465BE02868800743
:100E700002D5A0690028DED0216A2868000703D5C2
:100E8000286800F0F00004E0D5F89400F02202EAAF
:100E90001010814216D9084600F0D6FE00283AD13B
:100EA000286840F0080028602868216A20F0F000D7
:100EB000084328606868E16920F47F4040EA012027
:100EC000686015E0286840F0080028602868216AFA
:100ED00020F0F000084328606868E16920F47F4052
:100EE00040EA01206860206A00F0AEFE0028D6D1FA
:100EF000FFF74CFFA968CD4AC1F30311515C01F023
:100F00001F01C840CA490860CA480068FFF776FC5C
:100F100000287DD12CE0C6E0FFF752FCA0EB0800D2
:100F2000022876D828688007F6D5286840F008009F
:100F300028602868216A20F0F0000843286068686B
:100F4000E16920F47F4040EA0120686010E0FFE79B
:100F500020F001002860FFF733FC804605E0FFF732
:100F60002FFCA0EB08000228DBD828688007F6D405
:100F70002078C00740D0082E18D00C2E01D1032FA6
:100F800014D06068B0F5803F17D0B0F5A02F286866
:100F900017D020F480302860286820F48020286052
:100FA0006068E0B1FFF70CFC804614E0286880031D
:100FB00022D56068002876D01EE0286840F4803092
:100FC000EDE740F480202860F7E7FFF7F9FBA0EB9E
:100FD00008006428A5D828688003F6D50CE0FFF740
:100FE000EFFB804605E0FFF7EBFBA0EB0800642871
:100FF00097D828688003F6D42078800739D5042E46
:1010000011D00C2E01D1022F0DD0E068002801E094
:101010005EE1B3E028681DD040F480702860FFF7DF
:10102000CFFB07460BE0286840050BD5E068002899
:10103000C1D007E0FFF7C4FBC01B022894D8286882
:101040004005F7D56868217C20F0F85040EA01603F
:1010500068600EE020F480702860FFF7B1FB07465F
:1010600004E0FFF7ADFBC01B0228B3D82868400599
:10107000F7D42078000728D560690028D5F89400B7
:1010800012D040F00100C5F89400FFF799FB074625
:1010900004E0FFF795FBC01B02286FD8D5F8940039
:1010A0008007F6D511E049E120F00100C5F8940071
:1010B000FFF786FB074604E0FFF782FBC01B022810
:1010C0005CD8D5F894008007F6D42078400766D520
:1010D000A86D4FF00008C00009D4A86D40F0805002
:1010E000A865A86D4FF0010800F0805000905248AC
:1010F0000168C90511D40168814641F4807101601D
:10110000FFF75EFB074604E0FFF75AFBC01B02280F
:1011100034D8D9F80000C005F6D5A068012815D04C
:101120000528D5F8900016D020F00100C5F89000F1
:10113000D5F8900020F00400C5F89000A06841F2B6
:101140008839B8B1FFF73CFB07460EE0D5F89000B0
:1011500040F00100F0E740F00400C5F89000F5E72A
:10116000FFF72EFBC11B494508D8D5F89000800732
:10117000F6D50DE0FFF724FB074605E081E0FFF719
:101180001FFBC11B49457CD8D5F890008007F6D4D9
:10119000B8F1000F03D0A86D20F08050A86520782A
:1011A000800627D5606A0028D5F8980011D040F055
:1011B0000100C5F89800FFF703FB074604E0FFF7BE
:1011C000FFFAC01B02285CD8D5F898008007F6D536
:1011D00010E020F00100C5F89800FFF7F1FA07468B
:1011E00004E0FFF7EDFAC01B022870D8D5F898008C
:1011F0008007F6D4A06AB0B10C2E70D002282868FF
:1012000020F0807028601BD02868000103D4E868B3
:1012100020F00300E860E86808490840E860FFF74C
:10122000CFFA044656E08BE0001002408827000801
:101230000C0000200000002000700040FFFFEEFEC8
:10124000FFF7BEFA064604E0FFF7BAFA801B022851
:101250003DD828688001F7D4F4E90B016FF00F0244
:1012600002EB01110843218A5204490802EB415163
:10127000A26841EA02210843217D4FF07E424908DD
:1012800000E024E002EB41610843217B40EAC160B9
:10129000E9682C4A11400843E860286840F08070F3
:1012A0002860E86840F08070E860FFF789FA04463B
:1012B00004E0FFF785FA001B022808D8286880019F
:1012C000F7D53DE0FFF77CFA001B022802D9032086
:1012D000BDE8F88328688001F4D431E0FFE70128F5
:1012E000F6D0E868E26A00F00301914226D1216B52
:1012F00000F070020901103991421FD1626B00F4B5
:10130000FE41B1EB022F19D194F8382000F078415A
:10131000B1EBC26F12D1A18F00F4C0024908490598
:10132000A1F50011914209D194F8401000F0C0607D
:1013300049084906A1F10071814201D00120C7E7A7
:101340000020C5E78C809D0110B5401EB0F1807F64
:1013500001D3012010BD4FF0E02460610F21601720
:1013600001F0FAF80020A06107202061002010BDE4
:10137000704710B5436F826F90F87010012909D043
:10138000012180F8701001688C68240608D5212B93
:1013900002D005E0022010BD8B6823F080038B6033
:1013A00001688B685B060FD5222A0DD10A6822F4EA
:1013B00080720A6001688A6822F001028A6001680E
:1013C0008A6822F040028A60002180F87010084686
:1013D00010BD70B5416F0446856F006882684FF09C
:1013E0001006120612D5212910D1816821F0800142
:1013F0008160A06E38B1FEF7A0FF20B1A06EFEF7AD
:10140000E8FF20281BD0204600F081FE206881687C
:10141000490612D5222D10D1816821F0400181604A
:10142000E06E38B1FEF789FF20B1E06EFEF7D1FF24
:10143000202804D0204600F05BFE002070BDE66747
:10144000032070BD704700002DE9F041026804469A
:10145000D0691168936810F00F0F4FF000055BD052
:1014600003F0010601F49077374369D0C70707D02E
:10147000CF0505D501271762E26F42F00102E2674E
:10148000820708D5DA0706D0276802223A62E26F9F
:1014900042F00402E267420708D5DA0706D0236863
:1014A00004221A62E26F42F00202E26702070AD5E2
:1014B00001F02002324306D0236808221A62E26F4C
:1014C00042F00802E267E26F002A32D0800605D5BA
:1014D000880603D5216E09B120468847E06F216850
:1014E0008968490601D4000725D5204600F000FE92
:1014F00020688168490619D5816821F04001816022
:10150000E06E98B120498163E06EFEF73BFF002852
:101510000FD0E06E816B06E0860611D58E060FD5E2
:10152000216E1EE02046BDE8F04108472046FFF747
:1015300089FFBDE8F0812046FFF784FFE567F8E703
:10154000C60209D55B0207D54FF480101062204611
:10155000BDE8F041FFF70CBF030605D50B0603D528
:10156000616E0029DED1E4E74006E2D54806E0D509
:101570001168204621F040011160202161676566F5
:1015800000F0CCF9D5E700004F20000810B50400AA
:1015900002D0606F10B107E0012010BD002084F878
:1015A0007000204600F026F824206067206801685B
:1015B00021F001010160204600F0B2FD0128ECD0CD
:1015C000606A10B1204600F0B2FC2068416821F446
:1015D000904141602068816821F02A018160206883
:1015E000016841F0010101602046BDE8104000F0B3
:1015F00002BD00002DE9F04786B00446142168467C
:10160000FEF72DFEDFF89C81236800256648032144
:101610000722802620274FF0020C4FF0904A4345C6
:101620003BD1036E43F480430366036E03F48043AF
:101630000593C36C43F00103C364C06C02AB00F0BC
:10164000010005904802CDE9000C012083E8070065
:10165000E04669465046FEF7E3FFDFF854915349F0
:101660004846C9F80010C0E90185C0E90356C9F829
:101670001450C9E90657C9F82050FEF709FF08B110
:10168000FEF75AFEC4F86C90002211462520C9F8D6
:101690002840FFF7F9F825203EE0DFF818814345A0
:1016A0003FD1836D43F400338365836D03F40033CE
:1016B0000593C36C43F00103C364C06C029500F052
:1016C00001000590CDE903120C20CDE9000CE146A4
:1016D00069465046FEF7A4FF3449DFF8DC80143138
:1016E0004046C8F80010C0E90195C0E90356C8F8A3
:1016F0001450C8E90657C8F82050FEF7C9FE08B1D3
:10170000FEF71AFEC4F86C80002211462620C8F8A5
:101710002840FFF7B9F82620FFF7A8F806B0BDE883
:10172000F087DFF898804345F8D1836D43F4802338
:101730008365836D03F480230593C36C43F0040336
:10174000C364C06C029500F004000590CDE903125B
:101750003020CDE9000CE04669461948FEF760FFED
:101760001249DFF8609028394846C9F80010C0E9EE
:101770000185C0E90356C9F81450C9E90657C9F8EC
:101780002050FEF785FE08B1FEF7D6FDC4F86C9038
:10179000002211462720C9F82840FFF775F82720B6
:1017A000BAE7000000380140001002405800024033
:1017B0009001002000440040D80100200048004073
:1017C000000800482002002070B50446806F2028E1
:1017D0003FD149B342B394F87000012839D00120B9
:1017E00084F870006165A4F858200025E567222080
:1017F000A067E06ED0B11849C162E16E1748134688
:101800000863E16E16484863E06E8563666D216883
:1018100032462431E06EFEF7ABFE38B11020E067AF
:1018200084F8705020206067012070BD84F87050EB
:101830002068016841F4807101602068816841F08E
:10184000010181602068816841F0400181600020D1
:1018500070BD022070BD0000AB200008E72000082A
:1018600063200008704770472DE9F8430446406F35
:101870001F4615460E4620284ED1CEB1C5B194F86C
:101880007000012848D0012084F870004FF0000853
:10189000C4F87C8021206067FEF792FFA4F85050C6
:1018A0008146A4F85250A068B0F5805F03D004E0F0
:1018B0000120BDE8F883206910B13546002610E00C
:1018C00000250EE08021204600F060FDB8B9C5B1CA
:1018D00015F8010B21680885B4F85200401EA4F8E1
:1018E0005200B4F852004B464FF000020097002817
:1018F000E8D14FF04001204600F048FD30B1032010
:10190000D7E736F8020BC0F30800E3E72020606752
:1019100084F870800020CCE70220CAE77047FEE719
:10192000F0B5114E114A0020B57FF47F536817E0DF
:1019300011180F7DAB2F11D14F7DAB2F0ED14F7FE3
:10194000AF420BD1897FA14208D1917DB170D17D89
:10195000F170117E10443171407EF0BD401CC0B268
:101960008342E5D80020F0BDA405002068020020D5
:101970002DE9F04186B014216846FEF770FC23483B
:10198000C16C41F00101C164C16C01F0010105911C
:10199000C16C41F00401C164C06C1D4F00F0040033
:1019A0004FF400750590002229463846FEF703FFE4
:1019B000FE144FF09048002231464046FEF7FBFEF1
:1019C0006810009013480124CDE9010469463846A7
:1019D000FEF726FECDE90054002569463846CDE9DC
:1019E0000245FEF71DFECDE9006469464046CDE99B
:1019F0000245FEF715FE002211461720FEF744FFB0
:101A00001720FEF733FF06B0BDE8F081001002405A
:101A100000080048000021100948084901604FF4FF
:101A2000E1314160002181600C22C160C0E90412F3
:101A30008161C16101624162FFF7A8BD00380140C8
:101A4000100000200948084901604FF4E13141606D
:101A5000002181600C22C160C0E904128161C16172
:101A600001624162FFF792BD0044004090000020F7
:101A70000948084901604FF4E1314160002181606B
:101A80000C22C160C0E904128161C161016241623E
:101A9000FFF77CBD0048004010010020FEE77047C2
:101AA00030B589B020216846FEF7D9FB194C04F106
:101AB000080120788DF8000060788DF80100A07F83
:101AC0008DF80200E08BADF8030060798DF8050019
:101AD00094F829008DF80600A2798DF80720E079A6
:101AE0008DF808000DF10900FEF7A0FBA079093080
:101AF000C5B2A81EC1B20DF1020000F038FEE071BF
:101B00008DF808000A232A4669460348FFF7ACFE11
:101B100009B030BDA405002010000020704700006F
:101B20002DE9F041434E05468846F06800248107C0
:101B300028680ED0F16801F00301814207D130B16D
:101B4000F0686968C0F30210401C88421FD001246D
:101B50006DE0012809D002280AD00328F7D13168A6
:101B6000890309D43168490304E03168890701E039
:101B7000316849050029EADAF1686A686FF00F03F5
:101B800021F0730103EB021211430143F16030684D
:101B900020F080603060FEF713FE074604E0FEF799
:101BA0000FFEC01B022838D830680001F7D474BB80
:101BB000B8F1000F18D0B8F1010F1DD0287D4FF0FB
:101BC0007E41400801EB4060A96840EA012031698C
:101BD000194A114008433061306840F0806030603D
:101BE000FEF7EEFD07461AE0A868297B000240EAEE
:101BF000C1603169114AECE7288A1149400801EBBC
:101C00004050A96840EA012031690E4AE1E70EE040
:101C1000FEF7D6FDC01B022801D9032407E0306877
:101C20000001F5D51CB93069A96908433061204627
:101C3000BDE8F08100100240FF80FFF9FF80FF0740
:101C40000000E0FFFF809FFFF8B51C4E0546002412
:101C5000B06DC00002D5FEF77DFE0DE0B06D40F026
:101C60008050B065B06D00F080500090FEF772FEBD
:101C7000B16D21F08051B165B0F5007F04D0802DA9
:101C800007D94FF003040AE0802D08D9A02D01D810
:101C900004E001D1022402E0702D00D101240848A3
:101CA000016821F0070121430160006800F007008E
:101CB000A04201D00120F8BD0020F8BD0010024074
:101CC000002002407047FEF781BD10B5AEB0442140
:101CD00017A8FEF7C4FA142128A8FEF7C0FA5C2161
:101CE0006846FEF7BCFA1020179001200024CDE9C9
:101CF0001D0460201F90219417A8FFF799F80F206A
:101D0000CDE928042A942B94002128A82C94FEF7CE
:101D100083FF07200A940090089409946846FEF710
:101D200021FE4FF40070FEF7E1FD2EB010BD000063
:101D30000D48016841F4700101600C48016841F0F0
:101D400001010160002181600268094B1A400260B4
:101D50008214C260026822F480220260816102491A
:101D6000C00380390860704788ED00E00010024031
:101D7000FFFFF6EA2DE9F05F654E00274FF0060AF7
:101D8000317EB5784A1CF478337996F8289096F825
:101D9000198096F81AC04FF0070E4FF0080BD2B218
:101DA000A32858D008DC812824D091280DD0A2285F
:101DB00020D103293ED91CE0A42860D0A52874D0E6
:101DC000A82817D1032917D913E0032911D8707156
:101DD000F7714F4831724E4945728472C372F07E7A
:101DE0000873307F48734A48717F817386F806E034
:101DF0002FE0377600F08EB87071F7714448317279
:101E0000434945728472C37296F82A00087381F8B8
:101E10000D9086F806A03276FFF742FE4FF47A70F6
:101E2000FEF7DEFB00F079B80122D1024FF09040BE
:101E3000FEF7C1BC7071F77186F82A7034483172B0
:101E4000014645728472C372077381F80D9086F85B
:101E500006A032764DE00329CBD87071F77186F871
:101E60002A702B483172014645728472C37280F821
:101E70000C8080F80DC081F80E90C77311E0032923
:101E8000B7D87071F7712248317201464572847279
:101E9000C37280F80C8080F80DC081F80E90FF208E
:101EA000C87386F806B0D4E7FFE70329A1D806F87F
:101EB000050F1748B77006F8031F45728472C37286
:101EC00080F80C80124980F80DC0307F8873707FD5
:101ED000C873B07F0874F07F4874307E8874707E59
:101EE000C874B07E0875F07E48750E2006F8020CA6
:101EF0003274FFF7D5FD0122D1024FF09040FEF77A
:101F00005AFC00F00FB84FF47A70FEF769BB00007E
:101F1000A405002030BCBDE8C09F30BCBDE8C05F58
:101F2000FFF782BF30BCBDE8C05FFFF7ECBF90F8A1
:101F30002410C90706D001684A68836A22F4003277
:101F40001A434A6090F82410890706D501684A6848
:101F5000C36A22F480321A434A6090F82410490779
:101F600006D501684A68036B22F480221A434A604E
:101F700090F82410090706D501684A68436B22F4DB
:101F800000421A434A6090F82410C90606D5016839
:101F90008A68836B22F480521A438A6090F8241076
:101FA000890606D501688A68C36B22F400521A4379
:101FB0008A6090F82410490611D501684A68036CBC
:101FC00022F480121A434A60016CB1F5801F06D1D9
:101FD00001684A68436C22F4C0021A434A6090F8D0
:101FE0002410090606D501684A68806C22F4002294
:101FF00002434A607047F8B500250446C567FEF7FE
:10200000DFFB0746206800686FF07E46000708D5B2
:102010003B4600224FF400112046009600F0B6F92E
:1020200060B92068006840070AD53B4600224FF49B
:1020300080012046009600F0A9F908B10320F8BD00
:1020400020206067A06784F870500020F8BD10B5AC
:10205000806A0021A0F85A10A0F85210FFF7F2F998
:1020600010BD70B5846A606FA56F216889684FF0F4
:102070000006090606D5212804D1A4F8526020469E
:1020800000F045F820688068400606D5222D04D16E
:10209000A4F85A60204600F02BF8E06F40F01000E2
:1020A000E0672046FFF7CEF970BD10B50146806AA3
:1020B00009680968890613D40021A0F85A1001683C
:1020C0000A6822F480720A6001688A6822F00102BC
:1020D0008A6001688A6822F040028A602021816754
:1020E000FFF7C0FB10BD10B5806AFFF7BCFB10BD49
:1020F00001680A6822F490720A6001688A6822F016
:1021000001028A6020218167002101667047016811
:102110000A6822F0C0020A6020214167704700006F
:102120002DE9F047044600682369A168E569194371
:10213000636900262B4319438A4A036837468A4D50
:102140002B400B43036020684168E36821F4405151
:10215000194341602168A069914201D0236A184364
:102160008B6823F4306303438B60804B2168804885
:1021700099420DD1D0F8880010F0030006D0012854
:1021800048D0022844D0032830D145E001252EE074
:10219000784B99420BD1D0F8880010F00C0035D064
:1021A000042837D0082833D00C281FD134E0724BD4
:1021B00099420BD1D0F8880010F0300026D01028BA
:1021C00028D0202824D0302810D125E091420DD1EC
:1021D000D0F8880010F4406018D0B0F5806F19D0A6
:1021E000B0F5006F14D0B0F5406F15D01025634BDB
:1021F0004FF000084FF4004091424CD175B1022DD0
:102200000FD0042D0FD0082D18D10FE00025EEE7D8
:102210000225ECE70425EAE70825E8E7FEF792FD4A
:1022200003E0184602E0FEF7B1FD98B3626802EBE6
:102230004201814202D8B0EB023F01D9012789E077
:1022400065B1022D0DD0042D13D0082D1BD0012710
:102250004B49A6F5407088427AD9EFE7FEF772FD48
:1022600009E05008474B11E00023FDF7ABFF06469D
:10227000EEE7FEF78BFD6268010E05025008281894
:1022800041EB0801F0E750084FF40003C01848F193
:102290000001E9E75EE0E1694FF6EF7981422ED176
:1022A000092D1DD2DFE805F00508121C151C1C1CA9
:1022B0001800FEF747FD01E0FEF756FD410060689B
:1022C00001EB5001B1FBF0F086B20AE02E496068E4
:1022D000F6E7FEF75BFDF1E74FF480316068EFE76A
:1022E0000127A6F110004845A8D84FF6F07106EA7C
:1022F0000100C6F3420108432168C8602AE0092DA5
:1023000021D2DFE805F00508122016202020190050
:10231000FEF718FD01E0FEF727FD0146606801EBBE
:102320005001B1FBF0F086B20EE0606803EB5001A3
:10233000F7E7FEF72BFDF0E7616800EB5100B0FB1B
:10234000F1F0F0E704E00127A6F11000484584D839
:102350002068C660C4F860803846C4F86480BDE870
:10236000F087000000800040F369FFEF0038014073
:102370000010024000440040004800400024F400E7
:10238000FFFC0F00000024F40048E8012DE9F041B3
:102390001E46174688460446069D07E0681C05D081
:1023A000FEF70EFA801BA8420BD855B12068C16910
:1023B00038EA010017D00020B842EFD00020BDE875
:1023C000F0812068016821F4D07101602068816883
:1023D00021F00101816020206067A067002084F85F
:1023E00070000320EBE70120E6E7000010B50120B4
:1023F00000F022F8BDE810400148FFF725B80000C2
:102400001000002010B5022000F016F8BDE81040C2
:102410000148FFF719B800009000002010B5032014
:1024200000F00AF8BDE810400148FFF70DB80000C1
:1024300010010020FEE7000010B501241021012842
:102440002DD002284DD0032872D13A4B1868C269AA
:10245000C2F30012002A6BD001621868C169808C37
:102460001846FEF786FF34480068406833494A68DA
:10247000121AFF324A600C70CA68101AFF30C86026
:10248000FF2801D3FF38C8602A48FEF772FF2B49A6
:102490002848FF22BDE810401431FFF795B9284BBA
:1024A0001868C269C2F30012002A41D0016218689C
:1024B000C169808C2348006840682349C0F1FF024D
:1024C0004A600C70CA68101AFF30C860FF2801D338
:1024D000FF38C8601A48FEF77CFFFF221A491848E7
:1024E000D8E71A4B1868C269C2F30012002A1FD03D
:1024F00001621868C169808C1846FEF73AFF1448DB
:102500000068406813494A68121AFF324A600C702A
:10251000CA68101AFF30C860FF2801D3FF38C860AE
:102520000A48FEF726FFFF220A490848B2E7FFE7FC
:1025300010BD0000100100202002002090040020A7
:102540001000002090010020680200209000002070
:10255000D80100207C0300200907090E002804DBB5
:1025600000F1E02080F80014704700F00F0000F147
:10257000E02080F8141D704702E008C8121F08C14F
:10258000002AFAD170477047002001E001C1121FF4
:10259000002AFBD17047000008B5FEF71FF9FFF7CE
:1025A00094FBFFF7E5F93648816C41F00101816445
:1025B000806C002200F00100009011460D20FEF713
:1025C00063F90D20FEF752F9002211460F20FEF7A5
:1025D0005BF90F20FEF74AF9002211461020FEF7A2
:1025E00053F91020FEF742F9FFF716FAFFF72AFA1F
:1025F000FFF73EFA234D102428680462286801681A
:1026000021F0100101602846FEF7E3FE286801680A
:1026100041F010010160FF221B492846FFF7D4F862
:102620008035286804622868016821F01001016083
:102630002846FEF7CEFEFF2214492846FFF7C4F8CD
:102640002868016841F01001016080352868046243
:102650002868016821F0100101602846FEF7B9FEE4
:102660002868016841F010010160FF2208492846EE
:10267000FFF7AAF800F00EF800F022F8FCE70000DF
:1026800000100240100000207C0200209003002077
:10269000A40400200948AA210222017041700021EF
:1026A0008170C170017181770121C1774276827694
:1026B000032280F8282080F829107047A405002004
:1026C00070B5234C00252078012809D12570208978
:1026D0000A2382B204F114011E48FFF7C5F8A56071
:1026E0001D481E4E0178012909D1057030891A490B
:1026F00082B20A2314311748FFF7B6F8B560307874
:10270000012821D1C10200224FF09040FEF753F87A
:10271000022000F025F8044610484FF48071143070
:10272000FDF79DFD3570002C0ED0812C0BD0912C27
:1027300004D0A22C09D0A82C05D101E0A42000E0EF
:10274000A820FFF717FBB56070BDA220F9E70000D5
:1027500090040020100000207C030020680200206C
:1027600001460020022901D1FFF7DAB8704703467D
:1027700010B50020024603E09C5C6040521CD2B2BF
:102780008A42F9D310BD00000000000000000000E4
:102790000102030406070809A0860100400D03009A
:1027A000801A060000350C0040420F0080841E0095
:1027B00000093D0000127A000024F40000366E018A
:1027C0000048E801006CDC02000000000102030484
:1027D000F027000800000020100000007825000805
:1027E0000028000810000020C0090000882500080B
:1027F00010000000010000000000000000093D0082
:040000050800018D61
:00000001FF
