:020000040800F2
:100000008010002001010008A9310008CD2B000854
:10001000412E0008D10700089D3D000800000000A7
:10002000000000000000000000000000FD33000898
:100030000D08000800000000AB310008A5360008DC
:100040001B0100081B0100081B0100081B01000820
:100050001B0100081B0100081B0100081B01000810
:100060001B0100081B0100081B0100081B01000800
:100070001B0100081B0100081B0100081B010008F0
:100080001B0100081B0100081B0100081B010008E0
:100090001B0100081B0100081B0100081B010008D0
:1000A0001B0100081B0100081B0100081B010008C0
:1000B000893700081B0100081B0100081B0100080C
:1000C0001B0100081B0100081B0100081B010008A0
:1000D0001B0100088D3D00081B0100081B010008E2
:1000E0001B0100081B0100081B010008DFF80CD0F1
:1000F00000F0E2FA00480047F53E000880100020BA
:100100000648804706480047FEE7FEE7FEE7FEE7B1
:10011000FEE7FEE7FEE7FEE7FEE7FEE73137000811
:10012000ED000008202A04DB203A21FA02F0002129
:10013000704721FA02F3D040C2F1200291400843F7
:1001400019467047D2B201E000F8012B491EFBD2DC
:1001500070470022F6E710B513460A4604461946D2
:10016000FFF7F0FF204610BDF0B480EA0102D40F83
:100170004200B2EB410F02D20246084611464A0045
:1001800042D0C30DDDB2C1F3C752AD1A202D35DA0E
:10019000C1F3160141F4000204B15242C5F1200638
:1001A00002FA06F12A411044B3EBD05F23D0C4B168
:1001B000012DA0EBC35009DCF0BC4FF0004202EA75
:1001C000C352DBB200F5000000F0EBB9400000F1D3
:1001D000807000EBC350A0F1807040EAD1704900FC
:1001E00009E0490841EAC071A0EBC35000F50000E6
:1001F000400800EBC350F0BC00F0CAB961420122D4
:1002000002EB4101001BF6E7F0BC704781F00041B2
:10021000AAE780F00040A7E780EA010210B502F0EB
:100220000043400022D04A001FD0010E01EB1261B2
:10023000C0F35600C2F3560240F4000042F400023C
:10024000A0FB022000047F39140400D0401C50EAB7
:10025000124001D44000491EC2B20C0604EBD0107B
:10026000401C4008802A02D003E0002010BD20F08E
:100270000100002900DA0020184310BD30B480EAE4
:10028000010202F0004530F0004221F0004013D09E
:1002900090B1C30DD40DC2F31601C0F31600E41AD9
:1002A00041F4000140F400027D34914201D3641C0A
:1002B00000E04900002C02DA30BC002070474FF407
:1002C00000000023914201D3891A034340084FEAFA
:1002D0004101F7D151B1914202D14FF0004105E007
:1002E00002D24FF0010101E06FF0010103EBC450B5
:1002F000284430BC00F04CB92DE9FE4F81EA0304DC
:1003000004F0004421F0004100944FF0000B23F072
:10031000004350EA01045ED052EA03045BD0C3F309
:100320000A54C1F30A552C44A4F2F3340194A0FBFF
:100330000254C1F3130141F48011C3F3130343F4D6
:10034000801301FB024400FB034E840A970A44EA2F
:10035000815447EA8357A4FB076802958D0A05FB81
:1003600007854FEA932C04FB0C542705029D4FEAA6
:10037000065847EA1637B5EB08056EEB070C870EF3
:10038000920E47EA811742EA8312A7FB0201B6EBFD
:100390000B0164EB00042B0D43EA0C335E1844EBB5
:1003A0001C50DA465146E7FB0201C5F313044FEA3D
:1003B0000B3343EA14534FEA0432019C43EA060329
:1003C000A4F10C040294009CCDE900B400F026F9DD
:1003D00003B0BDE8F08F00200146F9E72DE9F04DAC
:1003E00081EA030404F0004B21F0004514464FF06D
:1003F000000A23F0004150EA050220D054EA01022D
:100400001DD0C5F30A570246C5F31303C1F3130009
:10041000C1F30A5640F4801543F48013A7EB060895
:10042000101BD64608F2FD3873EB050002D308F125
:10043000010801E092185B41B8F1000F03DA0020D7
:100440000146BDE8F08D00204FF480110646844639
:100450000EE0171B73EB050705D3121B63EB0503B7
:1004600006434CEA010C49084FEA300092185B4100
:1004700050EA0107EDD152EA030012D082EA0400EB
:1004800083EA0501084305D0101BAB4106D20122C7
:10049000002306E000224FF0004302E06FF001026B
:1004A00053101AEB06004CEB085110EB0A0041EB1D
:1004B0000B01BDE8F04D00F0A2B8962300221146D2
:1004C00000F06FB820F00040C10DC0F3160040F4FA
:1004D00000007F2901DA00207047962903DCC1F172
:1004E0009601C840704796398840704700F0004236
:1004F00030F000400AD0C10D01F56071C0F3160064
:1005000042EA0151C20840071143704700200146EA
:100510007047000030B5041E71F1000404DB4FF099
:100520000044404264EB0101141E73F1000405DB3A
:100530001C464FF00043524263EB04038B4208BF5A
:10054000824230BD01F0004330B421F0004150EA56
:10055000010206D00A0DA2F56072C1F31301002A50
:1005600002DC30BC00207047440F44EAC104C100E3
:10057000E01830BC00EBC25000F00AB8002801DBE4
:10058000C0F10040002901DBC1F100418142704708
:100590000029A8BF7047401C490008BF20F0010097
:1005A000704710B4B0FA80FC00FA0CF050EA010475
:1005B00004BF10BC704749B1CCF1200421FA04F407
:1005C00011FA0CF118BF012121430843A3EB0C01E0
:1005D000CB1D4FEA00614FEA102042BF002010BC43
:1005E000704700EBC35010440029A4BF10BC7047F3
:1005F000401C490008BF20F0010010BC704710B536
:10060000141E73F1000408DA401C41F10001921835
:100610005B411A4301D120F0010010BD2DE9F04DDE
:1006200092469B4611B1B1FA81F202E0B0FA80F233
:100630002032904600F052F804460F4640EA0A0085
:1006400041EA0B0153465A46084313D0114653EA78
:10065000010019D0C8F140025046FFF763FD05467E
:100660000E4650465946424600F038F8084305D039
:10067000012004E020463946BDE8F08D0020054306
:1006800046EAE0762C4337430A986305E40AA0EB78
:1006900008000022FD0A44EA47540A3002D500202F
:1006A0000146E9E7010510196941DDE9084500192E
:1006B0006941BDE8F04DA2E7064C074D06E0E06851
:1006C00040F0010394E8070098471034AC42F6D399
:1006D000FFF710FDE442000804430008202A04DB71
:1006E000203A00FA02F1002070479140C2F1200345
:1006F00020FA03F319439040704770B50446002573
:100700002068806800F00100F0B12068806820F067
:1007100001002168886000F0E9FF05460EE000F066
:10072000E5FF401B022809D9A06A40F01000A06232
:10073000E06A40F00100E062012070BD206880683E
:1007400000F001000028EAD10020F6E738B50446A1
:100750000025002000902068806800F0010080BB28
:100760002068806840F001002168886016480068B1
:100770001649B0FBF1F0009002E00098401E009096
:1007800000980028F9D100F0B1FF054613E000F011
:10079000ADFF401B02280ED9A06A40F01000A062F5
:1007A000E06A40F00100E06200BF002084F824000D
:1007B00000BF012038BD2068806800F001000028DB
:1007C000E5D00020F6E700005800002040420F006E
:1007D00000BFFEE770B502460C46FF25FF2309E087
:1007E00012F8010B80EA05010648405C80EA030527
:1007F0000548435C201EA4F10104F1D143EA052021
:1008000070BD0000CC400008CC4100087047704724
:100810000022054BDA61054A126942F00102034BDE
:100820001A61018070470000600C00200020024027
:1008300000201E49C96801F0100139B11C49C9697D
:1008400041F002011A4AD16140F010001749C9680D
:1008500001F0040139B11649C96941F00101144A96
:10086000D16140F004001149C96901F0010169B189
:100870000F49C96941F004010D4AD16100BF0B491C
:10088000C96921F00101094AD16100BF00BF40F2EE
:100890000111884206D10549C96921F00101034AC5
:1008A000D16101E00149C86000BF704700200240EB
:1008B000600C002070B5044600F018FF054609E002
:1008C000601C38B124B100F011FF401BA04201D9D7
:1008D000032070BD1248C06800F001000028EFD16D
:1008E0000F48C06800F0200020B100BF20200C4954
:1008F000C86000BF0A48C06800F0100048B9084846
:10090000C06900F0010020B90548C06800F004008B
:1009100018B1FFF78DFF0120DBE70020D9E70000C9
:10092000002002402DE9FC5F4FF00009002438E070
:10093000574800F0C1F84FF0000A2DE0544800F08D
:1009400099FB4FF6FF71524800F0DCFA504800F076
:10095000E5F98146BAF1000F09D0BAF1010F0AD0CA
:10096000BAF1020F0BD0BAF1030F10D10BE04948D6
:1009700040F824900BE0484840F8249007E04748AE
:1009800040F8249003E0464840F8249000BF00BFA0
:100990000AF1010000F0FF0ABAF1040FCEDB601C7F
:1009A000C4B2302CC4DB3A4800F0FCFB002003F05A
:1009B00027FA0546FFF781FD8346012003F020FA60
:1009C0000546FFF77AFD3749086008460068FFF7DB
:1009D0008DFD0746344A354BFFF78EFC0022344B21
:1009E000CDE90001FFF7FAFC0546FFF7ABFD314901
:1009F0000860022003F004FA0546FFF75EFD29496E
:100A0000086008460068FFF771FD274A274BCDE9CB
:100A10000001FFF771FC07460022254BFFF7DEFCC3
:100A20000546FFF78FFD23494860032003F0E8F9EE
:100A30000546FFF742FD1B49086008460068FFF7BE
:100A400055FD194A194BCDE90001FFF755FC054644
:100A50000022174BFFF7C2FC0746FFF773FD15494D
:100A6000886008460168002002F0CAFC0546FFF7CE
:100A700029FD10494861084682684168002002F05B
:100A800069FD0546FFF71EFD0A498861BDE8FC9F28
:100A9000AC0B00209C0800205C0900201C0A0020F0
:100AA000DC0A00202800002052B81E85EB510A40C5
:100AB00000FEAF4080080020F8B504460026002064
:100AC000009000BF94F82400012801D10220F8BD55
:100AD000012084F8240000BF2046FFF70EFE0646E2
:100AE000002E62D1A06A20F4885040F00200A0627B
:100AF000022000F0D3FE30490968B1FBF0F040005D
:100B0000009002E00098401E009000980028F9D163
:100B10002046FFF71BFE2068806840F0080021682F
:100B2000886000F0E3FD054611E000F0DFFD401BAA
:100B30000A280CD9A06A20F0020040F01000A06240
:100B400000BF002084F8240000BF0120BFE7206818
:100B5000806800F008000028E7D12068806840F035
:100B600004002168886000F0C1FD054611E000F036
:100B7000BDFD401B0A280CD9A06A20F0020040F0FD
:100B80001000A06200BF002084F8240000BF0120F4
:100B90009DE72068806800F004000028E7D1A06A83
:100BA00020F0020040F00100A06200BF002084F8A5
:100BB000240000BF30468AE75800002038B50246BE
:100BC00000230020009000BF92F82400012801D1EA
:100BD000022038BD012082F8240000BF48680728A1
:100BE00012D21068406B0C79641E04EB84051F243C
:100BF000AC40A0430D796D1E05EB85050C68AC403B
:100C000020431468606327E048680D2812D21068FA
:100C1000006B0C79E41F04EB84051F24AC40A04357
:100C20000D79ED1F05EB85050C68AC402043146879
:100C3000206311E01068C06A0C790D3C04EB840558
:100C40001F24AC40A0430D790D3D05EB85050C68D4
:100C5000AC4020431468E06208680A2812D3106888
:100C6000C0680C780A3C04EB44050724AC40A04360
:100C70000D780A3D05EB45058C68AC4020431468AF
:100C8000E0600FE0106800690C7804EB440507246D
:100C9000AC40A0430D7805EB45058C68AC40204383
:100CA000146820610868102802D00868112827D12C
:100CB000174C1068A0421ED11068806800F4000034
:100CC000F0B91068806840F400001468A0600868FB
:100CD000102815D10F4800680F4CB0FBF4F000EB62
:100CE00080004000009002E00098401E00900098B4
:100CF0000028F9D104E0906A40F0200090620123BE
:100D000000BF002082F8240000BF184661E7000001
:100D1000002401405800002040420F0001460868AE
:100D2000C06C70472DE9F0410446002700250026DD
:100D3000A84614B90120BDE8F081A06810B1207D5B
:100D400000B100BFA06A30B90020E06284F824003E
:100D5000204600F089F82046FFF7CFFC0746A06A3E
:100D600000F01000002873D1002F71D1A06A20F488
:100D7000885040F00200A062E16960680843217B6E
:100D800040EA41000643A068B0F5807F02D0A06829
:100D9000012802D14FF4807000E000200543207D3F
:100DA000012811D1207B38B9A069401E4FF40061A1
:100DB00041EA4030054307E0A06A40F02000A0620D
:100DC000E06A40F00100E0622068406820F4694079
:100DD00028432168486020688068214908403043E2
:100DE00021688860A068B0F5807F02D0A0680128E3
:100DF00002D14FF4807000E00020B0F5807F03D175
:100E0000208A401E4FEA00582068C06A20F4700013
:100E100040EA08002168C8622068806811490840DB
:100E2000B04208D10020E062A06A20F0020040F049
:100E30000100A06211E0A06A20F0020040F0100062
:100E4000A062E06A40F00100E062012705E0FFE7F0
:100E5000A06A40F01000A062012738466BE700004E
:100E6000FDF7E1FFFE0E1FFF10B586B0044600201F
:100E700002900390049005901E492068884237D163
:100E800000BF1D48806940F400701B498861084616
:100E9000806900F40070019000BF00BF00BF0846E9
:100EA000806940F0040088610846806900F0040011
:100EB000019000BF00BF00BF0846806940F00800F5
:100EC00088610846806900F00800019000BF00BFFB
:100ED000C62002900320039002A9084800F068FA97
:100EE000012002900320039002A9054800F060FA57
:100EF00006B010BD0024014000100240000801406F
:100F0000000C0140F8B504460D4600260020009074
:100F1000002700F0EBFB06462068806800F4807034
:100F200050B1A06A40F02000A06200BF002084F809
:100F3000240000BF0120F8BD2068406800F48070E4
:100F4000F8B92068C06A00F47000D0B912E0681CDB
:100F500080B125B100F0CAFB801BA8420AD9A06A63
:100F600040F00400A06200BF002084F8240000BF0D
:100F70000320E0E72068006800F002000028E6D0C7
:100F800050E0022000F08AFC36490968B1FBF0F01D
:100F900021680969344A114091B92168C9689211E0
:100FA000114069B921680969304A114031B9216895
:100FB000C9689211114009B9142117E0292115E0DF
:100FC00021680969294A114021B92168C96892112B
:100FD000114041B121680969254A114029B92168A8
:100FE000C968114009B9542100E0FC2100FB01F758
:100FF00015E0681C80B125B100F078FB801BA84289
:101000000AD9A06A40F00400A06200BF002084F862
:10101000240000BF03208EE70098401C0090009839
:10102000B842E6D36FF0120021680860A06A40F46D
:101030000070A0622068806800F46020B0F5602F26
:101040000DD1207B58B9A06A20F48070A062A06AFC
:1010500000F4805018B9A06A40F00100A06200209E
:1010600069E7000058000020244992249224491284
:101070004992240070B50446002500BF94F824006E
:10108000012801D1022070BD012084F8240000BF96
:101090002046FFF75BFB0546002D77D1A06A40F2A2
:1010A0000121884340F48070A0623C492068884256
:1010B00008D13B48006800F4702008B9012002E024
:1010C000002000E0012078B1A06A20F48010A06226
:1010D0002068406800F4806000B3A06A20F40050EB
:1010E00040F48050A06219E0A06A40F48010A06231
:1010F0002B49091F2068884203D02849206888426C
:1011000004D12748006800F4806000E0002028B186
:10111000A06A20F4005040F48050A062A06A00F45D
:10112000805020B1E06A20F00600E06201E000207B
:10113000E06200BF002084F8240000BFC01E2168C8
:1011400008602068806800F46020B0F5602F16D138
:1011500012492068884208D11148006800F47020C4
:1011600008B9012002E0002000E0012038B1206829
:10117000806840F4A000216888600CE006E02068E8
:10118000806840F480102168886004E000BF00207F
:1011900084F8240000BF284675E7000000280140BD
:1011A0000424014070B50446002500BF94F82400D3
:1011B000012801D1022070BD012084F8240000BF65
:1011C0002046FFF79AFA05462DB9A06A20F4885008
:1011D00040F00100A06200BF002084F8240000BF9E
:1011E0002846E8E770B50446002594F82100022857
:1011F00003D00420A063012548E02068006820F0A7
:101200000E00216808602068006820F00100216855
:1012100008601F492068884201D1012026E01C494E
:1012200014312068884201D110201FE0184928316C
:101230002068884201D1801518E015493C312068AA
:10124000884201D1801411E0114950312068884250
:1012500002D14FF4803009E00D49643120688842A2
:1012600002D14FF4801001E04FF080700849083936
:101270004860012084F8210000BF002084F820008D
:1012800000BF606B10B12046616B8847284670BD77
:101290000800024070B5044600F028FA06462546CC
:1012A000681C10B104480078054400BF00F01EFA25
:1012B000801BA842FAD370BD540000200348006987
:1012C00040F0800001490861002070470020024082
:1012D0002DE9FE4F05468B46174698460126002409
:1012E0000020029000BF2448007E012802D1022085
:1012F000BDE8FE8F01202049087600BF4CF2503037
:10130000FFF7D8FA064686BB012D02D101200290D4
:1013100006E0022D02D10220029001E0042002909A
:1013200000241EE02201B946C24648465146FEF757
:10133000F9FE80B20190022000FB04B000900199F8
:10134000FFF766FA4CF25030FFF7B4FA06460B4846
:10135000006920F001000949086106B104E0601C41
:10136000C4B202988442DDDB00BF00BF0020024906
:10137000087600BF3046BBE7600C0020002002402A
:1013800000200849096901F0800151B10649054A68
:101390005160064951601146096901F0800101B1AF
:1013A000012070470020024023016745AB89EFCD43
:1013B0002DE9F8470346002294466EE14FF00108FC
:1013C00008FA02F4D1F8008008EA0400A0427DD1B6
:1013D000DFF8DCA2D1F80480A8EB0A09D0453AD0A6
:1013E00014DCB8F1030F50D009DCB8F1000F31D094
:1013F000B8F1010F1CD0B8F1020F49D120E0B8F1CB
:10140000110F18D0B8F1120F42D11EE0B9F5881FA4
:1014100025D006DCB9F5803F20D0B9F5801F37D143
:101420001AE0B9F5001F18D0B9F5041F30D117E044
:10143000D1F80CC02DE0D1F80C8008F1040C28E0A4
:10144000D1F80C8008F1080C23E0D1F80C8008F1E9
:101450000C0C1EE000BF00BF00BF00BF00BF00BFFC
:10146000D1F80880B8F1000F02D14FF0040C0BE066
:10147000D1F80880B8F1010F03D14FF0080C1C61BE
:1014800002E04FF0080C5C6103E04FF0000C00E05C
:1014900000BF00BFFF2801D8984601E003F104080F
:1014A0004646FF2802D84FEA820803E0A2F1080866
:1014B0004FEA88084746D6F800804FF00F0909FA2E
:1014C00007F928EA09080CFA07F900E088E048EA79
:1014D0000908C6F80080D1F8048008F08058B8F1F7
:1014E000805F7DD100BFDFF8CC81D8F8188048F04C
:1014F0000108DFF8C091C9F81880C846D8F81880EC
:1015000008F00108CDF8008000BF00BF4FEAB938ED
:101510004FEA920958F829504FEA82784FEA187931
:101520004FF00F0808FA09F825EA0805DFF8888166
:10153000434502D14FF0000816E0DFF880814345B3
:1015400002D14FF001080FE0DFF87481434502D16A
:101550004FF0020808E0DFF86C81434502D14FF0FC
:10156000030801E04FF004084FEA82794FEA197945
:1015700008FA09F848EA0505DFF84C814FEA9209B4
:1015800048F82950D1F8048008F48038B8F5803F35
:101590000AD1DFF83881D8F8008048EA0008DFF87F
:1015A0002C91C9F8008009E0DFF82081D8F800808C
:1015B00028EA0008DFF81491C9F80080D1F8048007
:1015C00008F40038B8F5003F10D1DFF8008108F1C9
:1015D0000408D8F8008048EA0008DFF8F09000E03E
:1015E0005AE009F10409C9F800800DE0DFF8DC8059
:1015F00008F10408D8F8008028EA0008DFF8CC9049
:1016000009F10409C9F80080D1F8048008F48018B1
:10161000B8F5801F0ED1DFF8B48008F10808D8F8BB
:10162000008048EA0008DFF8A49009F10809C9F829
:1016300000800DE0DFF8948008F10808D8F80080F9
:1016400028EA0008DFF8849009F10809C9F8008049
:10165000D1F8048008F40018B8F5001F0ED1DFF8A7
:101660006C8008F10C08D8F8008048EA0008DFF820
:101670005C9009F10C09C9F800800DE0DFF84C809E
:1016800008F10C08D8F8008028EA0008DFF83C9040
:1016900009F10C09C9F80080521CD1F8008028FA21
:1016A00002F8B8F1000F7FF489AEBDE8F8870000BA
:1016B000000011100010024000080140000C014021
:1016C00000100140001401400800014000040140E6
:1016D000C2680A400AB1416100E0016170470AB185
:1016E000016101E00B0403617047000001480068DC
:1016F000704700004C000020034800680349097847
:1017000008440149086070474C0000205400002044
:1017100010B50848006840F0100006490860032032
:1017200000F0A8F8002000F007F800F02BF80020E7
:1017300010BD00000020024070B504460E4800783D
:101740004FF47A71B1FBF0F00C490968B1FBF0F588
:10175000284600F02FFD08B1012070BD102C07D2E3
:1017600000222146501E00F047F80548046001E0C1
:101770000120F2E70020F0E754000020580000208C
:101780005000002008B500BF1148806940F00100FA
:101790000F4988610846806900F00100009000BF91
:1017A00000BF00BF0846C06940F08050C8610846CD
:1017B000C06900F08050009000BF00BF00BF054925
:1017C000486820F0E06040F00070486000BF08BD4D
:1017D000001002400000014001460846002809DBD5
:1017E00000F01F0301229A4043099B0003F1E0230C
:1017F000C3F8002100BF70472DE9F05F80460D4619
:101800001646002702F0CCFA074639462A463346E8
:1018100001F00700C0F1070ABAF1040F02D94FF036
:10182000040A01E0C0F1070AD14600F1040ABAF146
:10183000070F02D24FF0000A01E0A0F1030AD446DC
:101840004FF0010A0AFA09FAAAF1010A0AEA020AA1
:101850000AFA0CFA4FF0010B0BFA0CFBABF1010B7F
:101860000BEA030B4AEA0B042146404602F0A0FAB9
:10187000BDE8F09F00BF00F00702064B19684FF665
:10188000FF031940044B0B4343EA0221014B19604B
:1018900000BF70470CED00E00000FA052DE9F043B1
:1018A00085B006463BA30FCB01AC0FC43DA000683A
:1018B00000904FF00008002500270024A146012ECB
:1018C00030D0022E55D0102E5ED1374844680068C3
:1018D00000F0807000B301A8C4F38341475C04F4B6
:1018E000803070B130484068C0F340401DF800803F
:1018F00004F4803040B12D48B0FBF8F000FB07F550
:1019000002E02B4807FB00F52748406800F4800000
:10191000B0F5800F01D1A94603E068000321B0FBB8
:10192000F1F932E02048046A04F44070B0F5807F99
:1019300005D104F0020010B14FF4004918E004F49E
:101940004070B0F5007F07D11748406A00F00200F0
:1019500010B149F640490BE004F44070B0F5407F07
:1019600006D11148006800F4003008B14FF2244954
:101970000BE000F093F90C494968C1F38131491C2F
:101980004900B0FBF1F900E000BF00BF484605B0D8
:10199000BDE8F08302030405060708090A0B0C0DD5
:1019A0000E0F1010010200000010024000127A0019
:1019B00000093D00F8B5044600260025207800F017
:1019C000010000286BD000274348C06900F0805018
:1019D00070B900BF4048C06940F080503E49C861BE
:1019E0000846C06900F08050009000BF00BF01278A
:1019F0003A48006800F48070B0B93848006840F494
:101A0000807036490860FFF771FE064606E0FFF772
:101A10006DFE801B642801D90320F8BD2F480068A3
:101A200000F480700028F2D02B48006A00F4407562
:101A30002DB3A08800F44070A84220D02648006A48
:101A400020F44075012026490860002008602248E3
:101A5000056205F0010090B1FFF748FE064608E078
:101A6000FFF744FE801B41F28831884201D90320F0
:101A7000D3E71948006A00F002000028F0D01648A9
:101A8000006A20F440706168084313490862012F1E
:101A900004D10846C06920F08050C86100BF20789A
:101AA00000F00200022807D10B48406820F44040B3
:101AB000A168084308494860207800F01000102809
:101AC00007D10548406820F48000E16808430249D6
:101AD00048600020A1E700000010024000700040B4
:101AE0004004424270B504460D460CB9012070BD59
:101AF0005A48006800F00700A8420ED25748006814
:101B000020F007002843554908600846006800F0A7
:101B10000700A84201D00120E9E7207800F0020088
:101B200002281DD1207800F00400042805D14C487B
:101B3000406840F4E0604A494860207800F00800BE
:101B4000082805D14648406840F460504449486040
:101B50004348406820F0F000A168084340494860CD
:101B6000207800F0010078B36068012806D13C4875
:101B7000006800F4003090B90120B8E760680228DE
:101B800006D13748006800F0007040B90120AEE788
:101B90003348006800F0020008B90120A7E7304888
:101BA000406820F00300616808432D494860FFF752
:101BB0009DFD064609E0FFF799FD801B41F2883143
:101BC000884202D9032092E707E02548406800F0E8
:101BD0000C006168B0EB810FEDD12048006800F087
:101BE0000700A8420ED91D48006820F007002843CE
:101BF0001A4908600846006800F00700A84201D0B2
:101C0000012074E7207800F00400042807D114486C
:101C1000406820F4E060E16808431149486020789A
:101C200000F00800082808D10D48406820F46050F2
:101C3000216940EAC1000A49486000F03FF80849BC
:101C40004968C1F30311074A515CC840064908605E
:101C500006480068FFF770FD002048E700200240BA
:101C600000100240CC420008580000205000002024
:101C700001480068704700005800002000B5FFF7D9
:101C8000F7FF04494968C1F30221034A515CC84087
:101C900000BD000000100240DC42000800B5FFF764
:101CA000E7FF04494968C1F3C221034A515CC840B7
:101CB00000BD000000100240DC420008F0B585B015
:101CC0000FF26C0C9CE8E01001A8A0E8E0101CA545
:101CD0002D68009500210022002300240020194DCA
:101CE000696801F00C05F5B1042D02D0082D19D159
:101CF00001E0154819E001ADC1F38346AC5D01F484
:101D0000803555B10F4D6D68C5F340451DF8052070
:101D10000D4D6543B5FBF2F302E00C4D04FB05F3FA
:101D2000184602E000BF084800BF00BF05B0F0BD84
:101D300002030405060708090A0B0C0D0E0F10100C
:101D4000010200000010024000127A0000093D006C
:101D5000F8B504460CB90120F8BD207800F0010068
:101D6000002878D0F848406800F00C0004280CD017
:101D7000F548406800F00C00082811D1F24840688E
:101D800000F48030B0F5803F0AD1EF48006800F4DD
:101D9000003000285FD0606800285CD10120DBE7BC
:101DA00000BF6068B0F5803F06D1E748006840F4A6
:101DB0008030E549086028E0606858B9E24800686A
:101DC00020F48030E04908600846006820F4802054
:101DD00008601AE06068B0F5A02F0BD1DA480068FF
:101DE00040F48020D84908600846006840F48030FC
:101DF00008600AE0D448006820F48030D2490860C6
:101E00000846006820F48020086000BF606888B140
:101E1000FFF76CFC054606E0FFF768FC401B6428F2
:101E200001D9032098E7C848006800F40030002872
:101E3000F2D010E0FFF75AFC054606E0FFF756FC2B
:101E4000401B642801D9032086E7BF48006800F4DE
:101E500000300028F2D1207800F00200022857D18B
:101E6000B948406800F00C0050B1B748406800F035
:101E70000C00082818D1B448406800F4803098B9A4
:101E8000B148006800F0020020B12069012801D0AB
:101E9000012061E7AC48006820F0F800616940EA81
:101EA000C100A949086033E02069E8B10120A749D1
:101EB0000860FFF71BFC054606E0FFF717FC401B18
:101EC000022801D9032047E79F48006800F002007C
:101ED0000028F2D09C48006820F0F800616940EAD0
:101EE000C1009949086013E0002098490860FFF795
:101EF000FDFB054606E0FFF7F9FB401B022801D970
:101F0000032029E79048006800F002000028F2D181
:101F1000207800F0080008282DD1A069B8B1012070
:101F20008B490860FFF7E2FB054606E0FFF7DEFBA2
:101F3000401B022801D903200EE78348406A00F0C5
:101F400002000028F2D0012001F030F913E0002057
:101F50007F490860FFF7CAFB054606E0FFF7C6FBAE
:101F6000401B022801D90320F6E67748406A00F0BA
:101F700002000028F2D1207800F00400042873D178
:101F800000277148C06900F0805070B900BF6E48EA
:101F9000C06940F080506C49C8610846C06900F0D3
:101FA0008050009000BF00BF01276A48006800F41D
:101FB0008070B0B96748006840F480706549086077
:101FC000FFF794FB054606E0FFF790FB401B6428F3
:101FD00001D90320C0E65F48006800F48070002843
:101FE000F2D000BFE068012806D15748006A40F0EF
:101FF00001005549086227E0E06858B95248006A74
:1020000020F00100504908620846006A20F00400F0
:10201000086219E0E06805280BD14B48006A40F0DF
:102020000400494908620846006A40F0010008625D
:102030000AE04548006A20F001004349086208466A
:10204000006A20F00400086200BFE068A0B1FFF75A
:102050004DFB054609E0FFF749FB401B41F2883183
:10206000884202D9032077E622E03748006A00F070
:1020700002000028EFD012E0FFF738FB054608E029
:10208000FFF734FB401B41F28831884201D903201D
:1020900062E62D48006A00F002000028F0D1012F0E
:1020A00005D12948C06920F080502749C86100BF88
:1020B000E069C8B32448406800F00C00082860D0EC
:1020C000E069022848D1002020490866FFF70EFB8E
:1020D000054606E0FFF70AFB401B022801D9032052
:1020E0003AE61948006800F000700028F2D1206A32
:1020F000B0F5803F07D11448406820F40030A16853
:10210000084311494860D4E9080108430E49496869
:1021100021F4741108430C49486001200B490866FA
:10212000FFF7E4FA054607E03DE0FFF7DFFA401B62
:10213000022801D903200FE60348006800F0007070
:102140000028F2D02FE000000010024000004242C0
:102150008004424200700040002014490866FFF7E6
:10216000C5FA054606E0FFF7C1FA401B022801D96F
:102170000320F1E50E48006800F000700028F2D15D
:1021800011E0E069012800D1E6E50948466806F457
:102190008031206A814204D106F47011606A814264
:1021A00001D00120D8E50020D6E500000000424221
:1021B0000010024070B504462546681EB0F1807FCD
:1021C00001D301200FE0681E4FF0E02148610F218C
:1021D0004FF0FF3001F0ECFD00204FF0E02188616E
:1021E00007200861002070BD7047704710B5024697
:1021F00000BF92F83C00012801D1022010BD01204F
:1022000082F83C0000BF022082F83D00106843685D
:102210001068846823F070030868034324F0800486
:10222000486804431068436010688460012082F8A5
:102230003D0000BF002082F83C0000BF00BFDDE78A
:1022400010B504460CB9012010BD94F83D0028B922
:10225000002084F83C00204600F00CF8022084F8AE
:102260003D00211D206801F097FA012084F83D000F
:102270000020E9E738B504462068B0F1804F15D159
:1022800000BF0B48C06940F001000949C861084619
:10229000C06900F00100009000BF00BF002211469D
:1022A0001C20FFF7A9FA1C20FFF796FA38BD0000A2
:1022B0000010024001460868C06840F001000B6849
:1022C000D8600868806800F00702062A05D0086810
:1022D000006840F001000B6818600020704701465C
:1022E0000868C06820F001000A68D06000BF086874
:1022F000006A41F21112104050B90868006A921049
:10230000104028B90868006820F001000A681060D1
:1023100000BF002070472DE9F04104460D4600BF84
:1023200094F83C00012802D10220BDE8F081012090
:1023300084F83C0000BF022084F83D0020688668D5
:1023400026F0770626F47F462068866028685028A5
:1023500033D00CDC202850D004DC00284BD01028CF
:1023600051D149E0302849D040284CD139E060288B
:102370002DD0702807D0B0F5805F03D0B0F5005F96
:1023800041D10DE040E0D5E902136A68206801F010
:102390004EFA2068866846F077062068866033E04B
:1023A000D5E902136A68206801F041FA2068806864
:1023B00040F480402168886026E0EA686968206807
:1023C00001F006FB5021206801F03CFA1CE0EA68AD
:1023D0006968206801F00FFB6021206801F032FA83
:1023E00012E0EA686968206801F0F2FA402120688A
:1023F00001F028FA08E000BF00BF00BF296820688C
:1024000001F020FA00E000BF00BF012084F83D0089
:1024100000BF002084F83C0000BF00BF85E7704784
:1024200010B5044620680069C0F34000D8B12068A8
:10243000C068C0F34000B0B16FF0020021680861CD
:10244000012020772068806900F0030018B1204641
:10245000FFF7E5FF05E0204600F0D8F8204600F041
:1024600075F90020207720680069C0F38000D8B19A
:102470002068C068C0F38000B0B16FF0040021682C
:102480000861022020772068806900F4407018B14C
:102490002046FFF7C4FF05E0204600F0B7F82046CD
:1024A00000F054F90020207720680069C0F3C000D4
:1024B000D8B12068C068C0F3C000B0B16FF00800A8
:1024C00021680861042020772068C06900F00300BB
:1024D00018B12046FFF7A3FF05E0204600F096F86C
:1024E000204600F033F90020207720680069C0F30F
:1024F0000010D8B12068C068C0F30010B0B16FF010
:10250000100021680861082020772068C06900F465
:10251000407018B12046FFF782FF05E0204600F02A
:1025200075F8204600F012F9002020772068006935
:1025300000F0010058B12068C06800F0010030B11F
:102540006FF0010021680861204600F027F920683B
:102550000069C0F3C01058B12068C068C0F3C01053
:1025600030B16FF08000216808612046FFF73CFE23
:1025700020680069C0F3801058B12068C068C0F3BB
:10258000801030B16FF0400021680861204600F0F3
:1025900006F920680069C0F3401058B12068C0688F
:1025A000C0F3401030B16FF0200021680861204670
:1025B000FFF71BFE10BD000010B586B004460020DA
:1025C00002900390049005902068B0F1804F16D1DE
:1025D00000BF0C48806940F004000A498861084641
:1025E000806900F00400019000BF00BF012002904C
:1025F00002200390059002A90348FEF7D9FE06B019
:1026000010BD00000010024000080140704770B586
:1026100004460D46164600BF94F83C00012801D13F
:10262000022070BD012084F83C0000BF022084F825
:102630003D0036B1042E1BD0082E31D00C2E5ED1B9
:1026400045E02946206801F007F92068806940F0DC
:102650000800216888612068806920F004002168F2
:10266000886120688069296908432168886147E09A
:102670002946206801F020F92068806940F4006054
:10268000216888612068806920F480602168886101
:1026900020688069296940EA0120216888612FE06B
:1026A0002946206801F03CF92068C06940F0080024
:1026B0002168C8612068C06920F004002168C861F1
:1026C0002068C069296908432168C86118E0294663
:1026D000206801F059F92068C06940F40060216861
:1026E000C8612068C06920F480602168C8612068E2
:1026F000C069296940EA01202168C86100E000BF83
:1027000000BF012084F83D0000BF002084F83C0099
:1027100000BF00BF85E710B504460CB9012010BD0D
:1027200094F83D0028B9002084F83C00204600F0D1
:102730000CF8022084F83D00211D206801F02CF8DF
:10274000012084F83D000020E9E770477047000051
:1027500070B504460E4601223146206801F056F855
:102760000D492068884201D1012000E0002028B1F5
:102770002068406C40F4004021684864206880680C
:1027800000F00705062D05D02068006840F0010024
:1027900021680860002070BD002C01407047704720
:1027A00070470146C86B70472DE9F0470446206822
:1027B00005682068C668206847694FF00008C14670
:1027C00005F00F08B8F1000F0AD105F0200038B16C
:1027D00006F0200020B1204601F04BF9BDE8F0875B
:1027E000B8F1000F6DD007F0010018B906F4907031
:1027F000002866D005F0010030B106F4807018B1F1
:10280000E06B40F00100E06305F0040030B107F038
:10281000010018B1E06B40F00200E06305F0020037
:1028200030B107F0010018B1E06B40F00400E06344
:1028300005F0080030B107F0010018B1E06B40F07E
:102840000800E063E06B68B305F0200028B106F0F3
:10285000200010B1204601F00CF920684069C0F357
:102860008019E06B00F0080010B9B9F1000F22D018
:10287000204601F0DEF82068406900F04000B0B169
:102880002068406920F0400021684861606B50B1C9
:102890001748616B4863606BFEF7A4FC10B1606B76
:1028A000416B88470CE02046FFF77AFF08E020469E
:1028B000FFF776FF04E02046FFF772FF0020E06399
:1028C0008CE705F0800030B106F0800018B120469A
:1028D00001F0F2F982E705F0400030B106F0400067
:1028E00018B1204601F0B5F878E700BF76E70000A0
:1028F0001F3A000810B504460CB9012010BDA069AC
:1029000000B100E000BF94F8390028B9002084F835
:102910003800204600F028F8242084F83900206888
:10292000C06820F400502168C860204601F0F4F827
:102930002068006920F4904021680861206840699F
:1029400020F02A00216848612068C06840F40050E7
:102950002168C8600020E063202084F8390084F8F2
:102960003A000020CAE7000010B586B004460020F7
:1029700002900390049005901E492068884236D149
:1029800000BF1D48806940F480401B4988610846AB
:10299000806900F48040019000BF00BF00BF08467E
:1029A000806940F0040088610846806900F00400F6
:1029B000019000BF00BF4815029002200390032041
:1029C000059002A90D48FEF7F3FC4FF480600290D9
:1029D00000200390049002A90848FEF7E9FC0022B9
:1029E00011462520FEF708FF2520FEF7F5FE06B06C
:1029F00010BD0000003801400010024000080140F6
:102A000010B5034693F83A0020282FD101B10AB936
:102A1000012010BD00BF93F83800012801D1022029
:102A2000F7E7012083F8380000BF99629A85DA85BC
:102A30000020D863222083F83A0000BF002083F8EA
:102A4000380000BF1868C06840F480701C68E060FF
:102A50001868406940F001001C6860611868C0682F
:102A600040F020001C68E0600020D2E70220D0E7A0
:102A700070B505461949286888422DD11848007854
:102A8000401C174908701748FFF78BFE08B1012456
:102A900000E000241448D0F8100440F2FF7188428E
:102AA00015D2A4B9114801780F48D0F810240D3080
:102AB00081540D38D0F81004401C0B49C1F81004A3
:102AC000012081F81404FEF711FE09490860012273
:102AD00006490448FFF794FF70BD0000003801402C
:102AE0000D0000201C0C0020640000200C000020C1
:102AF000100000202DE9F84304460D4616461F46F7
:102B00004FF0000994F8390020285CD105B116B9BE
:102B10000120BDE8F88300BF94F83800012801D1F6
:102B20000220F6E7012084F8380000BF0020E063AF
:102B3000212084F83900FEF7D9FD8146A684E68479
:102B40002BE0E08C401EE084A068B0F5805F16D1D9
:102B50004B46002280212046009701F0E1F808B1A1
:102B60000320D6E7A846B8F80000C0F308002168A3
:102B70004860206908B9AD1C0FE06D1C0DE04B46A4
:102B8000002280212046009701F0CAF808B10320F6
:102B9000BFE715F8010B21684860E08C0028D0D110
:102BA0004B46002240212046009701F0B9F808B1B9
:102BB0000320AEE7202084F8390000BF002084F80D
:102BC000380000BFA5E70220A3E7704700BFFEE77B
:102BD0000EB500200090019002902448244908601E
:102BE00081152348816000210173012101758161F4
:102BF0004FF46021C16100201D49486004211C4838
:102C00000161FEF78FF808B1FDF701FE1120009079
:102C1000012001900620029069461548FDF7CEFF7D
:102C200008B1FDF7F4FD06200090022001906946EE
:102C30000F48FDF7C3FF08B1FDF7E9FD082000903C
:102C40000320019069460A48FDF7B8FF08B1FDF777
:102C5000DEFD072000900420019069460448FDF73E
:102C6000ADFF08B1FDF7D3FD0EBD0000002401400B
:102C7000AC0B002000B585B00020019002900390BD
:102C8000049000BF3348806940F0200031498861DA
:102C90000846806900F02000009000BF00BF00BF20
:102CA0000846806940F0040088610846806900F0A9
:102CB0000400009000BF00BF00BF0846806940F0DC
:102CC000080088610846806900F00800009000BF95
:102CD00000BF002201212048FEF701FD00224FF431
:102CE00088711E48FEF7FBFC00224FF400511C487F
:102CF000FEF7F5FC012001900290002003900220D5
:102D0000049001A91448FEF753FB4FF4887001901A
:102D100001200290002003900220049001A90F4896
:102D2000FEF746FB4FF40050019001200290002076
:102D300003900220049001A90948FEF739FB00BF67
:102D40000849486840F0E06040F40040486000BF37
:102D500005B000BD00100240001401400008014011
:102D6000000C01400000014000B58DB0002009902A
:102D70000A900B900C90079008901C216846FDF774
:102D8000E8F94FF080401F49086041F2BF204860D9
:102D900010211C4881602721C160002101618161EF
:102DA000FFF74EFA08B1FDF732FD4FF4805009905D
:102DB00009A91448FFF7AFFA08B1FDF728FD11483B
:102DC000FFF7A9FC08B1FDF722FD0020079008904D
:102DD00007A90C48FFF70AFA08B1FDF718FD6020B3
:102DE000009000200190029004900022694605485E
:102DF000FFF70DFC08B1FDF70AFD0248FFF7DCFB09
:102E00000DB000BDDC0B002010B50B480B4908606D
:102E10004FF416504860002108488160C16001618C
:102E20000C21416100218161C161FFF763FD08B19F
:102E3000FDF7EDFC10BD0000003801401C0C002027
:102E400000BFFEE710B57848817C407C41EA002055
:102E5000764908607648006809680844B0F57A7FCA
:102E600078D27148407B704981F815040846817B0F
:102E700080F816146D4800784006010E6A4880F804
:102E8000171400248FE06A49096802292CD1012C0B
:102E900016DA68494869010A09B1012200E00022F6
:102EA000032101EB44036449CA54C1B209B10122B0
:102EB00000E00022042101EB44035F49CA5470E0A2
:102EC000022C6EDA5B498869010A09B1012200E02F
:102ED0000022032101EB44035749CA54042101EBAA
:102EE00044035549C8545CE051490968032919D184
:102EF000012C56DA4F498969090A09B1012200E01B
:102F00000022032101EB44034B49CA544949097E7D
:102F100009B1012200E00022042101EB44034649EB
:102F2000CA543EE042490968B1F5807F1AD1012CAC
:102F300037DA3D494979091209B1012200E000223E
:102F4000032101EB44033C49CA543749497911B183
:102F5000012201E054E00022042101EB4403364940
:102F6000CA541EE03249096840F20112914218D158
:102F7000012C16DA2C490968090A09B1012200E07E
:102F80000022032101EB44032B49CA542649097846
:102F900009B1012200E00022042101EB440326498B
:102FA000CA54601CC4B2214800688442FFF46BAF6D
:102FB0001E480068032202EB40011F48FDF70AFC8F
:102FC0001E49086008460088C0F3072117480068BA
:102FD000032202EB40021848815418480178134834
:102FE0000068042202EB4002134881540F48007825
:102FF000052202EB4000C1B20F4800F037F912E0A1
:103000000948407B084981F815040846807B40F058
:103010008001054880F81614022180F81714032156
:10302000054800F023F910BD6400002004000020D2
:103030000000002080080020790400200800002003
:1030400010B554480068544909680844B0F57A7FBF
:103050007ED25248407B514981F815040846817B55
:1030600080F816144B480088010A4C4880F8171461
:1030700048480178494880F81814417C80F81914B0
:10308000817C80F81A14002454E042480068B0F5AE
:10309000807F07D1012C34DA404890F81A043F4968
:1030A00048712EE03B48006840F20111884228D167
:1030B000012C26DA394890F81A0430B1012809D0D9
:1030C00002280CD0032814D10EE04FF416603349C7
:1030D000086013E04FF49650304908600EE04FF45A
:1030E00016502E49086009E04FF4E1302B49086082
:1030F00004E04FF416502949086000BF00BF00F0FB
:1031000069F801225A21002000F0CEFE23484179BF
:103110000122104600F0C8FE20480122016802206A
:1031200000F0C2FE1D4801790122032000F0BCFE20
:10313000601CC4B2184800688442A6D3062118480F
:10314000FDF748FB1749086008460088010A00E0BF
:103150000CE0124880F81B14124801780F4880F8E0
:103160001C1408210E4800F081F812E00B48407B47
:103170000A4981F815040846807B40F08001074821
:1031800080F81614022180F817140321044800F077
:103190006DF810BD00000020040000206400002035
:1031A00079040020080000207047704708B50849DE
:1031B0000968C9084FF47A72B1FBF2F141430091FA
:1031C00000BF00BF00994A1E00920029F9D108BD36
:1031D0005800002010B520482049086020480068A9
:1031E000486000211D488160C16001610C2141617E
:1031F00000218161C1611A48007920B1012806D0FF
:1032000002280ED108E000211448016109E04FF4C2
:10321000C0611248016104E04FF480610F48016110
:1032200000BF00BF0D48FFF765FB08B1FDF7EFFADF
:1032300000224FF480710B48FEF751FA0020084934
:103240000873012208490548FFF7DAFB4FF41650CE
:103250000349086010BD0000003801401C0C00202C
:1032600064000020000801400C00002070B50446F6
:103270000D46012211020648FEF731FA01200549E8
:10328000087364232A4621460348FFF733FC70BDC8
:1032900000080140640000201C0C002010B55348B9
:1032A00090F81404022871D15048407B4F49497965
:1032B000884240D14D48807B032803D04B48807B17
:1032C000062864D14948017CC07B41EA0020484976
:1032D000086008460068B0F57A7F42D24348D0F8CB
:1032E0001004811E41480D30FDF774FA4149086011
:1032F0003E48D0F81004401E3C490D310A5C3B4862
:10330000D0F81004801E085C42EA002439480068A6
:10331000A04211D13548807B032802D0062809D16C
:1033200005E03020FDF7FEFAFFF78CFD03E0FFF724
:1033300087FE00E000BF3EE02C48407B2B4981F82F
:1033400015040846807B40F08001284880F8161458
:10335000042180F81714032100F21540FFF786FFBF
:1033600029E02248407B214981F815040846807BEA
:1033700040F080011D4880F81614022180F81714CF
:10338000032100F21540FFF771FF14E01AE017481F
:10339000407B164981F815040846807B40F0800187
:1033A000124880F81614012180F81714032100F246
:1033B0001540FFF75BFF00200C4981F81404C1F8A9
:1033C00010040873094890F81404032806D100205B
:1033D000064981F81404C1F81004087300224FF460
:1033E00080710548FEF77BF910BD000064000020E5
:1033F0000000002008000020000801407047000085
:103400002DE9F04706468946012E1DD14B49086833
:103410004946FCF701FF80464946FCF7FDFE07469A
:10342000464881683846FCF79FFE4449C8604868B2
:103430004946FCF7F1FE07464048C1683846FCF7AC
:1034400093FE3E49C8601CE03C4908684946FCF7C9
:10345000E3FE80464946FCF7DFFE074637488168B1
:103460003846FCF781FE3549C86048684946FCF794
:10347000D3FE07463148C1683846FCF775FE2F4930
:10348000C8604846FDF732F807462D4A2D4BFDF738
:1034900041F804D200202949C8602B490860274818
:1034A000C16829480068FCF75FFE27490860274883
:1034B0000078401C254908700846007830280BDA4F
:1034C00008460078FCF7F9FF074639461E480068B1
:1034D000FCF7D4FE05460FE01C480078FCF7EDFF32
:1034E0000746394618480068FCF7C8FE0546002024
:1034F000164908701449086000212846FDF73EF877
:1035000006D22846FCF7DEFF0446E043441C07E0F1
:103510000F492846FCF780FE0746FCF7D3FF044618
:103520002046FCF7CAFF0549C860C868FCF7CAFF17
:103530000746FCF7C2FFBDE8F08700009C0B0020A7
:103540003D0AD7A3703DF83F340000203000002032
:10355000000020412DE9F04F87B00D461646DFF8F8
:103560001CB1474805904748049047492846FCF756
:1035700053FE80463146FCF781FE07464249FCF780
:1035800045FE814641494846FCF746FE8046FCF729
:1035900099FF0746FCF791FF81464846FCF7A6FFD6
:1035A00000223B4BCDE90001FCF718FF0746FCF772
:1035B000C9FF814649465846FCF72EFE0746494654
:1035C000FCF72AFE039049460598FCF725FE029079
:1035D000DDE90210FCF7C8FD824650460499FCF76D
:1035E000C3FD82462B495046FCF716FE82465146E3
:1035F00029480068FCF7B8FD27490860274800788B
:10360000401C264908700846007830280BDA084626
:103610000078FCF752FF074639461F480068FCF760
:103620002DFE82460FE01D480078FCF746FF074656
:10363000394619480068FCF721FE824600201749E8
:1036400008701549086016495046FCF7DFFD8246B0
:1036500000215046FCF792FF06D25046FCF732FF9D
:103660000446E043441C03E05046FCF72BFF0446AD
:103670002046FCF722FF07B0BDE8F08F52499D3A83
:103680009F3C1440299C73C30080F94300401C46B2
:103690000088C34000002041380000203C0000208A
:1036A0000000F04110B5FEF727F800F0E3FC10BD74
:1036B00000B593B0282109A8FCF74BFD142104A8FC
:1036C000FCF747FD0020009001900290039002203B
:1036D000099001200D9010200E90022010900021E2
:1036E00011914FF42011129109A8FEF731FB08B196
:1036F000FDF78DF80F200490022005900020069021
:103700004FF48060079000200890012104A8FEF784
:10371000E9F908B1FDF77BF8022000904003029020
:103720006846FEF747F908B1FDF771F813B000BD20
:103730001148006840F001000F49086008464068E1
:103740000E4908400C494860084600680C4908408A
:10375000094908600846006820F48020086008468F
:10376000406820F4FE0048604FF41F008860C803E2
:103770000449086070470000001002400000FFF894
:10378000FFFFF6FE08ED00E010B50248FEF748FE28
:1037900010BD0000DC0B002010B50268184B9842E9
:1037A00008D0B0F1804F05D0164B984202D0164B8E
:1037B000984203D122F070024B681A43104B984292
:1037C00008D0B0F1804F05D00E4B984202D00E4B7E
:1037D000984203D122F44072CB681A4322F080034E
:1037E0004C6943EA040202608B68C3620B6883621F
:1037F000034B984201D10B6903630123436110BD60
:10380000002C0140000400400008004030B501F0E9
:103810001F05012404FA05F3046A9C430462046A48
:1038200001F01F0502FA05F52C43046230BD30B5E6
:103830000C46816821F47F4142EA03252543294350
:10384000816030BD0A46816821F0700142F00703B3
:10385000194381607047000030B5056A25F0010505
:103860000562026A4368846924F0700424F003044A
:103870000D682C4322F002028D682A430D4DA842A8
:1038800006D100BF22F00802CD682A4322F00402CC
:10389000084DA84207D123F4807323F400734D69C7
:1038A0002B438D692B43436084614D6845630262FD
:1038B00030BD0000002C014030B5056A25F0100530
:1038C0000562026A4368846924F4E04424F4407485
:1038D0000D6844EA052422F020028D6842EA0512B0
:1038E0000E4DA84207D100BF22F08002CD6842EA07
:1038F000051222F04002094DA84209D123F4806349
:1039000023F400634D6943EA85038D6943EA850327
:10391000436084614D688563026230BD002C0140C4
:1039200030B5056A25F480750562026A4368C4698A
:1039300024F0700424F003040D682C4322F4007278
:103940008D6842EA05220F4DA84207D100BF22F43C
:103950000062CD6842EA052222F48062094DA84245
:1039600009D123F4805323F400534D6943EA05132E
:103970008D6943EA05134360C4614D68C563026203
:1039800030BD0000002C014030B5056A25F480559B
:103990000562036A4468C26922F4E04222F440727C
:1039A0000D6842EA052223F400538D6843EA05338B
:1039B000064DA84204D124F480444D6944EA85149C
:1039C0004460C2614D680564036230BD002C014053
:1039D00030B50B461446026A056A25F001050562FA
:1039E000816921F0F00141EA041122F00A021A4330
:1039F0008161026230BD30B50B461446056A25F080
:103A0000100505628169026A21F4704141EA0431BE
:103A100022F0A00242EA03128161026230BD70B559
:103A200005466C6A0020E085E0842046FEF7B8FE7B
:103A300070BD0168C96821F490710268D1600168A5
:103A4000496921F0010102685161202180F83A1092
:103A5000704710B504462068C06820F04000216817
:103A6000C860202084F839002046FFF7AEF8002017
:103A700010BD70B5044694F83A0022284AD1A068D7
:103A8000B0F5805F13D1A56A206940B9206840680D
:103A9000C0F308002880A06A801CA06219E020689A
:103AA0004068C0B22880A06A401CA06211E0206972
:103AB00038B920684068C1B2A26A501CA062117077
:103AC00007E02068406800F07F01A26A501CA062F5
:103AD0001170E08D401E80B2E085C8B92068C068D2
:103AE00020F020002168C8602068C06820F4807041
:103AF0002168C8602068406920F0010021684861A1
:103B0000202084F83A002046FEF7B2FF002070BD66
:103B10000020FCE70220FAE770B504462168096935
:103B200021F44051E2681143226811612269A168C1
:103B30001143626941EA02052168C96841F20C62D9
:103B4000914329432268D1602168496921F4407179
:103B5000A269114322685161564A2168914254D1A9
:103B6000FEF79CF800EBC00101EB001162689200C7
:103B7000B1FBF2F100EBC00202EB001263689B00A4
:103B8000B2FBF3F26423B2FBF3F202EBC20303EBEA
:103B90000212A1EB8201322202EB01116422B1FB7D
:103BA000F2F101F0F00100EBC00202EB00126368D9
:103BB0009B00B2FBF3F26423B2FBF3F201EB0212BF
:103BC00000EBC00101EB001163689B00B1FBF3F156
:103BD00000EBC00303EB00136668B600B3FBF6F31B
:103BE0006426B3FBF6F303EBC30606EB0313A1EB6A
:103BF0008301322303EB01116423B1FBF3F101F0E4
:103C00000F0111442268916053E0FEF737F800EB92
:103C1000C00101EB001162689200B1FBF2F100EB10
:103C2000C00202EB001263689B00B2FBF3F2642354
:103C3000B2FBF3F202EBC20303EB0212A1EB82012F
:103C4000322202EB01116422B1FBF2F101F0F0012A
:103C500000EBC00202EB001263689B00B2FBF3F2C0
:103C60006423B2FBF3F201EB021200EBC00101EBA3
:103C7000001163689B00B1FBF3F100EBC00303EBA1
:103C800000136668B600B3FBF6F36426B3FBF6F3E5
:103C900003EBC30606EB0313A1EB8301322303EB13
:103CA00001116423B1FBF3F101F00F01114422680B
:103CB000916070BD00380140014691F8390021281B
:103CC0002CD18868B0F5805F0FD10A6A1088C0F3E4
:103CD00008000B685860086918B9086A801C0862F7
:103CE00009E0086A401C086205E00B6A581C08627B
:103CF00018780B685860C88C401E80B2C88458B9C8
:103D00000868C06820F080000B68D8600868C06848
:103D100040F040000B68D860002070470220FCE7AC
:103D20002DE9F04104460D4617469846069E21E0CF
:103D3000701CF8B12EB1FDF7D9FCA0EB0800B04221
:103D400018D92068C06820F4D0702168C860206845
:103D5000406920F0010021684861202084F8390082
:103D600084F83A0000BF002084F8380000BF032028
:103D7000BDE8F081206800682840A84201D10120F8
:103D800000E00020B842D3D00020F1E710B502488F
:103D9000FEF70AFD10BD00001C0C002000BFFEE76E
:103DA00002480068C0F30220704700000CED00E0FC
:103DB00010B5002804DB0A07130E054A135406E069
:103DC0000A07140E034A00F00F031B1FD45410BD42
:103DD00000E400E018ED00E002E008C8121F08C18E
:103DE000002AFAD170477047002001E001C1121F7C
:103DF000002AFBD1704710B5FFF750FA10BD000044
:103E000030B502460023002432B1012A08D0022A2C
:103E10000AD0032A10D10BE00F48104D28600BE0A8
:103E20000F480E4D286007E00E480C4D286003E057
:103E30000D480A4D286000BF00BF002106E007487A
:103E4000006850F821000344481CC1B23029F6DB59
:103E50003020B3FBF0F030BD9C0800202C00002087
:103E60005C0900201C0A0020DC0A002030B5034653
:103E70000B4C042505FB03440A4D2C6000200BE08D
:103E8000084C2468246841F82040064C2468241D0E
:103E9000044D2C60441CA0B29042F1DB30BD000008
:103EA00000EC01085C0000202DE9F04105460C46BD
:103EB0001646FDF765FA0D48042101FB05000C4983
:103EC000086000270CE02246002309480168022010
:103ED000FDF7FEF906480068001D054908607F1CD3
:103EE000B742F0DBFDF7EAF9BDE8F08100EC01082C
:103EF0005C000020FDF70CFCFFF7DAFBFEF7BAFED2
:103F0000FEF766FEFEF780FFFEF72EFF00F034F8A6
:103F1000FFF760F9002201211348FDF7E0FB134889
:103F2000FEF7C8F900211148FEF712FCFDF7DEFB91
:103F30000F49086016E04FF47A70FDF7ABF94FF4C3
:103F400000510C48FDF7C4FBFDF7D0FB0849096898
:103F5000401AB0F57A7F03D3FDF7C8FB0449086027
:103F6000FFF749FFE7E7000000140140DC0B0020E9
:103F700044000020000C014030B589B00024082224
:103F800001A92046FFF772FF0120354948714FF41F
:103F9000165008600020087101985A281BD1029819
:103FA000487103980860049808710598FCF785FA31
:103FB0002C4908600698FCF780FA2A49486007985F
:103FC000FCF77BFA27498860274808602748486043
:103FD0002748886042E02046621CD4B201225A2160
:103FE000FFF762FF1E4A51792046631CDCB20122B2
:103FF000FFF75AFF1A4A2046631CDCB211680122FF
:10400000FFF752FF164A11792046631CDCB20122E9
:10401000FFF74AFF13490868FCF754FA05462046A3
:10402000621CD4B201222946FFF73EFF0D494868C1
:10403000FCF748FA05462046621CD4B20122294604
:10404000FFF732FF07498868FCF73CFA054620462F
:10405000621CD4B201222946FFF726FF09B030BD09
:10406000640000209C0B00209AA133C5CDD00F46E0
:10407000CD64E5C510B51248FEF731F901201149AC
:104080000873084690F8140401280BD1FDF72EFBA5
:104090000D490968401A042811D30220094981F802
:1040A00014040CE0074890F81404022807D0FDF728
:1040B0001DFB054908600320024981F8140410BD66
:1040C000DC0B0020640000201000002000C18140B3
:1040D00001C0804101C0804100C1814001C08041D8
:1040E00000C1814000C1814001C0804101C08041C8
:1040F00000C1814000C1814001C0804100C18140B8
:1041000001C0804101C0804100C1814001C08041A7
:1041100000C1814000C1814001C0804100C1814097
:1041200001C0804101C0804100C1814000C1814087
:1041300001C0804101C0804100C1814001C0804177
:1041400000C1814000C1814001C0804101C0804167
:1041500000C1814000C1814001C0804100C1814057
:1041600001C0804101C0804100C1814000C1814047
:1041700001C0804101C0804100C1814001C0804137
:1041800000C1814000C1814001C0804100C1814027
:1041900001C0804101C0804100C1814001C0804117
:1041A00000C1814000C1814001C0804101C0804107
:1041B00000C1814000C1814001C0804100C18140F7
:1041C00001C0804101C0804100C1814000C0C101E7
:1041D000C30302C2C60607C705C5C404CC0C0DCD77
:1041E0000FCFCE0E0ACACB0BC90908C8D81819D9E7
:1041F0001BDBDA1A1EDEDF1FDD1D1CDC14D4D51517
:10420000D71716D6D21213D311D1D010F03031F106
:1042100033F3F23236F6F737F53534F43CFCFD3D36
:10422000FF3F3EFEFA3A3BFB39F9F83828E8E92926
:10423000EB2B2AEAEE2E2FEF2DEDEC2CE42425E5D6
:1042400027E7E62622E2E323E12120E0A06061A146
:1042500063A3A26266A6A767A56564A46CACAD6DF6
:10426000AF6F6EAEAA6A6BAB69A9A86878B8B97966
:10427000BB7B7ABABE7E7FBF7DBDBC7CB47475B596
:1042800077B7B67672B2B373B17170B05090915186
:104290009353529296565797559594549C5C5D9DB6
:1042A0005F9F9E5E5A9A9B5B9959589888484989A6
:1042B0004B8B8A4A4E8E8F4F8D4D4C8C4484854556
:1042C0008747468682424383418180400000000048
:1042D00000000000010203040607080900000000B6
:1042E00001020304044300080000002064000000F1
:1042F000D83D000868430008640000201C1000003E
:10430000E83D000800000000000000000000000080
:10431000000000000000000000000000000000009D
:10432000000000000000000000000000000000008D
:10433000000000000000000000000000000000007D
:10434000000000000000000000000000000000006D
:104350000000000010000000010000000024F40034
:0843600000EC01080000000060
:04000005080000ED02
:00000001FF
