:020000040800F2
:1000000020060020D50000081D210008F91800086E
:1000100000000000000000000000000000000000E0
:100020000000000000000000000000002121000886
:1000300000000000000000001F210008232100082C
:10004000E7000008E7000008E7000008E7000008F4
:10005000E7000008E7000008E7000008E7000008E4
:1000600000000000E7000008E7000008E7000008C3
:10007000E7000008E7000008E7000008E7000008C4
:10008000E7000008E7000008E7000008E7000008B4
:1000900000000000E7000008E7000008E700000893
:1000A000E7000008E7000008E7000008E700000894
:1000B000E7000008E7000008000000000000000062
:1000C0000348854600F02CFB00480047E12B000860
:1000D000200600200448804704480047FEE7FEE76A
:1000E000FEE7FEE7FEE7FEE789210008C100000801
:1000F00030B50B46014600202022012409E00D46C0
:10010000D5409D4205D31D469540491B2546954047
:1001100040191546521E002DF1DC30BDF0B51FB45C
:100120000646002082B005464024019100901BE065
:10013000019922460F46304600F041FA049A059B89
:10014000801A994110D310461946224600F027FA2A
:10015000361A8F410197224601200021009F00F0AE
:100160001EFA38184D4100902046641E0028DFDC3E
:10017000019B00982946324607B0F0BDD2B201E09B
:100180000270401C491EFBD270470022F6E710B5F2
:1001900013460A4604461946FFF7F0FF204610BDF5
:1001A000421C0178401C0029FBD1801A7047F8B529
:1001B00002464A40D40F42004B0052085B089A4264
:1001C00002D20246084611464A0023D0C30D4A0017
:1001D000DDB2120EAD1A202D35DA49020126490A88
:1001E000F6058A19002C00D0524220214F1B1146DF
:1001F000B9402A411018C20D9A4221D0002C17D0C4
:10020000012D08DCDA05801AD20F8019D207DBB283
:1002100000F0EEF9F8BDDA05801A012340001B0654
:10022000C01880185A428018CA0F1043490007E0CE
:100230004908C2071143DA05801A8019400880185E
:1002400000F0CEF9F8BD61000122511A001BF7E75A
:100250000122D2075140AAE70122D2075040A6E767
:10026000024670B54A40D30FDB0740002DD04A004C
:100270002AD0010E140E000212020919400A520A75
:100280008418E50104465443000A120A2E04504320
:10029000A4194219200CC543AA18120C0125AD035C
:1002A000521C521912047F39240400D0521C1043EE
:1002B00001D44000491EC2B20C06C0092018401CDF
:1002C0004008802A02D003E0002070BD40084000B2
:1002D000002900DA0020184370BD70B502464A407C
:1002E000D50F40004A00ED0740085208002814D0FE
:1002F000002A12D0C40DD30D41020120C0055202C4
:10030000490A520AE41A091812187D34914201D39D
:10031000641C00E04900002C01DA002070BD0023BD
:10032000914201D3891A0343400849000028F7D1BC
:1003300000290AD0914202D10121C90705E091426A
:1003400001D2012101E00121C943E005C018401993
:1003500000F046F970BD420005D04200120E524234
:100360008A4201DB00207047C90508187047000069
:10037000F0B51FB488B00B9909980024484009993A
:10038000C00F490049080991C0070B990090490026
:1003900049080B9109990898A64608431CD00B9967
:1003A0000A98084318D0099801244000420D4800DB
:1003B000410D099824050003000B204309900B9878
:1003C0000003000B20430B9050181C4940180022DA
:1003D00001901446104605E0002001460DB0F0BD26
:1003E000032801DA034600E003239C46C11A0AAE43
:1003F0000AE05F0008ADED5B4F00F75B7D4300272F
:10040000AA187C41491C5B1E6145F2DD410004AB2A
:100410005A522104120C0A43240C401C0828DFDB2A
:10042000019802900099704601910090059B049AF2
:100430000799069800F022F9D0E700000DFCFFFFB5
:10044000F0B50C465C4085B0E40FE40703944C0023
:100450000026640859009446490802460296224341
:1004600021D062460A431ED06200570D4A000E0397
:100470002303550D012402462C492405781B1B0B30
:10048000360B401823432643614600901C46501A01
:10049000B44103D30098401C009002E092180098E9
:1004A0005B41002803DA0020014605B0F0BD0020C2
:1004B000012109050746864611E064461D46141BC6
:1004C000B54106D36546521BB341744607430C43FE
:1004D000A646CD0740084908284392185B410546C7
:1004E0000D43EAD11046184313D0604619465040D8
:1004F0007140084306D06046101AB34106D201226B
:10050000002306E000220123DB0702E00122D243A0
:100510005310009874460105381C6141029C039DEC
:100520000019694100F09DF8BFE70000FD030000DD
:1005300010B500229623114600F05AF810BDC20FE4
:10054000D207400040080BD0C10D0723DB01C918BA
:1005500040020905400A1143C20840071143704791
:10056000002001467047CB0FDB07490010B5490852
:1005700002460A4307D00A0D07240903E401090BC8
:10058000121B002A01DC002010BDC900440F0C43DF
:10059000C100E018D205801800F022F810BD10B597
:1005A000202A04DB0146203A9140002010BD9140F2
:1005B00020239C1A0346E3401943904010BD10B518
:1005C000202A04DB0846203AD040002110BD0B460B
:1005D000D340D0402024A21A91400843194610BDB0
:1005E000002904DA401C490001D14008400070474E
:1005F00070B40024050C05D11024000402D1002998
:1006000021D01124050E01D100020834050F01D1BB
:100610000001241D850F01D18000A41C002801DBEE
:100620004000641C002908D020252E1B0D46F540F3
:10063000A14000D001212943084301061B1B000AE9
:10064000DB1D02D5002070BC7047DB051818801830
:100650000029F8DA401C4900F5D170BC4008400080
:10066000704710B5002B08DA0024401C6141921835
:100670005B411A4301D14008400010BDF0B51FB4E2
:1006800082B005460C0003D0084602F0B1F902E042
:1006900002F0AEF920300246009021462846FFF7CE
:1006A0007EFF049B059A04460F46184311430843F6
:1006B00014D0184610431BD0009840210A1A18463F
:1006C0000599FFF77CFF05460E46009A05990498A8
:1006D000FFF765FF084305D0012004E020463946B6
:1006E00007B0F0BD0020C11705430E432C4337432C
:1006F00000990E986305401A7905E40A00220C431C
:10070000FD0A0A3002D500200146E9E7010510196B
:1007100069410C9C0D9D00196941FFF7A2FFDFE7BD
:10072000064C0125064E05E0E36807CC2B430C3C44
:1007300098471034B442F7D3FFF7C6FC142D0008D5
:10074000342D0008F8B5174C0D461749A062FFF785
:100750007FFD0D21C943FFF7FEFDFFF7F0FE134EAD
:10076000134B3246FFF704FE0022124BFFF700FE48
:10077000114A124BFFF764FEFFF7F5FE0746E062F1
:1007800029460F48FFF764FDFFF7D9FE32460D4BAF
:10079000FFF756FEFFF7E7FE01466062384601F0BC
:1007A000DDFBF8BD100000200080894466666666A7
:1007B0006666F63F008066401F85EB51B81E094013
:1007C0000000F0C16666304010B5002001F074FBF7
:1007D0000A2000F007F801F07BFA0A2000F002F886
:1007E00010BD000070B5044600F0A8F80546601C76
:1007F00002D004484068241800F0A0F8401BA04232
:10080000FAD370BD00000020F0B5002388E001227B
:100810009A409446144022007ED04C68022C01D0AD
:10082000122C0CD1DC08A40027183C6A5D07ED0EE1
:100830000F26AE40B4430E69AE4026433E620568C3
:100840005E000324B4400F79A543BF07BF0FB74034
:100850002F4307604D68012D05D0022D03D0112DC7
:1008600001D0122D0ED18568CF68A543B7402F4324
:10087000876047686546AF430D79ED06ED0F9D40F3
:100880003D434560C568A5438C68B4402C43C460B3
:100890004C68E40043D59D08244CAD002F193C6EF4
:1008A0009D07EE0E0F25B540AC4305252D07A84248
:1008B00001D100250FE01E4DA84201D101250AE01B
:1008C0001C4DA84201D1022505E01B4DA84201D1D3
:1008D000032500E00525B5402543144C3D66134D26
:1008E00080352E684F689643FF0300D516432E606F
:1008F0006E684F689643BF0300D516436E60256847
:100900004E689543F60200D51543256065684E682C
:100910009543B60202D500E001E0154365605B1C1B
:100920000A681446DA4000D071E7F0BD00180240B2
:100930000004005000080050000C0050014880687E
:10094000704700000000002070B502464032537826
:10095000202B1CD11378012B19D0012313702424D0
:100960005470046825689D432560046825681E034B
:10097000B5432560046825680D432560006801685B
:1009800019430160202050700020107070BD0220BB
:1009900070BD70B5024640325378202B1BD11378BE
:1009A000012B18D0012414702423537003681D6890
:1009B000A5431D6005682B680F263602B343090264
:1009C00019432960006801682143016020205070AC
:1009D0000020107070BD022070BD000070B50400D2
:1009E00006D02546403568780026002802D005E06C
:1009F000012070BD2E70204600F09AF92420687006
:100A0000206801684908490001600F2160680906F3
:100A100088432168086121688A680120C0038243F5
:100A20008A60E1680129A16808D02122920211435D
:100A300022689160E168022902D005E00143F7E7EE
:100A400001212268C902516021684A680F4B1A438C
:100A50004A602168CA688243CA60616920690843A4
:100A6000A169090208432168C860216AE069084356
:100A700021680860206801680122114301606664F2
:100A8000202068702663AE70002070BD00800002D8
:100A9000FFB5054604464035687883B0202875D1F7
:100AA0000C98002814D00D98002811D0287801281F
:100AB0006CD001202870FFF741FF0746012200900B
:100AC0001923D103204600F0D5FF002874D103E09C
:100AD0000120400260646FE0222068704020A8700E
:100AE000002666640C9860620D98608566630E98B7
:100AF0000090019704A90EC9204600F047FF002886
:100B000001D02E7058E0618D3448FF2905D9FF22AD
:100B1000228501231B06009006E0618D218500904F
:100B2000208D0123C2B25B062046049900F08EFF9F
:100B300000970022042120460E9B00F09BFF002816
:100B40003AD12068406A616A0870606A401C60623D
:100B5000208D401E81B22185608D401E6085608D94
:100B600000281FD000291DD1009700228021204697
:100B70000E9B00F07FFF00281ED1608DFF2806D954
:100B8000FF22228501231B06009607E024E0608DEA
:100B900020850096208D0123C2B25B062046049971
:100BA00000F054FF608D0028C2D13A4620460E99CD
:100BB00000F087FF002802D0012007B0F0BD2068B8
:100BC0002021C16120684268054B1A40426069706B
:100BD000AE702E700020F0E70220EEE700240080C7
:100BE00000E800FEFFB5054604464035687883B04E
:100BF000202872D10C98002814D00D98002811D00C
:100C00002878012869D001202870FFF797FE074651
:100C1000012200901923D103204600F02BFF002869
:100C200071D103E00120400260646CE02120687013
:100C30004020A870002666640C9860620D9860855C
:100C400066630E980090019704A90EC9204600F033
:100C5000CDFE002801D02E7055E0608DFF2805D90B
:100C6000FF22228501231B06009606E0608D208569
:100C70000096208D0123C2B25B062046049900F045
:100C8000E5FE3A4620460E9900F041FF00283AD191
:100C9000606A216800788862606A401C6062608DCA
:100CA000401E6085208D401E80B22085618D002908
:100CB0001FD000281DD100970022802120460E9BC6
:100CC00000F0D8FE00281ED1608DFF2806D9FF2233
:100CD000228501231B06009607E024E0608D208515
:100CE0000096208D0123C2B25B062046049900F0D5
:100CF000ADFE608D0028C4D13A4620460E9900F022
:100D0000E0FE002802D0012007B0F0BD20682021BD
:100D1000C16120684268054B1A4042606970AE703C
:100D20002E700020F0E70220EEE7000000E800FE51
:100D300010B586B0044614216846FFF726FA12491A
:100D4000206888421ED1114C616B01200143616310
:100D5000616B02900140059103210020C9020390BC
:100D60000091062012210490019105206946000798
:100D7000FFF74AFDE16B012080050143E163E16B70
:100D80000140059106B010BD00580040001002401F
:100D9000024881684268891881607047000000201D
:100DA00010B50848002401688215114301602046EF
:100DB00000F00AF8002801D0012401E000F028F832
:100DC000204610BD0020024070B50F4E002471680F
:100DD0000546002915D07D20C000FFF789F901469E
:100DE0000A480068FFF784F900F028FC002808D1C1
:100DF000042D06D200222946401E00F01FF835605F
:100E000000E00124204670BD000000200C000020FE
:100E100008B50948016801221143016000681040CB
:100E2000009005484038C26B01040A43C263C06B9E
:100E30000840009008BD00004010024010B501F0CD
:100E4000EFFD10BD10B50F4C2168032252029143F3
:100E500001432160C11FFF39FA390ED10A4806212A
:100E6000006848430949FFF743F9401C02E00028A5
:100E700005D0401E61694905F9D4002010BD03204A
:100E800010BD0000007000400C00002040420F0028
:100E9000F8B5044600680026664D800358D56548BD
:100EA00000274038C06BC00009D462484038C26B8C
:100EB00001040A43C263C06B0840012700905E48EA
:100EC0000168821511430160FFF738FD009005E0CD
:100ED000FFF734FD0099401A022825D856480068CB
:100EE000C005F5D5E8690321090208400FD0616A01
:100EF00081420CD0E86903210902EA698843012193
:100F000009040A43EA61EA698A43EA61E861C007C1
:100F10000FD0FFF713FD009008E0FFF70FFD0099D9
:100F2000411A4648814201D9032609E0E869800751
:100F3000F3D5E869032109028843616A0843E8613F
:100F4000002F05D03B484038C26B01048A43C2637E
:100F50002078C00705D06869616880088000084370
:100F600068612078800606D5686903218902884374
:100F7000A168084368612088800506D56869032157
:100F8000890488436169084368612088400506D563
:100F90006869032109058843A169084368612078CD
:100FA000400606D56869032109038843E1680843C0
:100FB00068612088400411D56869E1698000800873
:100FC000084368610121E0698907884206D1194810
:100FD0004038C168012212041143C16020688002B8
:100FE00010D5686901218905226A88431043686128
:100FF000206A884206D10F484038C1680122120693
:101000001143C1602088000512D568690321890356
:101010008843216908436861012120698903884266
:1010200006D104484038C168012212041143C1604E
:101030003046F8BD401002400070004088130000A8
:10104000F8B50F46060043D04D4D28684007400FC5
:10105000B84213D22868C008C00038432860FFF7A0
:101060006DFC044605E0FFF769FC011B4548814221
:1010700061D828684007400FB842F4D13068424C2C
:1010800081070DD5400704D5A0680721090308434F
:10109000A060A0680F2109028843B1680843A060DE
:1010A0003078C00732D0706801280AD002280BD0EF
:1010B00000280FD03449403103280ED0C969890770
:1010C00004E02168890301E021688901002906DB29
:1010D0000120F8BD21684905F8E7096AEFE7A16832
:1010E000C908C9000143A160FFF728FC009006E091
:1010F000FFF724FC0099411A224881421BD8A068BE
:10110000382108407168C9008842F1D12868400739
:10111000400FB84217D91A480168C908C9003943B5
:101120000160FFF70BFC054607E0FFF707FC411BDA
:101130001448814201D90320F8BD114800684007D6
:10114000400FB842F1D13078400706D5A06807219A
:1011500009038843F1680843A06000F031F8A168F2
:101160003C2289091140094A515CC906C90EC84090
:101170000749086007480068FFF726FEF8BD000031
:101180000020024088130000001002405C2C000880
:101190000C0000200000002006480749006889680C
:1011A000064A4904490F8900515CC906C90EC84066
:1011B000704700000C000020001002409C2C00082A
:1011C00010B5204CA068204A8006400F16D0A068B9
:1011D0008006410F501001290FD0A1688906490FE0
:1011E000022912D0A0688006400F042823D0A068EE
:1011F0008006400F032821D0002010BD2068012167
:101200008004400F8140104612E0E1688B07E168DE
:101210009B0F4906490F491C032B00D01046FEF7CF
:1012200067FFE1684904490E4843E168490F491CDA
:10123000FEF75EFF10BD0120C00310BD7D2000023F
:1012400010BD0000001002400024F400F8B50400B6
:101250007ED020783827C007EF4D002846D0A868F8
:10126000E96838408907890F102802D008280BD078
:1012700001E0032908D001206268000482420AD1FB
:1012800029680143296015E0286880032ED560682D
:101290000028DDD02AE0052301211B0489049A429D
:1012A0002A6802D10A432A60EAE782432A60286852
:1012B00088432860606800280CD0FFF73FFB064693
:1012C00004E0FFF73BFB801B642873D82868800389
:1012D000F7D50BE0FFF732FB064604E0FFF72EFBE5
:1012E000801B6428F1D828688003F7D42078800711
:1012F00069D5A868E96838408A070721920FC902B2
:10130000102802D0002813D001E0022A10D0E06893
:10131000002846D028688843216908432860286847
:10132000FF21013108432860FFF708FB06462CE047
:101330002A68520502D5E268002A89D06A687F23AC
:101340001B029A4363691B021A436A60002800E08B
:101350008DE00ED1286888432169084328602868F9
:1013600001218004400F8140AC48FEF7C1FEAC492A
:101370000860AC480068FFF727FD002877D122E01D
:10138000FFF7DCFA801B02289FD828684005F7D5B4
:1013900068687F210902884361690902084368601F
:1013A00011E02968FF20013081432960FFF7C6FA68
:1013B000064605E098E0FFF7C1FA801B022884D8B2
:1013C00028684005F7D42078974E00072ED5A868E6
:1013D0008006400F03280AD0A0690028306A16D082
:1013E000012108433062FFF7A9FA07460BE0306A93
:1013F00080071BD5A06900289FD017E0FFF79EFA51
:10140000C01B022870D8306A8007F7D50EE040086C
:1014100040003062FFF792FA074604E0FFF78EFAC9
:10142000C01B022860D8306A8007F7D420784007B4
:101430006CD5A86800278006400F042818D0E86BF8
:10144000C00008D4E96B012000070143E963E96BA0
:1014500001400127009175480168C90519D4016848
:10146000821511430160FFF769FA00900DE083E0F7
:10147000F06980074AD5A06800287DD046E0FFF7D4
:101480005DFA0099401A02282ED868480068C00505
:10149000F5D5A168012910D004200529F16911D0E2
:1014A00049084900F161F1698143F161A0680028B0
:1014B00016D0FFF743FA00900EE0F06901210843CF
:1014C000F061F3E70143F161F7E7FFF737FA0099BD
:1014D000411A574881426FD8F0698007F5D50EE070
:1014E000FFF72CFA009007E066E0FFF727FA009973
:1014F000411A4F4881425FD8F0698007F5D4002F28
:1015000004D0E86B012109078843E863E0690028FB
:101510007FD0A9688906490F022953D001263606D3
:10152000022828680DD0B0432860E8688008800051
:10153000E860E8683F490840E860FFF7FFF90446C3
:101540003CE0B0432860FFF7F9F9074604E0FFF7F5
:10155000F5F9C01B02282FD828688001F7D4616AEA
:10156000206AA26A0843E16A120211430843216B10
:101570000843616B084300E049E0E9682E4A1140E6
:101580000843E860286830432860E86801210907BB
:101590000843E860FFF7D2F9044604E0FFF7CEF90C
:1015A000001B022808D828688001F7D531E0FFF732
:1015B000C5F9001B022801D90320F8BD2868800165
:1015C000F5D426E00128F8D0E868226A8107890F5F
:1015D00091421CD17021626A0140914217D17F2152
:1015E000A26A090201401202914210D11F2149044E
:1015F000E26A014091420AD107214906226B01406B
:10160000914204D1400F616B4007884201D0012014
:10161000F8BD0020F8BD0000001002400024F400D6
:101620000C0000200000002040100240007000402C
:1016300088130000FFFFFEEE8C80C111094910B530
:10164000401E884201D9012010BD074C6061032172
:10165000081F01F0E5F90020A061072020610020AB
:1016600010BD0000FFFFFF0000E000E030B50146C4
:1016700060310A7F012A18D001220A77242302460A
:1016800080321446136003681A681D686D086D0087
:101690001D6001235B079A430023436600680260D4
:1016A000202020600B77184630BD022030BDF8B5F1
:1016B000054604466035287F01281DD00120287783
:1016C00024222046803007460260206806680268AF
:1016D0005208520002602068826807235B069A4322
:1016E0000A438260204600F057FD206806602020F3
:1016F000386000202877F8BD0220F8BDF8B505460F
:1017000004466035287F01281CD001202877242238
:10171000204680300746026020680668026852084A
:101720005200026020688268D200D2080A438260B8
:10173000204600F031FD206806602020386000203F
:101740002877F8BD0220F8BD70B5040006D0204609
:10175000803005460068002802D007E0012070BDF7
:1017600000217C200155204600F026F82420286026
:1017700020680168490849000160204600F0D4FD56
:101780000128ECD0A06A002802D0204600F034FDE9
:10179000206841680922D202914341602068816833
:1017A0002A2291438160206801680122114301606F
:1017B000204600F087FD70BD10B586B004461421A8
:1017C0006846FEF7E2FC1149206888421CD11048A7
:1017D0000268012189030A430260006808400590FD
:1017E0000B484038426B02210A434263406B01912F
:1017F00008400590C02000900020029003900490C3
:1018000069460448FFF700F806B010BD00380140F3
:101810004010024000040050FFB5074604468037E0
:10182000386885B00D46202864D1002D0CD007986B
:10183000002809D00120A1680003814207D1206956
:10184000002804D1E80702D0012009B0F0BD2046ED
:1018500060300290007F01284CD00298012101776E
:101860000020B86021203860FFF768F80190264614
:1018700040360798B0820798F0820120A1680003E3
:10188000814202D12069002802D00395002515E08D
:101890000020039012E000228021204601F060F831
:1018A000002818D10398002817D021680078886292
:1018B0000398401C0390F08A401EF082F08A019B3E
:1018C000002808980090E6D100224021204601F02F
:1018D00047F8002808D00320B7E728882168C0050A
:1018E000C00D8862AD1CE6E7202038600299002018
:1018F0000877AAE70220A8E7FEE701688A69D243D1
:10190000920701D400228A6200688169C943C9072D
:1019100003D081690122114381617047F7B5044604
:1019200000680E468069C043C0062BD42027254698
:10193000403520688069C043800612D5701CF8D0FD
:10194000FEF7FCFF0299401AB04201D8002EF0D1F8
:10195000606C384360646F700020A87028700120AC
:10196000FEBD21681020C8612068C7612046FFF7CE
:10197000C4FF20684168044A11404160606C042142
:101980000843E7E70020FEBD00E800FEF8B5044686
:10199000164615481D46DAB20090079F00232046E0
:1019A00000F054F83A462046069900F0B0F80028B6
:1019B00018D12846F5B2012809D02168300A88627A
:1019C0003A462046069900F0A2F800280AD120687D
:1019D00085620097002240212046069B00F04AF8CD
:1019E000002800D00120F8BD00200080F8B5044692
:1019F000164615481D46DAB2C3020090079F2046DE
:101A000000F024F83A462046069900F080F80028B5
:101A100018D12846F5B2012809D02168300A886219
:101A20003A462046069900F072F800280AD120684C
:101A300085620097002280212046069B00F01AF85C
:101A4000002800D00120F8BD00200080F0B5066815
:101A5000059C7568064F600D384385438805800DE9
:101A6000110408431843204305437560F0BD00008E
:101A7000FF63FF03F8B51D4617460E46044609E00E
:101A8000681C07D0FEF75AFF0699401AA8420BD8E7
:101A9000002D09D020688169304688430FD000208E
:101AA000B842EDD00020F8BD616C20200143616494
:101AB000403460700020A07020700120F8BD01202B
:101AC000EEE770B516460D4604460FE0324629464D
:101AD0002046FFF723FF002801D0012070BDFEF74C
:101AE0002DFF801BA84208D8002D06D020688069F1
:101AF000C0438006EAD4002070BD616C2020014301
:101B00006164403460700020A0702070E5E770B51B
:101B100016460D46044611E0324629462046FFF798
:101B2000FDFE002801D0012070BD681C06D0FEF724
:101B300005FF801BA84208D8002D06D020688069C8
:101B4000C0438007E8D4002070BD616C20200143B1
:101B50006164403460700020A0702070E3E710B52D
:101B60003F21072000F0E6F910BD10B50021072045
:101B700000F0E0F910BD10B57821032000F0DAF98B
:101B800010BD000010B5202000F096F91420FEF7DB
:101B900029FE2921002000F09BF90A20FEF722FEF1
:101BA0000A21002000F0C6F90A20FEF71BFE1521CD
:101BB000142000F0BFF90021102000F0BBF90A202A
:101BC000FEF710FE0A21112000F0B4F90A20FEF7FA
:101BD00009FE202000F070F91420FEF703FE00211A
:101BE0007F2000F0A7F930210F2000F0A3F9202179
:101BF000032000F09FF930217F2000F09BF94D2158
:101C0000012000F097F90121022000F093F98121D1
:101C1000052000F08FF90121322000F039F87D20F5
:101C2000C000FEF7DFFD0221312000F031F801484D
:101C300010BD00003905000038B5044630217F2072
:101C400000F078F90120FEF7CDFD8C21032000F093
:101C500071F90120FEF7C6FD2146042000F06AF963
:101C60000120FEF7BFFDFF21062000F063F90120EF
:101C7000FEF7B8FD00217F2000F05CF969463B20AB
:101C800000F00AF90120FEF7ADFD6846007838BD86
:101C900070B50D46044630217F2000F04BF901203D
:101CA000FEF7A0FD0C21032000F044F90120FEF70F
:101CB00099FD2146042000F03DF90120FEF792FD38
:101CC0002946062000F036F90120FEF78BFD70BD95
:101CD00010B5EA2402E00A20FEF784FD00F01EF9A8
:101CE000A042F8D1002000F0E7F80A20FEF77AFDC4
:101CF000FFF741FF0A20FEF775FD012000F0E2F832
:101D00000A20FEF76FFDFFF72AFF1420FEF76AFD99
:101D1000FFF72BFF0A20FEF765FDFFF733FF10BD2D
:101D200010B588B0002000F0C7F80A20FEF75AFD71
:101D300000F036F8174800F06FF81648083000F049
:101D4000CDF8144810240C380E230C22045FC35E17
:101D5000825E4189039104A91CC181880389C288DC
:101D60006C460EC4438802880B49183000F02CFEE4
:101D700008480C30FEF714FA064982B27D23DB00D6
:101D80000C310648FFF748FD0520FEF72BFD08B093
:101D900010BD000038010020BC2C0008A00000206D
:101DA000FEB50C2269462D2000F026F86946088809
:101DB000104C47BA488843BA888842BAC88809890B
:101DC00040BA4DBA694649894EBAF9082180D90806
:101DD0006180D108A180FA21FEF78AF9E080FA211A
:101DE0002846FEF785F92081FA213046FEF780F972
:101DF0006081FEBD2C0100200EB5802318430A230C
:101E00000192029300910246012368210148FEF7E6
:101E10003FFE0EBD540000203EB504460120FFF7F2
:101E20000BFF1120FFF708FF0146684641701220A2
:101E3000FFF702FF014668468170CAB2417810067A
:101E40000014084320801320FFF7F6FE0146684681
:101E5000C1701420FFF7F0FE014668460171CAB256
:101E6000C17810060014084360801520FFF7E4FED7
:101E70000146684641711620FFF7DEFE01466846BE
:101E80008171CAB24179100600140843A080012173
:101E90003120FFF7FDFE3EBD0EB5802210430A2221
:101EA0000292012300910246019368210148FEF746
:101EB000EFFD0EBD5400002010B501467F2000F05C
:101EC00039F810BD10B50146062000F033F810BDFA
:101ED00010B50143012000F02DF810BD38B50446BF
:101EE000022269463B20FFF787FF69464878097858
:101EF0000002084380B2FEF71BFB064D2946FEF7A1
:101F0000A7F90549FEF7E9F92946FEF750F92060DF
:101F1000012038BD0000A8415CEFA64308B50121AF
:101F20006846017069460020FFF7B6FF68460078F2
:101F300008BD000003B583B042060523012104A8B3
:101F40000293019100900B46520E68210248FEF761
:101F500049FE05B000BD000054000020F3B5454D1A
:101F60008DB0296807910E98FEF772F94249FEF785
:101F700077F9296BFEF71BF92C463434069060681C
:101F8000029001463D48FEF763F9A1680191FEF712
:101F90005FF93B4901220860E668D2070496564083
:101FA0004E60384A8E60CA603349FEF759F921689D
:101FB000FEF7FDF8074630493046FEF751F9059027
:101FC0000299FEF7F4F8064601990598FEF7EFF836
:101FD00005902D480499FEF7EAF8089006990D98A7
:101FE000FEF736F93F21049009063846FEF7DFF880
:101FF000014601903846FEF770F902900199059864
:10200000FEF76BF9019039460298FEF729F9394637
:10201000FEF722F9206031460298FEF721F9314699
:10202000FEF71AF9606039460198FEF719F905992B
:10203000FEF712F9A06031460198FEF711F90899F0
:10204000FEF70AF9E06004990298FEF709F906998B
:10205000FEF7ADF8286304990198FEF701F9079996
:10206000FEF7A5F8014628600E98FEF7F1F86862C1
:102070000FB0F0BD100000200AD7233C6F12833A46
:102080000C020020A69B443B82A8FB3710B50E48EB
:102090000C4901600D494160FC2181600121C16052
:1020A0000021016141618161C1610162FEF796FC1D
:1020B00000210548FEF748FC00210348FEF769FCB3
:1020C00010BD000000580040540000202F063000D2
:1020D00010B511480F490160E12149024160C9046E
:1020E00081600021C16001618161C16101620C22D6
:1020F000416242618162FFF727FB00210648FFF73A
:10210000FDFA00210448FFF7D2FA0348FFF7AEFAC0
:1021100010BD000000380140A0000020704770474B
:10212000704710B5FEF734FE10BD10B59CB03821D5
:102130006846FEF72AF80024189419941A94282166
:102140000EA81B94FEF721F801204002FEF77AFE4C
:1021500002200090C0010390402005900494079451
:102160006846FFF773F80720189019941A94002115
:102170001B9418A8FEF764FF01200E900F940EA880
:10218000FEF786FE1CB010BD01200249C006886023
:102190007047000000ED00E0F0B513A106C985B05E
:1021A0000192009112A206CA039202910446416E66
:1021B0004034002915D000688168806809014D0FFE
:1021C000400F02AE315C6F46385CC000FDF790FFF7
:1021D0006085785D715DC000FDF78AFF208505B0E0
:1021E000F0BD01206085F9E701010103070100004E
:1021F000080402040801010110B5018DC90707D0C8
:1022000001684A6801235B049A43C36A1A434A601F
:10221000018D890707D501684A6801231B049A4389
:10222000036B1A434A60018D490707D501684A6864
:1022300001239B049A43436B1A434A60018D0907AB
:1022400007D501684A680123DB039A43836B1A436D
:102250004A60018DC90607D50268916801231B03F6
:102260009943C36B19439160018D890607D50168B5
:102270008A6801235B039A43036C1A438A60018DC9
:10228000490612D503685A6801210905446C8A433E
:1022900022435A60426C8A4207D102685168032384
:1022A0005B059943836C19435160018D090607D57D
:1022B00001684A680123DB04C06C9A4302434A6008
:1022C00010BD0000FEB50546002680350446AE6010
:1022D000FEF734FB019020680068124F000709D513
:1022E00001210097002249052046019B00F038FBA0
:1022F00000280DD12068006840070BD50121009708
:10230000002289052046019B00F02AFB002801D00D
:102310000320FEBD202028606860603426770020FE
:10232000FEBD0000FFFFFF01F8B5044603688068AA
:102330002269E66910436269002532431043626EE8
:10234000F74902431868F74E30401043186022687E
:10235000506803231B039843E368184350602268C6
:10236000A0698A4201D0236A18439368EE4E334035
:10237000034393602068C26A636A120912011A4318
:10238000C262EA4B2068EA4A98420AD1526992072F
:10239000920F28D0012A2AD0022A26D0032A14D14B
:1023A00011E0E44B98421ED088420ED153690322BB
:1023B0009202134017D0012292029B1A17D09B1A47
:1023C00013D0934201D1082600E01026FF270137E1
:1023D00088426FD1002E0CD0022E3BD0042E7CD030
:1023E000082E69D182E00026F0E70226EEE70426F7
:1023F000ECE7FEF7D1FE72E0022129E0022812D0BC
:10240000032812D0042812D0052812D0062812D092
:10241000072812D0082812D0092812D00A2812D072
:102420000B2814D111E0042112E0062110E008214C
:102430000EE00A210CE00C210AE0102108E0202126
:1024400006E0402104E0802102E0394600E001215D
:1024500010461AE0606A002815D0012824D002280E
:1024600024D0032824D0042827D0052827D00628E4
:1024700027D0072827D0082827D0092827D00A28BE
:1024800027D00B2827D00121AB48FDF731FE0028CB
:1024900060D0616800914A008918814259D800993A
:1024A0000903814255D356E00221EDE70421EBE711
:1024B0000621E9E725E110E04BE00821E4E70A21E5
:1024C000E2E70C21E0E71021DEE72021DCE74021F4
:1024D000DAE78021D8E73946D6E7FEF771FE0246F3
:1024E000606A0028B3D0012888D185E7606A002897
:1024F00015D0012817D0022817D0032817D0042898
:1025000017D0052817D0062817D0072817D0082875
:1025100017D0092817D00A2817D00B2817D0012167
:102520000120C003B1E70221FAE70421F8E7062100
:10253000F6E70821F4E70A21F2E70C21F0E7102181
:10254000EEE72021ECE74021EAE78021E8E7394681
:10255000E6E70125D9E1002E31D0022E76D0042EF7
:1025600075D0082EF5D1606A002815D001286FD0EB
:1025700002286ED003286DD004286CD005286BD0BB
:1025800006286AD0072869D0082868D0092867D0AB
:102590000A287DD00B2800D00127002601203A46CA
:1025A0003346C0030021FDF7B9FD020E09021143B5
:1025B00002020098400810187141009A3CE0FEF7B2
:1025C000EBFD85E0012815D0022815D0032815D091
:1025D000042815D0052815D0062815D0072815D0B1
:1025E000082815D0092815D00A2815D00B2814D092
:1025F000012712E0022710E004270EE006270CE076
:1026000008270AE00A2708E00C2706E0102704E064
:10261000202702E0402700E08027002608463A46AF
:1026200033463146FDF77AFD020E09021143626816
:1026300003025008181871410023FDF76FFD0321B4
:102640000902421A3D498A4269D982E709E03DE020
:1026500043E044E045E046E047E048E049E04AE046
:102660004BE0606A002817D001281BD002281BD03D
:1026700003281BD004281BD005281BD006281BD0FC
:1026800007281BD008281BD009281BD00A2800E0E7
:1026900035E019D00B2800D0012700263A463346F2
:1026A00025487FE70227F8E70427F6E70627F4E73F
:1026B0000827F2E70A27F0E70C27EEE71027ECE7F8
:1026C0002027EAE74027E8E78027E6E7FEF778FDDE
:1026D0000146606A00288BD074E702275DE7042773
:1026E0005BE7062759E7082757E70A2755E70C272E
:1026F00053E7102751E720274FE740274DE7802772
:102700004BE70122E069D203904275D1002E17D029
:10271000022E46D0042E70D0082E96D18BE0F2E027
:1027200000800040F369FFCFFFF4FF110038014043
:1027300040100240004400400024F400FFFC0F0061
:10274000FEF72AFD76E0012815D0022815D00328CF
:1027500015D0042815D0052815D0062815D007282F
:1027600015D0082815D0092815D00A2815D00B280F
:1027700014D0012712E0022710E004270EE00627FC
:102780000CE008270AE00A2708E00C2706E01027DB
:1027900004E0202702E0402700E080273946104669
:1027A0001BE0606A002815D001282DD002282DD00A
:1027B00003282DD004282DD005282DD006282DD073
:1027C00007282DD008282DD009282DD00A282DD053
:1027D0000B2800D0012739465F48FDF789FC616866
:1027E00040004A088018FDF783FC80B201465B4A2E
:1027F0001039914202D9ACE621E019E0511C0140A8
:102800000007400F08437EE00227E4E70427E2E7E1
:102810000627E0E70827DEE70A27DCE70C27DAE7E8
:102820001027D8E72027D6E74027D4E78027D2E72C
:10283000FEF7C6FC0246606A00289AD083E7002EA5
:1028400006D0022E35D0042E7ED0082ED3D17EE0C5
:10285000FEF7A2FC7AE0012815D0022815D0032843
:1028600015D0042815D0052815D0062815D007281E
:1028700015D0082815D0092815D00A2815D00B28FE
:1028800014D0012712E0022710E004270EE00627EB
:102890000CE008270AE00A2708E00C2706E01027CA
:1028A00004E0202702E0402700E080273946104658
:1028B0001BE0606A002815D0012830D0022830D0F3
:1028C000032830D0042831D0052831D0062831D053
:1028D000072831D0082831D0092831D00A2831D032
:1028E0000B2800D0012739461B48FDF701FC616821
:1028F0004A088018FDF7FCFB80B20146174A1039E0
:10290000914200D925E62168C86020460121403067
:10291000418501850020E06620672846F8BD022732
:10292000E1E70427DFE70627DDE70DE00827DAE720
:102930000A27D8E70C27D6E71027D4E72027D2E7C5
:102940004027D0E78027CEE7FEF73AFC0246606AD0
:10295000002896D07FE700000024F400EFFF00007D
:10296000FFB581B017460E4604460A9D09E0681C73
:1029700007D0FDF7E3FF0499401AA8420CD8002DB8
:102980000AD02068C169304688431AD00020B84276
:10299000EDD0002005B0F0BD20680168FF22A13213
:1029A00091430160206881684908490081602021C5
:1029B0002046803001604160002060342077032091
:1029C000E8E70120E3E700000FB410B504A9074BC6
:1029D00002AA039800F056F8044602A9002000F06D
:1029E000F9F8204610BC08BC04B01847D52B0008E5
:1029F0002021020C01D010211046020A01D01046FD
:102A00000839020901D01046091F820801D010467A
:102A1000891E420801D0881E7047081A70470000BE
:102A20008307FF22DB0E9A408907090E9940002890
:102A300008DB830809489B001B181868904308436B
:102A4000186070470007000F0838830804489B008F
:102A50001B18D86990430843D861704700E400E030
:102A600000ED00E002E008C8121F08C1002AFAD1F8
:102A700070477047002001E001C1121F002AFBD1FE
:102A800070470000FFB58DB00446002506E02528FC
:102A90000AD0109A0F999047641C6D1C207800286A
:102AA000F5D1284611B0F0BD00270121484A009712
:102AB00000E00743641C23780846203B98401042FE
:102AC000F7D120782E2817D1042007436078641CA2
:102AD0002A280CD10E98641C02C800910E900BE0BD
:102AE00000990A22514330394018641C0090207824
:102AF000014630390929F3D920780028D1D064283B
:102B000008D0692806D075281ED0109A0F999047D2
:102B10006D1C5BE00A200E99019001C90E910028FE
:102B200002DA40422D2102E0390504D52B216A4604
:102B30001172012103E0F90704D02021F7E70BAE61
:102B40000B910DE00021FAE70A200E99019001C9CE
:102B50000E91F7E70199FDF7CBFA3031761E31700F
:102B60000028F7D103A8801B20300190780701D5F9
:102B7000009801E0012000900199884201DD401A8F
:102B800000E000200027009006E002A8109AC05D37
:102B90000F9990476D1C7F1C0B988742F5DB04E072
:102BA000109A30200F9990476D1C0099481E009094
:102BB0000029F5DC05E03078109A761C0F999047D3
:102BC0006D1C0199481E01900029F4DC641C65E726
:102BD000092801000A68531C0B6010707047000040
:102BE00086B0FEF7DDF8FFF7A0FA14216846FDF77E
:102BF000CCFA1748416B012211434163416B1140EC
:102C00000591426B02210A434263406B08400590E4
:102C1000102000900F480190002002900520694686
:102C20000007FDF7F1FDFFF731FAFFF751FAFDF765
:102C3000CBFD094DFFF774F82889FDF779FC0446B0
:102C40002888FDF775FC2146FDF77CFDF2E70000C2
:102C500000100240000021102C01002000000000A4
:102C60000000000000000000000000000000000064
:102C70000000000000000000000000000100000053
:102C80000200000003000000040000000600000035
:102C9000070000000800000009000000000000001C
:102CA0000000000000000000000000000100000023
:102CB0000200000003000000040000002841783AF0
:102CC000202575207C2041793A202575207C2041E3
:102CD0007A3A202575292020202847783A20257522
:102CE000207C2047793A202575207C20477A3A209D
:102CF000257529202020284D783A202569207C2020
:102D00004D793A202569207C204D7A3A2025692981
:102D1000200D0A00342D000800000020540000009F
:102D2000642A0008882D000854000020CC0500000B
:102D3000742A0008040000000100000000000000E8
:102D40000024F4000000000000000000000000006B
:102D50000000000000000000000000000000000073
:102D60000000000000000000000000000000000063
:102D700000000000000000000000803F0000000094
:082D8000000000000000803F8C
:04000005080000C12E
:00000001FF
