:020000040800F2
:1000000088060020A10100083F2B00088F26000869
:100010003B2B0008A506000805360008000000007C
:10002000000000000000000000000000272E000873
:10003000C906000800000000792B00089D2E00086A
:10004000BB010008BB010008BB010008BB010008A0
:10005000BB010008BB010008BB010008BB01000890
:10006000BB010008BB010008BB010008BB01000880
:10007000BB010008BB010008BB010008A90600087D
:10008000B9060008BB010008BB010008BB0100085D
:10009000BB010008BB010008BB010008BB01000850
:1000A000BB010008BB010008BB010008BB01000840
:1000B000BB0100080000000000000000BB010008B8
:1000C000BB010008BB010008BB010008BB01000820
:1000D000BB010008E5350008F5350008BB01000844
:1000E000BB010008BB010008000000000000000088
:1000F0000000000000000000000000000000000000
:1001000000000000BB01000800000000BB01000867
:100110000000000000000000BB010008BB01000857
:10012000BB010008BB010008BB010008BB010008BF
:10013000BB010008000000000000000000000000FB
:10014000BB010008BB010008BB010008BB0100089F
:10015000BB010008BB010008BB010008BB0100088F
:10016000BB010008BB010008BB0100080000000043
:10017000BB010008BB010008BB0100080000000033
:10018000BB010008BB010008BB010008DFF80CD070
:1001900000F076FA004800471D3900088806002064
:1001A0000648804706480047FEE7FEE7FEE7FEE711
:1001B000FEE7FEE7FEE7FEE7FEE7FEE7492F000861
:1001C0008D0100082DE9F05F0546002092469B4610
:1001D00088460646814640241BE02846414647465D
:1001E000224600F097F953465A46C01A914110D35F
:1001F00011461846224600F07EF92D1A67EB0108D9
:100200004F4622460120002100F075F917EB000946
:100210004E41201EA4F10104DFDC484631462A4647
:10022000434600F000B830BCBDE8C09FD2B201E048
:1002300000F8012B491EFBD270470022F6E710B5EB
:1002400013460A4604461946FFF7F0FF204610BD44
:100250002DE9FE4F804681EA0300C00F0C46009056
:1002600021F0004123F00045B8EB0200A94105D27E
:100270004046214690461C460B46024623F000406D
:10028000104347D0270DC7F30A00C3F30A51029069
:10029000401A019040286BDAC3F3130040F4801B2E
:1002A0000098924620B10023D2EB030A63EB0B0BBC
:1002B00001985946C0F14002504600F01CF906462C
:1002C0000D4650465946019A00F034F910EB0800EB
:1002D0006141002487EA115284EAE7731A4340D04F
:1002E000009A62B3019A012A4FEA075215DC001BFB
:1002F00061EB02014FF0004202EA0752CDE90042F1
:10030000001C41F5801132462B4600F06BF903B01A
:1003100000F045B840462146F9E7001B61EB0201B9
:10032000001C41F5801300185B412018A2F500174E
:1003300047EB030140EAD570B6196D4111E06D0835
:100340004FEA360645EAC0754FEA0752001B61EBDB
:100350000201001C41F5801149084FEA30000019E4
:10036000514132462B4603B000F01CB800F02BB9C7
:100370000098012240000023D0EB020263EBE073FF
:10038000009821464FEAE074B8EB000061EB0401ED
:10039000E9E783F000435BE781F0004158E730BCB8
:1003A000BDE8C08F30BCBDE8C04FFFF7DFBF2DE90F
:1003B000FE4F81EA030404F0004421F00041009460
:1003C0004FF0000B23F0004350EA01045ED052EAE4
:1003D00003045BD0C3F30A54C1F30A552C44A4F2BE
:1003E000F3340194A0FB0254C1F3130141F48011D2
:1003F000C3F3130343F4801301FB024400FB034ED9
:10040000840A970A44EA815447EA8357A4FB0768A1
:1004100002958D0A05FB07854FEA932C04FB0C54CB
:100420002705029D4FEA065847EA1637B5EB08053F
:100430006EEB070C870E920E47EA811742EA831291
:10044000A7FB0201B6EB0B0164EB00042B0D43EAA2
:100450000C335E1844EB1C50DA465146E7FB0201B0
:10046000C5F313044FEA0B3343EA14534FEA043243
:10047000019C43EA0603A4F10C040294009CCDE91C
:1004800000B400F0AFF803B000F003B8002001465C
:10049000F9E730BCBDE8C08F00F0004230F000400A
:1004A0000AD0C10D01F56071C0F3160042EA015196
:1004B000C20840071143704700200146704701F011
:1004C000004330B421F0004150EA010206D00A0D89
:1004D000A2F56072C1F31301002A02DC30BC0020D7
:1004E0007047440F44EAC104C100E01830BC00EB7F
:1004F000C25000F031B8202A04DB203A00FA02F1A1
:10050000002070479140C2F1200320FA03F3194301
:1005100090407047202A04DB203A21FA02F00021A3
:10052000704721FA02F3D040C2F120029140084303
:1005300019467047202A06DBCB17203A41FA02F011
:1005400043EAE07306E041FA02F3D040C2F1200230
:1005500091400843194670470029A8BF7047401CC6
:10056000490008BF20F00100704710B4B0FA80FCC9
:1005700000FA0CF050EA010404BF10BC704749B106
:10058000CCF1200421FA04F411FA0CF118BF012176
:1005900021430843A3EB0C01CB1D4FEA00614FEA56
:1005A000102042BF002010BC704700EBC350104425
:1005B0000029A4BF10BC7047401C490008BF20F0B0
:1005C000010010BC704710B5141E73F1000408DA66
:1005D000401C41F1000192185B411A4301D120F007
:1005E000010010BD2DE9F04D92469B4611B1B1FAC4
:1005F00081F202E0B0FA80F220329046FFF77BFFF2
:1006000004460F4640EA0A0041EA0B0153465A46A7
:10061000084313D0114653EA010019D0C8F1400233
:100620005046FFF777FF05460E465046594642466C
:10063000FFF761FF084305D0012004E0204639465A
:10064000BDE8F08D0020054346EAE0762C433743B1
:100650000A986305E40AA0EB08000022FD0A44EAB8
:1006600047540A3002D500200146E9E70105101978
:100670006941DDE9084500196941BDE8F04DA2E78F
:10068000064C074D06E0E06840F0010394E80700DF
:1006900098471034AC42F6D3FFF77CFDA43B00082A
:1006A000C43B000800BFFEE710B5024800F0DCFBC9
:1006B00010BD0000E401002010B5024800F0D4FB9A
:1006C00010BD00002C020020704770472DE9F84F44
:1006D00005460C464FF0000A00200090FE49E068F5
:1006E000884200D000E000BF00BF95F8500001280C
:1006F00002D1022000F050BA012085F8500000BF5E
:10070000286802F02AF8002872D1606805281AD8F3
:100710006068022806D0032807D0042808D00528DE
:100720000DD108E00C2060600CE01220606009E050
:100730001820606006E04FF48070606002E00620E0
:10074000606000BF00BF2968D4E9002001F1300CCF
:10075000C0F3012B0CEB8B0300F01F0E4FF01F0BAF
:100760000BFA0EFBD3F800C02CEA0B0C00F01F0BA9
:10077000C2F3846E0EFA0BFE4CEA0E0CC3F800C0F6
:1007800000BF286801F0E9FF8146286801F0D6FF24
:100790008046B9F1000F2AD1B8F1000FFBD1A26851
:1007A0002168286801F0DEFF60692968C968C1F323
:1007B000C101490000FA01F72069042819D028680E
:1007C0002268216900F1600C0CEB8103DFF80CB3A7
:1007D000D3F800C00CEA0B0C02F0F84B4BF0004BC6
:1007E0004BEA070B4CEA0B0CC3F800C000BFA8E0B3
:1007F000B9E10021286801F098FFC0F3120030B978
:100800000021286801F091FFC0F3846007E0002117
:10081000286801F08AFF90FAA0F0B0FA80F0216811
:10082000C1F3120119B92168C1F3846104E02168A0
:1008300091FAA1F1B1FA81F1884204D10022114666
:10084000286801F0A9FF0121286801F06EFFC0F3BC
:10085000120030B90121286801F067FFC0F38460FD
:1008600007E00121286801F060FF90FAA0F0B0FADB
:1008700080F02168C1F3120119B92168C1F38461C4
:1008800004E0216891FAA1F1B1FA81F1884204D122
:1008900000220121286801F07FFF0221286801F071
:1008A00044FFC0F3120030B90221286801F03DFF77
:1008B000C0F3846007E00221286801F036FF90FA57
:1008C000A0F0B0FA80F02168C1F3120119B92168D3
:1008D000C1F3846104E0216891FAA1F1B1FA81F1D8
:1008E000884204D100220221286801F055FF03212B
:1008F000286801F01AFFC0F3120030B903212868FC
:1009000001F013FFC0F3846007E00321286801F0C1
:100910000CFF90FAA0F0B0FA80F02168C1F3120148
:1009200019B92168C1F3846104E0216891FAA1F149
:10093000B1FA81F1884204D100220321286801F034
:100940002BFF286801F0FFFE002872D12868E268BA
:100950002168D0F8B030C1F3120C23EA0C0302F086
:10096000180BDFF87CC12CFA0BFC0CEA010C43EAF3
:100970000C03C0F8B03000BF5749E068884258D136
:100980002368C3F312031BB92368C3F3846304E031
:10099000236893FAA3F3B3FA83F35B1C03F01F03FA
:1009A000092B3ED82368C3F312031BB92368C3F392
:1009B000846304E0236893FAA3F3B3FA83F35B1C24
:1009C00003F01F034FF0010C0CFA03FC2368C3F380
:1009D00012031BB92368C3F3846304E0236893FA0A
:1009E000A3F3B3FA83F35B1C03F01F034CEA836C9D
:1009F0002368C3F312031BB92368C3F3846304E0C1
:100A0000236893FAA3F3B3FA83F35B1C03F01F0389
:100A100003EB43034FF0000B4BEA03534CEA030391
:100A20003FE02368C3F3120323B92368C3F384634D
:100A300005E03BE0236893FAA3F3B3FA83F35B1C6E
:100A400003F01F034FF0010C0CFA03FC2368C3F3FF
:100A500012031BB92368C3F3846304E0236893FA89
:100A6000A3F3B3FA83F35B1C03F01F034CEA836C1C
:100A70002368C3F312031BB92368C3F3846304E040
:100A8000236893FAA3F3B3FA83F35B1C03F01F0309
:100A90000A3B03EB43034FF0007B4BEA03534CEA62
:100AA00003031946A268286801F05CFE0D4920681E
:100AB000084070B300BF0C48806800F0E07600BFCB
:100AC0000A49206888422CD106F4000048BB084936
:100AD000286888424DD10DE000007F4000F0FF0300
:100AE000FFFF07000000088000030450000052C709
:100AF0000000045046F40001214801F047FE21485F
:100B000000682149B0FBF1F000EB4000800000904C
:100B100003E016E00098401E009000980028F9D1EC
:100B200027E01A49206888420CD106F0807048B945
:100B30001749286888421CD146F08071104801F09E
:100B400025FE16E013492068884212D106F4800081
:100B500078B90F49286888420BD146F480010848CB
:100B600001F014FE05E0686D40F0200068654FF06C
:100B7000010A00BF002085F8500000BF5046B9E5CB
:100B80000003045004000020400D0300000084CB4B
:100B9000000004500100008018BCBDE8E08F000098
:100BA0002DE9F84304464FF000090020009014B9E5
:100BB0000120BDE8F883206920B12020005D0128D4
:100BC00000D100BF606D30B9204600F0E7F800208A
:100BD000A06584F8500020688168C1F3407131B18C
:100BE00020688168664A1140816000BF00BF2068AC
:100BF00001F0AEFDA0B920688168624A114041F061
:100C00008051816000BF604800686049B0FBF1F02E
:100C1000009002E00098401E009000980028F9D152
:100C2000206801F095FD48B9606D40F010006065E6
:100C3000A06D40F00100A0654FF00109206801F0AF
:100C40008CFD0646606D00F0100000287ED1002E5D
:100C5000FCD1606D20F4807040F002006065206877
:100C600001F071FD68B94A4801F06DFD48B960684E
:100C70004849896821F47C110143464A916000BFCC
:100C800000BF607E616B41EA4030E1680843A168C3
:100C900008432021095D40EA01452020005D01282C
:100CA00003D1A08C401E45EA4045A06A28B1208DA2
:100CB00000F47070E16A084305432068C068364953
:100CC000084028432168C860206801F046FD80463E
:100CD000206801F033FD0746B8F1000F2CD127BB87
:100CE000207E002141EA803194F8300041EA40053D
:100CF0002068C06844F20201884328432168C86024
:100D000094F83800012811D1E06B40F00101206C0B
:100D10000843616C0843A16C08432168096940F2EB
:100D2000FC72914308432168086105E0206800696E
:100D300020F0010021680861206901280BD120689A
:100D4000006B20F00F00E169491E00E010E008434D
:100D50002168086305E02068006B20F00F0021681F
:100D60000863606D20F0020040F00100606505E05E
:100D7000606D40F0100060654FF00109484618E7CB
:100D8000C0FFFF5FC0FFFF7F04000020400D030095
:100D9000000004500003045007C0F0FF10B586B0F7
:100DA0000446142101A8FFF748FA15492068884233
:100DB00024D100BF1348C06C40F400501149C864EE
:100DC0000846C06C00F40050009000BF00BF00BF98
:100DD0000846C06C40F00400C8640846C06C00F0CF
:100DE0000400009000BF00BF012001900B20029082
:100DF0000020039001A9044800F03CF906B010BDA2
:100E000000000450001002400008004870B504467D
:100E1000002594F82500022803D00420E063012572
:100E200020E02068006820F00E002168086020683B
:100E3000006820F001002168086094F8440000F088
:100E40001C0101208840216C4860012084F82500A5
:100E500000BF002084F8240000BFA06B10B1204622
:100E6000A16B8847284670BD70B50446206C0568A4
:100E70002068066894F8440000F01C0104208840B3
:100E80002840E0B106F00400C8B12068006800F016
:100E9000200028B92068006820F00400216808605C
:100EA00094F8440000F01C0104208840216C486044
:100EB000206B002856D02046216B884752E094F8DA
:100EC000440000F01C0102208840284018B306F0BE
:100ED000020000B32068006800F0200040B92068DC
:100EE000006820F00A0021680860012084F82500CD
:100EF00094F8440000F01C0102208840216C4860F6
:100F000000BF002084F8240000BFE06A50B32046F0
:100F1000E16A884726E094F8440000F01C010820AC
:100F200088402840F0B106F00800D8B12068006879
:100F300020F00E002168086094F8440000F01C01C5
:100F400001208840216C48600120E06384F825007E
:100F500000BF002084F8240000BF606B10B1204661
:100F6000616B884770BD000010B5014609B90120CA
:100F700010BD3E4B086898420BD23D4B0868C01A22
:100F80001423B0FBF3F08000486439480838086443
:100F90000AE0364B0868C01A1423B0FBF3F0800057
:100FA0004864324808380864022081F8250008683F
:100FB000026847F6F0708243D1E9020318430B69D7
:100FC00018434B6918438B691843CB6918430B6A64
:100FD00018430243086802608868B0F5804F3AD031
:100FE000234B083B086C98421BD1D0F8A80091F81D
:100FF000443003F01C040F23A34098431C4BA03340
:10100000186091F8443003F01C0348689840184B6E
:10101000083BD3F8A8301843154B083BC3F8A80089
:1010200019E01248A030006891F8443003F01C0425
:101030000F23A34098430D4BA033186091F8443020
:1010400003F01C0348689840084BA0331B68184302
:10105000064BA03318600020C863012081F82500EA
:10106000002081F8240000BF82E70000080402404D
:101070000800024078B503460022CBE001269640E6
:101080000D6805EA0604002C72D04D68022D02D0CE
:101090004D68122D13D1D60803F1200555F826000E
:1010A0005507EE0E0F25B540A8435607F60E0D69FD
:1010B000B5402843D60803F1200545F826001868F6
:1010C00056000325B540A8430D7905F003055600E9
:1010D000B540284318604D68012D08D04D68022D99
:1010E00005D04D68112D02D04D68122D13D198688E
:1010F00056000325B540A8435600CD68B5402843A7
:101100009860586801259540A8430D79C5F30015EE
:10111000954028435860D86856000325B540A84339
:1011200056008D68B5402843D8604D6805F080555D
:10113000B5F1805F6DD100BF394D2D6E45F00105D1
:10114000374E356635462D6E05F00105009500BF1A
:1011500000BF4FEAB635960855F8260095072E0FC2
:101160000F25B540A843B3F1904F02D1002515E0FB
:101170004FE02C4DAB4201D101250FE02A4DAB428F
:1011800001D102250AE0294DAB4201D1032505E03A
:10119000274DAB4201D1042500E007259607360F05
:1011A000B5402843234D960845F82600224D28686F
:1011B000A0434D6805F48035B5F5803F00D120434C
:1011C0001D4D28602D1D2868A0434D6805F400358D
:1011D000B5F5003F00D12043174D2D1D28602D1D72
:1011E0002868A0434D6805F48015B5F5801F00D12F
:1011F0002043114D083528602D1D2868A0434D68F7
:1012000005F40015B5F5001F00D120430A4D0C353B
:101210002860521C0D68D540002D7FF42FAF78BD9B
:10122000001002400004004800080048000C00487C
:101230000010004808000140000401400246136904
:101240000B400BB1012000E0002070470AB1816122
:1012500000E08162704700000148006870470000AC
:101260000000002002480068401C014908607047E7
:101270000000002010B50024032000F091F80020A9
:1012800000F008F808B1012401E000F01BF8204646
:1012900010BD000070B504460025094800684FF4F1
:1012A0007A71B0FBF1F6304601F01AF808B1012569
:1012B00004E000222146501E00F031F8284670BD9F
:1012C0000400002008B500BF0D48006E40F001008A
:1012D0000B4908660846006E00F00100009000BF50
:1012E00000BF00BF0846806D40F08050886508460A
:1012F000806D00F08050009000BF00BF08BD00006E
:101300000010024000BF00F01F020121914042097D
:10131000920002F1E022C2F8001100BF70472DE9EF
:10132000F05F80460D461646002701F009FC07468F
:1013300039462A46334601F00700C0F1070ABAF1E0
:10134000040F02D94FF0040A01E0C0F1070AD146A8
:1013500000F1040ABAF1070F02D24FF0000A01E0CF
:10136000A0F1030AD4464FF0010A0AFA09FAAAF1D9
:10137000010A0AEA020A0AFA0CFA4FF0010B0BFA08
:101380000CFBABF1010B0BEA030B4AEA0B04214601
:10139000404601F0DDFB00F000B830BCBDE8C09F66
:1013A00000BF00F00702064B19684FF6FF03194013
:1013B000044B0B4343EA0221014B196000BF704705
:1013C0000CED00E00000FA050246B2F5007F2AD1DC
:1013D0001D48006800F4C060B0F5007F32D01A48A4
:1013E000006820F4C06040F40070174B1860174884
:1013F000006832235843164BB0FBF3F0411C00E069
:10140000491E1148406900F48060B0F5806F01D139
:101410000029F5D10C48406900F48060B0F5806F78
:1014200010D1032070470848006800F4C060B0F590
:10143000806F07D00448006820F4C06040F48060EA
:10144000014B18600020EDE7007000400400002010
:1014500040420F000248006800F4C060704700007E
:10146000007000402DE9F84304460025A846208876
:1014700000F40060B0F5006F26D1606C68B1B0F583
:10148000000F03D0B0F5400F0ED10CE0E848C06863
:1014900040F48030E649C86008E00021201D01F0DA
:1014A0006DFB054602E001E0012500BF00BF55B914
:1014B000DF488830006820F44000616C0843DC4954
:1014C000C1F8880000E0A846206800F40030B0F5BC
:1014D000003F75D14FF00009D548806D012121EA08
:1014E000107078B100BFD248806D40F08050D04974
:1014F00088650846806D00F08050009000BF00BFF6
:101500004FF00109CB48006840F48070C949086079
:10151000FFF7A2FE074606E0FFF79EFEC01B02286B
:1015200001D9032505E0C348006800F48070002855
:10153000F2D000BF7DBBBE489030006800F440761A
:10154000CEB1E06DB04216D0B9489030006820F4BA
:101550004076B748D0F8900040F48030B449C1F8E4
:1015600090000846D0F8900020F48030C1F8900038
:101570000846C0F8906006F00100A8B1FFF76CFEC5
:10158000074609E0FFF768FEC01B41F28831884238
:1015900002D9032507E016E0A5489030006800F066
:1015A00002000028EED000BF5DB9A148903000686D
:1015B00020F44070E16D08439D49C1F8900003E0BC
:1015C0000CE0A84600E0A846B9F1010F05D1984803
:1015D000806D20F080509649886500BF207800F02B
:1015E000010048B192488830006820F00300216A69
:1015F00008438F49C1F88800207800F002000228D3
:1016000009D18B488830006820F00C00616A0843DB
:101610008749C1F88800207800F00400042809D127
:1016200083488830006820F03000A16A0843804970
:10163000C1F88800207800F02000202809D17C48DB
:101640008830006820F44060E16A08437849C1F8B6
:101650008800208800F40070B0F5007F09D174483C
:101660008830006820F44020E16B08437049C1F8DD
:101670008800208800F48060B0F5806F09D16C4844
:101680008830006820F44010216C08436849C1F894
:101690008800207800F04000402809D16448883054
:1016A000006820F44050216B08436149C1F888006C
:1016B000207800F08000802809D15D4888300068DB
:1016C00020F44040616B08435949C1F888002088E4
:1016D00000F48070B0F5807F09D1554888300068EB
:1016E00020F44030A16B08435149C1F8880020889C
:1016F00000F40050B0F5005F1FD14D4888300068FD
:1017000020F04060A16C0843494988310860A06C12
:10171000B0F1006F06D14648C06840F480104449DB
:10172000C8600AE0A06CB0F1806F06D10121201DD5
:1017300001F024FA054605B1A846206800F400200F
:10174000B0F5002F1FD13A488830006820F0406083
:10175000E16C0843364988310860E06CB0F1006FF5
:1017600006D13348C06840F480103149C8600AE0AF
:10177000E06CB0F1806F06D10121201D01F0FEF96F
:10178000054605B1A846206800F48020B0F5802FFA
:101790001FD127488830006820F04060216D084341
:1017A000234988310860206DB0F1006F06D12048D0
:1017B000C06840F480101E49C8600AE0206DB0F196
:1017C000806F06D10121201D01F0D8F9054605B131
:1017D000A846208800F48040B0F5804F14D114480A
:1017E0008830006820F04050616D0843104988310E
:1017F0000860606DB0F1805F06D10221201D01F00C
:10180000BDF9054605B1A846208800F40040B0F5B2
:10181000004F09D106488830006820F08040A16D53
:1018200008430349C1F888004046BDE8F88300003A
:1018300000100240007000402DE9F04104460D46C2
:1018400014B90120BDE8F0815548006800F0070098
:10185000A8420ED25248006820F0070028435049A1
:1018600008600846006800F00700A84201D0012087
:10187000E8E7207800F00100002840D060680328E5
:1018800006D14848006800F00070D8B90120D9E7B7
:101890006068022806D14348006800F4003088B927
:1018A0000120CFE7606830B93E48006800F00200D0
:1018B00040B90120C6E73B48006800F4806008B9E1
:1018C0000120BFE73748806820F0030061680843C3
:1018D00034498860FFF7C0FC064608E0FFF7BCFC0F
:1018E000801B41F28831884201D90320AAE72D48A4
:1018F000806800F00C006168B0EB810FEED12078B9
:1019000000F00200022807D12648806820F0F0008D
:10191000A1680843234988602148006800F0070057
:10192000A8420ED91E48006820F0070028431C4931
:1019300008600846006800F00700A84201D00120B6
:1019400080E7207800F00400042807D1154880685B
:1019500020F4E060E168084312498860207800F0D4
:101960000800082808D10F48806820F460502169D9
:1019700040EAC1000B49886000F044F809498968D1
:10198000C1F30311084A515C01F01F01C840074927
:1019900008600020FFF77EFC0746384652E700004B
:1019A00000200240001002405C3B000804000020C0
:1019B00001480068704700000400002000B5FFF7F0
:1019C000F7FF05498968C1F30221044A515C01F01F
:1019D0001F01C84000BD0000001002406C3B000821
:1019E00000B5FFF7E5FF05498968C1F3C221044A44
:1019F000515C01F01F01C84000BD00000010024012
:101A00006C3B00082DE9F04100240020DFF800C104
:101A1000DCF808C00CF00C01DFF8F4C0DCF80CC0F6
:101A20000CF0030719B10C291ED1012F1CD1DFF8CE
:101A3000E0C0DCF800C00CF0080CBCF1000F06D1CF
:101A4000DFF8CCC0DCF894C0CCF3032405E0DFF869
:101A5000C0C0DCF800C0CCF30314DFF8B8C05CF8F9
:101A6000244041B9204606E0042901D12A4802E079
:101A7000082900D129480C2947D1DFF894C0DCF8A7
:101A80000CC00CF00305DFF888C0DCF80CC0CCF308
:101A9000021C0CF10103012D1FD0022D02D0032DD9
:101AA0001AD10CE0DFF870C0BCFBF3FCDFF86080FB
:101AB000D8F80C80C8F306280CFB08F218E0DFF811
:101AC0005CC0BCFBF3FCDFF84880D8F80C80C8F39E
:101AD00006280CFB08F20BE000BFB4FBF3FCDFF8B8
:101AE0003080D8F80C80C8F306280CFB08F200BF41
:101AF00000BFDFF81CC0DCF80CC0CCF3416C0CF16B
:101B0000010C4FEA4C06B2FBF6F0BDE8F081000094
:101B100000100240743B00080024F40000127A0018
:101B20002DE9F843044614B90120BDE8F883F848CC
:101B3000806800F00C06F648C06800F003072078C3
:101B400000F01000102875D11EB10C2E74D1012F99
:101B500072D1EF48006800F0020018B1A06908B91E
:101B60000120E2E7EA48216A006800F0080020B19D
:101B7000E748006800F0F00005E0E54894300068B0
:101B800000F47060000981421FD9206A01F0BAF8A0
:101B900008B10120C9E700BFDD48006840F0080037
:101BA000DB4908600846006820F0F000216A08431D
:101BB000D749086000BF0846406820F47F40E169CB
:101BC00040EA0120D24948601EE000BFD0480068CA
:101BD00040F00800CE4908600846006820F0F00098
:101BE000216A0843CA49086000BF0846406820F4DB
:101BF0007F40E16940EA0120C5494860206A01F060
:101C000081F808B1012090E7FFF7FCFEC049896820
:101C1000C1F30311BF4A515C01F01F01C840BE4926
:101C200008600020FFF736FB8046B8F1000F4ED069
:101C300040467AE74BE0FFE7A06980B3B44800680C
:101C400040F00100B2490860FFF706FB054606E0D8
:101C5000FFF702FB401B022801D9032065E7AC48CF
:101C6000006800F002000028F2D000BFA848006819
:101C700040F00800A64908600846006820F0F0001F
:101C8000216A0843A249086000BF0846406820F462
:101C90007F40E16940EA01209D49486017E0FFE785
:101CA0009B48006820F0010099490860FFF7D4FACA
:101CB000054606E0FFF7D0FA401B022801D90320B1
:101CC00033E79348006800F002000028F2D1207842
:101CD00000F0010000285CD0082E03D00C2E0AD1A1
:101CE000032F08D18A48006800F4003088B3606888
:101CF00078BB012019E700BF6068B0F5803F06D1CE
:101D00008348006840F48030814908601AE06068C8
:101D1000B0F5A02F0BD17E48006840F480207C49AC
:101D200008600846006840F4803008600AE078489F
:101D3000006820F48030764908600846006820F486
:101D40008020086000BF606890B1FFF785FA054603
:101D500007E01EE0FFF780FA401B642801D903204A
:101D6000E3E66B48006800F400300028F2D010E091
:101D7000FFF772FA054606E0FFF76EFA401B64288B
:101D800001D90320D1E66248006800F40030002841
:101D9000F2D1207800F00200022852D1042E03D0A4
:101DA0000C2E14D1022F12D15948006800F4806023
:101DB00018B1E06808B90120B7E65548406820F03E
:101DC000F850217C40EA01605149486039E0E06800
:101DD00000B34F48006840F480704D490860FFF739
:101DE0003BFA054606E0FFF737FA401B022801D907
:101DF00003209AE64648006800F480600028F2D08C
:101E00004348406820F0F850217C40EA0160404996
:101E1000486016E03E48006820F480703C49086045
:101E2000FFF71AFA054606E0FFF716FA401B0228EC
:101E300001D9032079E63648006800F48060002864
:101E4000F2D1207800F00800082836D16069D0B1BE
:101E50002F489430006840F001002D49C1F89400EB
:101E6000FFF7FAF9054606E0FFF7F6F9401B0228EE
:101E700001D9032059E626489430006800F002009A
:101E80000028F1D019E022489430006820F00100C9
:101E90001F49C1F89400FFF7DFF9054606E0FFF798
:101EA000DBF9401B022801D903203EE61848943094
:101EB000006800F002000028F1D1207800F0040052
:101EC000042870D14FF000091148806D00F0805057
:101ED00078B900BF0E48806D40F080500C4988658D
:101EE0000846806D00F08050009000BF00BF4FF0AA
:101EF00001090A48006800F48070F0B907480068DA
:101F000040F4807005490860FFF7A6F905460EE029
:101F1000001002405C3B00080400002000700040FC
:101F2000FFF79AF9401B022801D90320FDE59B48E1
:101F3000006800F480700028F2D000BFA06801287B
:101F400008D19748006840F0010095499039C1F8E0
:101F5000900021E0A06805280FD19148006840F06A
:101F600004008F499039C1F890000846D0F89000DD
:101F700040F00100C1F890000EE08948006820F0B0
:101F8000010087499039C1F890000846D0F89000C8
:101F900020F00400C1F8900000BFA068A0B1FFF7D6
:101FA0005BF9054609E02EE0FFF756F9401B41F2C8
:101FB0008831884201D90320B7E57948006800F0EC
:101FC00002000028F0D012E0FFF746F9054608E0CD
:101FD000FFF742F9401B41F28831884201D90320C2
:101FE000A3E56F48006800F002000028F0D1B9F1C5
:101FF000010F07D16A489038806D20F08050684901
:102000009039886500BF207800F02000202838D162
:10201000606AD8B162480830006840F00100604949
:102020009039C1F89800FFF717F9054606E0FFF769
:1020300013F9401B022801D9032076E558480830DF
:10204000006800F002000028F1D01AE0544808307F
:10205000006820F0010052499039C1F89800FFF75C
:10206000FBF8054606E0FFF7F7F8401B022801D908
:1020700003205AE54A480830006800F002000028B2
:10208000F1D1A06AF0B30C2E74D0A06A022853D10B
:1020900043489038006820F08070414990390860CA
:1020A000FFF7DAF8054606E0FFF7D6F8401B0228EE
:1020B00001D9032039E53A489038006800F00070F3
:1020C0000028F1D1206B401E0101606B41EA002025
:1020D000E16A0843A18F0122C2EB510140EA41515C
:1020E0004020005DC2EB500041EA40613820005DB5
:1020F00041EAC0602A499039C8600846006840F04B
:10210000807000E048E008600846C06840F08070D9
:10211000C860FFF7A1F8054606E0FFF79DF8401BF1
:10212000022801D9032000E51D489038006800F01E
:1021300000700028F1D02FE019489038006820F096
:1021400080701749903908600846006800F0006008
:1021500020B90846C06820F00300C86010489038D5
:10216000C068104908400E499039C860FFF774F8FC
:10217000054607E00EE0FFF76FF8401B022801D983
:102180000320D2E406489038006800F00070002870
:10219000F1D101E00120C8E40020C6E40070004055
:1021A00090100240FFFFEEFE70B504460CB901200E
:1021B00070BD606A00B900BF0021A16294F85D00A3
:1021C00028B9002084F85C00204600F04DF8022079
:1021D00084F85D002068006820F0400021680860F5
:1021E000E068B0F5E06F01D9002501E04FF48055BB
:1021F000E068B0F5706F05D0E068B0F5E06F01D031
:102200000021A162206B40B9E068B0F5E06F02D90F
:102210000221216301E001212163D4E90101084386
:102220002169084361690843218B01F40071084367
:10223000E1690843216A0843A16A084321680860EC
:102240000421A06901EA1040616A0843616B0843F8
:10225000E168084328432168486000202066012087
:1022600084F85D000020A3E710B586B00446142171
:1022700001A8FDF7E2FF18492068884229D100BF74
:102280001648006E40F48050144908660846006EF7
:1022900000F48050009000BF00BF00BF0846C06C33
:1022A00040F00100C8640846C06C00F001000090D6
:1022B00000BF00BFD22001900220029000200390B6
:1022C000032004900520059001A94FF09040FEF7EF
:1022D000D1FE06B010BD00000030014000100240E9
:1022E00070B504462546681EB0F1807F01D30120F9
:1022F0000FE0681E4FF0E02148610F214FF0FF30E2
:1023000000F026FC00204FF0E021886107200861E2
:10231000002070BD704770472DE9F04104462068E9
:10232000C569206806682068876805F00F08B8F15D
:10233000000F0CD105F0200048B106F0200030B1AC
:10234000206E10B12046216E8847BDE8F081B8F1BB
:10235000000F7FD007F0010018B906F49070002834
:1023600078D005F0010048B106F4807030B101204A
:1023700021680862606F40F00100606705F00200AC
:1023800048B107F0010030B1022021680862606F97
:1023900040F00400606705F0040048B107F0010058
:1023A00030B1042021680862606F40F0020060676D
:1023B00005F0080060B106F0200010B907F0010038
:1023C00030B1082021680862606F40F00800606743
:1023D000606F78B305F0200038B106F0200020B11E
:1023E000206E10B12046216E8847606F00F0080013
:1023F00028B92068806800F04000402824D1204699
:1024000000F08CFE2068806800F04000402817D162
:102410002068806820F0400021688860E06E58B134
:102420001F48E16E8863E06EFEF7F0FC10B1E06ECD
:10243000816B88470DE00DE02046FFF76CFF08E058
:102440002046FFF768FF04E02046FFF764FF002006
:1024500060677AE705F4801050B107F4800038B166
:102460004FF48010216808622046FFF753FF6CE7A5
:1024700005F0800040B106F0800028B1606E10B118
:102480002046616E884760E705F0400030B106F0F5
:10249000400018B1204600F053FE56E700BF54E755
:1024A0000531000810B504460CB9012010BDA06923
:1024B00000B100E000BF94F8710028B9002084F852
:1024C0007000204600F02AF8242084F8710020686B
:1024D000006820F0010021680860204600F042FEFC
:1024E000012800D1E2E7606A10B1204600F054FDF7
:1024F0002068406820F49040216848602068806827
:1025000020F02A00216888602068006840F00100FF
:1025100021680860204600F0BBFDC7E710B586B013
:102520000446142101A8FDF788FE5249206888421C
:102530004DD100BF5048006E40F480404E490866BF
:102540000846006E00F48040009000BF00BF00BF4E
:102550000846C06C40F00100C8640846C06C00F03A
:102560000100009000BF00BF4FF4C0600190022046
:10257000029000200390032004900720059001A9F9
:102580004FF09040FEF776FD3C483D490860022040
:10259000486000213A488160C160802101610021CA
:1025A00041618161C1610162FEF7DEFC08B1FEF7A5
:1025B0008CF800BF3248E066846200BF00221146FA
:1025C0002520FEF7ACFE2520FEF79CFE50E02D49AD
:1025D000206888424CD100BF2748806D40F400300D
:1025E000254988650846806D00F40030009000BFE2
:1025F00000BF00BF0846C06C40F00100C864084638
:10260000C06C00F00100009000BF00BF0C200190E2
:1026100002200290002003900320049007200590E0
:1026200001A94FF09040FEF725FD144814301649DB
:10263000086002204860002113488160C160802149
:102640000161002141618161C1610162FEF78CFC81
:1026500008B1FEF73AF800BF0B48E066846200BF9D
:10266000002211462620FEF75AFE2620FEF74AFEDB
:1026700006B010BD00380140001002405800024072
:10268000E4010020004400402C020020704700BFFD
:10269000FEE710B500F0C8FF10BD000010B58020A7
:1026A00005490860002048608860C8604FF090408D
:1026B000FEF7E0FC10BD00007402002010B5802081
:1026C000054908601120486000208860C8604FF00C
:1026D0009040FEF7CFFC10BD7402002010B501221F
:1026E00080214FF09040FEF7B1FD01F095F80122F6
:1026F00002214FF09040FEF7A9FD01F08DF8FFF7A1
:10270000CDFF80214FF09040FEF798FD08B10124E5
:1027100000E00024002202214FF09040FEF796FDD9
:1027200001F07AF8204610BD7047024602F16000C1
:1027300000EB8103186800F0F84070470146886894
:10274000C0F3C00070470146886800F00100704780
:1027500001468868C0F30070704701468868C0F37E
:102760008000704770B500F11404C1F3406504EBBC
:102770008503C1F304560725B5401C68AC43C1F37B
:10278000045502FA05F52C431C6070BD826822F0E6
:10279000E0720A438260704710B500F1600404EBF8
:1027A00081031C6824F0004414431C6010BD000029
:1027B00000B587B0182101A8FDF73FFD1A481B4955
:1027C00008604FF4E0104860002118488160C16043
:1027D0000161042141610021017641760121C1613D
:1027E000002180F820108162C16280F830104163BE
:1027F00080F83810FEF7D4F908B1FDF766FF0C48F1
:10280000019006200290002003907F200490042075
:1028100005900020069001A90448FDF757FF08B174
:10282000FDF753FF07B000BD000004502C0000204E
:102830000200300408B500BF0E48806C40F0010073
:102840000C4988640846806C00F00100009000BFCD
:1028500000BF002211460F20FEF761FD0F20FEF79A
:1028600051FD002211461020FEF759FD1020FEF701
:1028700049FD08BD0010024000B587B0142102A830
:10288000FDF7DBFC00BF4548C06C40F00400434945
:10289000C8640846C06C00F00400019000BF00BF8F
:1028A00000BF0846C06C40F00100C8640846C06C18
:1028B00000F00100019000BF00BF00BF0846C06CDF
:1028C00040F00200C8640846C06C00F002000190AD
:1028D00000BF00BF00BF0846C06C40F01000C864D5
:1028E0000846C06C00F01000019000BF00BF00223D
:1028F00001214FF09040FEF7A9FC0022202128483A
:10290000FEF7A4FC002201212648FEF79FFC0022CE
:102910004FF401412448FEF799FC012002900390F6
:1029200000200490059002A94FF09040FEF7A2FB12
:102930001020029000200390049002A91848FEF78E
:1029400099FB202002900120039000200490059024
:1029500002A91348FEF78EFB01200290039000208D
:102960000490059002A90F48FEF784FB0420029012
:1029700000200390049002A90A48FEF77BFB4FF465
:10298000014002900120039000200490059002A9CC
:102990000548FEF76FFB07B000BD000000100240C5
:1029A00000080048000400480010004810B5114815
:1029B000114908604FF48270486000210E48816020
:1029C0004FF4E061C1600021016141614FF4802159
:1029D00081610021C1610162416281620721C1629E
:1029E0000021016308214163FFF7DEFB08B1FDF719
:1029F0006CFE10BD003001409000002010B50D4865
:102A00000D4908604FF4E130486000210A488160B8
:102A1000C16001610C21416100218161C1610162DC
:102A20000020054948620846FFF73CFD08B1FDF764
:102A30004CFE10BD00380140F400002010B50D48D8
:102A40000D4908604FF4E130486000210A48816078
:102A5000C16001610C21416100218161C16101629C
:102A60000020054948620846FFF71CFD08B1FDF744
:102A70002CFE10BD004400406C01002070B5002405
:102A8000FFF70CFE00251BE06006040E0122022168
:102A90004FF09040FEF7DAFB00F0BEFE80214FF0D1
:102AA0009040FEF7CBFB08B1601CC4B200220221AB
:102AB0004FF09040FEF7CAFB00F0AEFE681CC5B2B6
:102AC000082DE1DB204670BD70B50446FFF7F6FD2A
:102AD00000252DE004F0800030B1012280214FF06C
:102AE0009040FEF7B3FB05E0002280214FF09040BC
:102AF000FEF7ACFB00F090FE012202214FF0904067
:102B0000FEF7A4FB00F088FE002202214FF0904067
:102B1000FEF79CFB072D05D1012280214FF090404C
:102B2000FEF794FB6006040E00F076FE681CC5B24A
:102B3000082DCFDBFFF7D2FD70BD00BFFEE7704769
:102B400002480068C0F30220704700000CED00E06E
:102B500010B5002807DA0A07140E054A00F00F0323
:102B60001B1FD45403E00A07130E024A135410BD6E
:102B700018ED00E000E400E0704700002DE9F041AE
:102B800004460F4600255B48C06800F0030090B182
:102B90005848C06800F003002168884209D12068C5
:102BA00038B15448C068C0F30210401C61688842C4
:102BB00033D0012531E02068012804D0022809D053
:102BC00003281AD10DE04B48006800F0020000B95C
:102BD000012514E04748006800F4806000B9012531
:102BE0000DE04448006800F4003028B9414800680E
:102BF00000F4802000B9012501E0012500BF00BFDD
:102C00005DB9D4E90010401E41EA00103949C96895
:102C100021F0730108433749C860002D67D135485A
:102C2000006820F0806033490860FEF715FB064617
:102C300006E0FEF711FB801B022801D9032505E001
:102C40002C48006800F000600028F2D100BFC5BB2E
:102C500067B9A0680002217B40EAC1602549096983
:102C6000254A114008432349086120E0012F0FD174
:102C7000A0680002218A0122C2EB510140EA4150C2
:102C80001C4909691D4A114008431A4908610EE0B0
:102C9000A0680002217D0122C2EB510140EA41609F
:102CA00014490969164A114008431249086111483C
:102CB000006840F080600F490860FEF7CDFA0646D4
:102CC00007E014E0FEF7C8FA801B022801D90325AB
:102CD00005E00848006800F000600028F2D000BF5E
:102CE0002DB904480069A1690843024908612846D2
:102CF000BDE8F08100100240FF80FF07FF809FFFCA
:102D0000FF80FFF9F8B5044600262348806D00F0E7
:102D1000805018B1FEF79EFB054616E000BF1E4826
:102D2000806D40F080501C4988650846806D00F039
:102D30008050009000BF00BFFEF78CFB0546164890
:102D4000806D20F0805014498865B5F5007F07D16B
:102D5000802C10D9A02C01D902260CE001260AE013
:102D6000802C01D9032606E0802C01D1022602E046
:102D7000702C00D101260948006820F0070030437C
:102D8000064908600846006800F00700B04201D01C
:102D90000120F8BD0020FCE70010024000200240A6
:102DA00010B5C82000F04EFE702000F0B9FC10BD38
:102DB00030B587B0054600200190029003900024B2
:102DC00001AB09222421202000F02DFD9DF80400F4
:102DD00004029DF80500044324029DF80600044304
:102DE0002402201204909DF8070004029DF80800B8
:102DF000044324029DF80900044324022012059094
:102E00009DF80A0004029DF80B00044324029DF87B
:102E10000C00044324022012069004A807C885E889
:102E2000070007B030BD704710B5FFF747FC01221F
:102E300080214FF09040FEF709FA012202214FF065
:102E40009040FEF703FA00F0E7FC002280214FF0EB
:102E50009040FEF7FBF900F0DFFC002202214FF06A
:102E60009040FEF7F3F900F0D7FC10BD10B5FFF766
:102E700025FC002280214FF09040FEF7E7F9012267
:102E800002214FF09040FEF7E1F900F0C5FC01226D
:102E900080214FF09040FEF7D9F910BD10B5FEF734
:102EA000E1F910BD00B5AFB044211EA8FDF7C5F98A
:102EB000142119A8FDF7C1F9602101A8FDF7BDF99A
:102EC00010201E900120249000202590B0202690F4
:102ED000002028901EA8FEF723FE08B1FDF7F5FBA1
:102EE0000F20199000201A901B901C901D90022119
:102EF00019A8FEF7A1FC08B1FDF7E7FB44F20300B7
:102F00000190002009900A904FF080501690012007
:102F100002900121039108210491072105910221CA
:102F2000069107910106089101A8FEF79BFA08B1E6
:102F3000FDF7CBFB4FF40070FEF746FA08B1FDF742
:102F4000C4FB2FB000BD00001048006840F47000C2
:102F50000E4908600E48006840F001000C49086006
:102F600000208860084600680A490840084908604F
:102F70008814C8600846006820F48020086000209B
:102F80008861C803014980390860704788ED00E016
:102F900000100240FFFFF6EA90F8241001F0010152
:102FA00039B10168496821F40031826A114302682D
:102FB000516090F8241001F00201022907D1016844
:102FC000496821F48031C26A11430268516090F867
:102FD000241001F00401042907D10168496821F493
:102FE0008021026B11430268516090F8241001F0B7
:102FF0000801082907D10168496821F40041426BA2
:1030000011430268516090F8241001F0100110295A
:1030100007D10168896821F48051826B11430268ED
:10302000916090F8241001F02001202907D1016857
:10303000896821F40051C26B11430268916090F8D5
:10304000241001F04001402913D10168496821F49E
:103050008011026C114302685160016CB1F5801F50
:1030600007D10168496821F4C001426C114302682C
:10307000516090F8241001F08001802907D1016887
:10308000496821F40021826C114302685160704745
:1030900038B50446002500206067FEF7DDF80546D8
:1030A0002068006800F0080008280CD16FF07E400E
:1030B0002B4600224FF400110090204600F05BFAEE
:1030C00008B1032038BD2068006800F0040004281F
:1030D0000CD16FF07E402B4600224FF4800100900F
:1030E000204600F048FA08B10320EBE7202084F8DE
:1030F000710084F8720000BF002084F8700000BFE7
:1031000000BFDFE770B50546AC6A0020A4F85A009E
:10311000A4F852002046FFF7FEF870BD0168096868
:1031200021F49071026811600168896821F0010141
:1031300002689160202180F87210002101667047BA
:1031400010B504462068006820F04000216808603F
:10315000202084F87100002060662046FFF796FA70
:1031600010BD00002DE9F84F04464FF0000910266D
:103170004FF0000B0025002000908246F3492068A4
:10318000884200D100E000BF2169A068084361695E
:103190000843E16940EA010920680068EC490840F9
:1031A00040EA0900216808602068406820F4405027
:1031B000E168084321684860D4F81890E349206822
:1031C000884202D0206A40EA09092068806820F419
:1031D000306040EA09002168886000BFDD4920684E
:1031E000884216D1DC48006800F0030030B10128A5
:1031F00008D0022804D0032808D105E0012607E002
:10320000022605E0042603E0082601E0102600BFA0
:1032100053E0D2492068884216D1CF48006800F0B8
:103220000C0030B1042808D0082804D00C2808D19C
:1032300005E0002607E0022605E0042603E0082654
:1032400001E0102600BF38E0C5492068884216D149
:10325000C148006800F0300030B1102808D02028A4
:1032600004D0302808D105E0002607E0022605E05A
:10327000042603E0082601E0102600BF1DE0B34944
:103280002068884219D1B448006800F4406048B111
:10329000B0F5806F0AD0B0F5006F05D0B0F5406F83
:1032A00008D105E0002607E0022605E0042603E039
:1032B000082601E0102600BF00BF00BFA349206818
:1032C000884272D1042E10D003DC3EB1022E13D1FD
:1032D00008E0082E0DD0102E0ED10EE0FEF76EFB8A
:1032E00082460DE0DFF87CA20AE0FEF78BFB824607
:1032F00006E04FF4004A03E000BF0120009000BF49
:1033000000BFBAF1000F0AD0606800EB40005045E2
:1033100003D860680003504502D2012000900FE1FD
:10332000042E2ED003DC3EB1022E51D118E0082E1F
:103330003CD0102E4CD14CE0FEF740FB4FF4807196
:10334000A0FB0130616849085F1840F10001D4F822
:1033500004C0624600233846FCF734FF05463BE0D4
:10336000D4F804C04FEA5C0000217F4BC71841EB42
:10337000010862460B4638464146FCF723FF0546E6
:103380002AE0FEF73FFB4FF48071A0FB013061683B
:1033900049085F1840F10001D4F804C062460023D8
:1033A0003846FCF70FFF054616E022E0D4F804C0CB
:1033B0004FEA5C0000214FF40003C71841EB0108FD
:1033C00062460B4638464146FCF7FCFE054603E0E4
:1033D00000BF0120009000BF00BFB5F5407F05D3BE
:1033E000B5F5801F02D22068C560A9E001200090D9
:1033F000A6E0E069B0F5004F57D1042E28D005DCD7
:103400004EB1012E11D0022E36D118E0082E29D04F
:10341000102E31D131E0FEF7D1FA4000616800EBA7
:103420005100B0FBF1F085B22AE0FEF7D9FA400076
:10343000616800EB5100B0FBF1F085B220E04B4930
:10344000606801EB50006168B0FBF1F085B217E0F5
:10345000FEF7D8FA4000616800EB5100B0FBF1F0D4
:1034600085B20DE04FF48031606801EB5000616877
:10347000B0FBF1F085B203E000BF0120009000BF77
:1034800000BF102D0ED3B5F5803F0BD24FF6F07074
:1034900005EA000BC5F342004BEA000B2068C0F8B8
:1034A0000CB04DE0012000904AE0042E26D005DC4F
:1034B0004EB1012E10D0022E33D116E0082E26D0A8
:1034C000102E2ED12EE0FEF779FA616800EB510044
:1034D000B0FBF1F085B228E0FEF782FA616800EBFC
:1034E0005100B0FBF1F085B21FE01E49606801EBAE
:1034F00050006168B0FBF1F085B216E0FEF782FA89
:10350000616800EB5100B0FBF1F085B20DE04FF4C3
:103510000041606801EB50006168B0FBF1F085B2DA
:1035200003E000BF0120009000BF00BF102D05D3B5
:10353000B5F5803F02D22068C56001E0012000900F
:10354000002020666066009800F012B800800040FD
:10355000F369FFEF0038014088100240004400404A
:10356000004800400024F400000024F40048E80172
:1035700018BCBDE8E08F2DE9F04104460D46174622
:103580009846069E21E0701CF8B12EB1FDF764FE4E
:10359000A0EB0800B04218D92068006820F4D07071
:1035A000216808602068806820F001002168886038
:1035B000202084F8710084F8720000BF002084F895
:1035C000700000BF0320BDE8F0812068C06928407A
:1035D000A84201D1012000E00020B842D3D0002051
:1035E000F1E7000010B50248FEF796FE10BD00009E
:1035F000F400002010B50248FEF78EFE10BD00005A
:103600006C01002000BFFEE702E008C8121F08C1DD
:10361000002AFAD170477047002001E001C1121F53
:10362000002AFBD17047000008B500BF3948C06CC4
:1036300040F001003749C8640846C06C00F0010042
:10364000009000BF00BF00BF0846C06C40F0020001
:10365000C8640846C06C00F00200009000BF00BFC4
:1036600000BF0846C06C40F00400C8640846C06C47
:1036700000F00400009000BF00BF40202649086011
:103680000120486000208860C8604FF09040FDF73E
:10369000F1FC10202049086001204860002088606B
:1036A000C8604FF09040FDF7E5FC20201A49086003
:1036B0000120486000208860C8601848FDF7DAFCE7
:1036C000002210214FF09040FDF7C0FD0022402164
:1036D0004FF09040FDF7BAFD002220210F48FDF782
:1036E000B5FD02200C490860112048600020886068
:1036F000C8604FF09040FDF7BDFC8020064908608F
:103700001120486000208860C8604FF09040FDF7AD
:10371000B1FC08BD001002407402002000080048FF
:1037200031B56C46234601221146202000F0C5F831
:1037300008B1012038BD0020FCE708B56B46012226
:103740003421202000F06FF89DF80000C00908BD6A
:10375000014890ED030A7047080000201CB58F2037
:1037600000906C46234601223321202000F0A5F86A
:1037700008B100201CBD00F0E7F808B10020F9E70F
:1037800000BFFFF7DAFF0028FBD001AB0122332195
:10379000202000F048F808B10020EBE79DF8040075
:1037A00000F08000A0B1002000906C46234601226A
:1037B0003321202000F081F808B10020DAE79DF8DD
:1037C000040000F0700008B10120D3E70020D1E729
:1037D0000020CFE710B50D48007838B901200B491B
:1037E0000870FDF739FD0A4908600BE0FDF734FD6C
:1037F00007490968401A00EE100AB8EE400A054869
:1038000080ED000A034890ED000A10BD180000206A
:103810001C00002020000020002001E0411CC8B254
:103820001E28FBDB70472DE9F04105460F46164682
:1038300098460224FFF7F8FAFEF776FF002141EAE6
:103840004501C8B2FFF740F910B10120BDE8F08191
:10385000FEF76AFF3846FFF737F908B10120F5E7B0
:10386000FEF762FFFFF7E0FAFEF75EFF012101EBD2
:103870004501C8B2FFF728F908B10120E6E7FEF7D5
:1038800053FF002411E0FFF7F9F808F80400701E58
:10389000A04204DDFEF722FFFEF746FF03E0FEF73D
:1038A0001DFFFEF741FF601CC4B2B442EBDBFFF723
:1038B000DDFAFEF739FF0020C8E72DE9F0410546A3
:1038C0000E4617469846FFF7AFFAFEF72DFF002188
:1038D00041EA4501C8B2FFF7F7F810B10120BDE891
:1038E000F081FEF721FF3046FFF7EEF808B1012026
:1038F000F5E7FEF719FF002408E018F80400FFF7C9
:10390000E3F808B10120EAE7601CC4B2BC42F4DB72
:10391000FFF7ACFAFEF708FF0020E0E7FDF7AAFC8E
:10392000FFF7C0FAFEF7A8FFFEF784FFFFF73EF8A7
:10393000FFF784F8FFF762F8FEF73AFFFEF7A9FEFB
:1039400001E000F01FF8FCE738B5702000906C46ED
:103950002346012200212020FFF7AFFF08B10120FC
:1039600038BD0020FCE7000010B5002003490870B6
:10397000FDF772FC0249086010BD0000180000202D
:103980001C0000202DED048B86B0FFF7E7FEFFF74B
:1039900007FA9FED2A0AB0EE409AFFF7D9FEF0EE43
:1039A000408A9FED260AF0EE409A45E0FFF712FFAD
:1039B000B0EE408AB2EE040AB4EEC08AF1EE10FA1C
:1039C00003DDFFF7D1FFFFF7BFFFFFF7B6FE98B3A8
:1039D00039EE290AB0EE409A6846FFF7E9F99DE80A
:1039E000070003AB07C39DED030AB8EEC00AC0EEA3
:1039F000280ABDEEE00A10EE100A00B21049088055
:103A00009DED040AB8EEC00AC0EE280ABDEEE00A39
:103A100010EE100A00B248809DED050AB8EEC00A0B
:103A2000C0EE280ABDEEE00A10EE100A00B288804F
:103A30009FED020AF0EE409AB8E700000000000097
:103A40002400002010B52DED088B82B00446B4F59B
:103A5000803F00D204E0012002B0BDEC088B10BD15
:103A6000B4F5C87F02D94FF4C87402E01E2C00D20E
:103A70001E24200A8DF80000E0B28DF801009DF8A8
:103A800000008DF802009DF801008DF803009DF8FC
:103A900000008DF804009DF801008DF805006B46CC
:103AA000062204212020FFF708FF08B10120D3E7F8
:103AB0002248046090ED000AB8EE400A10EE101A99
:103AC0000846FCF7E9FC41EC1B0B9FED1D0B53EC8A
:103AD000102BFCF76CFC41EC1A0B9FED1B0B53EC0D
:103AE000102BFCF7B5FB41EC190BFCF7E8FC134974
:103AF000C86000EE104AB8EE400ADFED150A20EE6D
:103B0000200A10EE101A0846FCF7C6FC41EC1A0B0E
:103B10009FED100B53EC102BFCF79AFB41EC190BAB
:103B2000FCF7CDFC08EE100AB7EE000AC0EE080A5A
:103B30000248C0ED020A00BF00208DE70800002007
:103B4000AE47E17A14AED73F000000000000F03F1E
:103B5000A48C3837613255302AA9133F0000000089
:103B6000000000000102030406070809000000002D
:103B700001020304A0860100400D0300801A060024
:103B800000350C0040420F0080841E0000093D00FB
:103B900000127A000024F40000366E010048E801AB
:103BA000006CDC02C43B0008000000202C00000078
:103BB00008360008F03B00082C0000205C060000DE
:103BC000183600080000000000093D00C800000091
:103BD000000014420000DC43000096420000000098
:103BE00000000000000000000000000000000000D5
:040000050800018D61
:00000001FF
