:020000040800F2
:10000000500E0020A1010008D93C00084937000823
:10001000D53C0008DD0D0008B552000800000000C6
:100020000000000000000000000000000144000883
:10003000310E0008000000000D3E00088147000856
:10004000BB010008BB010008BB010008BB010008A0
:10005000BB010008BB010008BB010008BB01000890
:10006000BB010008BB010008350E0008BB010008F9
:10007000BB010008BB010008BB010008E10D00083E
:10008000F10D0008BB010008BB010008BB0100081E
:10009000BB010008BB010008BB010008BB01000850
:1000A000BB010008BB010008BB010008BB01000840
:1000B000BB0100080000000000000000BB010008B8
:1000C000BB010008BB010008BB010008BB01000820
:1000D000BB0100088D520008A1520008BB010008B6
:1000E000BB010008BB010008000000000000000088
:1000F0000000000000000000000000000000000000
:1001000000000000BB01000800000000BB01000867
:100110000000000000000000BB010008BB01000857
:10012000BB010008BB010008BB010008BB010008BF
:10013000BB010008000000000000000000000000FB
:10014000BB010008BB010008BB010008BB0100089F
:10015000BB010008BB010008BB010008BB0100088F
:10016000BB010008BB010008BB0100080000000043
:10017000BB010008BB010008BB0100080000000033
:10018000BB010008BB010008BB010008DFF80CD070
:1001900000F01EFB0048004735560008500E0020B6
:1001A0000648804706480047FEE7FEE7FEE7FEE711
:1001B000FEE7FEE7FEE7FEE7FEE7FEE72D48000864
:1001C0008D0100082DE9F05F0546002092469B4610
:1001D00088460646814640241BE02846414647465D
:1001E000224600F03FFA53465A46C01A914110D3B6
:1001F00011461846224600F026FA2D1A67EB010830
:100200004F4622460120002100F01DFA17EB00099D
:100210004E41201EA4F10104DFDC484631462A4647
:10022000434600F000B830BCBDE8C09F40EA01037F
:100230009B0703D009E008C9121F08C0042AFAD29C
:1002400003E011F8013B00F8013B521EF9D2704760
:10025000D2B201E000F8012B491EFBD27047002208
:10026000F6E710B513460A4604461946FFF7F0FFB5
:10027000204610BD2DE9FE4F804681EA0300C00FE5
:100280000C46009021F0004123F00045B8EB02003D
:10029000A94105D24046214690461C460B460246DF
:1002A00023F00040104347D0270DC7F30A00C3F3E3
:1002B0000A510290401A019040286BDAC3F31300F0
:1002C00040F4801B0098924620B10023D2EB030A31
:1002D00063EB0B0B01985946C0F14002504600F009
:1002E000B2F906460D4650465946019A00F0CAF941
:1002F00010EB08006141002487EA115284EAE77399
:100300001A4340D0009A62B3019A012A4FEA075279
:1003100015DC001B61EB02014FF0004202EA0752BC
:10032000CDE90042001C41F5801132462B4600F019
:1003300001FA03B000F045B840462146F9E7001B3A
:1003400061EB0201001C41F5801300185B4120188D
:10035000A2F5001747EB030140EAD570B6196D41CD
:1003600011E06D084FEA360645EAC0754FEA0752BC
:10037000001B61EB0201001C41F5801149084FEAA6
:1003800030000019514132462B4603B000F01CB832
:1003900000F0C1B90098012240000023D0EB020216
:1003A00063EBE073009821464FEAE074B8EB00007D
:1003B00061EB0401E9E783F000435BE781F0004172
:1003C00058E730BCBDE8C08F30BCBDE8C04FFFF778
:1003D000DFBF2DE9FE4F81EA030404F0004421F061
:1003E000004100944FF0000B23F0004350EA010459
:1003F0005ED052EA03045BD0C3F30A54C1F30A553A
:100400002C44A4F2F3340194A0FB0254C1F3130171
:1004100041F48011C3F3130343F4801301FB02443E
:1004200000FB034E840A970A44EA815447EA835743
:10043000A4FB076802958D0A05FB07854FEA932CFC
:1004400004FB0C542705029D4FEA065847EA16376D
:10045000B5EB08056EEB070C870E920E47EA811785
:1004600042EA8312A7FB0201B6EB0B0164EB000426
:100470002B0D43EA0C335E1844EB1C50DA46514610
:10048000E7FB0201C5F313044FEA0B3343EA1453AD
:100490004FEA0432019C43EA0603A4F10C040294DF
:1004A000009CCDE900B400F045F903B000F003B8BA
:1004B00000200146F9E730BCBDE8C08F2DE9F04DC2
:1004C00081EA030404F0004B21F0004514464FF08C
:1004D000000A23F0004150EA050220D054EA01024C
:1004E0001DD0C5F30A570246C5F31303C1F3130029
:1004F000C1F30A5640F4801543F48013A7EB0608B5
:10050000101BD64608F2FD3873EB050002D308F144
:10051000010801E092185B41B8F1000F03DA0020F6
:100520000146BDE8F08D00204FF480110646844658
:100530000EE0171B73EB050705D3121B63EB0503D6
:1005400006434CEA010C49084FEA300092185B411F
:1005500050EA0107EDD152EA030012D082EA04000A
:1005600083EA0501084305D0101BAB4106D20122E6
:10057000002306E000224FF0004302E06FF001028A
:1005800053101AEB06004CEB085110EB0A0041EB3C
:100590000B01BDE8F04D00F0BEB80EB5C10F80EA0A
:1005A000E0700844CA07002140F233438DE80E0092
:1005B0000A460B4600F0BEF803B000BD00F0004252
:1005C00030F000400AD0C10D01F56071C0F3160093
:1005D00042EA0151C208400711437047002001461A
:1005E000704701F0004330B421F0004150EA0102AD
:1005F00006D00A0DA2F56072C1F31301002A02DCD5
:1006000030BC00207047440F44EAC104C100E01828
:1006100030BC00EBC25000F047B830B50B46014685
:1006200000202022012409E021FA02F59D4205D391
:1006300003FA02F5491B04FA02F52844151EA2F13B
:100640000102F1DC30BD202A04DB203A00FA02F17D
:10065000002070479140C2F1200320FA03F31943B0
:1006600090407047202A04DB203A21FA02F0002152
:10067000704721FA02F3D040C2F1200291400843B2
:1006800019467047202A06DBCB17203A41FA02F0C0
:1006900043EAE07306E041FA02F3D040C2F12002DF
:1006A00091400843194670470029A8BF7047401C75
:1006B000490008BF20F00100704710B4B0FA80FC78
:1006C00000FA0CF050EA010404BF10BC704749B1B5
:1006D000CCF1200421FA04F411FA0CF118BF012125
:1006E00021430843A3EB0C01CB1D4FEA00614FEA05
:1006F000102042BF002010BC704700EBC3501044D4
:100700000029A4BF10BC7047401C490008BF20F05E
:10071000010010BC704710B5141E73F1000408DA14
:10072000401C41F1000192185B411A4301D120F0B5
:10073000010010BD2DE9F04D92469B4611B1B1FA72
:1007400081F202E0B0FA80F220329046FFF77BFFA0
:1007500004460F4640EA0A0041EA0B0153465A4656
:10076000084313D0114653EA010019D0C8F14002E2
:100770005046FFF777FF05460E465046594642461B
:10078000FFF761FF084305D0012004E02046394609
:10079000BDE8F08D0020054346EAE0762C43374360
:1007A0000A986305E40AA0EB08000022FD0A44EA67
:1007B00047540A3002D500200146E9E70105101927
:1007C0006941DDE9084500196941BDE8F04DA2E73E
:1007D000064C074D06E0E06840F0010394E807008E
:1007E00098471034AC42F6D3FFF7D4FC445D0008C0
:1007F000645D00082DE9F05F044688464FF000096B
:100800004746206803F04BF88246206803F033F82F
:100810008346BAF1000F02D1BBF1000F6ED0206801
:10082000C06800F0007000B3607E01281DD1207EFA
:1008300001281AD101270FE0314881450AD3606DA4
:1008400040F010006065A06D40F00100A06501203F
:1008500000F05AB809F1010920680068C0F380105F
:100860000028E9D0402021680860022F10D02068BD
:1008700003F015F860B1206803F002F840B9206871
:100880008168204A114041F01001816000BF00BF23
:10089000012F10D0206802F0EEFF60B1206802F056
:1008A000EFFF40B920688168164A114041F02001ED
:1008B000816000BF00BF022F03D0032F03D10C259E
:1008C00003E0082501E0042500BF00BF01F026FA7F
:1008D00006460EE001F022FA801B052809D9606D5A
:1008E00040F010006065A06D40F00100A06501209F
:1008F000AEE72068806828400028EBD10020A7E7F9
:10090000000040A3C0FFFF7F30BCBDE8C09F0000D7
:1009100070B50446206802F0B3FF0646206802F076
:10092000B4FF70B36EBB2068806800F00D00012832
:100930000AD120688168174A1140891C816000BF74
:1009400003202168086009E0606D40F010006065D8
:10095000A06D40F00100A065012070BD01F0DEF93E
:1009600005460FE001F0DAF9401B02280AD9606D54
:1009700040F010006065A06D40F00100A06501200E
:10098000EBE705E02068806800F001000028E9D16D
:100990000020E2E7C0FFFF7F70B50446206802F048
:1009A00074FF88BB206880681849084048B1606DB2
:1009B00040F010006065A06D40F00100A0650120CE
:1009C00070BD206802F046FF01F0A8F9054615E069
:1009D000206802F05AFF10B9206802F03BFF01F0D6
:1009E0009DF9401B022809D9606D40F01000606538
:1009F000A06D40F00100A0650120E1E720680068DB
:100A000000F001000028E3D00020D9E73F0000807B
:100A10003EB503F0F5F803F0F5FC00255B4890F8CF
:100A2000A805142824DB594890F8A8051438C4B246
:100A300018E0574800EB840090ED000A554800EBA1
:100A4000850080ED000A544800EB840090ED000A18
:100A50002846691CCDB2514901EB800080ED000AA7
:100A6000601CC4B2494890F8A805A042E1DC50E0FF
:100A7000002415E0464800EB840090ED000A45484C
:100A800000EB840080ED000A434800EB840090ED09
:100A9000000A424800EB840080ED000A601CC4B2EA
:100AA0003A4890F8A805401CA042E3DC002429E065
:100AB000364890F8A80514300119354800EB81003C
:100AC00090ED000A314890F8A8052044401C3149B7
:100AD00001EB800080ED000A2C4890F8A805143046
:100AE00001192D4800EB810090ED000A274890F88D
:100AF000A8052044401C294901EB800080ED000A34
:100B0000601CC4B2214890F8A805C0F11300A042AF
:100B1000CEDC01A802AB14221E4900901F4803F04E
:100B20001DFD04F0D7FE9DED020A1D4880ED680A08
:100B30009DED010A80ED690A00F05CF8134890F819
:100B4000A905012809D0114890F8A90501281CD150
:100B50000E4890F8B805012817D10C4890F8A9154F
:100B600010A004F025FC0948D0F8B41512A004F038
:100B70001FFC064890F8B81514A004F019FC0348AF
:100B8000B0F9BA1516A004F013FC3EBDCC0300204A
:100B9000CC080020DC0900200C0500208C09002076
:100BA000CC07002020204361725F466C61673A20C9
:100BB00020202020256400002020656C6170736572
:100BC00054696D653A2020202564000020206E6F56
:100BD0007570646174653A2020202020256400002F
:100BE0002020636F756E743A202020202020202062
:100BF00025640A0010B52DED088B04F0EFFC0446C7
:100C00006E4890F8BC0560B3601E6D4901EB800032
:100C100090ED000A694890F8A815694800EB81003A
:100C200080ED000A611E6648A03000EB810090ED67
:100C3000000A624890F8A81500F58C6000EB81006E
:100C400080ED000A611E5F4800EB810090ED000A14
:100C50005A4890F8A8155B4800EB810080ED000A27
:100C6000A9E0601E584A02EB800090ED000A10EEE9
:100C7000101A0846FFF7A2FC41EC1B0B9FED530B2B
:100C800053EC102BFFF7A5FB41EC190B601E4C4AEF
:100C900002EB800090ED000A10EE101A0846FFF7F4
:100CA0008DFC41EC1B0B9FED4B0B53EC102BFFF716
:100CB00090FB41EC1A0B53EC192BFFF7DBFA41ECDC
:100CC000180BFFF78EFC3D4991F8A8253C4941F8E7
:100CD0002200621EA1F5A07000EB820090ED000AD8
:100CE00010EE101A0846FFF769FC41EC1B0B9FED54
:100CF000370B53EC102BFFF76CFB41EC190B304812
:100D000090ED4F0A10EE101A0846FFF757FC41EC21
:100D10001B0B9FED300B53EC102BFFF75AFB41ECF4
:100D2000180B53EC192BFFF7A5FA41EC1A0BFFF740
:100D300058FC0146214890F8A82500F58C6040F841
:100D40002210621EA0F5A07000EB820090ED000A58
:100D500010EE101A0846FFF731FC41EC1B0B9FED1B
:100D60001B0B53EC102BFFF734FB41EC190B621EED
:100D7000144800EB820090ED000A10EE101A0846AD
:100D8000FFF71CFC41EC1B0B9FED120B53EC102BDF
:100D9000FFF71FFB41EC1A0B53EC192BFFF76AFA14
:100DA00041EC180BFFF71DFC0146044890F8A825FC
:100DB000044840F82210BDEC088B10BDCC03002085
:100DC0008C070020CC080020AC0500209A99999946
:100DD0009999A93F666666666666EE3F00BFFEE7C4
:100DE00010B5024800F032FD10BD00007402002072
:100DF00010B5024800F02AFD10BD0000BC02002022
:100E000030B590F8444004F01C050124AC40056C5A
:100E10006C60046863608468102C04D10468A2606C
:100E20000468E16003E00468A1600468E26030BD2A
:100E30007047000010B5012002490870102000F032
:100E40006FFE10BD20000020704700002DE9F0412A
:100E500005464FF0000818E0002710E0124800F0A7
:100E600028FC08B1FFF7F0FF0A210F4800F0C2FB91
:100E70001FB90D4800F083FA0444781CC7B2022F52
:100E8000ECDB08F1010000F0FF08A845E4DBB4FB4F
:100E9000F5F4200B00EB40142646034800F053FC09
:100EA0003046BDE8F08100009C0000202DE9F84F9D
:100EB00005460C464FF0000A00200090FE49E0680D
:100EC000884200D000E000BF00BF95F85000012824
:100ED00002D1022000F050BA012085F8500000BF76
:100EE000286802F0DCFC002872D1606805281AD856
:100EF0006068022806D0032807D0042808D00528F7
:100F00000DD108E00C2060600CE01220606009E068
:100F10001820606006E04FF48070606002E00620F8
:100F2000606000BF00BF2968D4E9002001F1300CE7
:100F3000C0F3012B0CEB8B03D3F800C000F01F0EA5
:100F40004FF01F0B0BFA0EFB2CEA0B0C00F01F0BE3
:100F5000C2F3846E0EFA0BFE4CEA0E0CC3F800C00E
:100F600000BF286802F09BFC8146286802F083FCE1
:100F70008046B9F1000F2AD1B8F1000FFBD1A26869
:100F80002168286802F0A2FC60692968C968C1F379
:100F9000C101490000FA01F72069042819D0286826
:100FA0002268216900F1600C0CEB8103D3F800C0CA
:100FB000DFF808B30CEA0B0C02F0F84B4BF0004BD7
:100FC0004BEA070B4CEA0B0CC3F800C000BFA8E0CB
:100FD000B9E10021286802F045FCC0F3120030B9E5
:100FE0000021286802F03EFCC0F3846007E0002185
:100FF000286802F037FC90FAA0F0B0FA80F021687F
:10100000C1F3120119B92168C1F3846104E02168B8
:1010100091FAA1F1B1FA81F1884204D1002211467E
:10102000286802F06DFC0121286802F01BFCC0F367
:10103000120030B90121286802F014FCC0F384606A
:1010400007E00121286802F00DFC90FAA0F0B0FA48
:1010500080F02168C1F3120119B92168C1F38461DC
:1010600004E0216891FAA1F1B1FA81F1884204D13A
:1010700000220121286802F043FC0221286802F0C6
:10108000F1FBC0F3120030B90221286802F0EAFB3C
:10109000C0F3846007E00221286802F0E3FB90FAC5
:1010A000A0F0B0FA80F02168C1F3120119B92168EB
:1010B000C1F3846104E0216891FAA1F1B1FA81F1F0
:1010C000884204D100220221286802F019FC032181
:1010D000286802F0C7FBC0F3120030B9032128686A
:1010E00002F0C0FBC0F3846007E00321286802F02F
:1010F000B9FB90FAA0F0B0FA80F02168C1F31201B8
:1011000019B92168C1F3846104E0216891FAA1F161
:10111000B1FA81F1884204D100220321286802F04B
:10112000EFFB286802F0B1FB002872D12868E26862
:101130002168D0F8B030C1F3120C23EA0C0302F09E
:10114000180BDFF87CC12CFA0BFC0CEA010C43EA0B
:101150000C03C0F8B03000BF5749E068884258D14E
:101160002368C3F312031BB92368C3F3846304E049
:10117000236893FAA3F3B3FA83F35B1C03F01F0312
:10118000092B3ED82368C3F312031BB92368C3F3AA
:10119000846304E0236893FAA3F3B3FA83F35B1C3C
:1011A00003F01F034FF0010C0CFA03FC2368C3F398
:1011B00012031BB92368C3F3846304E0236893FA22
:1011C000A3F3B3FA83F35B1C03F01F034CEA836CB5
:1011D0002368C3F312031BB92368C3F3846304E0D9
:1011E000236893FAA3F3B3FA83F35B1C03F01F03A2
:1011F00003EB43034FF0000B4BEA03534CEA0303AA
:101200003FE02368C3F3120323B92368C3F3846365
:1012100005E03BE0236893FAA3F3B3FA83F35B1C86
:1012200003F01F034FF0010C0CFA03FC2368C3F317
:1012300012031BB92368C3F3846304E0236893FAA1
:10124000A3F3B3FA83F35B1C03F01F034CEA836C34
:101250002368C3F312031BB92368C3F3846304E058
:10126000236893FAA3F3B3FA83F35B1C03F01F0321
:101270000A3B03EB43034FF0007B4BEA03534CEA7A
:1012800003031946A268286802F020FB0D49206874
:10129000084070B300BF0C48806800F0E07600BFE3
:1012A0000A49206888422CD106F4000048BB08494E
:1012B000286888424DD10DE000007F4000F0FF0318
:1012C000FFFF07000000088000030450000052C721
:1012D0000000045046F40001214802F00BFB2148B5
:1012E00000682149B0FBF1F000EB40008000009065
:1012F00003E016E00098401E009000980028F9D105
:1013000027E01A49206888420CD106F0807048B95D
:101310001749286888421CD146F08071104802F0B5
:10132000E9FA16E013492068884212D106F48000D9
:1013300078B90F49286888420BD146F480010848E3
:1013400002F0D8FA05E0686D40F0200068654FF0C3
:10135000010A00BF002085F8500000BF5046B9E5E3
:101360000003045030000020400D0300000084CB37
:10137000000004500100008018BCBDE8E08F014669
:101380000868006C704700002DE9F84304464FF0F0
:1013900000090020009014B90120BDE8F8832069FD
:1013A00020B12020005D012800D100BF606D30B960
:1013B000204600F0E7F80020A06584F8500020687F
:1013C0008168C1F3407131B120688168664A11407B
:1013D000816000BF00BF206802F05CFAA0B92068FD
:1013E0008168624A114041F08051816000BF6048CD
:1013F00000686049B0FBF1F0009002E00098401EE8
:10140000009000980028F9D1206802F043FA48B90A
:10141000606D40F010006065A06D40F00100A065B7
:101420004FF00109206802F03AFA0646606D00F0BC
:10143000100000287ED1002EFCD1606D20F4807059
:1014400040F002006065206802F01FFA68B94A485F
:1014500002F01BFA48B960684849896821F47C1198
:101460000143464A916000BF00BF607E616B41EA64
:101470004030E1680843A16808432021095D40EA43
:1014800001452020005D012803D1A08C401E45EAC3
:101490004045A06A28B1208D00F47070E16A0843CD
:1014A00005432068C0683649084028432168C86061
:1014B000206802F0F4F98046206802F0DCF9074663
:1014C000B8F1000F2CD127BB207E002141EA8031EA
:1014D00094F8300041EA40052068C06844F20201F7
:1014E000884328432168C86094F83800012811D146
:1014F000E06B40F00101206C0843616C0843A16C73
:1015000008432168096940F2FC729143084321684D
:10151000086105E02068006920F001002168086189
:10152000206901280BD12068006B20F00F00E169D1
:10153000491E00E010E008432168086305E02068C8
:10154000006B20F00F0021680863606D20F002003E
:1015500040F00100606505E0606D40F010006065DE
:101560004FF00109484618E7C0FFFF5FC0FFFF7F4B
:1015700030000020400D0300000004500003045020
:1015800007C0F0FF10B586B00446142101A8FEF78D
:1015900066FE15492068884224D100BF1348C06CFC
:1015A00040F400501149C8640846C06C00F4005073
:1015B000009000BF00BF00BF0846C06C40F00400B0
:1015C000C8640846C06C00F00400009000BF00BF73
:1015D000012001900B2002900020039001A90448F3
:1015E00000F0ACFA06B010BD00000450001002403C
:1015F000000800482DE9F04104460D4660690828BE
:1016000001D108260CE02068C06800F0010030B16C
:10161000606D40F0200060650120BDE8F081042687
:1016200000F07CFB074612E0681C80B100F076FBFE
:10163000C01BA84200D855B9606D40F00400606539
:1016400000BF002084F8500000BF0320E5E72068B9
:10165000006830400028E7D0606D40F4007060659D
:10166000206802F021F998B1607E88B9206800688E
:1016700000F0080008280BD1606D20F480706065D0
:10168000606D00F4805018B9606D40F00100606535
:101690002068D0F80C80082E03D10820216808604B
:1016A00005E008F4804010B90C2021680860002093
:1016B000B3E770B50446206802F0F1F800283FD186
:1016C00000BF94F85000012801D1022070BD012014
:1016D00084F8500000BF2046FFF75EF9054655BB71
:1016E000606D40F60161884340F480706065606D14
:1016F00000F48050B0F5805F04D1A06D20F00600AA
:10170000A06501E00020A0651C202168086000BFE2
:10171000002084F8500000BF2068C06800F000700E
:1017200028B1606D20F4005040F48050606520685E
:1017300002F0C4F805E000BF002084F8500000E08B
:1017400002252846C2E770B5044600BF94F8500051
:10175000012801D1022070BD012084F8500000BF93
:1017600003212046FFF746F8054655B92046FFF706
:10177000CFF805462DB9606D20F4885040F0010087
:10178000606500BF002084F8500000BF2846E2E7F3
:101790000146002291F82500022808D00420C863E1
:1017A00000BF002081F8240000BF012070470868B6
:1017B000006820F00E000B6818600868006820F0D0
:1017C00001000B68186091F8440000F01C03012030
:1017D00098400B6C5860012081F8250000BF002064
:1017E00081F8240000BF1046E0E770B504460025EC
:1017F00094F82500022803D00420E063012520E0AE
:101800002068006820F00E002168086020680068E9
:1018100020F001002168086094F8440000F01C01E9
:1018200001208840216C4860012084F8250000BF19
:10183000002084F8240000BFA06B10B12046A16BEB
:101840008847284670BD0146C86B704770B504468E
:10185000206C05682068066894F8440000F01C01BC
:10186000042088402840E0B106F00400C8B1206898
:10187000006800F0200028B92068006820F004000B
:101880002168086094F8440000F01C01042088409E
:10189000216C4860206B002856D02046216B884779
:1018A00052E094F8440000F01C01022088402840D7
:1018B00018B306F0020000B32068006800F02000B2
:1018C00040B92068006820F00A0021680860012003
:1018D00084F8250094F8440000F01C0102208840A0
:1018E000216C486000BF002084F8240000BFE06A3B
:1018F00050B32046E16A884726E094F8440000F09F
:101900001C01082088402840F0B106F00800D8B13A
:101910002068006820F00E002168086094F84400F8
:1019200000F01C0101208840216C48600120E06328
:1019300084F8250000BF002084F8240000BF606BFD
:1019400010B12046616B884770BD000010B501469C
:1019500009B9012010BD3E4B086898420BD23D4B9F
:101960000868C01A1423B0FBF3F0800048643948BB
:10197000083808640AE0364B0868C01A1423B0FB24
:10198000F3F080004864324808380864022081F887
:1019900025000868026847F6F0708243D1E9020327
:1019A00018430B6918434B6918438B691843CB697B
:1019B00018430B6A18430243086802608868B0F550
:1019C000804F3AD0234B083B086C98421BD1D0F88B
:1019D000A80091F8443003F01C040F23A34098435F
:1019E0001C4BA033186091F8443003F01C03486886
:1019F0009840184B083BD3F8A8301843154B083BC8
:101A0000C3F8A80019E01248A030006891F84430EB
:101A100003F01C040F23A34098430D4BA033186020
:101A200091F8443003F01C0348689840084BA033F9
:101A30001B681843064BA03318600020C8630120C0
:101A400081F82500002081F8240000BF82E7000013
:101A500008040240080002402DE9F04104460D460A
:101A600016461F464FF0000800BF94F824000128D6
:101A700002D10220BDE8F081012084F8240000BFDB
:101A800094F8250001282CD1022084F8250000209C
:101A9000E0632068006820F00100216808603B4690
:101AA000324629462046FFF7ABF9206B30B120685B
:101AB000006840F00E00216808600BE020680068B4
:101AC00020F00400216808602068006840F00A00E7
:101AD000216808602068006840F001002168086003
:101AE00006E000BF002084F8240000BF4FF0020889
:101AF0004046BFE770B5044600F010F9064625469B
:101B0000681C10B104480068054400BF00F006F9E5
:101B1000801BA842FAD370BD2C0000207047000043
:101B200010B5044604480068204020B10248046013
:101B30002046FFF7F3FF10BD1404014078B50346BB
:101B40000022CBE0012696400D6805EA0604002C31
:101B500072D04D68022D02D04D68122D13D1D608D7
:101B600003F1200555F826005507EE0E0F25B54068
:101B7000A8435607F60E0D69B5402843D60803F171
:101B8000200545F82600186856000325B540A843EF
:101B90000D7905F003055600B540284318604D68DF
:101BA000012D08D04D68022D05D04D68112D02D0B1
:101BB0004D68122D13D1986856000325B540A843EF
:101BC0005600CD68B5402843986058680125954077
:101BD000A8430D79C5F30015954028435860D8688F
:101BE00056000325B540A84356008D68B5402843EC
:101BF000D8604D6805F08055B5F1805F6DD100BFAC
:101C0000394D2D6E45F00105374E356635462D6E42
:101C100005F00105009500BF00BF4FEAB6359608F4
:101C200055F8260095072E0F0F25B540A843B3F1B0
:101C3000904F02D1002515E04FE02C4DAB4201D171
:101C400001250FE02A4DAB4201D102250AE0294DC2
:101C5000AB4201D1032505E0274DAB4201D104255C
:101C600000E007259607360FB5402843234D960818
:101C700045F82600224D2868A0434D6805F48035BC
:101C8000B5F5803F00D120431D4D28602D1D2868EB
:101C9000A0434D6805F40035B5F5003F00D1204361
:101CA000174D2D1D28602D1D2868A0434D6805F493
:101CB0008015B5F5801F00D12043114D08352860EF
:101CC0002D1D2868A0434D6805F40015B5F5001FCB
:101CD00000D120430A4D0C352860521C0D68D540B8
:101CE000002D7FF42FAF78BD0010024000040048A3
:101CF00000080048000C004800100048080001409F
:101D00000004014042690A400AB1816200E0816139
:101D100070470AB1816100E0816270470148006844
:101D20007047000024000020034800680349096848
:101D30000844014908607047240000202C0000205E
:101D400010B50024032000F0A9F8002000F008F8E6
:101D500008B1012401E000F02FF8204610BD00007A
:101D600070B50446002511480068D8B10F480068D6
:101D70004FF47A71B1FBF0F00D490968B1FBF0F650
:101D8000304601F0B4F958B9102C07D20022214690
:101D9000501E00F041F80748046004E0012502E00D
:101DA000012500E00125284670BD00002C00002020
:101DB000300000202800002008B500BF0D48006E4C
:101DC00040F001000B4908660846006E00F0010073
:101DD000009000BF00BF00BF0846806D40F08050FB
:101DE00088650846806D00F08050009000BF00BFFD
:101DF00008BD00000010024001460846002809DB2B
:101E000000F01F0301229A4043099B0003F1E023E5
:101E1000C3F8002100BF70472DE9F05F80460D46F2
:101E20001646002703F0D4FA074639462A463346B9
:101E300001F00700C0F1070ABAF1040F02D94FF010
:101E4000040A01E0C0F1070AD14600F1040ABAF120
:101E5000070F02D24FF0000A01E0A0F1030AD446B6
:101E60004FF0010A0AFA09FAAAF1010A0AEA020A7B
:101E70000AFA0CFA4FF0010B0BFA0CFBABF1010B59
:101E80000BEA030B4AEA0B042146404603F0A8FA8A
:101E900000F000B830BCBDE8C09F000000BF00F0FB
:101EA0000702064B19684FF6FF031940044B0B431A
:101EB00043EA0221014B196000BF70470CED00E0BE
:101EC0000000FA050246B2F5007F2AD11D480068DD
:101ED00000F4C060B0F5007F32D01A48006820F4EA
:101EE000C06040F40070174B186017480068322338
:101EF0005843164BB0FBF3F0411C00E0491E11485B
:101F0000406900F48060B0F5806F01D10029F5D1FF
:101F10000C48406900F48060B0F5806F10D1032058
:101F200070470848006800F4C060B0F5806F07D0C3
:101F30000448006820F4C06040F48060014B1860E1
:101F40000020EDE7007000403000002040420F000C
:101F50000248006800F4C060704700000070004054
:101F60002DE9F84304460025A846208800F40060C7
:101F7000B0F5006F26D1606C68B1B0F5000F03D0EA
:101F8000B0F5400F0ED10CE0E848C06840F4803056
:101F9000E649C86008E00021201D01F039FF054630
:101FA00002E001E0012500BF00BF55B9DF488830DD
:101FB000006820F44000616C0843DC49C1F88800E7
:101FC00000E0A846206800F40030B0F5003F75D16D
:101FD0004FF00009D548806D012121EA107078B1D9
:101FE00000BFD248806D40F08050D04988650846D7
:101FF000806D00F08050009000BF00BF4FF00109DD
:10200000CB48006840F48070C9490860FFF786FE3D
:10201000074606E0FFF782FEC01B022801D9032510
:1020200005E0C348006800F480700028F2D000BFCB
:102030007DBBBE489030006800F44076CEB1E06DC4
:10204000B04216D0B9489030006820F44076B748C6
:10205000D0F8900040F48030B449C1F890000846B0
:10206000D0F8900020F48030C1F890000846C0F805
:10207000906006F00100A8B1FFF750FE074609E0A6
:10208000FFF74CFEC01B41F28831884202D903257C
:1020900007E016E0A5489030006800F00200002834
:1020A000EED000BF5DB9A1489030006820F44070C8
:1020B000E16D08439D49C1F8900003E00CE0A8469B
:1020C00000E0A846B9F1010F05D19848806D20F0D5
:1020D00080509649886500BF207800F0010048B123
:1020E00092488830006820F00300216A08438F4935
:1020F000C1F88800207800F00200022809D18B483E
:102100008830006820F00C00616A08438749C1F8F4
:102110008800207800F00400042809D18348883022
:10212000006820F03000A16A08438049C1F88800A7
:10213000207800F02000202809D17C4888300068F1
:1021400020F44060E16A08437849C1F8880020889B
:1021500000F40070B0F5007F09D174488830006841
:1021600020F44020E16B08437049C1F888002088C2
:1021700000F48060B0F5806F09D16C488830006849
:1021800020F44010216C08436849C1F88800207889
:1021900000F04000402809D164488830006820F4ED
:1021A0004050216B08436149C1F88800207800F055
:1021B0008000802809D15D488830006820F44040C4
:1021C000616B08435949C1F88800208800F4807089
:1021D000B0F5807F09D155488830006820F4403040
:1021E000A16B08435149C1F88800208800F40050D1
:1021F000B0F5005F1FD14D488830006820F0406086
:10220000A16C0843494988310860A06CB0F1006FA7
:1022100006D14648C06840F480104449C8600AE0CE
:10222000A06CB0F1806F06D10121201D01F0F0FDFE
:10223000054605B1A846206800F40020B0F5002F3F
:102240001FD13A488830006820F04060E16C0843B4
:10225000364988310860E06CB0F1006F06D1334830
:10226000C06840F480103149C8600AE0E06CB0F109
:10227000806F06D10121201D01F0CAFD054605B180
:10228000A846206800F48020B0F5802F1FD1274891
:102290008830006820F04060216D08432349883170
:1022A0000860206DB0F1006F06D12048C06840F48E
:1022B00080101E49C8600AE0206DB0F1806F06D121
:1022C0000121201D01F0A4FD054605B1A846208886
:1022D00000F48040B0F5804F14D114488830006875
:1022E00020F04050616D0843104988310860606DEE
:1022F000B0F1805F06D10221201D01F089FD054665
:1023000005B1A846208800F40040B0F5004F09D17F
:1023100006488830006820F08040A16D08430349DA
:10232000C1F888004046BDE8F88300000010024074
:10233000007000402DE9F04104460D4614B901201B
:10234000BDE8F0815548006800F00700A8420ED2B1
:102350005248006820F007002843504908600846AA
:10236000006800F00700A84201D00120E8E72078CB
:1023700000F00100002840D06068032806D14848DA
:10238000006800F00070D8B90120D9E76068022821
:1023900006D14348006800F4003088B90120CFE737
:1023A000606830B93E48006800F0020040B9012082
:1023B000C6E73B48006800F4806008B90120BFE729
:1023C0003748806820F0030061680843344988601A
:1023D000FFF7A4FC064608E0FFF7A0FC801B41F2D3
:1023E0008831884201D90320AAE72D48806800F08F
:1023F0000C006168B0EB810FEED1207800F0020094
:10240000022807D12648806820F0F000A168084320
:10241000234988602148006800F00700A8420ED9CF
:102420001E48006820F0070028431C490860084641
:10243000006800F00700A84201D0012080E7207862
:1024400000F00400042807D11548806820F4E060FB
:10245000E168084312498860207800F008000828E5
:1024600008D10F48806820F46050216940EAC1001B
:102470000B49886000F046F809498968C1F30311E7
:10248000084A515C01F01F01C8400749086007482D
:102490000068FFF765FC0746384651E70020024018
:1024A00000100240FC5C00083000002028000020E2
:1024B00001480068704700003000002000B5FFF7B9
:1024C000F7FF05498968C1F30221044A515C01F014
:1024D0001F01C84000BD0000001002400C5D000854
:1024E00000B5FFF7E5FF05498968C1F3C221044A39
:1024F000515C01F01F01C84000BD00000010024007
:102500000C5D0008F0B500230020DFF8D4C0DCF833
:1025100008C00CF00C01DFF8C8C0DCF80CC00CF0EF
:10252000030719B10C291ED1012F1CD1DFF8B0C04F
:10253000DCF800C00CF0080CBCF1000F06D1DFF88D
:10254000A0C0DCF894C0CCF3032305E0DFF890C012
:10255000DCF800C0CCF30313DFF888C05CF823304C
:1025600041B9184606E0042901D11F4802E00829B4
:1025700000D11E480C2932D1DFF864C0DCF80CC051
:102580000CF00304012C09D0022C02D0032C04D13E
:1025900001E0154A04E0154A02E000BF1A4600BFF8
:1025A00000BFDFF83CC0DCF80CC0CCF3021C0CF11F
:1025B0000106DFF82CC0DCF80CC0CCF3062C0CFBB9
:1025C00002FCBCFBF6F2DFF818C0DCF80CC0CCF360
:1025D000416C0CF1010C4FEA4C05B2FBF5F0F0BD7B
:1025E00000100240145D00080024F40000127A007C
:1025F0002DE9F843044614B90120BDE8F883F948F1
:10260000806800F00C07F748C06800F003062078E7
:1026100000F01000102876D11FB10C2F75D1012EBB
:1026200073D1F048006800F0020018B1A06908B941
:102630000120E2E7EB48216A006800F0080020B1C1
:10264000E848006800F0F00005E0E64894300068D3
:1026500000F47060000981421FD9206A01F09CFCDF
:1026600008B10120C9E700BFDE48006840F008005B
:10267000DC4908600846006820F0F000216A084341
:10268000D849086000BF0846406820F47F40E169EF
:1026900040EA0120D34948601EE000BFD1480068ED
:1026A00040F00800CF4908600846006820F0F000BC
:1026B000216A0843CB49086000BF0846406820F4FF
:1026C0007F40E16940EA0120C6494860206A01F084
:1026D00063FC08B1012090E7FFF714FFC149896846
:1026E000C1F30311C04A515C01F01F01C840BF494A
:1026F0000860BF480068FFF733FB8046B8F1000F61
:102700004ED0404679E74BE0FFE7A06980B3B5487B
:10271000006840F00100B3490860FFF7FFFA054682
:1027200006E0FFF7FBFA401B022801D9032064E70B
:10273000AC48006800F002000028F2D000BFA948B1
:10274000006840F00800A74908600846006820F0CB
:10275000F000216A0843A349086000BF08464068AA
:1027600020F47F40E16940EA01209E49486017E07B
:10277000FFE79C48006820F001009A490860FFF7D5
:10278000CDFA054606E0FFF7C9FA401B022801D939
:10279000032032E79348006800F002000028F2D1DD
:1027A000207800F0010000285CD0082F03D00C2F07
:1027B0000AD1032E08D18B48006800F4003088B39A
:1027C000606878BB012018E700BF6068B0F5803F03
:1027D00006D18448006840F48030824908601AE0DD
:1027E0006068B0F5A02F0BD17E48006840F48020CF
:1027F0007C4908600846006840F4803008600AE0C0
:102800007848006820F480307649086008460068FF
:1028100020F48020086000BF606890B1FFF77EFA66
:10282000054607E01EE0FFF779FA401B642801D94E
:102830000320E2E66B48006800F400300028F2D084
:1028400010E0FFF76BFA054606E0FFF767FA401B5A
:10285000642801D90320D0E66248006800F4003003
:102860000028F2D1207800F00200022852D1042F73
:1028700003D00C2F14D1022E12D15A48006800F454
:10288000806018B1E06808B90120B6E65548406894
:1028900020F0F850217C40EA01605249486039E05C
:1028A000E06800B34F48006840F480704D4908600C
:1028B000FFF734FA054606E0FFF730FA401B02281E
:1028C00001D9032099E64748006800F48060002899
:1028D000F2D04448406820F0F850217C40EA016082
:1028E0004049486016E03F48006820F480703D4948
:1028F0000860FFF713FA054606E0FFF70FFA401BE2
:10290000022801D9032078E63648006800F4806088
:102910000028F2D1207800F00800082836D160693C
:10292000D0B130489430006840F001002D49C1F822
:102930009400FFF7F3F9054606E0FFF7EFF9401BB7
:10294000022801D9032058E626489430006800F098
:1029500002000028F1D019E022489430006820F0ED
:1029600001002049C1F89400FFF7D8F9054606E0B8
:10297000FFF7D4F9401B022801D903203DE619488E
:102980009430006800F002000028F1D1207800F0B7
:102990000400042873D14FF000091248806D00F044
:1029A000805078B900BF0F48806D40F080500D49CD
:1029B00088650846806D00F08050009000BF00BF21
:1029C0004FF001090B48006800F4807008BB09480B
:1029D000006840F4807007490860FFF79FF90546DA
:1029E00011E0000000100240FC5C000830000020F4
:1029F0002800002000700040FFF790F9401B0228DB
:102A000001D90320F9E5B748006800F48070002878
:102A1000F2D000BFA068012808D1B348006840F098
:102A20000100B1499039C1F8900021E0A068052863
:102A30000FD1AD48006840F00400AB499039C1F8AF
:102A400090000846D0F8900040F00100C1F89000D6
:102A50000EE0A548006820F00100A3499039C1F8B4
:102A600090000846D0F8900020F00400C1F89000D3
:102A700000BFA068A0B1FFF751F9054609E02EE0BC
:102A8000FFF74CF9401B41F28831884201D90320FD
:102A9000B3E59548006800F002000028F0D012E08D
:102AA000FFF73CF9054608E0FFF738F9401B41F213
:102AB0008831884201D903209FE58B48006800F0E7
:102AC00002000028F0D1B9F1010F07D186489038F3
:102AD000806D20F0805084499039886500BF20784F
:102AE00000F02000202838D1606AD8B17E48083034
:102AF000006840F001007C499039C1F89800FFF768
:102B00000DF9054606E0FFF709F9401B022801D937
:102B1000032072E574480830006800F002000028C5
:102B2000F1D01AE070480830006820F001006E49CA
:102B30009039C1F89800FFF7F1F8054606E0FFF775
:102B4000EDF8401B022801D9032056E566480830FD
:102B5000006800F002000028F1D1A06A00285BD0D4
:102B60000C2F78D0A06A022857D15F4890380068AF
:102B700020F080705C4990390860FFF7CFF8054677
:102B800006E0FFF7CBF8401B022801D9032034E50B
:102B900055489038006800F000700028F1D1D4E961
:102BA0000B10401E41EA0011606B41EA0021A08F2A
:102BB0000122C2EB500041EA40514020005DC2EBCF
:102BC000500041EA40613820005D41EAC06046495A
:102BD0009039C968454A1140084343499039C86053
:102BE0000846006840F0807008600846C06840F001
:102BF0008070C860FFF792F8054606E0FFF78EF890
:102C0000401B022801D90320F7E4374890380068B8
:102C100000F000700028F1D061E03348903800687F
:102C200020F080703049903908600846006800F054
:102C3000006020B90846C06820F00300C8602A4838
:102C40009038C0682A49084027499039C860FFF782
:102C500065F8054607E00EE0FFF760F8401B022824
:102C600001D90320C9E420489038006800F00070C2
:102C70000028F1D133E0A06A012800D1BDE41A4850
:102C80009038C66806F00301E06A814225D106F05B
:102C90007001206B401EB1EB001F1ED106F4FE41F7
:102CA000606BB1EB002F18D106F078413820005D41
:102CB000B1EBC06F11D106F4C001A08F0122C2EBAD
:102CC0005000B1EB405F08D106F0C0614020005DCC
:102CD000C2EB5000B1EB406F01D001208DE4002029
:102CE0008BE4000000700040901002408C809D0139
:102CF000FFFFEEFE70B504460CB9012070BD606A9E
:102D000000B900BF0021A16294F85D0028B900203D
:102D100084F85C00204600F04DF8022084F85D0045
:102D20002068006820F0400021680860E068B0F585
:102D3000E06F01D9002501E04FF48055E068B0F55F
:102D4000706F05D0E068B0F5E06F01D00021A1629E
:102D5000206B40B9E068B0F5E06F02D90221216331
:102D600001E001212163D4E90101084321690843FD
:102D700061690843218B01F400710843E16908434C
:102D8000216A0843A16A0843216808600421A069F8
:102D900001EA1040616A0843616B0843E168084337
:102DA00028432168486000202066012084F85D00E7
:102DB0000020A3E710B586B00446142101A8FDF752
:102DC0004EFA18492068884229D100BF1648006E83
:102DD00040F48050144908660846006E00F48050A4
:102DE000009000BF00BF00BF0846C06C40F001006B
:102DF000C8640846C06C00F00100009000BF00BF2E
:102E0000C220019002200290002003900320049031
:102E10000520059001A94FF09040FEF78FFE06B007
:102E200010BD000000300140001002402DE9FF5F9E
:102E30000446894692461D460E9E012001900020C0
:102E4000009000BF94F85C00012803D1022004B078
:102E500000F04AB9012084F85C0000BFFEF75EFF75
:102E6000074694F85D00029060680390A846AB4660
:102E7000029801280BD00398B0F5827F04D1A06896
:102E800010B90298042802D00220009022E1B9F182
:102E9000000F03D0BAF1000F00D015B90120009047
:102EA00018E194F85D00042802D0052084F85D0044
:102EB00000202066C4F840A0A4F84650A4F844506E
:102EC000C4F83890E587A587E0642065E068B0F530
:102ED000E06F02D8BBF1010F06D92068406820F4EA
:102EE00080502168486005E02068406840F48050C8
:102EF000216848602068006800F04000402805D044
:102F00002068006840F0400021680860E068B0F583
:102F1000E06F4ED9606810B1B8F1010F09D1A06B14
:102F200000882168C860A06B801CA063E08F401EF1
:102F3000E08736E02068806800F00200022810D1A7
:102F4000E08F70B1019801280BD1A06B0088216837
:102F5000C860A06B801CA063E08F401EE08700204B
:102F600001902068806800F0010080B1B4F846004C
:102F700068B12068C068216C0880206C801C2064C7
:102F8000B4F84600401EA4F8460001200190FEF768
:102F9000C5FEC01BB04204D3701C10B103200090CA
:102FA00098E0E08F0028C5D1B4F846000028C1D1D0
:102FB00085E0606810B1B8F1010F17D1E08F0128EA
:102FC0000AD9A06B00882168C860A06B801CA06330
:102FD000E08F801EE08709E0A06B0078216808730D
:102FE000A06B401CA063E08F401EE08760E020687B
:102FF000806800F0020002281ED1E08FE0B1019845
:10300000012819D1E08F01280AD9A06B0088216816
:10301000C860A06B801CA063E08F801EE08709E081
:10302000A06B007821680873A06B401CA063E08F40
:10303000401EE087002001902068806800F00100B9
:1030400058B3B4F8460040B3B4F84600012816D986
:103050002068C068216C0880206C801C2064B4F853
:103060004600801EA4F84600B4F84600012812D895
:103070002068406840F48050216848600BE0206878
:10308000007B216C0870206C401C2064B4F8460062
:10309000401EA4F8460001200190FEF73FFEC01B31
:1030A000B04201D3701C00B916B90320009011E0A2
:1030B000E08F00289BD1B4F84600002897D13A460B
:1030C0003146204601F053F818B10120009020202D
:1030D000206600BF012084F85D0000BF002084F856
:1030E0005C0000BF0098B2E630BCBDE8C09F70B580
:1030F00004462546681EB0F1807F01D301200FE011
:10310000681E4FF0E02148610F214FF0FF3002F0C0
:1031100067F900204FF0E021886107200861002056
:1031200070BD704710B501464A6F8B6F00BF91F8B4
:103130007000012801D1022010BD012081F870002B
:1031400000BF0868806800F08000802807D1212A2D
:1031500005D10868806820F080000C68A0600868CD
:10316000806800F04000402813D1222B11D108685C
:10317000006820F480700C6820600868806820F087
:1031800001000C68A0600868806820F040000C68AE
:10319000A06000BF002081F8700000BF00BFCBE737
:1031A00070B50446656FA66F2068806800F08000E7
:1031B000802819D1212D17D12068806820F0800047
:1031C00021688860A06E60B1A06EFEF7E1FA40B1A0
:1031D000A06EFEF738FB202803D11020E067032003
:1031E00070BD204601F00FFE2068806800F04000AE
:1031F000402819D1222E17D12068806820F0400085
:1032000021688860E06E60B1E06EFEF7C1FA40B1FF
:10321000E06EFEF718FB202803D11020E0670320A2
:10322000DEE7204601F0CEFD0020D9E77047000020
:103230002DE9F04704462068C569206806682068C3
:10324000876805F00F08B8F1000F0CD105F02000D9
:1032500048B106F0200030B1206E10B12046216E3A
:103260008847BDE8F087B8F1000F71D007F0010082
:1032700018B906F49070002879D005F0010048B123
:1032800006F4807030B1012021680862E06F40F0E0
:103290000100E06705F0020048B107F0010030B11D
:1032A000022021680862E06F40F00400E06705F04A
:1032B000040048B107F0010030B104202168086221
:1032C000E06F40F00200E06705F0080060B106F032
:1032D000200010B907F0010030B108202168086211
:1032E000E06F40F00800E067E06F80B305F0200079
:1032F00038B106F0200020B1206E10B12046216EBA
:103300008847D4F87C902068806800F0400040280E
:1033100002D009F0080020B3204601F053FD2068D8
:10332000806800F04000402817D12068806820F0B5
:10333000400021688860E06E58B12048E16E8863E3
:10334000E06EFEF752FA10B1E06E816B88470DE037
:103350000DE02046FFF76AFF08E02046FFF766FF12
:1033600004E02046FFF762FF0020E06779E705F4FC
:10337000801050B107F4800038B14FF480102168FC
:1033800008622046FFF7CDFE6BE705F0800040B1F4
:1033900006F0800028B1606E10B12046616E88474B
:1033A0005FE705F0400030B106F0400018B120465C
:1033B00001F019FD55E700BF53E70000034D000879
:1033C00010B504460CB9012010BDA06900B100E0A1
:1033D00000BF606F28B9002084F87000204600F01C
:1033E00029F8242060672068006820F00100216827
:1033F0000860204601F010FD012800D1E4E7606A72
:1034000010B1204601F0CAFB2068406820F49040CB
:10341000216848602068806820F02A002168886060
:103420002068006840F0010021680860204601F033
:1034300031FCC9E710B586B00446142101A8FCF799
:103440000EFF5449206888424FD100BF5248006E99
:1034500040F48040504908660846006E00F4804001
:10346000009000BF00BF00BF0846C06C40F00100E4
:10347000C8640846C06C00F00100009000BF00BFA7
:103480004FF4C060019002200290002003900320BE
:1034900004900720059001A94FF09040FEF74EFBE5
:1034A0003E483F4908600220486000213C48816056
:1034B000C160802101610021416181612021C161E0
:1034C00000210162FEF742FA08B1FDF7BDFC00BF22
:1034D0003348E066846200BF002211462520FEF7D3
:1034E0009BFC2520FEF788FC52E02E49206888428C
:1034F0004ED100BF2848806D40F4003026498865D1
:103500000846806D00F40030009000BF00BF00BF8F
:103510000846C06C40F00100C8640846C06C00F06A
:103520000100009000BF00BF0C200190022002901B
:1035300000200390032004900720059001A94FF07C
:103540009040FEF7FBFA1548143017490860022036
:103550004860002114488160C16080210161002120
:10356000416181612021C16100210162FEF7EEF914
:1035700008B1FDF769FC00BF0B48E066846200BF3C
:10358000002211462620FEF747FC2620FEF734FCD9
:1035900006B010BD00380140001002405800024043
:1035A0007402002000440040BC02002070B50446B4
:1035B0000E461546A06F202850D106B10DB9012046
:1035C00070BD00BF94F87000012801D10220F7E718
:1035D000012084F8700000BF6665A4F858500020F0
:1035E000E0672220A067E06EF8B11D48E16EC86276
:1035F0001C48E16E08631C48E16E48630020E16EE0
:103600008863236803F124012B46626DE06EFEF7A8
:1036100023FA50B11020E06700BF002084F870004A
:1036200000BF202060670120CAE700BF002084F8A7
:10363000700000BF2068006840F480702168086056
:103640002068806840F001002168886020688068F8
:1036500040F04000216888600020B1E70220AFE719
:10366000714D0008B74D00081B4D000870477047AA
:103670002DE9F84F04460E4617469946606F2028FC
:103680005CD106B117B9012000F05AB800BF94F818
:103690007000012801D10220F6E7012084F87000B3
:1036A00000BF0020E06721206067FEF737FB8246FD
:1036B000A4F85070A4F85270A068B0F5805F04D1EF
:1036C000206910B90025B04602E035464FF00008E9
:1036D0001DE05346002280212046CDF8009001F0E5
:1036E000A0FD08B10320CFE745B9B8F80000C0F34A
:1036F00008002168088508F1020803E0287821689D
:1037000008856D1CB4F85200401EA4F85200B4F8AD
:1037100052000028DDD15346002240212046CDF83A
:10372000009001F07EFD08B10320ADE72020606726
:1037300000BF002084F8700000BFA5E70220A3E7C7
:1037400018BCBDE8E08F704700BFFEE710B5102041
:103750000D49096808620C480068006820F01000F4
:103760000949096808600848FFF71AFD402207491F
:103770000548FFF71BFF04480068006840F0100090
:1037800001490968086010BDF40100207803002099
:103790000246002153E02D48405CAA284DD12B4819
:1037A0004B1CC05CAA2848D12848CB1CC05C284BC5
:1037B0009B7E984241D125480B1DC35C2448C07EA6
:1037C00083423AD1214801F10903C05C204B9B7828
:1037D00098420FD11D4801F10A03C35C1C48C07810
:1037E000834207D1194801F10B03C35C18480079E3
:1037F000834217D0154801F10A03C05C144B9B7833
:1038000098421AD1114801F10B03C35C1048C078EB
:10381000834212D10D4801F10C03C35C0C480079BE
:1038200083420AD109484B1DC05C904201D101205E
:10383000704706484B1DC05CFAE7481CC1B20348FC
:10384000143840688842A6D80020F1E778030020A9
:103850002C0A00208168024A1140491C816070478F
:10386000C0FFFF7F024602F1600000EB8103186891
:1038700000F0F840704701468868C0F3C000704708
:1038800001468868C0F3400070470146886800F030
:103890000100704701468868C0F300707047014618
:1038A0008868C0F3800070470146C86800F4406033
:1038B00008B9012070470020FCE700008168024A37
:1038C0001140091D81607047C0FFFF7F70B500F196
:1038D0001404C1F3406504EB85031C68C1F304566E
:1038E0000725B540AC43C1F3045502FA05F52C4356
:1038F0001C6070BD826822F0E0720A4382607047EB
:1039000010B500F1600404EB81031C6824F000444E
:1039100014431C6010BD000000B587B0182101A839
:10392000FCF79DFC1A481B4908604FF4E010486002
:10393000002118488160C1600161042141610021BA
:10394000017641760121C161002180F82010816259
:10395000C16280F83010416380F83810FDF714FD23
:1039600008B1FDF771FA0C48019006200290002082
:1039700003907F200490042005900020069001A968
:103980000448FDF793FA08B1FDF75EFA07B000BDF1
:10399000000004509C0000200200300408B500BF65
:1039A0000E48806C40F001000C4988640846806C29
:1039B00000F00100009000BF00BF002211460F2060
:1039C000FEF72AFA0F20FEF717FA00221146102000
:1039D000FEF722FA1020FEF70FFA08BD0010024091
:1039E00000B587B0142102A8FCF739FC00BF4A4893
:1039F000C06C40F004004849C8640846C06C00F040
:103A00000400019000BF00BF00BF0846C06C40F03A
:103A10000100C8640846C06C00F00100019000BFBE
:103A200000BF00BF0846C06C40F00200C8640846F2
:103A3000C06C00F00200019000BF00BF00BF08464C
:103A4000C06C40F01000C8640846C06C00F0100064
:103A5000019000BF00BF002211214FF09040FEF7FF
:103A600058F9002220212D48FEF753F900220121A8
:103A70002B48FEF74EF900224FF401412948FEF78A
:103A800048F9112002900120039000200490059035
:103A900002A94FF09040FEF751F810200290224802
:103AA00003900120049002A91C48FEF747F820204B
:103AB00002900120039000200490059002A917486D
:103AC000FEF73CF80120029003900020049005903E
:103AD00002A91348FEF732F8042002900020039058
:103AE000049002A90E48FEF729F84FF40140029015
:103AF0000120039000200490059002A90948FEF7D8
:103B00001DF8002211460A20FEF786F90A20FEF76A
:103B100073F907B000BD0000001002400008004823
:103B200000040048001000480000111010B51248B1
:103B3000124908604FF48270486000210F4881608C
:103B40004FF4E061C1600021016141614FF40071F7
:103B500081612821C16100210162416281620721E6
:103B6000C1620021016308214163FFF7C3F808B176
:103B7000FDF76AF910BD000000300140100100207F
:103B800010B50D480D4908604FF4E1304860002140
:103B90000A488160C16001610C214161002181619D
:103BA000C16101620020054948620846FFF708FC30
:103BB00008B1FDF749F910BD00380140740100203B
:103BC00010B50D480D4908604FF4E1304860002100
:103BD0000A488160C16001610C214161002181615D
:103BE000C16101620020054948620846FFF7E8FB11
:103BF00008B1FDF729F910BD00440040F401002090
:103C000010B5134800F03AFE114890ED000A114833
:103C100090F8A8050F4901EB800080ED000A0C48E0
:103C200090ED010A084690F8A815A03000EB81003D
:103C300080ED000A064890ED020A064890F8A815A3
:103C400000F5A07000EB810080ED000A10BD0000BF
:103C500004030020CC03002010B5002400BF2EE098
:103C6000FFF7CEFF194890ED000A194890F8A81503
:103C700000F5707000EB810080ED000A134890EDB4
:103C8000010A134890F8A81500F58C6000EB81003C
:103C900080ED000A0D4890ED020A0D4890F8A81535
:103CA00000F5A06000EB810080ED000A084890F864
:103CB000A805401C064981F8A805601CC4B2282C40
:103CC000CEDB0020024981F8A80510BD04030020C6
:103CD000CC03002000BFFEE77047000010B586B09F
:103CE0001CA103C9CDE90401002400200190029029
:103CF000039004980190BDF81400ADF80800A41DCD
:103D00001648407D00788DF80400641C1348807DBF
:103D100000788DF80400641C1048007F00788DF84E
:103D20000400641C0D484188ADF8041000798DF83A
:103D30000600E41C0948C07F012803D007484079E9
:103D4000A82805D10A23224601A90548FFF790FCBF
:103D500006B010BDFF56AE35A95500002C0A002054
:103D6000F401002010B588B0002420216846FCF73B
:103D700076FA244800788DF80000641C21494978BF
:103D80000DF80410641C0DEB04001E494A880280E3
:103D900009798170E41C1B4949790DF80410641CF1
:103DA000184989790DF80410641C1649C9790DF871
:103DB0000410641C13498A790DEB04000831FCF7E8
:103DC00035FA104880792044C4B2A01EC1B20DF16A
:103DD000020001F085FF0B49C8710846C0798DF8D3
:103DE00007000846C07F012803D008464079A8286C
:103DF00005D10A23224669460348FFF739FC08B07B
:103E000010BD00002C0A0020F401002070470000C3
:103E10002DE9F04104460F4600255B48C06800F0DC
:103E2000030090B15848C06800F003002168884240
:103E300009D1206838B15448C068C0F30210401C52
:103E40006168884233D0012531E02068012804D020
:103E5000022809D003281AD10DE04B48006800F071
:103E6000020000B9012514E04748006800F48060B2
:103E700000B901250DE04448006800F4003028B97D
:103E80004148006800F4802000B9012501E00125C7
:103E900000BF00BF5DB9D4E90010401E41EA001028
:103EA0003949C96821F0730108433749C860002DBA
:103EB00067D13548006820F0806033490860FDF71D
:103EC0002DFF064606E0FDF729FF801B022801D9D9
:103ED000032505E02C48006800F000600028F2D1BE
:103EE00000BFC5BB67B9A0680002217B40EAC16082
:103EF00025490969254A114008432349086120E002
:103F0000012F0FD1A0680002218A0122C2EB5101CA
:103F100040EA41501C4909691D4A114008431A49A9
:103F200008610EE0A0680002217D0122C2EB510170
:103F300040EA416014490969164A11400843124990
:103F400008611148006840F080600F490860FDF783
:103F5000E5FE064607E014E0FDF7E0FE801B0228C0
:103F600001D9032505E00848006800F0006000283A
:103F7000F2D000BF2DB904480069A1690843024985
:103F800008612846BDE8F08100100240FF80FF076D
:103F9000FF809FFFFF80FFF9F8B504460026234805
:103FA000806D00F0805018B1FDF7D2FF054616E095
:103FB00000BF1E48806D40F080501C49886508464F
:103FC000806D00F08050009000BF00BFFDF7C0FF83
:103FD00005461648806D20F0805014498865B5F577
:103FE000007F07D1802C10D9A02C01D902260CE02B
:103FF00001260AE0802C01D9032606E0802C01D19D
:10400000022602E0702C00D101260948006820F049
:1040100007003043064908600846006800F00700C2
:10402000B04201D00120F8BD0020FCE700100240A2
:104030000020024010B50121022001F02DFCA32830
:1040400012D006DC81280BD091280AD0A2287FD17B
:1040500009E0A4283BD0A52843D0A82878D101E0C6
:1040600076E075E074E073E03A48C07E06282DDB08
:104070003848807F384988703648C17F3648C170DB
:10408000344890F82010344801713248C07D3249DC
:1040900088763048017E3048C1762E4890F821005D
:1040A0002D4948752B4890F822008875294890F8CA
:1040B00023000877012211462848FDF72AFE012235
:1040C00011022748FDF725FEFFF708FE40E02148D2
:1040D000C07E062804DB1F4890F824001E49C875DE
:1040E00036E01C48C07E062831DB1A4890F82300D1
:1040F000184991F8241018318840164991F8251074
:1041000010318840134991F826100831884000EE9C
:10411000100AB8EEC00A134880ED000A0D4890F866
:1041200027000C4991F8281018318840094991F866
:10413000291010318840074991F82A100831884029
:1041400000EE100AB8EEC00A074880ED000A00BF72
:1041500000BF10BD640300202C0A002000040048AA
:10416000001000484C000020480000207047F8B5BF
:1041700004460E461546334600224FF4C0512046F1
:10418000009500F053F828B1206E40F02000206622
:104190000320F8BD3346002280212046009500F020
:1041A0009AF828B1206E40F0200020660320F0E746
:1041B000334600224FF4C0612046009500F036F8E7
:1041C00028B1206E40F0200020660320E1E70020A7
:1041D000DFE72DE9F04781460D4616461F460024CD
:1041E000A046002210214FF09040FDF792FD05F00F
:1041F0003F00803000F0FF084146484600F0C0F81C
:1042000000BF08E00021484600F0BAF8804606F8F2
:104210000480601CC4B2BC42F4DB012210214FF0C8
:104220009040FDF776FD0020BDE8F0872DE9F041D4
:1042300004460E4617461D46DDF8188044E0B6F5E4
:10424000C06F02D10FB92068007B681CD8B3FDF79E
:1042500065FDA0EB0800A84200D2A5BB206840681D
:1042600020F0E000216848606068B0F5827F0DD1E1
:10427000A068B0F5004F03D0A068B0F5806F05D1FD
:104280002068006820F0400021680860A06AB0F54E
:10429000005F0DD100BF2068006820F40050216845
:1042A00008602068006840F400502168086000BF82
:1042B000012084F85D0000BF002084F85C0000BF8E
:1042C0000320BDE8F081FFE7206880683040B842F5
:1042D000B5D10020F5E72DE9F04104460E4617461A
:1042E0001D46DDF818803EE0681CD8B3FDF716FDCA
:1042F000A0EB0800A84200D2A5BB2068406820F0CF
:10430000E000216848606068B0F5827F0DD1A06848
:10431000B0F5004F03D0A068B0F5806F05D12068DC
:10432000006820F0400021680860A06AB0F5005FD6
:104330000DD100BF2068006820F40050216808609B
:104340002068006840F400502168086000BF012028
:1043500084F85D0000BF002084F85C0000BF0320EB
:10436000BDE8F081FFE7206880683040B04201D1AD
:10437000012000E00020B842B6D10020F0E70000A4
:1043800013B582B00446002001900520012301AA44
:1043900003A900900348FEF749FD9DF8040004B00E
:1043A00010BD0000100100202DE9F04780460D46A9
:1043B00016461F460024A146002210214FF09040CF
:1043C000FDF7A7FC0A20FDF795FB05F03F094946DC
:1043D0004046FFF7D5FF00BF07E016F804904946B6
:1043E0004046FFF7CDFF601CC4B2BC42F5DB0122A2
:1043F00010214FF09040FDF78CFC0020BDE8F087C5
:104400007047000000B5544890F8A805142839DB1F
:10441000514890F8A82590F8A8051338C1B200209B
:1044200000F04EF94C4890F8A81500F5F07000EB3C
:10443000810080ED000A484890F8A82590F8A8056A
:104440001338C1B2012000F03BF9434890F8A81599
:1044500000F5207000EB810080ED000A3E4890F8E6
:10446000A82590F8A8051338C1B2022000F028F959
:10447000394890F8A81500F5487000EB810080EDF0
:10448000000A68E0344890F8A805401CC2B2002138
:10449000084600F015F9F0EE401A2F4890F8A805EC
:1044A0001430C1B22822002000F00AF931EE800A4F
:1044B000F0EE000A80EE201A274890F8A81500F5C3
:1044C000F07000EB810080ED001A234890F8A805F9
:1044D000401CC2B20021012000F0F2F8F0EE401AB8
:1044E0001D4890F8A8051430C1B22822012000F020
:1044F000E7F831EE800AF0EE000A80EE201A164846
:1045000090F8A81500F5207000EB810080ED001AEE
:10451000114890F8A805401CC2B20021022000F00A
:10452000CFF8F0EE401A0C4890F8A8051430C1B24C
:104530002822022000F0C4F831EE800AF0EE000AD2
:1045400080EE201A044890F8A81500F5487000EB9A
:10455000810080ED001A00BDCC03002070B5044638
:10456000049D9FED500A504E86ED000A9FED4D0AC6
:104570004E4E86ED000A002016E004EB800696ED14
:10458000000A4A4ED6ED000A30EE200A86ED000AF7
:1045900001EB800696ED000A434ED6ED000A30EEA0
:1045A000200A86ED000A401C9042E6DB3F4ED6ED25
:1045B000000A00EE102AB8EEC00A80EE801A3C4EC7
:1045C00086ED001A384ED6ED000A00EE102AB8EE3D
:1045D000C00A80EE801A374E86ED001A9FED310A30
:1045E000314E86ED000A9FED2F0A304E86ED000A0F
:1045F000002032E004EB800696ED000A2C4ED6ED4A
:10460000000A70EE600A04EB800696ED000A284E60
:1046100096ED001A30EE411A244E96ED000A00EE97
:10462000810A86ED000A01EB800696ED000A214E14
:10463000D6ED000A70EE600A01EB800696ED000AE6
:104640001C4E96ED001A30EE411A174E96ED000AF8
:1046500000EE810A86ED000A401C9042CADB134E30
:10466000D6ED000A00EE102AB8EEC00A80EE801ADD
:10467000114E86ED001A0C4ED6ED000A00EE102AFF
:10468000B8EEC00A80EE801A0C4E86ED001A0A4E73
:1046900096ED000A83ED000A084E96ED000A85EDBE
:1046A000000A70BD00000000900000208C00002077
:1046B0008400002088000020940000209800002042
:1046C00010B50346DFED2B0AB0EE600A23B1012BD3
:1046D0001BD0022B4CD132E008460AE0264C04EBFA
:1046E0008004D4ED000A70EE800AB0EE600A441C2B
:1046F000E0B29042F2DB541A00EE904AF8EEE00A83
:1047000080EE201AB0EE410A32E008460BE01A4C67
:10471000A03404EB8004D4ED000A70EE800AB0EE01
:10472000600A441CE0B29042F1DB541A00EE904A59
:10473000F8EEE00A80EE201AB0EE410A18E00846D2
:104740000AE00E4C04EB8004D4ED000A70EE800AFF
:10475000B0EE600A441CE0B29042F2DB541A00EE64
:10476000904AF8EEE00A80EE201AB0EE410A00BF4F
:1047700000BF10BD00000000CC0300200C0500208D
:1047800010B5FDF7D1FA10BD00B5AFB044211EA899
:10479000FBF765FD142119A8FBF761FD602101A855
:1047A000FBF75DFD18201E9001202390249000202F
:1047B0002590B0202690002028901EA8FDF718FF15
:1047C00008B1FCF741FB0F20199000201A901B90B4
:1047D0001C901D90022119A8FDF7ACFD08B1FCF753
:1047E00033FB44F203000190002009900A904FF03F
:1047F000805016900120029003210391082104911A
:10480000072105910221069107910106089101A84F
:10481000FDF7A6FB08B1FCF717FB4FF40070FDF79E
:1048200051FB08B1FCF710FB2FB000BD1048006829
:1048300040F470000E4908600E48006840F0010026
:104840000C49086000208860084600680A49084052
:10485000084908608814C8600846006820F4802071
:10486000086000208861C8030149803908607047EA
:1048700088ED00E000100240FFFFF6EA30B52DEDB4
:10488000048B89B00546002006900790089003909D
:104890000490059040A103C9CDE9010100BF404843
:1048A00000780028FBD000203D490870012210212B
:1048B0004FF09040FDF72DFA092306AA242139482C
:1048C000FFF787FC9DF8180000049DF8191040EAD6
:1048D00001209DF81A10084303909DF81B00000466
:1048E0009DF81C1040EA01209DF81D10084304901B
:1048F0009DF81E0000049DF81F1040EA01209DF85D
:1049000020100843059000240FE003A850F824006D
:1049100000F4000038B103A850F8240040F07F40B4
:1049200003A941F82400601CC4B2032CEDDB0398FA
:10493000FBF733FE41EC190B9FED1B0B53EC102BD7
:10494000FBF7BCFD41EC180BFBF74BFE286004980D
:10495000FBF723FE41EC190B9FED130B53EC102BCF
:10496000FBF7ACFD41EC180BFBF73BFE68600598CC
:10497000FBF713FE41EC190B9FED0B0B53EC102BC7
:10498000FBF79CFD41EC180BFBF72BFEA86009B070
:10499000BDEC048B30BD0000AA00A1A2A300000062
:1049A00020000020003800400000000000C05240FD
:1049B0001CB50024002000900190FFF7D7FB642075
:1049C000FDF798F8792000F0DDFDC82000F02EFFFB
:1049D0000C2000F08DFE6420FDF78CF806236A465B
:1049E00004210248FFF7F5FB1CBD00000038004021
:1049F00070B50546812D06D0912D05D0A22D7CD015
:104A0000A82D00D142E0C2E06248007D01283CDCD4
:104A100000246048457100205E49C8710846027D47
:104A20002146641C083042540838827E2146641CAA
:104A3000083042540838C27E2146641C0830425473
:104A40000838427D2146641C083042540838827D73
:104A50002146641C083042540838C27D2146641C3B
:104A6000083042544C4802782146641C49480830BA
:104A700042540838427E2046611CCCB24549083178
:104A80000A5444488471FFF76DF980E04148007D85
:104A9000012835DA00243F48457100203D49C8719E
:104AA0000846027D2146641C083042540838827E44
:104AB0002146641C083042540838C27E2146641CDA
:104AC000083042540838427D2146641C0830425464
:104AD0000838827D2146641C083042540838827FA1
:104AE0002146641C083042540838027F2146641C69
:104AF000083042540838847100E002E0FFF732F9D0
:104B000045E03220FCF7A2F906462248007D012844
:104B10003CDC00241F48457100201E49C87106EB8B
:104B200086004006000E88770846027D2146641CF8
:104B3000083042540838827E2146641C08304254B2
:104B40000838C27E2146641C083042540838427D31
:104B50002146641C083042540838827D2146641C7A
:104B6000083042540838827F2146641C0830425481
:104B70000838027F2146641C08304254083884718A
:104B8000007D401C03490875FFF7ECF800BF00BF2B
:104B900070BD00002C0A00205400002090F8241062
:104BA00001F0010139B10168496821F40031826ADC
:104BB00011430268516090F8241001F002010229AB
:104BC00007D10168496821F48031C26A1143026843
:104BD000516090F8241001F00401042907D1016804
:104BE000496821F48021026B11430268516090F8FA
:104BF000241001F00801082907D10168496821F44F
:104C00000041426B11430268516090F8241001F09A
:104C10001001102907D10168896821F48051826B45
:104C200011430268916090F8241001F020012029BE
:104C300007D10168896821F40051C26B11430268F1
:104C4000916090F8241001F04001402913D10168CF
:104C5000496821F48011026C114302685160016CB3
:104C6000B1F5801F07D10168496821F4C001426C89
:104C700011430268516090F8241001F080018029EE
:104C800007D10168496821F40021826C1143026850
:104C90005160704738B504460020E067FDF73EF8E4
:104CA00005462068006800F0080008280CD16FF065
:104CB0007E402B4600224FF400110090204600F069
:104CC000B0FA08B1032038BD2068006800F0040085
:104CD00004280CD16FF07E402B4600224FF4800157
:104CE0000090204600F09DFA08B10320EBE7202059
:104CF0006067A06700BF002084F8700000BF00BF9D
:104D0000E1E770B50546AC6A0020A4F85A00A4F8A3
:104D100052002046FEF78AFA70BD2DE9F0410546A3
:104D2000AC6A666FA76F2068806800F080008028FA
:104D300007D1212E05D10020A4F85200204600F012
:104D400062F82068806800F04000402807D1222FD8
:104D500005D10020A4F85A00204600F033F8E06F97
:104D600040F01000E0672046FEF760FABDE8F081F1
:104D700070B50546AC6A2868006800F02000B0B93C
:104D80000020A4F85A002068006820F48070216890
:104D900008602068806820F0010021688860206831
:104DA000806820F04000216888602020A0672046AD
:104DB000FEF75CFC70BD70B50446A56A2846FEF798
:104DC00056FC70BD0168096821F490710268116099
:104DD0000168896821F001010268916020218167E2
:104DE00000210166704710B504462068006820F075
:104DF000400021680860202060670020606620462F
:104E0000FEF7A1FC10BD0168096821F0C00102682D
:104E100011602021416770472DE9F84F04460026B4
:104E2000002000908246F4492068884200D100E0CA
:104E300000BF2169A068084361690843E16940EA4D
:104E4000010920680068ED49084040EA090021682E
:104E500008602068406820F44050E16808432168F9
:104E60004860D4F81890E4492068884202D0206A4B
:104E700040EA09092068806820F4306040EA0900AF
:104E80002168886000BFDE492068884216D1DD486D
:104E9000006800F0030030B1012808D0022804D0D7
:104EA000032808D105E0012507E0022505E00425D7
:104EB00003E0082501E0102500BF54E0D249206836
:104EC000884216D1CF48006800F00C0030B10428A9
:104ED00008D0082804D00C2808D105E0002507E0F8
:104EE000022505E0042503E0082501E0102500BFA8
:104EF00039E0C6492068884216D1C248006800F0EF
:104F0000300030B1102808D0202804D0302808D133
:104F100005E0002507E0022505E0042503E008255B
:104F200001E0102500BF1EE0B3492068884219D176
:104F3000B448006800F4406048B1B0F5806F0AD012
:104F4000B0F5006F05D0B0F5406F08D105E0002541
:104F500007E0022505E0042503E0082501E010250F
:104F600000BF00E0102500BFA3492068884272D12D
:104F7000042D10D003DC3DB1022D13D108E0082D23
:104F80000DD0102D0ED10EE0FDF798FA82460DE0FF
:104F9000DFF87CA20AE0FDF7B5FA824606E04FF49E
:104FA000004A03E000BF0120009000BF00BFBAF13B
:104FB000000F0AD0606800EB4000504503D86068DD
:104FC0000003504502D2012000900FE1042D2ED0A5
:104FD00003DC3DB1022D51D118E0082D3CD0102D3D
:104FE0004CD14CE0FDF76AFA4FF48071A0FB01311F
:104FF000606840081F1841F10001D4F804C06246FF
:1050000000233846FBF7DEF806463BE0D4F804C040
:105010004FEA5C0000217F4BC71841EB0108624654
:105020000B4638464146FBF7CDF806462AE0FDF729
:1050300069FA4FF48071A0FB0130616849085F187C
:1050400040F10001D4F804C0624600233846FBF763
:10505000B9F8064616E022E0D4F804C04FEA5C0036
:1050600000214FF40003C71841EB010862460B46CC
:1050700038464146FBF7A6F8064603E000BF01208C
:10508000009000BF00BFB6F5407F05D3B6F5801F86
:1050900002D22068C660A9E001200090A6E0E06985
:1050A000B0F5004F57D1042D28D005DC4DB1012DAE
:1050B00011D0022D36D118E0082D29D0102D31D174
:1050C00031E0FDF7FBF94000616800EB5100B0FBF7
:1050D000F1F086B22AE0FDF703FA4000616800EBC8
:1050E0005100B0FBF1F086B220E04B49606801EB63
:1050F00050006168B0FBF1F086B217E0FDF702FAEC
:105100004000616800EB5100B0FBF1F086B20DE0A9
:105110004FF48031606801EB50006168B0FBF1F042
:1051200086B203E000BF0120009000BF00BF102E38
:105130000ED3B6F5803F0BD24FF6F07006EA000BA7
:10514000C6F342004BEA000B2068C0F80CB04DE0FB
:10515000012000904AE0042D26D005DC4DB1012D40
:1051600010D0022D33D116E0082D26D0102D2ED1CF
:105170002EE0FDF7A3F9616800EB5100B0FBF1F000
:1051800086B228E0FDF7ACF9616800EB5100B0FB96
:10519000F1F086B21FE01E49606801EB50006168C3
:1051A000B0FBF1F086B216E0FDF7ACF9616800EBF8
:1051B0005100B0FBF1F086B20DE04FF400416068A1
:1051C00001EB50006168B0FBF1F086B203E000BF74
:1051D0000120009000BF00BF102E05D3B6F5803F20
:1051E00002D22068C66001E0012000900020206605
:1051F0006066009800F012B800800040F369FFEF8D
:10520000003801408810024000440040004800403F
:105210000024F400000024F40048E80118BCBDE8B4
:10522000E08F2DE9F04104460D4617469846069E4C
:105230001FE0701CE8B1FCF771FDA0EB0800B04264
:1052400000D8B6B92068006820F4D07021680860E2
:105250002068806820F00100216888602020606755
:10526000A06700BF002084F8700000BF0320BDE8E5
:10527000F0812068C0692840A84201D1012000E0E7
:105280000020B842D5D00020F1E7000010B5034857
:10529000FDF7CEFF012000F00FF810BD74010020D3
:1052A00010B50348FDF7C4FF022000F005F810BD5B
:1052B000F401002000BFFEE770B50546012D33D193
:1052C00035480068C069C0F300146CB3102032493F
:1052D0000968086230480068C4692F480068848CF7
:1052E0002D48FDF71FFF2D48006844682C48406892
:1052F0004030001B2A494860012008700846C068F9
:105300004030001BC8600846C068402803D30846E8
:10531000C0684038C8602048FDF704FF402220499B
:1053200014311D48FEF742F9022D33D11D480068A3
:10533000C069C0F300146CB3022000F05BF91020C8
:1053400018490968086217480068C4691548006868
:10535000848C154800684468144840684030001B3D
:1053600012494860012008700846C0684030001BA0
:10537000C8600846C068402803D30846C068403863
:10538000C8600848FDF70CFF402208491431054861
:10539000FEF70CF970BD00007401002074020020BB
:1053A00010030020F4010020BC0200206403002050
:1053B0000FB4054B10B503A9044A029800F034F865
:1053C00010BC5DF814FB0000BD5500080000002073
:1053D00002480068C0F30220704700000CED00E0B6
:1053E00010B5002804DB0A07130E054A135406E023
:1053F0000A07140E034A00F00F031B1FD45410BDFC
:1054000000E400E018ED00E002E008C8121F08C147
:10541000002AFAD170477047002001E001C1121F35
:10542000002AFBD1704700002DE9FF4F89B09B4651
:105430000446002506E025280BD05A460B999047D4
:10544000641C6D1C20780028F5D10DB0284600F0B2
:1054500095B80027B8460122474900E0074314F8F1
:10546000013F203B02FA03F00842F7D120782E28B2
:1054700019D114F8010F47F004072A280ED06FF055
:105480002F022078A0F1300109290CD808EB8801FF
:1054900002EB410100EB0108641CF2E70A98641C6E
:1054A00050F8048B0A9020780028CED0642808D0C9
:1054B000692806D075281ED05A460B9990476D1C56
:1054C00058E00A994FF00A0901C90A91002802DA46
:1054D00040422D2102E0390504D52B218DF8201002
:1054E000012103E0F90704D02021F7E78A4608AE3E
:1054F0000DE00021FAE70A994FF00A0901C90A9163
:10550000F7E74946FBF789F8303106F8011D002816
:10551000F7D1ADEB060000F12009780701D44FF078
:105520000108C84502DDA8EB090000E00020804624
:10553000002706E008A85A46C05D0B9990476D1CED
:105540007F1C5745F6DB04E030205A460B99904704
:105550006D1CB8F10001A8F10108F5DC05E016F8B2
:10556000010B5A460B9990476D1CB9F10001A9F146
:105570000109F4DC641C65E70928010030BCBDE8C2
:10558000C08F000031B56C460123224619460448FD
:10559000FEF70AFF08B1002038BD0120FCE700003B
:1055A0000038004082B0CDE9000121F000400190B8
:1055B0009DED000B02B051EC100B704738B504465E
:1055C0000D46E0B2009001231A4669460248FEF7F4
:1055D0004FF8204638BD000074010020044890F8C0
:1055E000A80508B927207047014890F8A805FAE7F0
:1055F000CC03002010B5044624B1012C09D0022CA4
:1056000013D10CE000224FF400410948FCF781FB64
:105610000BE00122D1030648FCF77BFB05E04FF4C9
:1056200000410348FCF76EFB00BF00BF10BD000047
:1056300000100048FCF784FBFFF7A6F8FEF7D0F94E
:10564000FEF7ACF9FEF772FAFEF7BAFAFEF798FA2F
:10565000FEF762F900F030F8002220211248FCF732
:1056600058FBFFF7A5F9FEF7F7FAFCF757FB0F49D0
:105670000860FCF753FB0E490860FEF767F812E07C
:10568000FCF74CFB0A490968401AB0F5FA6F08D3D9
:10569000FCF744FB0649086006480068401D0549C0
:1056A000086000F06BFAEBE70008004804000020F7
:1056B000080000200C000020AB200C490870487046
:1056C0000120887004210948C17003210171002064
:1056D0000649887601210548C176022003494875AC
:1056E0008875032008770020C87770472C0A0020AF
:1056F00031B52DED028B9DF80800922803DB9DF853
:1057000008009F2803DD0020BDEC028B38BD9FED13
:10571000390AB0EE408A9DF8080092380E284ED221
:10572000DFE800F0070C11161B20252A2F34393E24
:1057300043489FED310AB0EE408A40E09FED2F0ACA
:10574000B0EE408A3BE09FED2E0AB0EE408A36E094
:105750009FED2C0AB0EE408A31E09FED2B0AB0EEAF
:10576000408A2CE0B3EE020AB0EE408A27E0B2EEA7
:10577000020AB0EE408A22E0B1EE020AB0EE408AA0
:105780001DE09FED220AB0EE408A18E09FED200A4E
:10579000B0EE408A13E09FED1F0AB0EE408A0EE0A3
:1057A0009FED1D0AB0EE408A09E09FED1C0AB0EEA5
:1057B000408A04E09FED1A0AB0EE408A00BF00BFA5
:1057C000184890ED020AB4EEC80AF1EE10FA01D2C0
:1057D000002099E702AC012322460B211248FEF774
:1057E000E3FD08B100208FE70E4880ED018A00BF7D
:1057F000012089E700007A44000016440000964327
:105800000000164300009642000014423333134058
:105810009A99993F9A99193F9A99993E9A99193E5E
:105820009A99993D34000020003800401CB5044688
:10583000B4F5803F01DA002C01DA00201CBDB4F57C
:10584000C87F02DD4FF4C87402E01E2C00DA1E246B
:1058500020128DF80000E0B28DF801009DF80000E4
:105860008DF802009DF801008DF803009DF80000FE
:105870008DF804009DF801008DF8050006236A46A6
:1058800004210448FEF790FD08B10020D6E701206E
:10589000D4E700000038004070B504460D460026ED
:1058A000022C12D10A48007801280BD100200849A7
:1058B00008702846FDF76CFF06460EB1304670BDF5
:1058C0000020FCE70020024908703046F7E700009E
:1058D0006403002010B52DED028B9B4890ED680A03
:1058E000D0ED690AB4EEE00AF1EE10FA09DD90EDB0
:1058F000680AD0ED690A30EE600A944880ED000A2B
:1059000009E0914890ED690AD0ED680A30EE600A2E
:105910008E4880ED000A8D4890ED000A8C48D0ED4D
:10592000000AB4EEE00AF1EE10FA05DB0120894925
:1059300081F8AA0500246FE0864890F8AA0501289E
:1059400069D1824890ED000A8348D0ED000AB4EE98
:10595000E00AF1EE10FA5FD8FCF7E0F97D49C1F8F2
:10596000B0050846D0F8B005D1F8AC15401A794911
:10597000C1F8B4050846D0F8B405784909688842EA
:105980002FD30020734981F8AA05084690F8B8057E
:1059900060B1002081F8B80581F8A9057049087048
:1059A000704908706B4981F8BC050EE00120694917
:1059B00081F8A905084690F8B80530B90846B0F84E
:1059C000BA05401C00B2A1F8BA05FCF7A7F9614975
:1059D000C1F8AC050846D0F8AC056349086001245D
:1059E0001AE05C48D0F8B405B0F57A7F14D30020F3
:1059F000584981F8AA05084690F8B80520B9012051
:105A000081F8B80581F8A905FCF788F95149C1F872
:105A1000AC05012400E000244E4890F8A9050128B7
:105A200019D14C4890F8B805012803D1494981F8AB
:105A3000BC0510E0474890F8B80560B9454890F8B3
:105A4000BC05022807D0FCF769F948490860022024
:105A5000404981F8BC053F4890F8BC0502286ED14A
:105A6000FCF75CF941490968401A41490860084659
:105A700000683A490968884243D83D480068B0F553
:105A80007A7F3ED9334890F8A81500F5A07000EB56
:105A9000810090ED000A2F4890F8A81500F5A0604D
:105AA00000EB8100D0ED000A30EE600A314880ED55
:105AB000000A0068FAF782FD41EC180BB0EE480AC4
:105AC000F0EE680AFFF76EFD00EE100AB8EEC00AAD
:105AD0002948D0ED000AB4EEE00AF1EE10FA0DDD2F
